:100000000C9474000C9491000C9491000C942910A1
:100010000C9491000C9491000C94FE140C94EA142E
:100020000C94E7120C9491000C9491000C949100A4
:100030000C9491000C9491000C9491000C949100FC
:100040000C9491000C9491000C9491000C949100EC
:100050000C9491000C9491000C9491000C949100DC
:100060000C9491000C9491000C9491000C949100CC
:100070000C944A150C9491000C9491003F0E440E80
:10008000470E4A0E4D0E4D0E4D0E4D0E4D0E4D0EA1
:100090004D0E4D0E520E550E660E02120412061231
:1000A0000F12111213121C12ACAAA9A5A3A69C9A96
:1000B000999593968E8D8BB1B2B4B874726C6A694F
:1000C0006563665C5A595553564E4D4B4771E8E48B
:1000D000E2D1C9C5D8D4D2C9C6CC78171B1D1E2EF3
:1000E000363A272B2D35393311241FBECFEFCDBF24
:1000F000DFE3DEBF1CE3A0E0BCE3EAE0FCE202C019
:1001000005900D92A430B107D9F72DE3A4E0BCE32C
:1001100001C01D92A135B207E1F70E94D00D0C94E9
:1001200003160C9400008091083C882309F440C019
:100130008091053C8730A0F4E82FF0E0EE56F34CB8
:100140009081992339F12091A73C2F7092959F704F
:10015000291710F461E001C060E00E94F9111AC093
:100160008730C1F48091993C8823A1F09091A73CFD
:100170009F7082958F702091A93C22FD03C06091F1
:10018000633C01C061E0981710F481E001C080E099
:100190000E94BA148091053C8F5F8093053C8830A3
:1001A00039F48091A73C8F5F8093A73C1092053C67
:1001B00008950E942C12811118C08091043C8F5F19
:1001C000803118F48093043C02C01092043CE0E5B6
:1001D000FCE380819181009719F0019680839183DF
:1001E00032968CE3E236F807A1F708954091643C1B
:1001F000EFEAFCE390E021E03191307C49F03034CB
:1002000019F4813041F404C0303829F4823019F4F3
:10021000342F3223932B220F3CE3E73BF30761F7A4
:100220008093633C47FF05C08091B73C813009F45F
:1002300090689093063C08956F7146131BC04091DF
:10024000A93C222351F021E030E001C0220F8A9521
:10025000EAF7242B2093A93C089521E030E0B9016E
:1002600002C0660F771F8A95E2F7CB018095842341
:100270008093A93C08950F93CF93DF93962F9F719E
:10028000491363C0607C482F50E09091063CE09198
:10029000073C611103C021110BC02EC0603419F45A
:1002A000013051F5F8CF603839F5023029F5F3CF38
:1002B000C1E0D0E09E01082E01C0220F0A94EAF7A7
:1002C000922B9093063C6E2F70E060957095DB0149
:1002D00002C0B595A7958A95E2F7A0FF36C0DA016E
:1002E000AA0FBB1FA05BB34CCD93DC93DA01AE56D3
:1002F000B34C1C922E2B27C0C1E0D0E09E01082EEB
:1003000001C0220F0A94EAF7209592239093063CAD
:100310006E2F70E0DB0102C0B595A7958A95E2F7D4
:10032000A0FF13C0DA01AA0FBB1FA05BB34CCD9393
:10033000DC93DA01AE56B34C1C928091083C8223C8
:100340008093083C2E232093073CDF91CF910F919F
:1003500008959091B73C913069F58F7168132AC068
:100360009091063C8091073C442379F090689093EB
:10037000063C87FD1FC021E030E020935E3C3093B7
:100380005F3C1092993C806813C09F779093063C25
:1003900087FF10C021E030E020935E3C30935F3C4B
:1003A0001092993C9091083C9F779093083C8F77EE
:1003B0008093073C0895EF92FF920F931F93CF9382
:1003C000DF93C82FD62F142F4093633C8DEAE82E7D
:1003D0008CE3F82E262F4C2FF701608180E00E94DD
:1003E0001C012D2F4C2FF701618181E00E941C011F
:1003F000012F2D2F4C2FF701628180E00E943B01DD
:100400002D2F4C2FF701638181E00E943B012D2F9E
:100410004C2FF701648182E00E943B012D2F4C2F6D
:10042000F701658183E00E943B012D2F4C2FF701DE
:10043000668184E00E943B012D2F4C2FF7016781DC
:1004400085E00E943B012D2F4C2FF701608586E04F
:100450000E943B01212F4D2F6C2FF70181850E94B7
:10046000A9012D2F4C2F60919E3C83E00E941C011E
:100470002D2F4C2F6091673C82E00E941C012D2F94
:100480004C2F6091A53C86E00E941C012D2F4C2F23
:100490006091A43C87E0DF91CF911F910F91FF9075
:1004A000EF900C941C01DF92EF92FF920F931F9339
:1004B000CF93DF93182FE62E042F813049F4C0919B
:1004C000623CCC2309F459C084E0F82ED1E029C065
:1004D000823049F4C091903CCC2309F44EC048E0EE
:1004E000F42ED5E01EC0833049F4C091683CCC2383
:1004F00009F443C03CE0F32ED9E013C0843041F44A
:10050000C091A63CCC23C9F124E1F22EDDE009C064
:10051000853099F5C091A03CCC2379F19CE1F92E6E
:10052000D5E10E942512882329F0013011F001E065
:1005300001C002E0DD24D394FD1660F08C2F8D21E4
:1005400031F0402F6D2D6E218D2F0E94DB01DD0CCF
:10055000DF5FF2CF113089F48091623C84FF0DC0DF
:100560006E2D6071402F80E0DF91CF911F910F9130
:10057000FF90EF90DF900C94DB01DF91CF911F9102
:100580000F91FF90EF90DF900895962F873010F431
:100590000C94F911873021F4642F892F0C94BA142C
:1005A00008956F927F928F929F92AF92BF92CF9257
:1005B000DF92EF92FF920F931F93CF93DF931F92DF
:1005C000CDB7DEB7873051F44091633C423019F427
:1005D0006090C43C0DC06090C33C0AC0873008F0F6
:1005E00078C04091633CE82FF0E0E654F34C628021
:1005F000862E282F30E061E070E06B01082E01C0EC
:10060000CC0C0A94EAF79090063C9C20962D9F70A3
:10061000B9016E56734C5B01913041F58091BA3C43
:10062000807F77247394780E8091A93C8901000F14
:10063000111F82FD04C083FD02C080FF09C0980124
:10064000205B334C75018E010F5F1F4F482D0CC08E
:100650000E946F139801205B334C75018E010F5F70
:100660001F4F482D81112AC0672D29C0923049F4AF
:100670009091A93C92FD0DC093FD0BC091FF15C058
:1006800008C0933091F49091A93C92FD02C093FF71
:100690000CC0F5011082C0949091083CC922C09210
:1006A000083C60E00E94C50214C0220F331F205B8B
:1006B000334C75018E010F5F1F4F482D662D892D1C
:1006C0000E945404F50180838091083CC82AC0929E
:1006D000083C0F90DF91CF911F910F91FF90EF9009
:1006E000DF90CF90BF90AF909F908F907F906F9052
:1006F0000895AF92BF92CF92DF92EF92FF920F9345
:100700001F93CF93DF93E82EF12CC1E0D0E0082EA9
:1007100001C0CC0F0A94EAF7873029F49091B73CD6
:10072000913009F0AAC0182F670182E0C80ED11CD1
:10073000F601E355F34C5F018081982F9F719F3143
:1007400009F050C0807C19F48091063C14C00E94CE
:10075000500D082F0E942512882329F0023011F035
:1007600002E001C001E0F50190818091063C97FF15
:1007700006C0023011F48C2B0BC09C2F07C096FFD3
:1007800009C09C2F013011F48C2B02C09095892355
:100790008093063C2091063C8091073C422F4827DD
:1007A00050E0012E02C0559547950A94E2F740FFAC
:1007B00019C0F701EE0FFF1FE05BF34C41E050E082
:1007C0004083518330E0012E02C0359527950A946D
:1007D000E2F720FF02C08C2B03C09C2F9095892349
:1007E0008093073C8091063C8C2379F06091043C17
:1007F000812FDF91CF911F910F91FF90EF90DF90AC
:10080000CF90BF90AF900C94D1028091A93C82FD13
:10081000EDCF81FF0AC0F601E654F34C80818F7062
:10082000823099F0833089F4E1CF173071F460E0C1
:1008300080E0DF91CF911F910F91FF90EF90DF90BB
:10084000CF90BF90AF900C94BA14F701EE56F34CD2
:100850001082C0958091083CC823C093083C60E09A
:10086000812FDF91CF911F910F91FF90EF90DF903B
:10087000CF90BF90AF900C94F911DF91CF911F9161
:100880000F91FF90EF90DF90CF90BF90AF900895C1
:100890008091A93C881F8827881F08958091A93CD2
:1008A00086FB882780F90895EF92FF920F931F939C
:1008B000CF93DF93E901F801D701262F22952F70FE
:1008C000362F3F703130F1F4811105C01882198242
:1008D0001C9210824FC088819981009701F19695F2
:1008E000879596958795482F42954F70421738F017
:1008F00018821982982F9F609C93308355C08C93E7
:10090000308357C0343071F0353019F1363009F08A
:1009100048C08823D9F288819981009769F56F6072
:100920006C933FC0882391F2888199810097C9F127
:100930008C339105D0F08837910520F481E08083D5
:100940001C9237C0843B910580F080399140B0F310
:100950000AC0882309F4BACF88819981009709F1E8
:100960008039914028F01882198210821C921CC094
:1009700010821C9280E01DC096958795969587956C
:10098000382F32953F70321740F018821982982F15
:100990009F609C9381E0808307C08C9391E090835B
:1009A00008C018821982108230E1239FC0011124EF
:1009B0008F60DF91CF911F910F91FF90EF9008957D
:1009C0008091C83C0895CF93DF93D82FC62F6093B2
:1009D000C83C0E944804882331F080918F3CC89F16
:1009E000C0011124C92F8091003C8D1741F08D2F3B
:1009F0000E948712D093003C8FEF8093113CC1304E
:100A000029F41092C73C1092C63C63C08091C63C4A
:100A1000811113C08091A83C882379F0CC2359F030
:100A200090910A3C911104C080930A3C1092133CAF
:100A3000C093093C53C01092093CC093C63C8091BE
:100A40006B3CC81710F4C111C82F9091C73C981780
:100A500018F4C1118093C73C8091113C811139C0B9
:100A60008091103C81113AC00E94F40E90910F3C8D
:100A7000D81709F1992321F08091B93C81112EC03A
:100A800090FF03C09E7F90930F3C9091C63C809155
:100A9000C73C981720F420916D3C222341F0891720
:100AA00020F420916C3C222311F0981317C0C093BE
:100AB000C73C8C2F0FC0916090930F3C8091653C98
:100AC00081110CC080916D3C811108C01092C73C0F
:100AD00001C080E0DF91CF910C944E13DF91CF9154
:100AE00008951092103CE62FEF70EE0F11F460E0C5
:100AF0000AC0E23011F461E006C064FDEF5FF0E08F
:100B0000E159F34C60810C94E3041092103C9091F5
:100B10006B3C50916F3C30916E3C951700F553172C
:100B2000F0F4603450F4591B569FB001112456E084
:100B3000759567955A95E1F71CC0432F451B70E0EA
:100B400060547109469F9001479F300D112446E083
:100B5000359527954A95E1F7652F620F0DC09317DC
:100B600050F4391B369FB0011124660F672F661FA2
:100B7000770B690F01C0660F0C94E30491E090932A
:100B8000103C6091B83C0C94E3048091113C8823A4
:100B9000D1F081508093113C8111BBC09091C63C33
:100BA0008091C73C981720F420916D3C222349F096
:100BB000891720F420916C3C222319F09813A9C0C6
:100BC000892F0C944E1390910A3C8091133C8F5FB7
:100BD000992389F0843688F01092133C8FEF890FA7
:100BE00080930A3C811195C08091093C8093C63C5A
:100BF0001092C73C0895803118F48093133C0895F7
:100C00001092133C9091123C9F5F9093123C809104
:100C1000103C8823B1F08091C73C2091C63C8217DC
:100C200038F42091A13C921708F473C08F5F6BC019
:100C3000281708F06CC02091A13C921708F469C0F5
:100C400061C00E94F40E9091003C891709F441C0E4
:100C500090910F3C8091C63C90FF24C09091B93C8C
:100C6000911104C090916C3C992351F02091123C59
:100C7000291760F09091C73C981740F481E0890FE4
:100C80008093C73C0E944E131092123C9091C73C37
:100C90008091C63C9817E8F180910F3C8E7F80933D
:100CA0000F3C08959091C73C981740F420916C3CFC
:100CB0008091123C821768F181E009C0891738F5EC
:100CC00020916D3C8091123C821718F18FEF890FB3
:100CD0001AC08091C73C8823E1F090910F3C91604D
:100CE00090930F3C9091653C911108C090916D3CA0
:100CF000911104C01092C73C80E007C02091123CC3
:100D0000291738F081508093C73C0E944E131092EF
:100D1000123C089580910E3C817008958091723C40
:100D2000882309F441C00E94F40E9091003C89137D
:100D300035C020910C3C30910D3C2F5F3F4F283E39
:100D400093E0390728F420930C3C30930D3C089530
:100D500010920C3C10920D3C90910B3C9F5F909335
:100D60000B3C2091723C9217F8F090910E3C90FF52
:100D700002C09E7F01C0916090930E3C813011F4BF
:100D800082E003C0823019F481E08093003C8091BE
:100D9000003C0E9487128FEF8093113C10920C3C14
:100DA00010920D3C10920B3C089590E080509040C2
:100DB0000C94D6158F3F910509F010F40C94D506CC
:100DC00080E008959091021091FDFCCF90E080505A
:100DD00090400C94DE1569E083E40E94E20662E133
:100DE00084E40E94E2066BE185E40E94E20664E28C
:100DF00086E40E94E2066EE287E40E94E20667E370
:100E000088E40E94E20660E489E40E94E20669E464
:100E10008AE40E94E20662E58BE40E94E2066BE54A
:100E20008CE40E94E20664E68DE40E94E2066DE630
:100E30008EE40E94E20666E78FE40E94E20660E824
:100E400080E50E94E20669E881E50E94E20662E927
:100E500082E50E94E2066BE983E50E94E20664EA0D
:100E600084E50E94E2066DEA85E50E94E20666EBF3
:100E700086E50E94E2066FEB87E50E94E20668ECD9
:100E800088E50E94E20661ED89E50E94E2066BEDCD
:100E90008AE50E94E20664EE8BE50E94E2066DEEB2
:100EA0008CE50E94E20666EF8DE50E94E2066FEF98
:100EB0008EE50C94E2068530A8F44091623C8111E5
:100EC00003C0842F80610BC0815021E030E0B90164
:100ED00002C0660F771F8A95E2F7CB01842B8093BF
:100EE000623C0895893080F4855021E030E0A9010A
:100EF00002C0440F551F8A95E2F7CA019091903CB9
:100F0000892B8093903C08958D3080F4895021E0A6
:100F100030E0B90102C0660F771F8A95E2F7CB0176
:100F20009091683C892B8093683C0895853180F4CA
:100F30008D5021E030E0A90102C0440F551F8A9571
:100F4000E2F7CA019091A63C892B8093A63C0895B4
:100F50008D3178F4845121E030E0B90102C0660F90
:100F6000771F8A95E2F7CB019091A03C892B809363
:100F7000A03C0895EF92FF920F931F93CF9380911F
:100F8000021081FDFCCF80E090E00E94D6158F3FDB
:100F900039F4CF911F910F91FF90EF900C94B70807
:100FA0000AE61CE3C0E0CF5F8C2F0E94D506F80153
:100FB00081938F01C630B9F781E190E00E94D61588
:100FC0008093A23C82E190E00E94D6158093AB3CD6
:100FD00083E190E00E94D6158093AA3C8BE190E0DB
:100FE0000E94D6158093C53C8DE190E00E94D615F5
:100FF0008093913C03E71CE3C3E48C2F0E94D50649
:10100000F80181938F01CF5FCF35B9F78DEAE82ED4
:101010008CE3F82E0AEB1CE3C1E28C2F0E94D5066C
:10102000F70181937F018F710E945B078FE48C0F22
:101030000E94D506F80181938F01CF5FCC3269F70A
:101040008CE290E00E94D615C82F80939E3C8DE2E2
:1010500090E00E94D6158093673C8C2F8F710E9480
:101060005B078091673C8F710E945B0783E890E08B
:101070000E94D61580938F3C8FE290E00E94D61597
:101080008093713C82E390E00E94D6158093643C8B
:1010900083E390E00E94D6158093A53C8F710E9457
:1010A0005B0784E390E00E94D6158093723C85E351
:1010B00090E00E94D6158093B93C86E390E00E94B0
:1010C000D6158093653C87E30E94D50680939B3CB0
:1010D00088E30E94D50680939C3C89E30E94D50654
:1010E00080939D3C8AE890E00E94D6158093A33CB3
:1010F0008AE390E00E94D6158093B83C8BE390E0A1
:101100000E94D6158093A13C8CE390E00E94D615F6
:101110008093663C8DE390E00E94D6158093AC3CB2
:101120008EE390E00E94D61580939F3C8FE390E081
:101130000E94D6158093A43C8F710E945B0780E4C7
:1011400090E00E94D6158093703C8CE890E00E945D
:10115000D6158093A83C84EF90E00E94D61580932A
:10116000693CCF911F910F91FF90EF90089563E03C
:1011700081E00E94E20660E082E00E94E20660E018
:1011800083E00E94E20660E084E00E94E2066FEFE6
:1011900085E00E94E2066FE786E00E94E20661E0D9
:1011A00087E00E94E2066DE088E00E94E20660ECC3
:1011B00081E10E94E20660E082E10E94E20660E0D6
:1011C00083E10E94E20663E08BE10E94E2066EE0AA
:1011D0008DE10E94E20664E081E20E94E20667E09F
:1011E00082E20E94E20660E483E20E94E20661E895
:1011F00084E20E94E20661E885E20E94E20660E87D
:1012000086E20E94E20661E487E20E94E20661E46F
:1012100088E20E94E20663E089E20E94E20660E062
:101220008AE20E94E20660E08BE20E94E2066EE340
:101230008CE20E94E2066EE38DE20E94E2066FE419
:101240008FE20E94E20669EC82E30E94E2066FEF01
:1012500083E30E94E20660E084E30E94E2066AE023
:1012600085E30E94E20663E086E30E94E2066EE107
:1012700087E30E94E2066AE088E30E94E20668E2F1
:1012800089E30E94E2066FE78AE30E94E20663E0D8
:101290008BE30E94E20663E88CE30E94E2066FE5BE
:1012A0008DE30E94E20660EC8EE30E94E20667E0B6
:1012B0008FE30E94E20661E080E40E94E20660E4BF
:1012C00080E70E94E20661EF82E70E94E20663EF98
:1012D00083E70E94E20662EF84E70E94E20661EF84
:1012E00085E70E94E20663EF86E70E94E20662EF6E
:1012F00087E70E94E20664EF88E70E94E20661EF5A
:1013000089E70E94E20662EF8AE70E94E2066FE345
:1013100083E80E94E20664E68AE80E94E20660E052
:101320008CE80E94E20660E084EF0E94E2060E94E0
:10133000EB0660E080E00E94E2060C94BA070F938F
:101340001F93CF93DF93EC01162F8F3F910511F080
:1013500008F011C18F50823058F08FE090E00E9469
:10136000D615082F80E190E00E94D615081303C11E
:10137000C533D10509F4D2C008F058C0CD31D1052C
:1013800009F4B7C040F5C830D10509F49DC060F438
:10139000C130D10508F4E7C0C730D10508F0EBC073
:1013A000FE01E759F34CC0C0C231D10509F49BC01E
:1013B00038F4C131D10509F0D6C01093A23CD3C096
:1013C000C331D10509F492C0CB31D10509F0CBC0AE
:1013D0001093C53CC8C0CD32D10509F496C078F44D
:1013E000C132D10508F4BFC0812F8F71CC32D10535
:1013F00008F086C0FE01E457F34C108383C0C2336B
:10140000D10509F485C038F4CF32D10509F0ABC05D
:101410001093713CA8C0C333D10509F47CC0C43318
:10142000D10509F0A0C01093723C9DC0CF33D10507
:1014300009F488C0E8F4CA33D10509F477C038F458
:10144000C633D10509F06DC01093653C8CC0CC3318
:10145000D10509F471C008F46CC0CD33D10509F48D
:101460006EC0CE33D10509F07EC010939F3C7BC087
:10147000CB37D10590F4C037D10508F06BC0C0342C
:10148000D10509F464C0CE01835491094C9708F04A
:101490006AC0FE01E05DF34C47C0CA38D10509F4CB
:1014A0005DC038F4C338D10509F05DC010938F3C9E
:1014B0005AC0CC38D10509F454C0C43FD10509F055
:1014C00052C01093693C4FC01D3019F0183009F01C
:1014D00052C06FEF80E00E94E206DF91CF911F9132
:1014E0000F910C94B7081093AB3C3DC01093AA3CED
:1014F0003AC08091703C80FD18601093913C33C0DD
:1015000010939E3C0E945B072EC01093673C1CC04A
:101510001093643C28C01093A53C25C01093B93C9F
:1015200022C0FE01EC59F34C10831DC01093B83C4F
:101530001AC01093A13C17C01093663C14C01093BE
:10154000AC3C11C01093A43C812F8F71DBCF109362
:10155000703C09C0FE01E65BF34CE6CF1093A33C60
:1015600002C01093A83C612F8C2FDF91CF911F9167
:101570000F910C94E206DF91CF911F910F91089586
:10158000FF920F931F93CF93DF938C01F62E862F3C
:101590008770C1E0D0E001C0CC0F8A95EAF7C8019E
:1015A0000E94DA06F3FE03C06C2F682B03C0C095BF
:1015B0006C2F6823C801DF91CF911F910F91FF908D
:1015C0000C949F0981E08093153C8093163C0E9407
:1015D0002F1281E00C94B4121092C93C0895CF935D
:1015E000FB0120818091CB3C28135DC0C18180919B
:1015F000CC3CC81358C092818091CD3C981353C005
:1016000022FD1CC08091143C90E00197880F991F27
:10161000880F991F322F3370830F911D019623FF7E
:1016200006C06C2F0E949F098091C93C2CC00E946B
:10163000DA06C81342C08091C93C2FC0822F877040
:10164000853081F028F48430C1F58DE190E012C03E
:10165000863029F0873089F588E090E00BC087E07C
:1016600090E008C08091C93C80FD27C0C093143C25
:10167000816014C023FF09C06C2F0E949F098091D4
:10168000C93C82FD1AC0846009C00E94DA06C813F2
:1016900014C08091C93C81FD10C082608093C93C18
:1016A000CF910C94E20A2093CB3C81818093CC3C77
:1016B00082818093CD3C1092163CCF910895CF93B8
:1016C000FB0120818091CB3C281329C0818190911E
:1016D000CC3C891324C0C2819091CD3CC9131FC05A
:1016E00033819091CE3C39131AC09091163C9111E0
:1016F00023C0322F337090E0830F911D01962C7020
:10170000243031F02C30C1F46C2F0E949F0904C0AA
:101710000E94DA06C81310C0CF910C94E20A2093FD
:10172000CB3C81818093CC3C82818093CD3C838172
:101730008093CE3C1092163CCF9108958091153C39
:10174000882389F08F5F8D3018F48093153C0895BD
:101750001092153C81E08093163C82E00E942F128B
:1017600082E00C94B412089580911A3C882329F0E9
:10177000815080931A3C0C949E0B0895EF92FF9237
:101780001F93CF93DF93FB0190818330E9F4911194
:1017900010C02181211118C02281211115C08EE1B4
:1017A00080931A3CDF91CF911F91FF90EF900C94A2
:1017B000EC0A9F3F49F42181211106C022812F3F6D
:1017C00019F410921A3C36C13091AA3C332341F0EF
:1017D00097FD06C09181907E903E11F03093193CA8
:1017E0003091193C9081332339F0992309F422C1B7
:1017F0009F7793131FC11FC097FD09C02091913C93
:1018000025FD05C020916A3C921314C114C0292FF4
:10181000207C203C09F00EC12091913C25FF0AC19B
:101820002091A23C921306C121819091AB3C2913D7
:1018300001C122E001C021E030E0EF01C20FD31F5F
:101840006881962F907E903809F47DC050F4AF01E6
:10185000903409F44AC0903609F447C0903259F0E8
:10186000E9C0903C09F48FC0903E09F49BC0903AC7
:1018700009F0E0C073C090E0F90133968E179F071E
:1018800009F0D8C06F716F3109F0D4C02F5F3F4F9E
:10189000FA01E20FF31FC081CF778FEF8093023CF4
:1018A00090818091913C97FF04C080FF04C082E04A
:1018B00003C080FFFCCF81E08093183C0E948A0621
:1018C000882349F08091183C813011F482E001C0F6
:1018D00081E08093183C6C2F8091183CDF91CF9170
:1018E0001F91FF90EF900C94850590E02E5F3F4F85
:1018F0008217930709F09EC08FEF8093013C80917F
:10190000913C65FF04C080FF04C082E003C080FFFB
:10191000FCCF81E08093183C0E948A06882349F01E
:101920008091183C813011F482E001C081E0809305
:10193000183C68818091183CDF91CF911F91FF90F6
:10194000EF900C94710590E02E5F3F4F8217930744
:1019500009F070C04091183C81E00CC090E02E5F0F
:101960003F4F8217930709F065C04091183C64FF10
:1019700008C082E0DF91CF911F91FF90EF900C940F
:10198000530283E0F7CF6E3D29F44091183C698102
:1019900084E0F0CF6F3D09F04DC04091183C698163
:1019A00085E0E8CFE3EDFCE37E0186ED9CE39E015C
:1019B0002F5F3F4FAE014E5F5F4F61E01191D70146
:1019C0007D917D01171769F078817093D33CD9011F
:1019D0007C917093D43CDA017C917093D53C6093F8
:1019E000173C8E179F0751F71092173C988193FF71
:1019F00021C0892F8370298192FF0EC090E0982F1B
:101A00008827820F911D6A810196DF91CF911F91E6
:101A1000FF90EF900C949F0990E0982F8827820FF9
:101A2000911D6A810196DF91CF911F91FF90EF90F8
:101A30000C94C00ADF91CF911F91FF90EF90089511
:101A4000823069F190911A3C992339F1FB01908120
:101A50009077903711F59EE190931A3C833019F0FE
:101A60008430C1F00895FB018081811107C081811C
:101A700081110DC0828181110AC008958F3F39F410
:101A8000FB018181811103C082818F3F41F083E09E
:101A90000C94EF0A84E00C945F0B0C94BE0B089539
:101AA0008091183C089581E090911A3C911101C0F9
:101AB00080E00895803430F4E82FF0E0E855FF4FDF
:101AC0008491089580E00895CF93DF93C62F880F07
:101AD000880F962F9295969596959370890F0E94F0
:101AE0005A0DD82F8C2F8F730E945A0DC82F8D2F0F
:101AF0000E9492158C2FDF91CF910C949215CF9369
:101B0000C091693CC13079F40E947E139695879507
:101B100020911B3C21111BC0692F81E00E94640DA4
:101B2000C0931B3C3BC0C23041F40E94B6142091CC
:101B30001B3C21110CC0692F23C0C33051F480918C
:101B40001B3C811102C060E01BC00E94E004682FB2
:101B500020C09091913C93FF21C08091AA3C8111BB
:101B60001DC080911B3C95FD05C0882361F36091E9
:101B70006A3C0FC081110BC06091A23C6F7360582A
:101B800081E00E94640D81E080931B3C07C060915E
:101B9000AB3C82E00E94640D10921B3CCF910895F3
:101BA000CF93DF93CDB7DEB7E197CDBFDEBF0E9405
:101BB000380F0E9412150E9442120E94E1110E94E9
:101BC00096100E947F150E94860E0E94BA070E94FE
:101BD000470F7894E12C10E000E0F12C0E944C0FAC
:101BE000BE016F5F7F4FCE01C1960E94A61089A9EA
:101BF000882331F0BE016F5F7F4F0E94200D19AA2C
:101C00000E94530D882339F00E943415882331F344
:101C10000E94B40BE3CF0E9454108150823020F414
:101C20000E949A0E0E94C70E0E94D61181110E9436
:101C30007F0D0E943F15882321F00E9433140E94DB
:101C400093000E943415882359F0111101C011E04E
:101C5000E3948AE0E81207C00E947213E12C03C0EB
:101C6000112309F4BBCF812F90E0FC013197EF30B5
:101C7000F10508F045C0E25CFF4F0C94D0150E94BE
:101C80007E100E94FD0E3CC00E948E0639C00E944C
:101C9000C50536C00E94D90033C08BEF810F0E946A
:101CA00079032EC00E94B40B2BC08091913C82FF1F
:101CB00027C00E948C10882319F10E94350F0E94C2
:101CC000BE050E94350F0E94F6001AC08091713C3B
:101CD00087FF16C0F39499E09F1510F40F5FF12C65
:101CE000402F50E0282F2F7330E04217530744F065
:101CF00086FF02C08BE001C08CE00E94231300E04D
:101D00001F5F103108F46ACF10E068CFA0E0B4E0A4
:101D100080E212968C931297E0E4F4E084E08283F0
:101D200055968C915597886055968C9382898860DA
:101D3000828B08958091080485FF06C08091223C23
:101D40008F5F8093223C05C08091213C8F5F809300
:101D5000213C80911E3C8F5F8A3F18F480931E3C8B
:101D6000089510921E3C9091C53C80911C3C90FFC0
:101D700006C09091213C9A3010F4816001C08E7FA2
:101D800080931C3C1092223C1092213C089580913B
:101D9000480482FF06C08091203C8F5F8093203CE6
:101DA00005C080911F3C8F5F80931F3C80911D3C3C
:101DB0008F5F8A3F18F480931D3C089510921D3C5C
:101DC0009091C53C80911C3C91FF06C090911F3CB6
:101DD0009A3010F4826001C08D7F80931C3C109279
:101DE000203C10921F3C08950E944E04811103C0B4
:101DF00080911C3C089580E00895909108048091A2
:101E0000243C92FF11C09091080494FD1DC0909154
:101E1000233C992319F091509093233C8E31A0F4E8
:101E20008E5F8093243C10C09091080494FF0CC0F6
:101E3000882319F081508093243C8091233C8E317B
:101E400018F48E5F8093233C8091243C803110F005
:101E500081E005C08091233C803120F082E08093B6
:101E6000253C08951092253C08958091253C0895C5
:101E700061E081E690E00E94FD1564E080E890E07A
:101E80000E94FD1560E081E890E00C94FD1566E08D
:101E900080E091E00C94FD15A89508958091263C72
:101EA00090910804982792FF0BC09091080492FF2C
:101EB00002C0846001C08B7F8093263C81E001C01A
:101EC00080E09091263C20910804292724FF0AC035
:101ED00082602091080424FF02C0906101C09F7EAF
:101EE0009093263C089580FF5AC02091263C909103
:101EF0003A3C22FF42C090FD3BC0916090933A3C37
:101F000020914A0A30914B0A4091383C5091393C1B
:101F10004217530728F420914A0A30914B0A05C012
:101F200020914A0A30914B0A3053241B350B2093E1
:101F3000363C3093373C90912C3C916090932C3CF4
:101F400020914A0A30914B0A29333F4C38F02091B6
:101F50004A0A30914B0A28533F4C06C020914A0A46
:101F600030914B0A28533F4F2093D63C3093D73CB7
:101F70001092333C10922B3C12C090FF10C09E7FF9
:101F800090933A3C20914A0A30914B0A2093383C76
:101F90003093393C90912C3C9E7F90932C3C8370E5
:101FA000B9F19091263C80913A3C94FF27C081FD85
:101FB00020C0826080933A3C80912C3C8260809368
:101FC0002C3C80914A0A90914B0A89339F4C38F0FF
:101FD00080914A0A90914B0A88539F4C06C0809189
:101FE0004A0A90914B0A88539F4F8093FA3C9093F2
:101FF000FB3C1092333C10922B3C0AC081FF08C07E
:102000008D7F80933A3C80912C3C8D7F80932C3C3B
:102010008091080482FD14C08091080484FD10C0E2
:1020200080912B3C811114C080914A0A90914B0AF7
:102030008093293C90932A3C81E080932B3C089527
:102040001092333C10922B3C1092293C10922A3C67
:1020500008951F920F920FB60F9211242F933F9362
:102060004F935F936F937F938F939F93AF93BF93A0
:10207000EF93FF93E0E0F4E08185846181870E9423
:102080004E0F0E94730FFF91EF91BF91AF919F91FF
:102090008F917F916F915F914F913F912F910F9011
:1020A0000FBE0F901F90189590912C3C90FF10C080
:1020B00040914A0A50914B0A2091D63C3091D73C2E
:1020C0002417350728F49E7F90932C3C81E00895D7
:1020D000892F827091FF11C040914A0A50914B0A9A
:1020E0002091FA3C3091FB3C2417350728F49D7F62
:1020F00090932C3C82E0089580E0089580912D3CDF
:1021000090912E3C803223E0920728F40196809330
:102110002D3C90932E3C089581E020912D3C3091F0
:102120002E3C2032334008F480E00895E0E0F4E0F3
:1021300084E1828381E0828B848BE0E4FAE083E0B7
:1021400080838FEF9FEC848795870895FC018091B1
:10215000913C83FF8DC04091333C4423E1F1809159
:10216000080482FD04C08091080484FF09C0109215
:10217000333C10922B3C1092293C10922A3C78C0A0
:1021800020914A0A30914B0A8091313C9091323C27
:102190008217930728F420914A0A30914B0A05C010
:1021A00020914A0A30914B0A3053281B390B413099
:1021B00009F05EC08091273C9091283C2817390790
:1021C00008F456C080912F3C816080932F3C82E0C0
:1021D0008093333C4DC080912B3C8823B1F180919A
:1021E000080482FDC4CF8091080484FDC0CF2091F3
:1021F0004A0A30914B0A8091293C90912A3C8217DF
:10220000930728F420914A0A30914B0A05C0209187
:102210004A0A30914B0A3053281B390B23383105B9
:1022200038F181E08093333C80914A0A90914B0AC7
:102230008093313C9093323C8CE390E08093273C38
:102240009093283C10922B3C08958091080482FDC5
:102250000FC08091080484FD0BC080914A0A9091C0
:102260004B0A8093293C90932A3C81E080932B3C3D
:102270008091363C9091373C009739F42091343C62
:102280003091353C232B09F490C01092363C1092CB
:10229000373C1092343C1092353C9C012D5D310945
:1022A000253E310588F481E08093FC3C8091303CF0
:1022B0008F5F8093303CA091FD3CB0E0A652B34CC0
:1022C0008C91880F8F5F21C0855F91408B35914C39
:1022D00008F06BC01092FC3C8091303C8E3060F076
:1022E00081E080931E3D1092DA3C1092FD3C1092EA
:1022F0001F3D1092303C08951092303CA091FD3C5F
:10230000B0E0A652B34C8C91880F8C938091FD3C29
:10231000803208F04AC080911E3D81111BC080911F
:10232000FC3C8130B9F480911F3D811113C01082B3
:1023300080819091FD3C891770F490E0DC01A652F9
:10234000B34C2C91DB01A80FB91F2C9380818F5FB8
:102350008083EECF108280911E3D8F5F80931E3D63
:10236000893019F510922D3C10922E3CE091FD3CE5
:10237000E11107C08091DA3C8F3F19F48093FD3C56
:102380000895AE2FB0E0A652B34C90911F3D8C91B2
:10239000892780931F3DEF5FE093FD3CF0E0E6521C
:1023A000F34C108210921E3D0895089590912F3C99
:1023B000892F817090FF04C09E7F90932F3C81E015
:1023C0000895E0E0F4E0818188688183E0E2F4E050
:1023D000818188638183A0E4B4E011968C91119788
:1023E000836011968C9381818D7F818388E0818BBE
:1023F000089590E08730910538F5FC01E35BFF4FCD
:102400000C94D01588E003C082E00EC080E86623FB
:1024100019F080930504089580930604089588E0D8
:102420000CC080E20AC081E0662319F08093450465
:10243000089580934604089580E1662319F08093FF
:102440002504089580932604089580912804869594
:10245000817091E08927089580913B3C0895CF9346
:10246000813019F480933B3C02C010923B3CC0E0A9
:1024700060913B3C8C2F0E94F911CF5FC730C1F7B0
:10248000CF910895E0E0F4E08281826082838181CF
:1024900080648183A0E2B4E011968C9111978160F1
:1024A00011968C93A0E4B4E011968C9111978860FA
:1024B00011968C93119786818064868316968C91F1
:1024C0001697886016968C93A0E0BAE091E09C93F2
:1024D00083E111968C9311972FEF30E096962D9310
:1024E0003C93979798961D921C929997858180644A
:1024F000858380E38093A000E0E0F6E085E08083C0
:10250000918384E4828380E283831482089590918E
:102510004C3C911128C09091B73C913021F1813011
:1025200059F48091460488608093460480910504A4
:102530008064809305040895823059F480910604E4
:1025400080648093060480914504886080934504EC
:102550000895809106048064809306048091460467
:102560008860809346040895813071F493E09093DD
:10257000010A98E09093460490E4909305048093B8
:10258000250480934C3C089588E08093460480E4C1
:102590008093060481E08093260483E18093010AFE
:1025A00010924C3C08959091B73C913079F0813075
:1025B00059F0823011F483E007C08C3011F48DE0C3
:1025C00003C08B3019F48FE08093000A08951F92A6
:1025D0000F920FB60F9211242F933F934F935F9357
:1025E0006F937F938F939F93AF93BF93EF93FF93DB
:1025F00080910B0A816080930B0A80914B3C882369
:1026000089F0813051F40E94D31210924B3C80919A
:102610000A0A8E7F80930A0A05C00E94D31281E0C5
:1026200080934B3CFF91EF91BF91AF919F918F9120
:102630007F916F915F914F913F912F910F900FBEBE
:102640000F901F90189590914C3C91110BC0909158
:10265000B73C913039F080934B3C80910A0A8160FD
:1026600080930A0A08959091453C60919F3C96178B
:1026700098F42091AC3C30E04FEF50E0421B530BFC
:10268000949FF001959FF00D112470E0CF010E94FE
:10269000BC15862F820F08958FEF0895CF939091E8
:1026A000B73C913019F48093453C17C09091453C5C
:1026B000891799F0C82F8093473C8093453C0E942E
:1026C0003313682F8093483C2FEFC29FC001112421
:1026D00070E00E94A8156093443CCF9108958091CA
:1026E000453C08958091663C87FF07C08091433C3C
:1026F000811103C081E08093433C08958091403C68
:102700009091413C08958F929F92AF92BF92CF9249
:10271000DF92EF92FF920F931F93CF93DF9340913D
:10272000473C411103C01092463C90C0A0909B3C96
:10273000B12CC0909C3CD12CE0909D3CF12C209180
:10274000403C3091413C369527955FEF529FC00148
:10275000539F900D11246091A33C70E00E94A81536
:10276000242F30E0CB016F3F710519F014F08FEF8B
:1027700090E08901081B190BEAE0F0E0C801BF01F5
:102780000E94BC1580913E3C90913F3CEB01C80FEC
:10279000D91FC0933E3CD0933F3C80913C3C9091EC
:1027A0003D3CB801681B790BCB0164E670E00E94E8
:1027B000BC154B0100933C3C10933D3CA09EC001D6
:1027C000A19E900DB09E900D1124BF010E94BC15DA
:1027D0008B01CC9EC001CD9E900DDC9E900D1124EE
:1027E000BF010E94BC15E801C60FD71FE89CC001BD
:1027F000E99C900DF89C900D1124BF010E94BC151E
:102800006C0F7D1F6F3F710529F024F08FEF8093CF
:10281000463C07C077FF03C01092463C02C060935D
:10282000463C5091463C852F90E0451738F4821B7A
:10283000930B813A910554F0405606C0281B390B82
:10284000213A31051CF0405A4093463CDF91CF912C
:102850001F910F91FF90EF90DF90CF90BF90AF90BE
:102860009F908F9008958091B73C813009F47DC08E
:1028700080914C3C811179C08091433C8823C9F1FF
:102880008436E8F4813059F48091280A9091290A1D
:102890008093423C1092280A1092290A0AC08A307A
:1028A00041F481E0809306068093080684E68093D5
:1028B000433C8091433C8F5F8093433C0895853631
:1028C00009F053C08091080680FD4FC0809110062A
:1028D000909111068093403C9093413C1092433C70
:1028E0008091423C90E08093280A9093290A0C94AE
:1028F00083139091663C892F8F7729F497FD2BC025
:102900008091453C2DC0833051F480914A3C109217
:102910004A3C8F3F09F408958091493C06C080915C
:10292000493C91FF02C08E5F01C08F5F8093493C9C
:102930002091483C8091493C281758F41092280A6D
:102940001092290A8EEF90E08093200A9093210A3A
:10295000089597FF03C08091463C02C08091443C9B
:1029600090E08093280A9093290A08958091463C2C
:1029700090E008959091B73C913059F593E0909391
:10298000010A613059F4909146049860909346048E
:102990009091050490649093050412C090910604F0
:1029A000906490930604623031F4909145049860ED
:1029B0009093450405C09091460498609093460416
:1029C000882321F081E080932504089581E080939D
:1029D000260408951F920F920FB60F9211248F9321
:1029E00080914D3C816080934D3C81E08093530108
:1029F0008F910F900FBE0F901F9018951F920F92FE
:102A00000FB60F9211248F9383E08093430180913E
:102A10004D3C826080934D3C8F910F900FBE0F9084
:102A20001F901895809141018111FCCF10924C01AB
:102A300010924D0181E090E080934A0190934B0108
:102A40001092470181E8809340018091520181609A
:102A50008093520181E28093500180914201836012
:102A6000809342017894089590914D3C892F817014
:102A700090FF04C09E7F90934D3C81E0089590911B
:102A80004D3C892F827091FF04C09D7F90934D3CF7
:102A900081E008951F920F920FB60F9211248F9329
:102AA0009F93EF93FF9380910408806280930408C2
:102AB000F89480914F3CE82FF0E0EF5DF24C90816C
:102AC000909302088F5F803318F480934F3C02C0CC
:102AD00010924F3C90914F3C80914E3C981305C012
:102AE000809105088F7D809305087894FF91EF9180
:102AF0009F918F910F900FBE0F901F901895E0E25D
:102B0000F4E0818184608183858184608583E0E055
:102B1000F8E080EA90E08087918780E4868383E014
:102B20008783089590914E3CE92FF0E0EF5DF24CE1
:102B300080839F5F903318F490934E3C02C01092B4
:102B40004E3C809105088062809305087894089532
:102B5000AA1BBB1B51E107C0AA1FBB1FA617B707C3
:102B600010F0A61BB70B881F991F5A95A9F78095DF
:102B70009095BC01CD01089597FB072E16F40094A3
:102B800007D077FD09D00E94A81507FC05D03EF4B8
:102B9000909581959F4F0895709561957F4F089509
:102BA000EE0FFF1F0590F491E02D099403D0808172
:102BB00099270895FC01E050FC4E0895262F0E94AD
:102BC000DA150080021619F00E94EA1501970197A4
:102BD0000895262FAF93BF93E0E0F0E1328131FDFD
:102BE000FDCFDC01A050BC4E2C932DE924BF23E087
:102BF00020830196BF91AF910895DC0128ED2093C9
:0A2C000034006C930895F894FFCFA0
:042C0A00FFFFFF00C9
:00000001FF
