:100000000C9474000C9491000C9491000C944E107C
:100010000C9491000C9491000C9456150C9442157C
:100020000C940C130C9491000C9491000C9491007E
:100030000C9491000C9491000C9491000C949100FC
:100040000C9491000C9491000C9491000C949100EC
:100050000C9491000C9491000C9491000C949100DC
:100060000C9491000C9491000C9491000C949100CC
:100070000C94A2150C9491000C949100640E690EDE
:100080006C0E6F0E720E720E720E720E720E720E79
:10009000720E720E770E7A0E8B0E271229122B1209
:1000A0003412361238124112ACAAA9A5A3A69C9A02
:1000B000999593968E8D8BB1B2B4B874726C6A694F
:1000C0006563665C5A595553564E4D4B4771E8E48B
:1000D000E2D1C9C5D8D4D2C9C6CC78171B1D1E2EF3
:1000E000363A272B2D35393311241FBECFEFCDBF24
:1000F000DFE3DEBF1CE3A0E0BCE3EAEBFCE202C00E
:1001000005900D92A430B107D9F72DE3A4E0BCE32C
:1001100001C01D92A535B207E1F70E94EF0D0C94C6
:100120005B160C9400008091083C882309F440C0C1
:100130008091053C8730A0F4E82FF0E0EC56F34CBA
:100140009081992339F12091A73C2F7092959F704F
:10015000291710F461E001C060E00E941E121AC06D
:100160008730C1F480919B3C8823A1F09091A73CFB
:100170009F7082958F702091AE3C22FD03C06091EC
:10018000673C01C061E0981710F481E001C080E095
:100190000E9412158091053C8F5F8093053C88304A
:1001A00039F48091A73C8F5F8093A73C1092053C67
:1001B00008950E945112811118C08091043C8F5FF4
:1001C000803118F48093043C02C01092043CE4E5B2
:1001D000FCE380819181009719F0019680839183DF
:1001E00032968CE3E636F807A1F708954091683C13
:1001F000E3EBFCE390E021E03191307C49F03034D6
:1002000019F4813041F404C0303829F4823019F4F3
:10021000342F3223932B220F3CE3EB3BF30761F7A0
:100220008093673C47FF05C08091BB3C813009F457
:1002300090689093063C08956F7146131BC04091DF
:10024000AE3C222351F021E030E001C0220F8A951C
:10025000EAF7242B2093AE3C089521E030E0B90169
:1002600002C0660F771F8A95E2F7CB018095842341
:100270008093AE3C08950F93CF93DF93962F9F7199
:10028000491363C0607C482F50E09091063CE09198
:10029000073C611103C021110BC02EC0603419F45A
:1002A000013051F5F8CF603839F5023029F5F3CF38
:1002B000C1E0D0E09E01082E01C0220F0A94EAF7A7
:1002C000922B9093063C6E2F70E060957095DB0149
:1002D00002C0B595A7958A95E2F7A0FF36C0DA016E
:1002E000AA0FBB1FAC5AB34CCD93DC93DA01AC56CA
:1002F000B34C1C922E2B27C0C1E0D0E09E01082EEB
:1003000001C0220F0A94EAF7209592239093063CAD
:100310006E2F70E0DB0102C0B595A7958A95E2F7D4
:10032000A0FF13C0DA01AA0FBB1FAC5AB34CCD9388
:10033000DC93DA01AC56B34C1C928091083C8223CA
:100340008093083C2E232093073CDF91CF910F919F
:1003500008959091BB3C913069F58F7168132AC064
:100360009091063C8091073C442379F090689093EB
:10037000063C87FD1FC021E030E02093623C3093B3
:10038000633C10929B3C806813C09F779093063C1F
:1003900087FF10C021E030E02093623C3093633C43
:1003A00010929B3C9091083C9F779093083C8F77EC
:1003B0008093073C0895EF92FF920F931F93CF9382
:1003C000DF93C82FD62F142F4093673C81EBE82E84
:1003D0008CE3F82E262F4C2FF701608180E00E94DD
:1003E0001C012D2F4C2FF701618181E00E941C011F
:1003F000012F2D2F4C2FF701628180E00E943B01DD
:100400002D2F4C2FF701638181E00E943B012D2F9E
:100410004C2FF701648182E00E943B012D2F4C2F6D
:10042000F701658183E00E943B012D2F4C2FF701DE
:10043000668184E00E943B012D2F4C2FF7016781DC
:1004400085E00E943B012D2F4C2FF701608586E04F
:100450000E943B01212F4D2F6C2FF70181850E94B7
:10046000A9012D2F4C2F6091A03C83E00E941C011C
:100470002D2F4C2F60916A3C82E00E941C012D2F91
:100480004C2F6091A53C86E00E941C012D2F4C2F23
:100490006091AB3C87E0DF91CF911F910F91FF906E
:1004A000EF900C941C01DF92EF92FF920F931F9339
:1004B000CF93DF93182FE62E042F813049F4C0919B
:1004C000663CCC2309F459C084E0F82ED1E029C061
:1004D000823049F4C091923CCC2309F44EC048E0EC
:1004E000F42ED5E01EC0833049F4C0916B3CCC2380
:1004F00009F443C03CE0F32ED9E013C0843041F44A
:10050000C091A63CCC23C9F124E1F22EDDE009C064
:10051000853099F5C091A13CCC2379F19CE1F92E6D
:10052000D5E10E944A12882329F0013011F001E040
:1005300001C002E0DD24D394FD1660F08C2F8D21E4
:1005400031F0402F6D2D6E218D2F0E94DB01DD0CCF
:10055000DF5FF2CF113089F48091663C84FF0DC0DB
:100560006E2D6071402F80E0DF91CF911F910F9130
:10057000FF90EF90DF900C94DB01DF91CF911F9102
:100580000F91FF90EF90DF900895962F873010F431
:100590000C941E12873021F4642F892F0C941215AD
:1005A00008956F927F928F929F92AF92BF92CF9257
:1005B000DF92EF92FF920F931F93CF93DF931F92DF
:1005C000CDB7DEB7873051F44091673C423019F423
:1005D0006090C83C0DC06090C73C0AC0873008F0EE
:1005E00078C04091673CE82FF0E0E254F34C628021
:1005F000862E282F30E061E070E06B01082E01C0EC
:10060000CC0C0A94EAF79090063C9C20962D9F70A3
:10061000B9016C56734C5B01913041F58091BE3C41
:10062000807F77247394780E8091AE3C8901000F0F
:10063000111F82FD04C083FD02C080FF09C0980124
:100640002C5A334C75018E010F5F1F4F482D0CC083
:100650000E94941398012C5A334C75018E010F5F40
:100660001F4F482D81112AC0672D29C0923049F4AF
:100670009091AE3C92FD0DC093FD0BC091FF15C053
:1006800008C0933091F49091AE3C92FD02C093FF6C
:100690000CC0F5011082C0949091083CC922C09210
:1006A000083C60E00E94C50214C0220F331F2C5A80
:1006B000334C75018E010F5F1F4F482D662D892D1C
:1006C0000E945404F50180838091083CC82AC0929E
:1006D000083C0F90DF91CF911F910F91FF90EF9009
:1006E000DF90CF90BF90AF909F908F907F906F9052
:1006F0000895AF92BF92CF92DF92EF92FF920F9345
:100700001F93CF93DF93E82EF12CC1E0D0E0082EA9
:1007100001C0CC0F0A94EAF7873029F49091BB3CD2
:10072000913009F0AAC0182F670182E0C80ED11CD1
:10073000F601EF54F34C5F018081982F9F719F3138
:1007400009F050C0807C19F48091063C14C00E94CE
:10075000690D082F0E944A12882329F0023011F0F7
:1007600002E001C001E0F50190818091063C97FF15
:1007700006C0023011F48C2B0BC09C2F07C096FFD3
:1007800009C09C2F013011F48C2B02C09095892355
:100790008093063C2091063C8091073C422F4827DD
:1007A00050E0012E02C0559547950A94E2F740FFAC
:1007B00019C0F701EE0FFF1FEC5AF34C41E050E077
:1007C0004083518330E0012E02C0359527950A946D
:1007D000E2F720FF02C08C2B03C09C2F9095892349
:1007E0008093073C8091063C8C2379F06091043C17
:1007F000812FDF91CF911F910F91FF90EF90DF90AC
:10080000CF90BF90AF900C94D1028091AE3C82FD0E
:10081000EDCF81FF0AC0F601E254F34C80818F7066
:10082000823099F0833089F4E1CF173071F460E0C1
:1008300080E0DF91CF911F910F91FF90EF90DF90BB
:10084000CF90BF90AF900C941215F701EC56F34C7B
:100850001082C0958091083CC823C093083C60E09A
:10086000812FDF91CF911F910F91FF90EF90DF903B
:10087000CF90BF90AF900C941E12DF91CF911F913B
:100880000F91FF90EF90DF90CF90BF90AF900895C1
:100890008091AE3C881F8827881F08958091AE3CC8
:1008A00086FB882780F90895EF92FF920F931F939C
:1008B000CF93DF93982FF901D801E701862F829516
:1008C0008F70462F4F70413009F5911105C010828D
:1008D000118218821C927FC020813181211531053F
:1008E00029F1B9017695679576956795962F92953A
:1008F0009F70981738F010821182962F9F6098830E
:100900004C9384C068834C93862F85C0443089F013
:10091000453009F44EC0463009F075C09923B9F24C
:10092000408151814115510509F057C06F606883BE
:100930006AC0992361F2408151814115510509F442
:1009400062C04832510530F491E09C9318821092B5
:10095000093C15C04238510540F1443B510548F46B
:1009600091E09C93188228E0829FC0011124876047
:1009700052C0423D510548F491E09C93188224E016
:10098000829FC0011124836046C04C3791E0590713
:10099000D8F443FF0AC081E08C9318828091093C0F
:1009A0008F5F8093093C880F36C091E09C9318823A
:1009B00032C0992309F48BCF4081518141155105F3
:1009C00011F14039514028F0108211821C92188296
:1009D0001DC01C92188280E01EC056954795569502
:1009E0004795942F92959F70981740F0108211822E
:1009F000942F9F60988391E09C9308C0488381E086
:100A00008C93842F08C0108211821C9220E1829F57
:100A1000C00111248F60DF91CF911F910F91FF9042
:100A2000EF9008958091CC3C0895CF93DF93D82F19
:100A3000C62F6093CC3C0E944804882331F08091FB
:100A4000913CC89FC0011124C92F0E944A128823DB
:100A500029F0D23011F0D2E001C0D1E08091003C09
:100A6000D81741F08D2F0E94AC12D093003C8FEF2D
:100A70008093123CC13029F41092CB3C1092CA3CB6
:100A800063C08091CA3C811113C08091AD3C882322
:100A900079F0CC2359F090910B3C911104C08093D4
:100AA0000B3C1092143CC0930A3C53C010920A3C79
:100AB000C093CA3C80916E3CC81710F4C111C82F76
:100AC0009091CB3C981718F4C1118093CB3C809146
:100AD000123C811139C08091113C81113AC00E94B1
:100AE000190F9091103CD81709F1992321F08091AA
:100AF000BD3C81112EC090FF03C09E7F9093103C9F
:100B00009091CA3C8091CB3C981720F42091703C86
:100B1000222341F0891720F420916F3C222311F009
:100B2000981317C0C093CB3C8C2F0FC0916090934B
:100B3000103C8091693C81110CC08091703C811106
:100B400008C01092CB3C01C080E0DF91CF910C94A3
:100B50007313DF91CF9108951092113CE62FEF703F
:100B6000EE0F11F460E00AC0E23011F461E006C05B
:100B700064FDEF5FF0E0EF58F34C60810C941505D5
:100B80001092113C90916E3C5091723C3091713CAE
:100B9000951700F55317F0F4603450F4591B569F25
:100BA000B001112456E0759567955A95E1F71CC080
:100BB000432F451B70E060547109469F9001479F89
:100BC000300D112446E0359527954A95E1F7652FBC
:100BD000620F0DC0931750F4391B369FB0011124DA
:100BE000660F672F661F770B690F01C0660F0C94A5
:100BF000150591E09093113C6091BC3C0C94150557
:100C00008091123C8823D1F081508093123C811155
:100C1000BBC09091CA3C8091CB3C981720F42091A6
:100C2000703C222349F0891720F420916F3C222345
:100C300019F09813A9C0892F0C94731390910B3C51
:100C40008091143C8F5F992389F0843688F010924C
:100C5000143C8FEF890F80930B3C811195C08091DC
:100C60000A3C8093CA3C1092CB3C0895803118F422
:100C70008093143C08951092143C9091133C9F5F14
:100C80009093133C8091113C8823B1F08091CB3C30
:100C90002091CA3C821738F42091A23C921708F4A4
:100CA00073C08F5F6BC0281708F06CC02091A23C06
:100CB000921708F469C061C00E94190F9091003C1E
:100CC000891709F441C09091103C8091CA3C90FF73
:100CD00024C09091BD3C911104C090916F3C992328
:100CE00051F02091133C291760F09091CB3C98175C
:100CF00040F481E0890F8093CB3C0E9473131092E3
:100D0000133C9091CB3C8091CA3C9817E8F18091BC
:100D1000103C8E7F8093103C08959091CB3C9817A7
:100D200040F420916F3C8091133C821768F181E080
:100D300009C0891738F52091703C8091133C8217C7
:100D400018F18FEF890F1AC08091CB3C8823E1F016
:100D50009091103C91609093103C9091693C91115E
:100D600008C09091703C911104C01092CB3C80E07F
:100D700007C02091133C291738F081508093CB3C59
:100D80000E9473131092133C089580910F3C817060
:100D900008958091743C882309F441C00E94190F82
:100DA0009091003C891335C020910D3C30910E3C50
:100DB0002F5F3F4F283E93E0390728F420930D3CE6
:100DC00030930E3C089510920D3C10920E3C909181
:100DD0000C3C9F5F90930C3C2091743C9217F8F070
:100DE00090910F3C90FF02C09E7F01C09160909354
:100DF0000F3C813011F482E003C0823019F481E0AD
:100E00008093003C8091003C0E94AC128FEF809355
:100E1000123C10920D3C10920E3C10920C3C089526
:100E200090E0805090400C942E168F3F910509F071
:100E300010F40C94100780E008959091021091FD39
:100E4000FCCF90E0805090400C94361669E083E42B
:100E50000E941D0762E184E40E941D076BE185E4A6
:100E60000E941D0764E286E40E941D076EE287E48B
:100E70000E941D0767E388E40E941D0760E489E47F
:100E80000E941D0769E48AE40E941D0762E58BE465
:100E90000E941D076BE58CE40E941D0764E68DE44B
:100EA0000E941D076DE68EE40E941D0766E78FE431
:100EB0000E941D0760E880E50E941D0769E881E542
:100EC0000E941D0762E982E50E941D076BE983E528
:100ED0000E941D0764EA84E50E941D076DEA85E50E
:100EE0000E941D0766EB86E50E941D076FEB87E5F4
:100EF0000E941D0768EC88E50E941D0761ED89E5E9
:100F00000E941D076BED8AE50E941D0764EE8BE5CC
:100F10000E941D076DEE8CE50E941D0766EF8DE5B2
:100F20000E941D076FEF8EE50C941D078530A8F415
:100F30004091663C811103C0842F80610BC08150B9
:100F400021E030E0B90102C0660F771F8A95E2F711
:100F5000CB01842B8093663C0895893080F48550C2
:100F600021E030E0A90102C0440F551F8A95E2F745
:100F7000CA019091923C892B8093923C08958D30C8
:100F800080F4895021E030E0B90102C0660F771F7C
:100F90008A95E2F7CB0190916B3C892B80936B3C57
:100FA0000895853180F48D5021E030E0A90102C020
:100FB000440F551F8A95E2F7CA019091A63C892BF0
:100FC0008093A63C08958D3178F4845121E030E07F
:100FD000B90102C0660F771F8A95E2F7CB019091A5
:100FE000A13C892B8093A13C0895EF92FF920F932F
:100FF0001F93CF938091021081FDFCCF80E090E0A1
:101000000E942E168F3F39F4CF911F910F91FF90C0
:10101000EF900C94E2080DE61CE3C0E0CF5F8C2F4C
:101020000E941007F80181938F01C630B9F781E162
:1010300090E00E942E168093A33C82E190E00E94F3
:101040002E168093B03C83E190E00E942E16809390
:10105000AF3C8BE190E00E942E168093C93C8DE15D
:1010600090E00E942E168093933C05E71CE3C3E4B6
:101070008C2F0E941007F80181938F01CF5FCF352D
:10108000B9F781EBE82E8CE3F82E0EEB1CE3C1E2FE
:101090008C2F0E941007F70181937F018F710E94AE
:1010A00096078FE48C0F0E941007F80181938F013F
:1010B000CF5FCC3269F78CE290E00E942E16C82FE9
:1010C0008093A03C8DE290E00E942E1680936A3CB3
:1010D0008C2F8F710E94960780916A3C8F710E94BD
:1010E000960782E390E00E942E168093683C83E886
:1010F00090E00E942E168093913C8FE290E00E9437
:101100002E168093733C83E390E00E942E1680930A
:10111000A53C8F710E94960784E390E00E942E16F2
:101120008093743C85E390E00E942E168093BD3C32
:1011300086E390E00E942E168093693C87E30E942C
:10114000100780939D3C88E30E94100780939E3C8B
:1011500089E30E94100780939F3C8AE890E00E94F8
:101160002E168093A43C8AE390E00E942E16809372
:10117000BC3C8BE390E00E942E168093A23C08EAD0
:101180001CE3CCE38C2F0E941007F80181938F01A0
:10119000CF5FC134B9F78091AB3C8F710E94960745
:1011A0008CE890E00E942E168093AD3C84EF90E096
:1011B0000E942E1680936C3CCF911F910F91FF904F
:1011C000EF90089563E081E00E941D0760E082E0F7
:1011D0000E941D0760E083E00E941D0760E084E03C
:1011E0000E941D076FEF85E00E941D076FE786E0F4
:1011F0000E941D0761E087E00E941D076DE088E006
:101200000E941D0760EC81E10E941D0760E082E101
:101210000E941D0760E083E10E941D0763E08BE1EF
:101220000E941D076EE08DE10E941D0764E081E2CF
:101230000E941D0767E082E20E941D0760E483E2CE
:101240000E941D0761E884E20E941D0761E885E2B3
:101250000E941D0760E886E20E941D0761E487E2A4
:101260000E941D0761E488E20E941D0763E089E295
:101270000E941D0760E08AE20E941D0760E08BE289
:101280000E941D076EE38CE20E941D076EE38DE253
:101290000E941D0769EC82E30E941D076FE48FE244
:1012A0000E941D076FEF83E30E941D0760E084E347
:1012B0000E941D076AE085E30E941D0763E086E344
:1012C0000E941D076EE187E30E941D076AE088E324
:1012D0000E941D0768E289E30E941D076FE78AE309
:1012E0000E941D0763E08BE30E941D0763E88CE307
:1012F0000E941D076FE58DE30E941D0760EC8EE3E1
:101300000E941D0767E08FE30E941D0761E080E4F3
:101310000E941D0760E480E70E941D0761EF82E7DD
:101320000E941D0763EF83E70E941D0762EF84E7B9
:101330000E941D0761EF85E70E941D0763EF86E7A6
:101340000E941D0762EF87E70E941D0764EF88E790
:101350000E941D0761EF89E70E941D0762EF8AE77F
:101360000E941D076FE383E80E941D0764E68AE878
:101370000E941D0760E08CE80E941D0760E084EF7A
:101380000E941D070E94260760E080E00E941D0762
:101390000C94F5070F931F93CF93DF93EC01162F57
:1013A0008F3F910511F008F0FFC08F50823058F048
:1013B0008FE090E00E942E16082F80E190E00E94BE
:1013C0002E160813F1C0C533D10509F4C8C008F0C2
:1013D00058C0CD31D10509F4ADC040F5C830D105B4
:1013E00009F493C060F4C130D10508F4D5C0C7300A
:1013F000D10508F0D9C0FE01E459F34CB6C0C231A2
:10140000D10509F491C038F4C131D10509F0C4C047
:101410001093A33CC1C0C331D10509F488C0CB31BE
:10142000D10509F0B9C01093C93CB6C0CD32D10581
:1014300009F48CC078F4C132D10508F4ADC0812F15
:101440008F71CC32D10508F07CC0FE01E057F34C1F
:10145000108379C0C233D10509F47BC038F4CF3290
:10146000D10509F099C01093733C96C0C333D105E0
:1014700009F472C0C433D10509F08EC01093743CD6
:101480008BC0C034D10509F475C0B8F4CA33D10596
:1014900009F46DC038F4C633D10509F063C0109368
:1014A000693C7AC0CF33D10508F068C0CC33D10590
:1014B00008F060C01093A23C6FC0CB37D10570F428
:1014C000C037D10508F05FC0CE01835491094C9715
:1014D00008F062C0FE01EE5CF34C47C0CA38D1058B
:1014E00009F455C038F4C338D10509F055C010933C
:1014F000913C52C0CC38D10509F44CC0C43FD10551
:1015000009F04AC010936C3C47C01D3019F01830E8
:1015100009F04AC06FEF80E00E941D07DF91CF9174
:101520001F910F910C94E2081093B03C35C01093BA
:10153000AF3C32C08091AC3C80FD18601093933C6E
:101540002BC01093A03C0E94960726C010936A3CC3
:1015500017C01093683C20C01093A53C1DC0109389
:10156000BD3C1AC0FE01EA59F34C108315C010931C
:10157000BC3C12C0FE01E459F34CF7CF1093AB3CD6
:10158000812F8F71E0CFFE01E25BF34CEECF109321
:10159000A43C02C01093AD3C612F8C2FDF91CF9102
:1015A0001F910F910C941D07DF91CF911F910F9107
:1015B0000895FF920F931F93CF93DF938C01F62E24
:1015C000862F8770C1E0D0E001C0CC0F8A95EAF782
:1015D000C8010E941507F3FE03C06C2F682B03C0DF
:1015E000C0956C2F6823C801DF91CF911F910F9197
:1015F000FF900C94CA0981E08093163C8093173CBD
:101600000E94541281E00C94D9121092CD3C08959E
:10161000CF93FB0120818091CF3C28135DC0C18115
:101620008091D03CC81358C092818091D13C9813CE
:1016300053C022FD1CC08091153C90E00197880F9B
:10164000991F880F991F322F3370830F911D0196B8
:1016500023FF06C06C2F0E94CA098091CD3C2CC08C
:101660000E941507C81342C08091CD3C2FC0822F25
:101670008770853081F028F48430C1F58DE190E0E9
:1016800012C0863029F0873089F588E090E00BC0E1
:1016900087E090E008C08091CD3C80FD27C0C093DA
:1016A000153C816014C023FF09C06C2F0E94CA0939
:1016B0008091CD3C82FD1AC0846009C00E9415074C
:1016C000C81314C08091CD3C81FD10C0826080930E
:1016D000CD3CCF910C94FB0A2093CF3C8181809329
:1016E000D03C82818093D13C1092173CCF910895D9
:1016F000CF93FB0120818091CF3C281329C08181A9
:101700009091D03C891324C0C2819091D13CC913DF
:101710001FC033819091D23C39131AC09091173C6D
:10172000911123C0322F337090E0830F911D0196E9
:101730002C70243031F02C30C1F46C2F0E94CA0977
:1017400004C00E941507C81310C0CF910C94FB0A67
:101750002093CF3C81818093D03C82818093D13C87
:1017600083818093D23C1092173CCF910895809151
:10177000163C882389F08F5F8D3018F48093163CD7
:1017800008951092163C81E08093173C82E00E94FD
:10179000541282E00C94D912089580911B3C882346
:1017A00029F0815080931B3C0C94B70B0895EF9265
:1017B000FF921F93CF93DF93FB0190818330E9F475
:1017C000911110C02181211118C02281211115C051
:1017D0008EE180931B3CDF91CF911F91FF90EF90A2
:1017E0000C94050B9F3F49F42181211106C02281F1
:1017F0002F3F19F410921B3C36C13091AF3C33237C
:1018000041F097FD06C09181907E903E11F030939B
:101810001A3C30911A3C9081332339F0992309F412
:1018200022C19F7793131FC11FC097FD09C020914C
:10183000933C25FD05C020916D3C921314C114C04A
:10184000292F207C203C09F00EC12091933C25FFDC
:101850000AC12091A33C921306C121819091B03C12
:10186000291301C122E001C021E030E0EF01C20FE5
:10187000D31F6881962F907E903809F47DC050F474
:10188000AF01903409F44AC0903609F447C0903251
:1018900059F0E9C0903C09F48FC0903E09F49BC018
:1018A000903A09F0E0C073C090E0F90133968E17CA
:1018B0009F0709F0D8C06F716F3109F0D4C02F5F56
:1018C0003F4FFA01E20FF31FC081CF778FEF809374
:1018D000023C90818091933C97FF04C080FF04C03C
:1018E00082E003C080FFFCCF81E08093193C0E941E
:1018F000C506882349F08091193C813011F482E0BB
:1019000001C081E08093193C6C2F8091193CDF91DC
:10191000CF911F91FF90EF900C94C00590E02E5F47
:101920003F4F8217930709F09EC08FEF8093013CD1
:101930008091933C65FF04C080FF04C082E003C037
:1019400080FFFCCF81E08093193C0E94C50688236C
:1019500049F08091193C813011F482E001C081E0AE
:101960008093193C68818091193CDF91CF911F9140
:10197000FF90EF900C94AC0590E02E5F3F4F8217E4
:10198000930709F070C04091193C81E00CC090E0D1
:101990002E5F3F4F8217930709F065C04091193CB5
:1019A00064FF08C082E0DF91CF911F91FF90EF901C
:1019B0000C94530283E0F7CF6E3D29F44091193C1B
:1019C000698184E0F0CF6F3D09F04DC04091193C32
:1019D000698185E0E8CFE7EDFCE37E018AED9CE3D9
:1019E0009E012F5F3F4FAE014E5F5F4F61E011914F
:1019F000D7017D917D01171769F078817093D73CED
:101A0000D9017C917093D83CDA017C917093D93CD8
:101A10006093183C8E179F0751F71092183C9881DD
:101A200093FF21C0892F8370298192FF0EC090E01F
:101A3000982F8827820F911D6A810196DF91CF919F
:101A40001F91FF90EF900C94CA0990E0982F88277F
:101A5000820F911D6A810196DF91CF911F91FF90B6
:101A6000EF900C94D90ADF91CF911F91FF90EF90E6
:101A70000895823069F190911B3C992339F1FB0163
:101A800090819077903711F59EE190931B3C8330C5
:101A900019F08430C1F00895FB018081811107C0E5
:101AA000818181110DC0828181110AC008958F3F0B
:101AB00039F4FB018181811103C082818F3F41F0A4
:101AC00083E00C94080B84E00C94780B0C94D70BF7
:101AD00008958091193C089581E090911B3C9111EB
:101AE00001C080E00895803430F4E82FF0E0E8553C
:101AF000FF4F8491089580E00895CF93DF93C62F20
:101B0000880F880F962F9295969596959370890FCA
:101B10000E94730DD82F8C2F8F730E94730DC82FC6
:101B20008D2F0E94EA158C2FDF91CF910C94EA152E
:101B3000CF93C0916C3CC13079F40E94B813969554
:101B4000879520911C3C211121C0692F81E00E94C2
:101B50007D0DC0931C3C41C0C23019F40E940E158B
:101B60000FC0C33049F480911C3C811102C060E079
:101B700026C00E9412050AC0C43051F40E94A3136B
:101B800020911C3C211102C0692F19C0682F20C070
:101B90009091933C93FF21C08091AF3C81111DC077
:101BA00080911C3C95FD05C0882309F360916D3C34
:101BB0000FC081110BC06091A33C6F73605881E02E
:101BC0000E947D0D81E080931C3C07C06091B03C79
:101BD00082E00E947D0D10921C3CCF910895CF931E
:101BE000DF93CDB7DEB7E197CDBFDEBF0E945D0FBB
:101BF0000E946A150E9467120E9406120E94BB1082
:101C00000E94D7150E94AB0E0E94F5070E946C0F30
:101C1000789410E0F12C00E0E12C0E94710FBE01DD
:101C20006F5F7F4FCE01C1960E94CB1089A9882398
:101C300031F0BE016F5F7F4F0E94390D19AA0E94DB
:101C40006C0D882339F00E948C15882331F30E9493
:101C5000CD0BE3CF0E9479108150823020F40E9496
:101C6000BF0E0E94EC0E0E94FB1181110E94980D84
:101C70000E949715882321F00E946D140E94930002
:101C80000E948C15882389F0111101C011E0F39492
:101C900085E0F81203C00E9497130AC09AE0F91277
:101CA00007C00E94A813F12C03C0112309F4B5CF7B
:101CB000812F90E0FC013197EF30F10508F045C02D
:101CC000E25CFF4F0C9428160E94A3100E94220F82
:101CD0003CC00E94C90639C00E94000636C00E945E
:101CE000D90033C08BEF810F0E9479032EC00E9470
:101CF000CD0B2BC08091933C82FF27C00E94B11076
:101D0000882319F10E945A0F0E94F9050E945A0F68
:101D10000E94F6001AC08091733C87FF16C0E394BE
:101D200099E09E1510F40F5FE12C402F50E0282F12
:101D30002F7330E04217530744F086FF02C08BE058
:101D400001C08CE00E94481300E01F5F103108F4CE
:101D500064CF10E062CFA0E0B4E080E212968C93F2
:101D60001297E0E4F4E084E0828355968C915597D5
:101D7000886055968C9382898860828B08958091C3
:101D8000080485FF06C08091233C8F5F8093233C2D
:101D900005C08091223C8F5F8093223C80911F3C44
:101DA0008F5F8A3F18F480931F3C089510921F3C68
:101DB0009091C93C80911D3C90FF06C09091223CBF
:101DC0009A3010F4816001C08E7F80931D3C109288
:101DD000233C1092223C08958091480482FF06C063
:101DE0008091213C8F5F8093213C05C08091203CF5
:101DF0008F5F8093203C80911E3C8F5F8A3F18F458
:101E000080931E3C089510921E3C9091C93C809195
:101E10001D3C91FF06C09091203C9A3010F48260E6
:101E200001C08D7F80931D3C1092213C1092203C7C
:101E300008950E944E04811103C080911D3C0895B5
:101E400080E00895909108048091253C92FF11C094
:101E50009091080494FD1DC09091243C992319F0A1
:101E600091509093243C8E31A0F48E5F8093253C5A
:101E700010C09091080494FF0CC0882319F0815081
:101E80008093253C8091243C8E3118F48E5F8093A2
:101E9000243C8091253C803110F081E005C0809188
:101EA000243C803120F082E08093263C08951092FB
:101EB000263C08958091263C089561E081E690E0FB
:101EC0000E94551664E080E890E00E94551660E09C
:101ED00081E890E00C94551666E080E091E00C9467
:101EE0005516A89508958091273C9091080498274D
:101EF00092FF0BC09091080492FF02C0846001C061
:101F00008B7F8093273C81E001C080E09091273C4B
:101F100020910804292724FF0AC082602091080428
:101F200024FF02C0906101C09F7E9093273C0895DA
:101F300080FF5AC02091273C90913B3C22FF42C039
:101F400090FD3BC0916090933B3C20914A0A3091B8
:101F50004B0A4091393C50913A3C4217530728F4C0
:101F600020914A0A30914B0A05C020914A0A3091CB
:101F70004B0A3053241B350B2093373C3093383CAD
:101F800090912D3C916090932D3C20914A0A309184
:101F90004B0A29333F4C38F020914A0A30914B0AC2
:101FA00028533F4C06C020914A0A30914B0A2853CF
:101FB0003F4F2093DA3C3093DB3C1092343C10923C
:101FC0002C3C12C090FF10C09E7F90933B3C209110
:101FD0004A0A30914B0A2093393C30933A3C909115
:101FE0002D3C9E7F90932D3C8370B9F19091273CBE
:101FF00080913B3C94FF27C081FD20C0826080938C
:102000003B3C80912D3C826080932D3C80914A0A1C
:1020100090914B0A89339F4C38F080914A0A9091F5
:102020004B0A88539F4C06C080914A0A90914B0AF4
:1020300088539F4F8093FE3C9093FF3C1092343C1A
:1020400010922C3C0AC081FF08C08D7F80933B3CDE
:1020500080912D3C8D7F80932D3C8091080482FDE2
:1020600014C08091080484FD10C080912C3C811123
:1020700014C080914A0A90914B0A80932A3C909315
:102080002B3C81E080932C3C08951092343C1092BC
:102090002C3C10922A3C10922B3C08951F920F92D8
:1020A0000FB60F9211242F933F934F935F936F932B
:1020B0007F938F939F93AF93BF93EF93FF93E0E052
:1020C000F4E08185846181870E94730F0E94980FDC
:1020D000FF91EF91BF91AF919F918F917F916F9100
:1020E0005F914F913F912F910F900FBE0F901F90D6
:1020F000189590912D3C90FF10C040914A0A509144
:102100004B0A2091DA3C3091DB3C2417350728F448
:102110009E7F90932D3C81E00895892F827091FFDE
:1021200011C040914A0A50914B0A2091FE3C3091D7
:10213000FF3C2417350728F49D7F90932D3C82E0C7
:10214000089580E0089580912E3C90912F3C80323C
:1021500023E0920728F4019680932E3C90932F3C25
:10216000089581E020912E3C30912F3C2032334065
:1021700008F480E00895E0E0F4E084E1828381E007
:10218000828B848BE0E4FAE083E080838FEF9FEC26
:10219000848795870895FC018091933C83FF8DC0CF
:1021A0004091343C4423E1F18091080482FD04C055
:1021B0008091080484FF09C01092343C10922C3C9A
:1021C00010922A3C10922B3C78C020914A0A309100
:1021D0004B0A8091323C9091333C8217930728F44C
:1021E00020914A0A30914B0A05C020914A0A309149
:1021F0004B0A3053281B390B413009F05EC08091E7
:10220000283C9091293C2817390708F456C0809142
:10221000303C81608093303C82E08093343C4DC000
:1022200080912C3C8823B1F18091080482FDC4CFB9
:102230008091080484FDC0CF20914A0A30914B0A56
:1022400080912A3C90912B3C8217930728F420918F
:102250004A0A30914B0A05C020914A0A30914B0A34
:102260003053281B390B2338310538F181E0809336
:10227000343C80914A0A90914B0A8093323C90936F
:10228000333C8CE390E08093283C9093293C10925F
:102290002C3C08958091080482FD0FC080910804B1
:1022A00084FD0BC080914A0A90914B0A80932A3C8E
:1022B00090932B3C81E080932C3C8091373C909113
:1022C000383C009739F42091353C3091363C232B33
:1022D00009F490C01092373C1092383C1092353C73
:1022E0001092363C9C012D5D3109253E310588F464
:1022F00081E08093003D8091313C8F5F8093313C41
:10230000A091013DB0E0A252B34C8C91880F8F5F39
:1023100021C0855F91408B35914C08F06BC01092C5
:10232000003D8091313C8E3060F081E08093223D11
:102330001092DE3C1092013D1092233D1092313CF0
:1023400008951092313CA091013DB0E0A252B34CEF
:102350008C91880F8C938091013D803208F04AC0A7
:102360008091223D81111BC08091003D8130B9F4E4
:102370008091233D811113C0108280819091013D95
:10238000891770F490E0DC01A252B34C2C91DB0170
:10239000A80FB91F2C9380818F5F8083EECF1082AE
:1023A0008091223D8F5F8093223D893019F51092F4
:1023B0002E3C10922F3CE091013DE11107C080912D
:1023C000DE3C8F3F19F48093013D0895AE2FB0E0BD
:1023D000A252B34C9091233D8C9189278093233D49
:1023E000EF5FE093013DF0E0E252F34C1082109277
:1023F000223D089508959091303C892F817090FF7F
:1024000004C09E7F9093303C81E00895E0E0F4E0CA
:10241000818188688183E0E2F4E08181886381833F
:10242000A0E4B4E011968C911197836011968C937F
:1024300081818D7F818388E0818B089590E0873052
:10244000910538F5FC01E35BFF4F0C94281688E0FA
:1024500003C082E00EC080E8662319F08093050473
:10246000089580930604089588E00CC080E20AC0B5
:1024700081E0662319F08093450408958093460413
:10248000089580E1662319F08093250408958093D0
:1024900026040895809128048695817091E089270B
:1024A000089580913C3C0895CF93813019F4809336
:1024B0003C3C02C010923C3CC0E060913C3C8C2F04
:1024C0000E941E12CF5FC730C1F7CF910895E0E0A0
:1024D000F4E0828182608283818180648183A0E2D2
:1024E000B4E011968C911197816011968C93A0E4C1
:1024F000B4E011968C911197886011968C93119786
:1025000086818064868316968C91169788601696CD
:102510008C93A0E0BAE091E09C9383E111968C93B8
:1025200011972FEF30E096962D933C9397979896BE
:102530001D921C92999785818064858380E38093A6
:10254000A000E0E0F6E085E08083918384E482836C
:1025500080E28383148208959091503C911128C0A9
:102560009091BB3C913021F1813059F48091460427
:1025700088608093460480910504806480930504FC
:102580000895823059F48091060480648093060493
:1025900080914504886080934504089580910604E5
:1025A000806480930604809146048860809346048A
:1025B0000895813071F493E09093010A98E090932C
:1025C000460490E490930504809325048093503C46
:1025D000089588E08093460480E48093060481E0B7
:1025E0008093260483E18093010A1092503C089561
:1025F0009091BB3C913079F0813059F0823011F4E8
:1026000083E007C08C3011F48DE003C08B3019F4E7
:102610008FE08093000A08951F920F920FB60F92D9
:1026200011242F933F934F935F936F937F938F93D7
:102630009F93AF93BF93EF93FF9380910B0A8160B9
:1026400080930B0A80914F3C882389F0813051F4AC
:102650000E94F81210924F3C80910A0A8E7F80935C
:102660000A0A05C00E94F81281E080934F3CFF9156
:10267000EF91BF91AF919F918F917F916F915F91FA
:102680004F913F912F910F900FBE0F901F90189573
:102690009091503C91110BC09091BB3C913039F01E
:1026A00080934F3C80910A0A816080930A0A0895C2
:1026B0006091AA3C9091493C961798F42091A93CCE
:1026C00030E04FEF50E0421B530B949FF001959F79
:1026D000F00D112470E0CF010E941416862F820F96
:1026E00008958FEF0895CF939091BB3C913019F4EA
:1026F0008093493C17C09091493C891799F0C82FA5
:1027000080934B3C8093493C0E945813682F8093E0
:102710004C3C2FEFC29FC001112470E00E940016B4
:102720006093483CCF9108958091493C08958091F1
:10273000473C811107C08091433C811103C081E077
:102740008093433C08958091413C9091423C089590
:102750008091A83C87FF0BC08091433C811107C04A
:102760008091473C811103C081E08093473C0895EC
:102770008091443C9091453C08958F929F92AF92F6
:10278000BF92CF92DF92EF92FF920F931F93CF935E
:10279000DF9340914B3C411103C010924A3C90C0E2
:1027A000A0909D3CB12CC0909E3CD12CE0909F3CD1
:1027B000F12C2091443C3091453C369527955FEFB4
:1027C000529FC001539F900D11246091A43C70E072
:1027D0000E940016242F30E0CB016F3F710519F0E5
:1027E00014F08FEF90E08901081B190BEAE0F0E08C
:1027F000C801BF010E94141680913F3C9091403C5B
:10280000EB01C80FD91FC0933F3CD093403C80914F
:102810003D3C90913E3CB801681B790BCB0164E6CE
:1028200070E00E9414164B0100933D3C10933E3C17
:10283000A09EC001A19E900DB09E900D1124BF01DD
:102840000E9414168B01CC9EC001CD9E900DDC9E83
:10285000900D1124BF010E941416E801C60FD71F66
:10286000E89CC001E99C900DF89C900D1124BF01DB
:102870000E9414166C0F7D1F6F3F710529F024F024
:102880008FEF80934A3C07C077FF03C010924A3C09
:1028900002C060934A3C50914A3C852F90E0451716
:1028A00038F4821B930B813A910554F0405606C0D0
:1028B000281B390B213A31051CF0405A40934A3C01
:1028C000DF91CF911F910F91FF90EF90DF90CF900C
:1028D000BF90AF909F908F9008958091BB3C8130C6
:1028E00009F49BC08091503C811197C08091473C76
:1028F0008823C9F18436E8F4813059F48091280A9C
:102900009091290A8093463C1092280A1092290A35
:102910000AC08A3041F481E080930606809308065D
:1029200084E68093473C8091473C8F5F8093473C8F
:102930000895853609F071C08091080680FD6DC04C
:1029400080911006909111068093443C9093453CF1
:102950001092473C8091463C90E08093280A9093E7
:10296000290A0C94BD138091433C8823D1F0813017
:1029700041F4809306068093080682E08093433CEE
:1029800010C0823061F48091080680FD0AC08091F9
:102990001006909111068093413C9093423C109216
:1029A000433C9091A83C892F8F7729F497FD2BC049
:1029B0008091493C2DC0833051F480914E3C10925F
:1029C0004E3C8F3F09F4089580914D3C06C08091A4
:1029D0004D3C91FF02C08E5F01C08F5F80934D3CE4
:1029E00020914C3C80914D3C281758F41092280AB5
:1029F0001092290A8EEF90E08093200A9093210A8A
:102A0000089597FF03C080914A3C02C08091483CE2
:102A100090E08093280A9093290A089580914A3C77
:102A200090E008959091BB3C913059F593E09093DC
:102A3000010A613059F490914604986090934604DD
:102A40009091050490649093050412C0909106043F
:102A5000906490930604623031F49091450498603C
:102A60009093450405C09091460498609093460465
:102A7000882321F081E080932504089581E08093EC
:102A8000260408951F920F920FB60F9211248F9370
:102A90008091513C81608093513C81E0809353014F
:102AA0008F910F900FBE0F901F9018951F920F924D
:102AB0000FB60F9211248F9383E08093430180918E
:102AC000513C82608093513C8F910F900FBE0F90CC
:102AD0001F901895809141018111FCCF10924C01FB
:102AE00010924D0181E090E080934A0190934B0158
:102AF0001092470181E880934001809152018160EA
:102B00008093520181E28093500180914201836061
:102B100080934201789408959091513C892F81705F
:102B200090FF04C09E7F9093513C81E00895909166
:102B3000513C892F827091FF04C09D7F9093513C3E
:102B400081E008951F920F920FB60F9211248F9378
:102B50009F93EF93FF938091040880628093040811
:102B6000F8948091533CE82FF0E0EB5DF24C9081BB
:102B7000909302088F5F803318F48093533C02C017
:102B80001092533C9091533C8091523C981305C055
:102B9000809105088F7D809305087894FF91EF91CF
:102BA0009F918F910F900FBE0F901F901895E0E2AC
:102BB000F4E0818184608183858184608583E0E0A5
:102BC000F8E080EA90E08087918780E4868383E064
:102BD000878308959091523CE92FF0E0EB5DF24C31
:102BE00080839F5F903318F49093523C02C0109200
:102BF000523C80910508806280930508789408957E
:102C0000AA1BBB1B51E107C0AA1FBB1FA617B70712
:102C100010F0A61BB70B881F991F5A95A9F780952E
:102C20009095BC01CD01089597FB072E16F40094F2
:102C300007D077FD09D00E94001607FC05D03EF4AE
:102C4000909581959F4F0895709561957F4F089558
:102C5000EE0FFF1F0590F491E02D099403D08081C1
:102C600099270895FC01E050FC4E0895262F0E94FC
:102C700032160080021619F00E9442160197019741
:102C80000895262FAF93BF93E0E0F0E1328131FD4C
:102C9000FDCFDC01A050BC4E2C932DE924BF23E0D6
:102CA00020830196BF91AF910895DC0128ED209318
:0A2CB00034006C930895F894FFCFF0
:042CBA00FFFFFF0019
:00000001FF
