:100000000C9474000C9491000C9491000C94F90FD2
:100010000C9491000C9491000C94CE140C94BA148E
:100020000C94B7120C9491000C9491000C949100D4
:100030000C9491000C9491000C9491000C949100FC
:100040000C9491000C9491000C9491000C949100EC
:100050000C9491000C9491000C9491000C949100DC
:100060000C9491000C9491000C9491000C949100CC
:100070000C941A150C9491000C9491003A0E3F0EBA
:10008000420E450E480E480E480E480E480E480EC9
:10009000480E480E4D0E500E610ED211D411D611DD
:1000A000DF11E111E311EC11ACAAA9A5A3A69C9A5A
:1000B000999593968E8D8BB1B2B4B874726C6A694F
:1000C0006563665C5A595553564E4D4B4771E8E48B
:1000D000E2D1C9C5D8D4D2C9C6CC78171B1D1E2EF3
:1000E000363A272B2D35393311241FBECFEFCDBF24
:1000F000DFE3DEBF1CE3A0E0BCE3EEE9FBE202C00D
:1001000005900D92A430B107D9F72DE3A4E0BCE32C
:1001100001C01D92A035B207E1F70E94CF0D0C94EB
:10012000CD150C9400000F931F93CF938091073C43
:10013000882391F18091A63C8F5F8093A63C01E9D2
:100140001CE3C0E0F80181918F01882351F0909168
:10015000A63C981710F461E001C060E08C2F0E946B
:10016000C911CF5FC73071F78091983C8823A1F007
:100170009091A83C92FD03C06091623C01C061E097
:100180009091A63C981710F481E001C080E0CF91D7
:100190001F910F910C948A14CF911F910F91089584
:1001A0000E94FC11811118C08091043C8F5F803146
:1001B00018F48093043C02C01092043CEFE4FCE38A
:1001C00080819181009719F0019680839183329606
:1001D0008CE3E136F807A1F708954091633CEEEA1D
:1001E000FCE390E021E03191307C49F0303419F4A7
:1001F000813041F404C0303829F4823019F4342FAE
:100200003223932B220F3CE3E63BF30761F79093F5
:10021000053C08956F7146131BC04091A83C2223F2
:1002200051F021E030E001C0220F8A95EAF7242B3B
:100230002093A83C089521E030E0B90102C0660F88
:10024000771F8A95E2F7CB01809584238093A83CA1
:1002500008950F93CF93DF93962F9F71491363C037
:10026000607C482F50E09091053CE091063C611184
:1002700003C021110BC02EC0603419F4013051F5B8
:10028000F8CF603839F5023029F5F3CFC1E0D0E07E
:100290009E01082E01C0220F0A94EAF7922B909338
:1002A000053C6E2F70E060957095DB0102C0B5953E
:1002B000A7958A95E2F7A0FF36C0DA01AA0FBB1F07
:1002C000A15BB34CCD93DC93DA01AF56B34C1C92D7
:1002D0002E2B27C0C1E0D0E09E01082E01C0220FC6
:1002E0000A94EAF7209592239093053C6E2F70E0D4
:1002F000DB0102C0B595A7958A95E2F7A0FF13C070
:10030000DA01AA0FBB1FA15BB34CCD93DC93DA01DA
:10031000AF56B34C1C928091073C82238093073CDC
:100320002E232093063CDF91CF910F910895909159
:10033000B63C913069F58F7168132AC09091053CE5
:100340008091063C442379F090689093053C87FDAA
:100350001FC021E030E020935D3C30935E3C109262
:10036000983C806813C09F779093053C87FF10C02E
:1003700021E030E020935D3C30935E3C1092983C4D
:100380009091073C9F779093073C8F778093063C32
:100390000895EF92FF920F931F93CF93DF93C82F8F
:1003A000D62F142F4093623C8CEAE82E8CE3F82E73
:1003B000262F4C2FF701608180E00E940A012D2F2B
:1003C0004C2FF701618181E00E940A01012F2D2F3E
:1003D0004C2FF701628180E00E9429012D2F4C2FC4
:1003E000F701638181E00E9429012D2F4C2FF70135
:1003F000648182E00E9429012D2F4C2FF701658135
:1004000083E00E9429012D2F4C2FF701668184E0A3
:100410000E9429012D2F4C2FF701678185E00E9452
:1004200029012D2F4C2FF701608586E00E942901BC
:10043000212F4D2F6C2FF70181850E9497012D2FC1
:100440004C2F60919D3C83E00E940A012D2F4C2F80
:100450006091663C82E00E940A012D2F4C2F609132
:10046000A43C86E00E940A012D2F4C2F6091A33CF2
:1004700087E0DF91CF911F910F91FF90EF900C9447
:100480000A01DF92EF92FF920F931F93CF93DF93B6
:10049000182FE62E042F813049F4C091613CCC2303
:1004A00009F459C084E0F82ED1E029C0823049F423
:1004B000C0918F3CCC2309F44EC048E0F42ED5E027
:1004C0001EC0833049F4C091673CCC2309F443C07B
:1004D0003CE0F32ED9E013C0843041F4C091A53C38
:1004E000CC23C9F124E1F22EDDE009C0853099F575
:1004F000C0919F3CCC2379F19CE1F92ED5E10E947B
:10050000F511882329F0013011F001E001C002E06B
:10051000DD24D394FD1660F08C2F8D2131F0402F17
:100520006D2D6E218D2F0E94C901DD0CDF5FF2CF92
:10053000113089F48091613C84FF0DC06E2D607193
:10054000402F80E0DF91CF911F910F91FF90EF90AE
:10055000DF900C94C901DF91CF911F910F91FF9013
:10056000EF90DF900895962F873010F40C94C91106
:10057000873021F4642F892F0C948A1408954F92A8
:100580005F926F927F928F929F92AF92BF92CF9223
:10059000DF92EF92FF920F931F93CF93DF931F92FF
:1005A000CDB7DEB7873059F4A090623C22E0A212AA
:1005B00003C07090C33C0DC07090C23C0AC087302D
:1005C00008F094C0A090623CE82FF0E0E754F34CB0
:1005D0007280882E912C21E030E02901082E01C084
:1005E000440C0A94EAF7B090053CB42009F47EC0AC
:1005F000C62ED82E872D8F70813051F58091B93C51
:10060000807F66246394680E8091A83C94012F56E5
:10061000334C79018401000F111F82FD04C083FD5A
:1006200002C080FF08C09801215B334C8E010F5F30
:100630001F4F4C2D0BC00E943F139801215B334C80
:100640008E010F5F1F4F4C2D811132C0662D31C0BE
:10065000823049F48091A83C82FD0DC083FD0BC01F
:1006600081FF19C008C08330B1F48091A83C82FD9D
:1006700002C083FF06C04A2D60E08D2D0E94B302A8
:1006800035C094012F56334C79019401220F331F4A
:10069000215B334C09C09401220F331F215B334C83
:1006A000C4018F56934C7C018E010F5F1F4F4C2D60
:1006B000672D8B2D0E9456049981992341F0F401F6
:1006C000EF56F34C80838091073C482A0DC04A2D99
:1006D0008C1510F460E001C061E08D2D0E94B30222
:1006E00040948091073C48224092073C0F90DF9154
:1006F000CF911F910F91FF90EF90DF90CF90BF901F
:10070000AF909F908F907F906F905F904F900895E3
:10071000AF92BF92CF92DF92EF92FF920F931F930F
:10072000CF93DF93C82ED12CC1E0D0E0082E01C0BA
:10073000CC0F0A94EAF7873029F49091B63C9130B7
:1007400009F09DC0182F760182E0E80EF11CF70138
:10075000E455F34C5F018081982F9F719F3109F020
:1007600050C0807C19F48091053C14C00E944F0D4C
:10077000082F0E94F511882329F0023011F002E0C1
:1007800001C001E0F50190818091053C97FF06C012
:10079000023011F48C2B0BC09C2F07C096FF09C0B0
:1007A0009C2F013011F48C2B02C0909589238093EB
:1007B000053C2091053C8091063C422F482750E0A3
:1007C000012E02C0559547950A94E2F740FF19C0E3
:1007D000F601EE0FFF1FE15BF34C41E050E0408378
:1007E000518330E0012E02C0359527950A94E2F737
:1007F00020FF02C08C2B03C09C2F909589238093EF
:10080000063C8091053CC82379F06091043C812F1F
:10081000DF91CF911F910F91FF90EF90DF90CF90DC
:10082000BF90AF900C94BF028091A83C82FDEDCFA9
:1008300081FF15C0F701E754F34C80818F7083303E
:1008400021F360E0812FDF91CF911F910F91FF90F5
:10085000EF90DF90CF90BF90AF900C94C9111730FC
:1008600081F760E080E0DF91CF911F910F91FF90C1
:10087000EF90DF90CF90BF90AF900C948A14DF91EF
:10088000CF911F910F91FF90EF90DF90CF90BF908D
:10089000AF9008958091A83C881F8827881F0895ED
:1008A0008091A83C86FB882780F90895EF92FF92FB
:1008B0000F931F93CF93DF93482FE901F801D701DE
:1008C000862F82958F70962F9F709130E9F4411199
:1008D00005C0188219821C92108250C0288139816B
:1008E00021153105F9F03695279536952795422F34
:1008F00042954F70481728F0188219822F602C9368
:100900004DC02C9390834FC0943079F0953021F1F5
:10091000963009F04AC04423E1F22881398121153B
:10092000310571F56F606C9340C0442391F22881CA
:10093000398121153105C9F12C333105D0F0283723
:10094000310518F481E0808315C0243B310588F01F
:1009500020393140B8F30BC0442309F4BACF2881C1
:1009600039812115310509F12039314028F01882EB
:10097000198210821C921CC010821C9280E018C048
:100980003695279536952795922F92959F709817B3
:1009900038F0188219822F602C9391E0908308C060
:1009A0002C9381E08083822F03C0188219821082E9
:1009B000DF91CF911F910F91FF90EF90089580915B
:1009C000C73C0895CF93DF93D82FC62F6093C73CC1
:1009D0000E944A04882331F080918E3CC89FC00158
:1009E0001124C92F8091003C8D1741F08D2F0E945A
:1009F0005712D093003C8FEF8093103CC13029F404
:100A00001092C63C1092C53C63C08091C53C8111D8
:100A100013C08091A73C882379F0CC2359F09091A2
:100A2000093C911104C08093093C1092123CC09380
:100A3000083C53C01092083CC093C53C80916A3C6E
:100A4000C81710F4C111C82F9091C63C981718F41C
:100A5000C1118093C63C8091103C811139C08091B6
:100A60000F3C81113AC00E94EF0E90910E3CD817B6
:100A700009F1992321F08091B83C81112EC090FF9B
:100A800003C09E7F90930E3C9091C53C8091C63CE4
:100A9000981720F420916C3C222341F0891720F410
:100AA00020916B3C222311F0981317C0C093C63CD1
:100AB0008C2F0FC0916090930E3C8091643C81110B
:100AC0000CC080916C3C811108C01092C63C01C0E2
:100AD00080E0DF91CF910C941E13DF91CF910895A8
:100AE00010920F3CE62FEF70EE0F11F460E00AC099
:100AF000E23011F461E006C064FDEF5FF0E0E2591E
:100B0000F34C60810C94E20410920F3C90916A3C8B
:100B100050916E3C30916D3C951700F55317F0F4F1
:100B2000603450F4591B569FB001112456E075955E
:100B300067955A95E1F71CC0432F451B70E0605440
:100B40007109469F9001479F300D112446E035956D
:100B500027954A95E1F7652F620F0DC0931750F462
:100B6000391B369FB0011124660F672F661F770B64
:100B7000690F01C0660F0C94E20491E090930F3C62
:100B80006091B73C0C94E2048091103C8823D1F032
:100B900081508093103C8111BBC09091C53C8091E5
:100BA000C63C981720F420916C3C222349F0891709
:100BB00020F420916B3C222319F09813A9C0892FAF
:100BC0000C941E139091093C8091123C8F5F9923E5
:100BD00089F0843688F01092123C8FEF890F809351
:100BE000093C811195C08091083C8093C53C1092CE
:100BF000C63C0895803118F48093123C08951092F9
:100C0000123C9091113C9F5F9093113C80910F3C5E
:100C10008823B1F08091C63C2091C53C821738F4FE
:100C20002091A03C921708F473C08F5F6BC0281707
:100C300008F06CC02091A03C921708F469C061C014
:100C40000E94EF0E9091003C891709F441C09091E9
:100C50000E3C8091C53C90FF24C09091B83C91110E
:100C600004C090916B3C992351F02091113C2917BD
:100C700060F09091C63C981740F481E0890F809312
:100C8000C63C0E941E131092113C9091C63C80916C
:100C9000C53C9817E8F180910E3C8E7F80930E3C06
:100CA00008959091C63C981740F420916B3C809138
:100CB000113C821768F181E009C0891738F520914D
:100CC0006C3C8091113C821718F18FEF890F1AC08C
:100CD0008091C63C8823E1F090910E3C9160909306
:100CE0000E3C9091643C911108C090916C3C911124
:100CF00004C01092C63C80E007C02091113C291727
:100D000038F081508093C63C0E941E131092113C13
:100D1000089580910D3C817008958091713C8823E5
:100D200009F441C00E94EF0E9091003C891335C038
:100D300020910B3C30910C3C2F5F3F4F283E93E0BD
:100D4000390728F420930B3C30930C3C0895109203
:100D50000B3C10920C3C90910A3C9F5F90930A3C94
:100D60002091713C9217F8F090910D3C90FF02C0D9
:100D70009E7F01C0916090930D3C813011F482E020
:100D800003C0823019F481E08093003C8091003CE4
:100D90000E9457128FEF8093103C10920B3C1092E0
:100DA0000C3C10920A3C089590E0805090400C94C6
:100DB000A6158F3F910509F010F40C94D40680E03D
:100DC00008959091021091FDFCCF90E080509040EA
:100DD0000C94AE1569E083E40E94E10662E184E4CC
:100DE0000E94E1066BE185E40E94E10664E286E48C
:100DF0000E94E1066EE287E40E94E10667E388E470
:100E00000E94E10660E489E40E94E10669E48AE464
:100E10000E94E10662E58BE40E94E1066BE58CE44A
:100E20000E94E10664E68DE40E94E1066DE68EE430
:100E30000E94E10666E78FE40E94E10660E880E533
:100E40000E94E10669E881E50E94E10662E982E527
:100E50000E94E1066BE983E50E94E10664EA84E50D
:100E60000E94E1066DEA85E50E94E10666EB86E5F3
:100E70000E94E1066FEB87E50E94E10668EC88E5D9
:100E80000E94E10661ED89E50E94E1066BED8AE5CD
:100E90000E94E10664EE8BE50E94E1066DEE8CE5B2
:100EA0000E94E10666EF8DE50E94E1066FEF8EE598
:100EB0000C94E1068530A8F44091613C811103C097
:100EC000842F80610BC0815021E030E0B90102C065
:100ED000660F771F8A95E2F7CB01842B8093613CE4
:100EE0000895893080F4855021E030E0A90102C0E6
:100EF000440F551F8A95E2F7CA0190918F3C892BC8
:100F000080938F3C08958D3080F4895021E030E04B
:100F1000B90102C0660F771F8A95E2F7CB01909165
:100F2000673C892B8093673C0895853180F48D5010
:100F300021E030E0A90102C0440F551F8A95E2F775
:100F4000CA019091A53C892B8093A53C08958D31D1
:100F500078F4845121E030E0B90102C0660F771FB8
:100F60008A95E2F7CB0190919F3C892B80939F3C1F
:100F70000895EF92FF920F931F93CF9380910210E9
:100F800081FDFCCF80E090E00E94A6158F3F39F4F0
:100F9000CF911F910F91FF90EF900C94B60809E646
:100FA0001CE3C0E0CF5F8C2F0E94D406F801819330
:100FB0008F01C630B9F781E190E00E94A6158093B9
:100FC000A13C82E190E00E94A6158093AA3C83E1B7
:100FD00090E00E94A6158093A93C8BE190E00E94CE
:100FE000A6158093C43C8DE190E00E94A6158093E5
:100FF000903C02E71CE3C3E48C2F0E94D406F80166
:1010000081938F01CF5FCF35B9F78CEAE82E8CE35F
:10101000F82E09EB1CE3C1E28C2F0E94D406F701E5
:1010200081937F018F710E945A078FE48C0F0E9479
:10103000D406F80181938F01CF5FCC3269F78CE23F
:1010400090E00E94A615C82F80939D3C8DE290E011
:101050000E94A6158093663C8C2F8F710E945A07C0
:101060008091663C8F710E945A0783E890E00E944D
:10107000A61580938E3C8FE290E00E94A615809387
:10108000703C82E390E00E94A6158093633C83E36A
:1010900090E00E94A6158093A43C8F710E945A078D
:1010A00084E390E00E94A6158093713C85E390E074
:1010B0000E94A6158093B83C86E390E00E94A61596
:1010C0008093643C87E30E94D40680939A3C88E333
:1010D0000E94D40680939B3C89E30E94D4068093AF
:1010E0009C3C8AE890E00E94A6158093A23C8AE38B
:1010F00090E00E94A6158093B73C8BE390E00E949D
:10110000A6158093A03C8CE390E00E94A6158093E6
:10111000653C8DE390E00E94A6158093AB3C8EE386
:1011200090E00E94A61580939E3C8FE390E00E9481
:10113000A6158093A33C8F710E945A0780E490E02B
:101140000E94A61580936F3C8CE890E00E94A61543
:101150008093A73C84EF90E00E94A6158093683CA2
:10116000CF911F910F91FF90EF90089563E081E080
:101170000E94E10660E082E00E94E10660E083E018
:101180000E94E10660E084E00E94E1066FEF85E0E6
:101190000E94E1066FE786E00E94E10661E087E0D9
:1011A0000E94E1066DE088E00E94E10660EC81E1CA
:1011B0000E94E10660E082E10E94E10660E083E1D6
:1011C0000E94E10663E08BE10E94E1066EE08DE1A2
:1011D0000E94E10664E081E20E94E10667E082E2AB
:1011E0000E94E10660E483E20E94E10661E884E295
:1011F0000E94E10661E885E20E94E10660E886E27D
:101200000E94E10661E487E20E94E10661E488E26F
:101210000E94E10663E089E20E94E10660E08AE262
:101220000E94E10660E08BE20E94E1066EE38CE240
:101230000E94E10666E08DE20E94E1066FE48FE223
:101240000E94E10669EC82E30E94E1066FEF83E30E
:101250000E94E10660E084E30E94E1066AE085E323
:101260000E94E10663E086E30E94E1066EE187E307
:101270000E94E1066AE088E30E94E10668E289E3F1
:101280000E94E1066FE78AE30E94E10663E08BE3D8
:101290000E94E10663E88CE30E94E1066FE58DE3BE
:1012A0000E94E10660EC8EE30E94E10667E08FE3B6
:1012B0000E94E10661E080E40E94E10660E480E7CC
:1012C0000E94E10661EF82E70E94E10663EF83E797
:1012D0000E94E10662EF84E70E94E10661EF85E784
:1012E0000E94E10663EF86E70E94E10662EF87E76E
:1012F0000E94E10664EF88E70E94E10661EF89E75A
:101300000E94E10662EF8AE70E94E1066FE383E84C
:101310000E94E10664E68AE80E94E10660E08CE84B
:101320000E94E10660E084EF0E94E1060E94EA0666
:1013300060E080E00E94E1060C94B9070F931F93D0
:10134000CF93DF93EC01162F8F3F910511F008F03A
:1013500011C18F50823058F08FE090E00E94A615A6
:10136000082F80E190E00E94A615081303C1C53341
:10137000D10509F4D2C008F058C0CD31D10509F427
:10138000B7C040F5C830D10509F49DC060F4C13044
:10139000D10508F4E7C0C730D10508F0EBC0FE0165
:1013A000E859F34CC0C0C231D10509F49BC038F4F0
:1013B000C131D10509F0D6C01093A13CD3C0C331CF
:1013C000D10509F492C0CB31D10509F0CBC01093FF
:1013D000C43CC8C0CD32D10509F496C078F4C132FE
:1013E000D10508F4BFC0812F8F71CC32D10508F030
:1013F00086C0FE01E557F34C108383C0C233D1058C
:1014000009F485C038F4CF32D10509F0ABC0109390
:10141000703CA8C0C333D10509F47CC0C433D105E6
:1014200009F0A0C01093713C9DC0CF33D10509F4E1
:1014300088C0E8F4CA33D10509F477C038F4C6335C
:10144000D10509F06DC01093643C8CC0CC33D1053C
:1014500009F471C008F46CC0CD33D10509F46EC035
:10146000CE33D10509F07EC010939E3C7BC0CB37B4
:10147000D10590F4C037D10508F06BC0C034D10558
:1014800009F464C0CE01835491094C9708F06AC0F6
:10149000FE01E15DF34C47C0CA38D10509F45DC0D7
:1014A00038F4C338D10509F05DC010938E3C5AC0A2
:1014B000CC38D10509F454C0C43FD10509F052C05D
:1014C0001093683C4FC01D3019F0183009F052C01D
:1014D0006FEF80E00E94E106DF91CF911F910F91A5
:1014E0000C94B6081093AA3C3DC01093A93C3AC096
:1014F00080916F3C80FD18601093903C33C0109336
:101500009D3C0E945A072EC01093663C1CC010934D
:10151000633C28C01093A43C25C01093B83C22C063
:10152000FE01ED59F34C10831DC01093B73C1AC057
:101530001093A03C17C01093653C14C01093AB3CB3
:1015400011C01093A33C812F8F71DBCF10936F3CA0
:1015500009C0FE01E75BF34CE6CF1093A23C02C04A
:101560001093A73C612F8C2FDF91CF911F910F918A
:101570000C94E106DF91CF911F910F910895FF9296
:101580000F931F93CF93DF938C01F62E862F8770D6
:10159000C1E0D0E001C0CC0F8A95EAF7C8010E94F3
:1015A000D906F3FE03C06C2F682B03C0C0956C2FC7
:1015B0006823C801DF91CF911F910F91FF900C9488
:1015C0009E0981E08093143C8093153C0E94FF119A
:1015D00081E00C9484121092C83C0895CF93FB01D3
:1015E00020818091CA3C28135DC0C1818091CB3C91
:1015F000C81358C092818091CC3C981353C022FDEF
:101600001CC08091133C90E00197880F991F880FB0
:10161000991F322F3370830F911D019623FF06C04F
:101620006C2F0E949E098091C83C2CC00E94D90654
:10163000C81342C08091C83C2FC0822F877085306C
:1016400081F028F48430C1F58DE190E012C086303D
:1016500029F0873089F588E090E00BC087E090E0C2
:1016600008C08091C83C80FD27C0C093133C8160B6
:1016700014C023FF09C06C2F0E949E098091C83CB2
:1016800082FD1AC0846009C00E94D906C81314C024
:101690008091C83C81FD10C082608093C83CCF918E
:1016A0000C94E10A2093CA3C81818093CB3C8281D7
:1016B0008093CC3C1092153CCF910895CF93FB01C1
:1016C00020818091CA3C281329C081819091CB3C14
:1016D000891324C0C2819091CC3CC9131FC03381AF
:1016E0009091CD3C39131AC09091153C911123C0B3
:1016F000322F337090E0830F911D01962C702430AF
:1017000031F02C30C1F46C2F0E949E0904C00E945D
:10171000D906C81310C0CF910C94E10A2093CA3C9B
:1017200081818093CB3C82818093CC3C8381809368
:10173000CD3C1092153CCF9108958091143C8823A4
:1017400089F08F5F8D3018F48093143C08951092C7
:10175000143C81E08093153C82E00E94FF1182E0FE
:101760000C94841208958091193C882329F08150AB
:101770008093193C0C949D0B0895EF92FF921F9358
:10178000CF93DF93FB0190818330E9F4911110C076
:101790002181211118C02281211115C08EE1809371
:1017A000193CDF91CF911F91FF90EF900C94EB0AC1
:1017B0009F3F49F42181211106C022812F3F19F456
:1017C0001092193C36C13091A93C332341F097FD6A
:1017D00006C09181907E903E11F03093183C30917C
:1017E000183C9081332339F0992309F422C19F7763
:1017F00093131FC11FC097FD09C02091903C25FD88
:1018000005C02091693C921314C114C0292F207C7B
:10181000203C09F00EC12091903C25FF0AC1209187
:10182000A13C921306C121819091AA3C291301C1C8
:1018300022E001C021E030E0EF01C20FD31F688138
:10184000962F907E903809F47DC050F4AF0190340B
:1018500009F44AC0903609F447C0903259F0E9C003
:10186000903C09F48FC0903E09F49BC0903A09F077
:10187000E0C073C090E0F90133968E179F0709F01E
:10188000D8C06F716F3109F0D4C02F5F3F4FFA019C
:10189000E20FF31FC081CF778FEF8093023C9081DE
:1018A0008091903C97FF04C080FF04C082E003C099
:1018B00080FFFCCF81E08093173C0E94890688233B
:1018C00049F08091173C813011F482E001C081E041
:1018D0008093173C6C2F8091173CDF91CF911F9123
:1018E000FF90EF900C94840590E02E5F3F4F82179D
:1018F000930709F09EC08FEF8093013C8091903C4C
:1019000065FF04C080FF04C082E003C080FFFCCFFD
:1019100081E08093173C0E948906882349F08091DA
:10192000173C813011F482E001C081E08093173CC4
:1019300068818091173CDF91CF911F91FF90EF90CC
:101940000C94700590E02E5F3F4F8217930709F0CB
:1019500070C04091173C81E00CC090E02E5F3F4F7B
:101960008217930709F065C04091173C64FF08C0D7
:1019700082E0DF91CF911F91FF90EF900C94410294
:1019800083E0F7CF6E3D29F44091173C698184E0F4
:10199000F0CF6F3D09F04DC04091173C698185E063
:1019A000E8CFE2EDFCE37E0185ED9CE39E012F5F35
:1019B0003F4FAE014E5F5F4F61E01191D7017D91C6
:1019C0007D01171769F078817093D23CD9017C9121
:1019D0007093D33CDA017C917093D43C6093163CB5
:1019E0008E179F0751F71092163C988193FF21C0E4
:1019F000892F8370298192FF0EC090E0982F88274D
:101A0000820F911D6A810196DF91CF911F91FF9006
:101A1000EF900C949E0990E0982F8827820F911DDB
:101A20006A810196DF91CF911F91FF90EF900C9406
:101A3000BF0ADF91CF911F91FF90EF900895823000
:101A400069F19091193C992339F1FB0190819077CC
:101A5000903711F59EE19093193C833019F0843052
:101A6000C1F00895FB018081811107C0818181113E
:101A70000DC0828181110AC008958F3F39F4FB01A6
:101A80008181811103C082818F3F41F083E00C94FA
:101A9000EE0A84E00C945E0B0C94BD0B08958091CB
:101AA000173C089581E09091193C911101C080E0AC
:101AB0000895803430F4E82FF0E0E855FF4F84912A
:101AC000089580E00895CF93DF93C62F880F880F85
:101AD000962F9295969596959370890F0E94590D21
:101AE000D82F8C2F8F730E94590DC82F8D2F0E94D5
:101AF00062158C2FDF91CF910C946215CF93C0911A
:101B0000683CC13079F40E944E13969587952091D8
:101B10001A3C21111BC0692F81E00E94630DC09304
:101B20001A3C3BC0C23041F40E94861420911A3CFA
:101B300021110CC0692F23C0C33051F480911A3C8D
:101B4000811102C060E01BC00E94DF04682F20C02A
:101B50009091903C93FF21C08091A93C81111DC0C0
:101B600080911A3C95FD05C0882361F36091693C22
:101B70000FC081110BC06091A13C6F73605881E070
:101B80000E94630D81E080931A3C07C06091AA3CDB
:101B900082E00E94630D10921A3CCF910895CF937A
:101BA000DF93CDB7DEB7E197CDBFDEBF0E94330F25
:101BB0000E94E2140E9412120E94B1110E9466104B
:101BC0000E944F150E94810E0E94B9077894E12C63
:101BD00010E000E0F12CBE016F5F7F4FCE01C19697
:101BE0000E94761089A9882331F0BE016F5F7F4F74
:101BF0000E941F0D19AA0E94520D882339F00E94DD
:101C00000415882341F30E94B30BE5CF0E942410F2
:101C10008150823020F40E94950E0E94C20E0E94D4
:101C2000A61181110E947E0D0E940F15882321F0BC
:101C30000E9403140E9493000E940415882359F007
:101C4000111101C011E0E3948AE0E81207C00E947C
:101C50004213E12C03C0112309F4BDCF812F90E082
:101C6000FC013197EF30F10508F045C0E25CFF4F11
:101C70000C94A0150E944E100E94F80E3CC00E94C9
:101C80008D0639C00E94C40536C00E94D00033C002
:101C90008BEF810F0E9488032EC00E94B30B2BC0D4
:101CA0008091903C82FF27C00E945C10882319F12C
:101CB0000E94300F0E94BD050E94300F0E94ED006F
:101CC0001AC08091703C87FF16C0F39499E09F156D
:101CD00010F40F5FF12C402F50E0282F2F7330E0CD
:101CE0004217530744F086FF02C08BE001C08CE02E
:101CF0000E94F31200E01F5F103108F46CCF10E077
:101D00006ACFA0E0B4E080E212968C931297E0E4F0
:101D1000F4E084E0828355968C91559788605596BF
:101D20008C9382898860828B08958091080485FF56
:101D300006C08091213C8F5F8093213C05C080913B
:101D4000203C8F5F8093203C80911D3C8F5F8A3FB9
:101D500018F480931D3C089510921D3C9091C43C52
:101D600080911B3C90FF06C09091203C9A3010F46B
:101D7000816001C08E7F80931B3C1092213C1092A9
:101D8000203C08958091480482FF06C080911F3C4A
:101D90008F5F80931F3C05C080911E3C8F5F8093B6
:101DA0001E3C80911C3C8F5F8A3F18F480931C3C42
:101DB000089510921C3C9091C43C80911B3C91FF73
:101DC00006C090911E3C9A3010F4826001C08D7F55
:101DD00080931B3C10921F3C10921E3C08950E9461
:101DE0005004811103C080911B3C089580E0089548
:101DF000909108048091233C92FF11C090910804B7
:101E000094FD1DC09091223C992319F0915090931C
:101E1000223C8E31A0F48E5F8093233C10C09091C1
:101E2000080494FF0CC0882319F081508093233C50
:101E30008091223C8E3118F48E5F8093223C8091F9
:101E4000233C803110F081E005C08091223C80313C
:101E500020F082E08093243C08951092243C089561
:101E60008091243C089588ED84BF81E080936100D7
:101E7000E0E8F0E084E08083118208958091253CC1
:101E800090910804982792FF0BC09091080492FF4C
:101E900002C0846001C08B7F8093253C81E001C03B
:101EA00080E09091253C20910804292724FF0AC056
:101EB00082602091080424FF02C0906101C09F7ECF
:101EC0009093253C089580FF5AC02091253C909125
:101ED000393C22FF42C090FD3BC091609093393C59
:101EE00020914A0A30914B0A4091373C5091383C3E
:101EF0004217530728F420914A0A30914B0A05C033
:101F000020914A0A30914B0A3053241B350B209301
:101F1000353C3093363C90912B3C916090932B3C18
:101F200020914A0A30914B0A29333F4C38F02091D6
:101F30004A0A30914B0A28533F4C06C020914A0A66
:101F400030914B0A28533F4F2093D53C3093D63CD9
:101F50001092323C10922A3C12C090FF10C09E7F1B
:101F60009093393C20914A0A30914B0A2093373C98
:101F70003093383C90912B3C9E7F90932B3C837008
:101F8000B9F19091253C8091393C94FF27C081FDA7
:101F900020C082608093393C80912B3C826080938A
:101FA0002B3C80914A0A90914B0A89339F4C38F020
:101FB00080914A0A90914B0A88539F4C06C08091A9
:101FC0004A0A90914B0A88539F4F8093F93C909313
:101FD000FA3C1092323C10922A3C089581FF08C0CE
:101FE0008D7F8093393C80912B3C8D7F80932B3C5F
:101FF00008951F920F920FB60F9211242F933F93C3
:102000004F935F936F937F938F939F93AF93BF9300
:10201000EF93FF93E0E0F4E08185846181870E9483
:102020003E0F0E94630FFF91EF91BF91AF919F917F
:102030008F917F916F915F914F913F912F910F9071
:102040000FBE0F901F90189590912B3C90FF10C0E1
:1020500040914A0A50914B0A2091D53C3091D63C90
:102060002417350728F49E7F90932B3C81E0089538
:10207000892F827091FF11C040914A0A50914B0AFA
:102080002091F93C3091FA3C2417350728F49D7FC4
:1020900090932B3C82E0089580E0089580912C3C41
:1020A00090912D3C803223E0920728F40196809392
:1020B0002C3C90932D3C089581E020912C3C309154
:1020C0002D3C2032334008F480E00895E0E0F4E055
:1020D00084E1828381E0828B848BE0E4FAE083E018
:1020E00080838FEF9FEC848795870895FC01809112
:1020F000903C83FF8DC04091323C4423E1F18091BC
:10210000080482FD04C08091080484FF09C0109275
:10211000323C10922A3C1092283C1092293C78C004
:1021200020914A0A30914B0A8091303C9091313C89
:102130008217930728F420914A0A30914B0A05C070
:1021400020914A0A30914B0A3053281B390B4130F9
:1021500009F05EC08091263C9091273C28173907F2
:1021600008F456C080912E3C816080932E3C82E022
:102170008093323C4DC080912A3C8823B1F18091FC
:10218000080482FDC4CF8091080484FDC0CF209153
:102190004A0A30914B0A8091283C9091293C821741
:1021A000930728F420914A0A30914B0A05C02091E8
:1021B0004A0A30914B0A3053281B390B233831051A
:1021C00038F181E08093323C80914A0A90914B0A29
:1021D0008093303C9093313C8CE390E08093263C9C
:1021E0009093273C10922A3C08958091080482FD28
:1021F0000FC08091080484FD0BC080914A0A909121
:102200004B0A8093283C9093293C81E080932A3CA0
:102210008091353C9091363C009739F42091333CC5
:102220003091343C232B09F490C01092353C10922D
:10223000363C1092333C1092343C9C012D5D3109A8
:10224000253E310588F481E08093FB3C80912F3C52
:102250008F5F80932F3CA091FC3CB0E0A752B34C21
:102260008C91880F8F5F21C0855F91408B35914C99
:1022700008F06BC01092FB3C80912F3C8E3060F0D8
:1022800081E080931D3D1092D93C1092FC3C10924D
:102290001E3D10922F3C089510922F3CA091FC3CC3
:1022A000B0E0A752B34C8C91880F8C938091FC3C8A
:1022B000803208F04AC080911D3D81111BC0809181
:1022C000FB3C8130B9F480911E3D811113C0108216
:1022D00080819091FC3C891770F490E0DC01A7525A
:1022E000B34C2C91DB01A80FB91F2C9380818F5F19
:1022F0008083EECF108280911D3D8F5F80931D3DC6
:10230000893019F510922C3C10922D3CE091FC3C48
:10231000E11107C08091D93C8F3F19F48093FC3CB8
:102320000895AE2FB0E0A752B34C90911E3D8C9112
:10233000892780931E3DEF5FE093FC3CF0E0E7527D
:10234000F34C108210921D3D0895089590912E3CFB
:10235000892F817090FF04C09E7F90932E3C81E076
:102360000895E0E0F4E0818188688183E0E2F4E0B0
:10237000818188638183A0E4B4E011968C911197E8
:10238000836011968C9381818D7F818388E0818B1E
:10239000089590E08730910538F5FC01E35BFF4F2D
:1023A0000C94A01588E003C082E00EC080E866238C
:1023B00019F080930504089580930604089588E039
:1023C0000CC080E20AC081E0662319F080934504C6
:1023D000089580934604089580E1662319F0809360
:1023E00025040895809326040895809128048695F5
:1023F000817091E08927089580913A3C0895CF93A8
:10240000813019F480933A3C02C010923A3CC0E00B
:1024100060913A3C8C2F0E94C911CF5FC730C1F741
:10242000CF910895E0E0F4E082818260828381812F
:1024300080648183A0E2B4E011968C911197816051
:1024400011968C93A0E4B4E011968C91119788605A
:1024500011968C93119786818064868316968C9151
:102460001697886016968C93A0E0BAE091E09C9352
:1024700083E111968C9311972FEF30E096962D9370
:102480003C93979798961D921C92999785818064AA
:10249000858380E38093A000E0E0F6E085E0808320
:1024A000918384E4828380E28383148208959091EF
:1024B0004B3C911128C09091B63C913021F1813074
:1024C00059F4809146048860809346048091050405
:1024D0008064809305040895823059F48091060445
:1024E000806480930604809145048860809345044D
:1024F00008958091060480648093060480914604C8
:102500008860809346040895813071F493E090933D
:10251000010A98E09093460490E490930504809318
:10252000250480934B3C089588E08093460480E422
:102530008093060481E08093260483E18093010A5E
:1025400010924B3C08959091B63C913079F08130D7
:1025500059F0823011F483E007C08C3011F48DE023
:1025600003C08B3019F48FE08093000A08951F9206
:102570000F920FB60F9211242F933F934F935F93B7
:102580006F937F938F939F93AF93BF93EF93FF933B
:1025900080910B0A816080930B0A80914A3C8823CA
:1025A00089F0813051F40E94A31210924A3C80912C
:1025B0000A0A8E7F80930A0A05C00E94A31281E056
:1025C00080934A3CFF91EF91BF91AF919F918F9182
:1025D0007F916F915F914F913F912F910F900FBE1F
:1025E0000F901F90189590914B3C91110BC09091BA
:1025F000B63C913039F080934A3C80910A0A816060
:1026000080930A0A08959091443C60919E3C9617ED
:1026100098F42091AB3C30E04FEF50E0421B530B5D
:10262000949FF001959FF00D112470E0CF010E945E
:102630008C15862F820F08958FEF0895CF93909178
:10264000B63C913019F48093443C17C09091443CBF
:10265000891799F0C82F8093463C8093443C0E9490
:102660000313682F8093473C2FEFC29FC0011124B2
:1026700070E00E9478156093433CCF91089580915B
:10268000443C08958091653C87FF07C08091423C9F
:10269000811103C081E08093423C089580913F3CCA
:1026A0009091403C08958F929F92AF92BF92CF92AB
:1026B000DF92EF92FF920F931F93CF93DF9340919E
:1026C000463C411103C01092453C90C0A0909A3CFA
:1026D000B12CC0909B3CD12CE0909C3CF12C2091E3
:1026E0003F3C3091403C369527955FEF529FC001AB
:1026F000539F900D11246091A23C70E00E947815C8
:10270000242F30E0CB016F3F710519F014F08FEFEB
:1027100090E08901081B190BEAE0F0E0C801BF0155
:102720000E948C1580913D3C90913E3CEB01C80F7E
:10273000D91FC0933D3CD0933E3C80913B3C90914F
:102740003C3CB801681B790BCB0164E670E00E9449
:102750008C154B0100933B3C10933C3CA09EC00168
:10276000A19E900DB09E900D1124BF010E948C156A
:102770008B01CC9EC001CD9E900DDC9E900D11244E
:10278000BF010E948C15E801C60FD71FE89CC0014D
:10279000E99C900DF89C900D1124BF010E948C15AE
:1027A0006C0F7D1F6F3F710529F024F08FEF809330
:1027B000453C07C077FF03C01092453C02C06093C0
:1027C000453C5091453C852F90E0451738F4821BDD
:1027D000930B813A910554F0405606C0281B390BE3
:1027E000213A31051CF0405A4093453CDF91CF918E
:1027F0001F910F91FF90EF90DF90CF90BF90AF901F
:102800009F908F9008958091B63C813009F47DC0EF
:1028100080914B3C811179C08091423C8823C9F161
:102820008436E8F4813059F48091280A9091290A7D
:102830008093413C1092280A1092290A0AC08A30DB
:1028400041F481E0809306068093080684E6809335
:10285000423C8091423C8F5F8093423C0895853694
:1028600009F053C08091080680FD4FC0809110068A
:102870009091110680933F3C9093403C1092423CD3
:102880008091413C90E08093280A9093290A0C940F
:1028900053139091653C892F8F7729F497FD2BC0B6
:1028A0008091443C2DC0833051F48091493C10927A
:1028B000493C8F3F09F408958091483C06C08091BF
:1028C000483C91FF02C08E5F01C08F5F8093483CFF
:1028D0002091473C8091483C281758F41092280AD0
:1028E0001092290A8EEF90E08093200A9093210A9B
:1028F000089597FF03C08091453C02C08091433CFE
:1029000090E08093280A9093290A08958091453C8D
:1029100090E008959091B63C913059F593E09093F2
:10292000010A613059F490914604986090934604EE
:102930009091050490649093050412C09091060450
:10294000906490930604623031F49091450498604D
:102950009093450405C09091460498609093460476
:10296000882321F081E080932504089581E08093FD
:10297000260408951F920F920FB60F9211248F9381
:1029800080914C3C816080934C3C81E0809353016A
:102990008F910F900FBE0F901F9018951F920F925E
:1029A0000FB60F9211248F9383E08093430180919F
:1029B0004C3C826080934C3C8F910F900FBE0F90E7
:1029C0001F901895809141018111FCCF10924C010C
:1029D00010924D0181E090E080934A0190934B0169
:1029E0001092470181E880934001809152018160FB
:1029F0008093520181E28093500180914201836073
:102A0000809342017894089590914C3C892F817075
:102A100090FF04C09E7F90934C3C81E0089590917C
:102A20004C3C892F827091FF04C09D7F90934C3C59
:102A300081E008951F920F920FB60F9211248F9389
:102A40009F93EF93FF938091040880628093040822
:102A5000F89480914E3CE82FF0E0E05EF24C9081DB
:102A6000909302088F5F803318F480934E3C02C02D
:102A700010924E3C90914E3C80914D3C981305C075
:102A8000809105088F7D809305087894FF91EF91E0
:102A90009F918F910F900FBE0F901F901895E0E2BD
:102AA000F4E0818184608183858184608583E0E0B6
:102AB000F8E080EA90E08087918780E4868383E075
:102AC0008783089590914D3CE92FF0E0E05EF24C51
:102AD00080839F5F903318F490934D3C02C0109216
:102AE0004D3C809105088062809305087894089594
:102AF000AA1BBB1B51E107C0AA1FBB1FA617B70724
:102B000010F0A61BB70B881F991F5A95A9F780953F
:102B10009095BC01CD01089597FB072E16F4009403
:102B200007D077FD09D00E94781507FC05D03EF448
:102B3000909581959F4F0895709561957F4F089569
:102B4000EE0FFF1F0590F491E02D099403D08081D2
:102B500099270895FC01E050FC4E0895262F0E940D
:102B6000AA150080021619F00E94BA150197019764
:102B70000895262FAF93BF93E0E0F0E1328131FD5D
:102B8000FDCFDC01A050BC4E2C932DE924BF23E0E7
:0E2B900020830196BF91AF910895F894FFCF76
:042B9E00FFFFFF0036
:00000001FF
