:100000000C9474000C9491000C9491000C94401189
:100010000C9491000C9491000C94DC150C94C81570
:100020000C94E1130C9491000C9491000C949100A9
:100030000C9491000C9491000C9491000C949100FC
:100040000C9491000C9491000C9491000C949100EC
:100050000C9491000C9491000C9491000C949100DC
:100060000C9491000C9491000C9491000C949100CC
:100070000C9428160C9491000C949100FE0E030F22
:10008000060F090F0C0F0C0F0C0F0C0F0C0F0C0FA1
:100090000C0F0C0F110F140F250F19131B131D1329
:1000A000261328132A133313ACAAA9A5A3A69C9A36
:1000B000999593968E8D8BB1B2B4B874726C6A694F
:1000C0006563665C5A595553564E4D4B4771E8E48B
:1000D000E2D1C9C5D8D4D2C9C6CC78171B1D1E2EF3
:1000E000363A272B2D35393311241FBECFEFCDBF24
:1000F000DFE3DEBF1CE3A0E0BCE3E6ECFDE202C010
:1001000005900D92A430B107D9F72DE3A4E0BCE32C
:1001100001C01D92A136B207E1F70E94890E0C942E
:10012000E1160C9400008091083C882309F440C03B
:100130008091053C8730A0F4E82FF0E0E856F34CBE
:100140009081992339F12091AB3C2F7092959F704B
:10015000291710F461E001C060E00E9410131AC07A
:100160008730C1F480919F3C8823A1F09091AB3CF3
:100170009F7082958F702091B23C22FD03C06091E8
:100180006A3C01C061E0981710F481E001C080E092
:100190000E94A3158091053C8F5F8093053C8830B9
:1001A00039F48091AB3C8F5F8093AB3C1092053C5F
:1001B00008950E944313811118C08091043C8F5F01
:1001C000803118F48093043C02C01092043CE7E5AF
:1001D000FCE380819181009719F0019680839183DF
:1001E00032968CE3E936F807A1F7089540916B3C0D
:1001F000E7EBFCE390E021E03191307C49F03034D2
:1002000019F4813041F404C0303829F4823019F4F3
:10021000342F3223932B220F3CE3EF3BF30761F79C
:1002200080936A3C47FF05C08091BF3C813009F450
:1002300090689093063C08956F7146131BC04091DF
:10024000B23C222351F021E030E001C0220F8A9518
:10025000EAF7242B2093B23C089521E030E0B90165
:1002600002C0660F771F8A95E2F7CB018095842341
:100270008093B23C08950F93CF93DF93962F9F7195
:10028000491363C0607C482F50E09091063CE09198
:10029000073C611103C021110BC02EC0603419F45A
:1002A000013051F5F8CF603839F5023029F5F3CF38
:1002B000C1E0D0E09E01082E01C0220F0A94EAF7A7
:1002C000922B9093063C6E2F70E060957095DB0149
:1002D00002C0B595A7958A95E2F7A0FF36C0DA016E
:1002E000AA0FBB1FA95AB34CCD93DC93DA01A856D1
:1002F000B34C1C922E2B27C0C1E0D0E09E01082EEB
:1003000001C0220F0A94EAF7209592239093063CAD
:100310006E2F70E0DB0102C0B595A7958A95E2F7D4
:10032000A0FF13C0DA01AA0FBB1FA95AB34CCD938B
:10033000DC93DA01A856B34C1C928091083C8223CE
:100340008093083C2E232093073CDF91CF910F919F
:1003500008959091BF3C913069F58F7168132AC060
:100360009091063C8091073C442379F090689093EB
:10037000063C87FD1FC021E030E02093653C3093B0
:10038000663C10929F3C806813C09F779093063C18
:1003900087FF10C021E030E02093653C3093663C3D
:1003A00010929F3C9091083C9F779093083C8F77E8
:1003B0008093073C0895EF92FF920F931F93CF9382
:1003C000DF93C82FD62F142F40936A3C85EBE82E7D
:1003D0008CE3F82E262F4C2FF701608180E00E94DD
:1003E0001C012D2F4C2FF701618181E00E941C011F
:1003F000012F2D2F4C2FF701628180E00E943B01DD
:100400002D2F4C2FF701638181E00E943B012D2F9E
:100410004C2FF701648182E00E943B012D2F4C2F6D
:10042000F701658183E00E943B012D2F4C2FF701DE
:10043000668184E00E943B012D2F4C2FF7016781DC
:1004400085E00E943B012D2F4C2FF701608586E04F
:100450000E943B01212F4D2F6C2FF70181850E94B7
:10046000A9012D2F4C2F6091A43C83E00E941C0118
:100470002D2F4C2F60916D3C82E00E941C012D2F8E
:100480004C2F6091A93C86E00E941C012D2F4C2F1F
:100490006091AF3C87E0DF91CF911F910F91FF906A
:1004A000EF900C941C01DF92EF92FF920F931F9339
:1004B000CF93DF93182FE62E042F813049F4C0919B
:1004C000693CCC2309F459C084E0F82ED1E029C05E
:1004D000823049F4C091963CCC2309F44EC048E0E8
:1004E000F42ED5E01EC0833049F4C0916E3CCC237D
:1004F00009F443C03CE0F32ED9E013C0843041F44A
:10050000C091AA3CCC23C9F124E1F22EDDE009C060
:10051000853099F5C091A53CCC2379F19CE1F92E69
:10052000D5E10E943C13882329F0013011F001E04D
:1005300001C002E0DD24D394FD1660F08C2F8D21E4
:1005400031F0402F6D2D6E218D2F0E94DB01DD0CCF
:10055000DF5FF2CF113089F48091693C84FF0DC0D8
:100560006E2D6071402F80E0DF91CF911F910F9130
:10057000FF90EF90DF900C94DB01DF91CF911F9102
:100580000F91FF90EF90DF900895962F873010F431
:100590000C941013873021F4642F892F0C94A31529
:1005A00008956F927F928F929F92AF92BF92CF9257
:1005B000DF92EF92FF920F931F93CF93DF931F92DF
:1005C000CDB7DEB7873051F440916A3C423019F420
:1005D0006090CC3C0DC06090CB3C0AC0873008F0E6
:1005E00078C040916A3CE82FF0E0EE53F34C628013
:1005F000862E282F30E061E070E06B01082E01C0EC
:10060000CC0C0A94EAF79090063C9C20962D9F70A3
:10061000B9016856734C5B01913041F58091C23C41
:10062000807F77247394780E8091B23C8901000F0B
:10063000111F82FD04C083FD02C080FF09C0980124
:10064000295A334C75018E010F5F1F4F482D0CC086
:100650000E9469149801295A334C75018E010F5F6D
:100660001F4F482D81112AC0672D29C0923049F4AF
:100670009091B23C92FD0DC093FD0BC091FF15C04F
:1006800008C0933091F49091B23C92FD02C093FF68
:100690000CC0F5011082C0949091083CC922C09210
:1006A000083C60E00E94C50214C0220F331F295A83
:1006B000334C75018E010F5F1F4F482D662D892D1C
:1006C0000E945404F50180838091083CC82AC0929E
:1006D000083C0F90DF91CF911F910F91FF90EF9009
:1006E000DF90CF90BF90AF909F908F907F906F9052
:1006F0000895AF92BF92CF92DF92EF92FF920F9345
:100700001F93CF93DF93E82EF12CC1E0D0E0082EA9
:1007100001C0CC0F0A94EAF7873029F49091BF3CCE
:10072000913009F0AAC0182F670182E0C80ED11CD1
:10073000F601EB54F34C5F018081982F9F719F313C
:1007400009F050C0807C19F48091063C14C00E94CE
:10075000F20D082F0E943C13882329F0023011F07B
:1007600002E001C001E0F50190818091063C97FF15
:1007700006C0023011F48C2B0BC09C2F07C096FFD3
:1007800009C09C2F013011F48C2B02C09095892355
:100790008093063C2091063C8091073C422F4827DD
:1007A00050E0012E02C0559547950A94E2F740FFAC
:1007B00019C0F701EE0FFF1FE95AF34C41E050E07A
:1007C0004083518330E0012E02C0359527950A946D
:1007D000E2F720FF02C08C2B03C09C2F9095892349
:1007E0008093073C8091063C8C2379F06091043C17
:1007F000812FDF91CF911F910F91FF90EF90DF90AC
:10080000CF90BF90AF900C94D1028091B23C82FD0A
:10081000EDCF81FF0AC0F601EE53F34C80818F705B
:10082000823099F0833089F4E1CF173071F460E0C1
:1008300080E0DF91CF911F910F91FF90EF90DF90BB
:10084000CF90BF90AF900C94A315F701E856F34CEE
:100850001082C0958091083CC823C093083C60E09A
:10086000812FDF91CF911F910F91FF90EF90DF903B
:10087000CF90BF90AF900C941013DF91CF911F9148
:100880000F91FF90EF90DF90CF90BF90AF900895C1
:100890008091B23C881F8827881F08958091B23CC0
:1008A00086FB882780F90895EF92FF920F931F939C
:1008B000CF93DF93982FF901D801E701862F829516
:1008C0008F70462F4F70413009F5911105C010828D
:1008D000118218821C927FC020813181211531053F
:1008E00029F1B9017695679576956795962F92953A
:1008F0009F70981738F010821182962F9F6098830E
:100900004C9384C068834C93862F85C0443089F013
:10091000453009F44EC0463009F075C09923B9F24C
:10092000408151814115510509F057C06F606883BE
:100930006AC0992361F2408151814115510509F442
:1009400062C04832510530F491E09C9318821092B5
:10095000093C15C04238510540F1443B510548F46B
:1009600091E09C93188228E0829FC0011124876047
:1009700052C0423D510548F491E09C93188224E016
:10098000829FC0011124836046C04C3791E0590713
:10099000D8F443FF0AC081E08C9318828091093C0F
:1009A0008F5F8093093C880F36C091E09C9318823A
:1009B00032C0992309F48BCF4081518141155105F3
:1009C00011F14039514028F0108211821C92188296
:1009D0001DC01C92188280E01EC056954795569502
:1009E0004795942F92959F70981740F0108211822E
:1009F000942F9F60988391E09C9308C0488381E086
:100A00008C93842F08C0108211821C9220E1829F57
:100A1000C00111248F60DF91CF911F910F91FF9042
:100A2000EF9008958091D03C0895CF93DF93D82F15
:100A3000C62F6093D03C0E944804882331F08091F7
:100A4000953CC89FC0011124C92F0E943C138823E4
:100A500029F0D23011F0D2E001C0D1E08091003C09
:100A6000D81741F08D2F0E948D13D093003C8FEF4B
:100A70008093123CC13029F41092CF3C1092CE3CAE
:100A800063C08091CE3C811113C08091B13C88231A
:100A900079F0CC2359F090910B3C911104C08093D4
:100AA0000B3C1092143CC0930A3C53C010920A3C79
:100AB000C093CE3C8091713CC81710F4C111C82F6F
:100AC0009091CF3C981718F4C1118093CF3C80913E
:100AD000123C811139C08091113C81113AC00E94B1
:100AE0000B109091103CD81709F1992321F08091B7
:100AF000C13C81112EC090FF03C09E7F9093103C9B
:100B00009091CE3C8091CF3C981720F42091733C7B
:100B1000222341F0891720F42091723C222311F006
:100B2000981317C0C093CF3C8C2F0FC09160909347
:100B3000103C80916C3C81110CC08091733C811100
:100B400008C01092CF3C01C080E0DF91CF910C949F
:100B50004814DF91CF9108951092113CE62FEF7069
:100B6000EE0F11F460E00AC0E23011F461E006C05B
:100B700064FDEF5FF0E0EB58F34C60810C941505D9
:100B80001092113C9091713C5091753C3091743CA5
:100B9000951700F55317F0F4603450F4591B569F25
:100BA000B001112456E0759567955A95E1F71CC080
:100BB000432F451B70E060547109469F9001479F89
:100BC000300D112446E0359527954A95E1F7652FBC
:100BD000620F0DC0931750F4391B369FB0011124DA
:100BE000660F672F661F770B690F01C0660F0C94A5
:100BF000150591E09093113C6091C03C0C94150553
:100C00008091123C8823D1F081508093123C811155
:100C1000CCC09091CE3C8091CF3C981720F420918D
:100C2000733C222349F0891720F42091723C22233F
:100C300019F09813BAC0892F0C94481490910B3C6A
:100C40008091143C8F5F992389F0843688F010924C
:100C5000143C8FEF890F80930B3C8111A6C08091CB
:100C60000A3C8093CE3C1092CF3C0895803118F41A
:100C70008093143C08951092143C9091133C9F5F14
:100C80009093133C8091113C8823B1F08091CF3C2C
:100C90002091CE3C821738F42091A63C921708F49C
:100CA00084C08F5F6CC0281708F07DC02091A63CDF
:100CB000921708F47AC062C00E940B109091003C19
:100CC000891709F442C09091103C8091CE3C90FF6E
:100CD00025C09091C13C911104C09091723C992320
:100CE00051F02091133C291760F09091CF3C981758
:100CF00040F481E0890F8093CF3C0E944814109209
:100D0000133C9091CF3C8091CE3C981708F44DC095
:100D10008091103C8E7F8093103C08959091CF3C41
:100D2000981740F42091723C8091133C8217E8F1AF
:100D300081E009C08917B8F52091733C8091133C7C
:100D4000821798F18FEF890F1AC08091CF3C8823CA
:100D500061F19091103C91609093103C90916C3CAB
:100D6000911110C09091733C911104C01092CF3C2E
:100D700080E017C02091133C2917B8F08150809370
:100D8000CF3C0FC02091133C291778F081508093FD
:100D9000CF3C9091CE3C981710F49093CF3C80912B
:100DA000CF3C0E9448141092133C089580910F3C50
:100DB000817008958091783C882309F441C00E9495
:100DC0000B109091003C891335C020910D3C30915F
:100DD0000E3C2F5F3F4F283E93E0390728F42093C5
:100DE0000D3C30930E3C089510920D3C10920E3C39
:100DF00090910C3C9F5F90930C3C2091783C921713
:100E0000F8F090910F3C90FF02C09E7F01C091606E
:100E100090930F3C813011F482E003C0823019F4CA
:100E200081E08093003C8091003C0E948D138FEF05
:100E30008093123C10920D3C10920E3C10920C3C90
:100E4000089590E0805090400C94B4168F3F910527
:100E500009F010F40C94210780E00895909102109D
:100E600091FDFCCF90E0805090400C94BC1669E05E
:100E700083E40E942E0762E184E40E942E076BE166
:100E800085E40E942E0764E286E40E942E076EE24B
:100E900087E40E942E0767E388E40E942E0760E43F
:100EA00089E40E942E0769E48AE40E942E0762E525
:100EB0008BE40E942E076BE58CE40E942E0764E60B
:100EC0008DE40E942E076DE68EE40E942E0766E7F1
:100ED0008FE40E942E0760E880E50E942E0769E8F3
:100EE00081E50E942E0762E982E50E942E076BE9E8
:100EF00083E50E942E0764EA84E50E942E076DEACE
:100F000085E50E942E0766EB86E50E942E076FEBB3
:100F100087E50E942E0768EC88E50E942E0761EDA8
:100F200089E50E942E076BED8AE50E942E0764EE8C
:100F30008BE50E942E076DEE8CE50E942E0766EF72
:100F40008DE50E942E076FEF8EE50C942E078530FD
:100F5000A8F44091693C811103C0842F80610BC0CB
:100F6000815021E030E0B90102C0660F771F8A95F9
:100F7000E2F7CB01842B8093693C0895893080F49B
:100F8000855021E030E0A90102C0440F551F8A9529
:100F9000E2F7CA019091963C892B8093963C089584
:100FA0008D3080F4895021E030E0B90102C0660F35
:100FB000771F8A95E2F7CB0190916E3C892B809345
:100FC0006E3C0895853180F48D5021E030E0A90118
:100FD00002C0440F551F8A95E2F7CA019091AA3CBE
:100FE000892B8093AA3C08958D3178F4845121E0B7
:100FF00030E0B90102C0660F771F8A95E2F7CB0196
:101000009091A53C892B8093A53C0895EF92FF9287
:101010000F931F93CF938091021081FDFCCF80E04E
:1010200090E00E94B4168F3F39F4CF911F910F9139
:10103000FF90EF900C94F90800E71CE3C0E0CF5F4D
:101040008C2F0E942107F80181938F01C630B9F7D8
:1010500081E190E00E94B4168093A73C82E190E089
:101060000E94B4168093B43C83E190E00E94B416D1
:101070008093B33C8BE190E00E94B4168093CD3C0A
:101080008DE190E00E94B4168093973C09E71CE341
:10109000C3E48C2F0E942107F80181938F01CF5F59
:1010A000CF35B9F785EBE82E8CE3F82E02EC1CE384
:1010B000C1E28C2F0E942107F70181937F018F717C
:1010C0000E94A7078FE48C0F0E942107F8018193EB
:1010D0008F01CF5FCC3269F78CE290E00E94B416AA
:1010E000C82F8093A43C8DE290E00E94B4168093B8
:1010F0006D3C8C2F8F710E94A70780916D3C8F7182
:101100000E94A70782E390E00E94B41680936B3C94
:1011100083E890E00E94B4168093953C8FE290E0C3
:101120000E94B4168093773C83E390E00E94B4164B
:101130008093A93C8F710E94A70784E390E00E94EE
:10114000B4168093783C85E390E00E94B4168093B7
:10115000C13C86E390E00E94B41680936C3C80E32F
:1011600090E00E94B4168093763C87E30E942107AA
:101170008093A13C88E30E9421078093A23C89E3ED
:101180000E9421078093A33C8AE890E00E94B41655
:101190008093A83C8AE390E00E94B4168093C03C00
:1011A0008BE390E00E94B4168093A63C0CEA1CE30B
:1011B000CCE38C2F0E942107F80181938F01CF5F30
:1011C000C134B9F78091AF3C8F710E94A7078CE8BA
:1011D00090E00E94B4168093B13C84EF90E00E94AE
:1011E000B41680936F3CCF911F910F91FF90EF90B9
:1011F000089563E081E00E942E0760E082E00E9493
:101200002E0760E083E00E942E0760E084E00E94E9
:101210002E076FEF85E00E942E076FE786E00E94A1
:101220002E0762E087E00E942E076DE088E00E94B2
:101230002E0760EC81E10E942E0760E082E10E94AF
:101240002E0760E083E10E942E0763E08BE10E949D
:101250002E076EE08DE10E942E0764E081E20E947D
:101260002E0767E082E20E942E0760E483E20E947C
:101270002E0761E884E20E942E0761E885E20E9461
:101280002E0760E886E20E942E0761E487E20E9452
:101290002E0761E488E20E942E0763E089E20E9443
:1012A0002E0760E08AE20E942E0760E08BE20E9437
:1012B0002E076EE38CE20E942E076EE38DE20E9401
:1012C0002E076FEF82E30E942E076FE48FE20E94E9
:1012D0002E0767E080E30E942E076FEF83E30E94F2
:1012E0002E0760E084E30E942E076AE085E30E94F7
:1012F0002E0763E086E30E942E076EE187E30E94DB
:101300002E076AE088E30E942E0768E289E30E94C4
:101310002E076FE78AE30E942E0763E08BE30E94AB
:101320002E0763E88CE30E942E076FE58DE30E9491
:101330002E0760EC8EE30E942E0767E08FE30E9489
:101340002E0761E080E40E942E0760E480E70E949F
:101350002E0761EF82E70E942E0763EF83E70E946A
:101360002E0762EF84E70E942E0761EF85E70E9457
:101370002E0763EF86E70E942E0762EF87E70E9441
:101380002E0764EF88E70E942E0761EF89E70E942D
:101390002E0762EF8AE70E942E076FE383E80E9420
:1013A0002E0764E68AE80E942E0760E08CE80E941F
:1013B0002E0760E084EF0E942E070E94370760E04E
:1013C00080E00E942E070C9406080F931F93CF9382
:1013D000DF93EC01162F8F3F910511F008F00AC141
:1013E0008F50823058F08FE090E00E94B416082FA2
:1013F00080E190E00E94B4160813FCC0C433D1050C
:1014000009F4D0C008F058C0CD31D10509F4B5C0F9
:1014100040F5C830D10509F49BC060F4C130D10556
:1014200008F4E0C0C730D10508F0E4C0FE01E1597E
:10143000F34CC1C0C231D10509F499C038F4C131AF
:10144000D10509F0CFC01093A73CCCC0C331D10562
:1014500009F490C0CB31D10509F0C4C01093CD3C44
:10146000C1C0CD32D10509F494C078F4C132D105A0
:1014700008F4B8C0812F8F71CC32D10508F084C038
:10148000FE01EC56F34C108381C0C033D10509F442
:1014900086C038F4CF32D10509F0A4C01093773C50
:1014A000A1C0C233D10509F477C0C333D10509F017
:1014B00099C01093A93C96C0CF33D10509F484C0DC
:1014C000D8F4CA33D10578F4C733D10508F070C019
:1014D000C533D10509F469C0C633D10509F082C00E
:1014E00010936C3C7FC0CB33D10509F466C008F083
:1014F00067C01093C03C76C0CB37D10590F4C0379D
:10150000D10508F066C0C034D10509F459C0CE0138
:10151000835491094C9708F065C0FE01EA5CF34CD6
:101520004AC0CA38D10509F458C038F4C338D105C7
:1015300009F058C01093953C55C0CC38D10509F43A
:101540004FC0C43FD10509F04DC010936F3C4AC055
:101550001D3019F0183009F04DC06FEF80E00E9487
:101560002E07DF91CF911F910F910C94F9081093E2
:10157000B43C38C01093B33C35C08091B03C80FD82
:1015800018601093973C2EC01093A43C0E94A707AC
:1015900029C010936D3C1AC010936B3C23C010936C
:1015A000763C20C01093783C1DC01093C13C1AC0FB
:1015B000FE01E659F34C108315C01093A63C12C0EF
:1015C000FE01E059F34CF7CF1093AF3C812F8F71A0
:1015D000DDCFFE01EE5AF34CEECF1093A83C02C0D3
:1015E0001093B13C612F8C2FDF91CF911F910F9100
:1015F0000C942E07DF91CF911F910F910895FF92C8
:101600000F931F93CF93DF938C01F62E862F877055
:10161000C1E0D0E001C0CC0F8A95EAF7C8010E9472
:101620002607F3FE03C06C2F682B03C0C0956C2FF8
:101630006823C801DF91CF911F910F91FF900C9407
:10164000E50981E08093163C8093173C0E94461385
:1016500081E00C94AE138BE08093163C81E0809384
:10166000173C0E94461381E00C94AE131092163C76
:101670001092173C82E00E94461382E00C94AE1355
:101680001092D13C0895CF93FB0120818091D33CEF
:1016900028135DC0C1818091D43CC81358C0928189
:1016A0008091D53C981353C022FD1CC08091153CFD
:1016B00090E00197880F991F880F991F322F337080
:1016C000830F911D019623FF06C06C2F0E94E50930
:1016D0008091D13C2CC00E942607C81342C0809143
:1016E000D13C2FC0822F8770853081F028F4843060
:1016F000C1F58DE190E012C0863029F0873089F580
:1017000088E090E00BC087E090E008C08091D13C79
:1017100080FD27C0C093153C816014C023FF09C021
:101720006C2F0E94E5098091D13C82FD1AC0846033
:1017300009C00E942607C81314C08091D13C81FDC6
:1017400010C082608093D13CCF910C94210B2093E8
:10175000D33C81818093D43C82818093D53C10928C
:10176000173CCF9108950F931F93CF93DF93FB0105
:1017700080819091D33C89136BC001819091D43CBE
:10178000091366C0C2819091D53CC91361C0238101
:101790009091D63C29135CC09091173C91116BC07D
:1017A000982F937010E0090F111D0F5F1F4F8C7061
:1017B000883039F08C3009F441C0843009F05BC0C6
:1017C00037C08C2F807E803E09F055C08C2F8770EB
:1017D000C1E0D0E002C0CC0FDD1F8A95E2F7C8015E
:1017E0000E9426072091D53C922F987024FF12C0AA
:1017F000992319F06C2F682B04C09C2F9095692FAA
:101800006823C8010E94E509DF91CF911F910F91D4
:101810000C942B0B992319F0C82369F1F5CF682F8D
:1018200070E060957095C623D723CD2B21F1ECCFC6
:10183000C8010E942607C8131EC004C06C2FC8012F
:101840000E94E509DF91CF911F910F910C94210B1C
:101850008093D33C81818093D43C82818093D53C1A
:1018600083818093D63C1092173CDF91CF911F91DA
:101870000F910C94360BDF91CF911F910F9108952A
:101880008091163C882389F08F5F8D3018F4809307
:10189000163C08951092163C81E08093173C82E03C
:1018A0000E94461382E00C94AE13089580911B3C75
:1018B000882329F0815080931B3C0C94400C0895A0
:1018C000EF92FF921F93CF93DF93FB0190818330C0
:1018D000E9F4911110C02181211118C02281211138
:1018E00015C08EE180931B3CDF91CF911F91FF903B
:1018F000EF900C94400B9F3F49F42181211106C0C9
:1019000022812F3F19F410921B3C36C13091B33C19
:10191000332341F097FD06C09181907E903E11F0F7
:1019200030931A3C30911A3C9081332339F099233B
:1019300009F422C19F7793131FC11FC097FD09C0EF
:101940002091973C25FD05C02091703C921314C155
:1019500014C0292F207C203C09F00EC12091973C17
:1019600025FF0AC12091A73C921306C121819091C5
:10197000B43C291301C122E001C021E030E0EF01B5
:10198000C20FD31F6881962F907E903809F47DC0D6
:1019900050F4AF01903409F44AC0903609F447C0BE
:1019A000903259F0E9C0903C09F48FC0903E09F4A0
:1019B0009BC0903A09F0E0C073C090E0F901339603
:1019C0008E179F0709F0D8C06F716F3109F0D4C02E
:1019D0002F5F3F4FFA01E20FF31FC081CF778FEFE8
:1019E0008093023C90818091973C97FF04C080FFD8
:1019F00004C082E003C080FFFCCF81E08093193CEB
:101A00000E94D606882349F08091193C813011F458
:101A100082E001C081E08093193C6C2F8091193CD9
:101A2000DF91CF911F91FF90EF900C94C00590E053
:101A30002E5F3F4F8217930709F09EC08FEF809370
:101A4000013C8091973C65FF04C080FF04C082E0A8
:101A500003C080FFFCCF81E08093193C0E94D60632
:101A6000882349F08091193C813011F482E001C053
:101A700081E08093193C68818091193CDF91CF917E
:101A80001F91FF90EF900C94AC0590E02E5F3F4FBC
:101A90008217930709F070C04091193C81E00CC097
:101AA00090E02E5F3F4F8217930709F065C0409189
:101AB000193C64FF08C082E0DF91CF911F91FF9035
:101AC000EF900C94530283E0F7CF6E3D29F44091E0
:101AD000193C698184E0F0CF6F3D09F04DC0409121
:101AE000193C698185E0E8CFEBEDFCE37E018EEDEA
:101AF0009CE39E012F5F3F4FAE014E5F5F4F61E061
:101B00001191D7017D917D01171769F0788170934C
:101B1000DB3CD9017C917093DC3CDA017C917093C1
:101B2000DD3C6093183C8E179F0751F71092183CCC
:101B3000988193FF21C0892F8370298192FF0EC065
:101B400090E0982F8827820F911D6A810196DF917E
:101B5000CF911F91FF90EF900C94E50990E0982FA2
:101B60008827820F911D6A810196DF91CF911F9185
:101B7000FF90EF900C94FF0ADF91CF911F91FF909F
:101B8000EF900895823069F190911B3C992339F1CF
:101B9000FB0190819077903711F59EE190931B3C6B
:101BA000833019F08430C1F00895FB0180818111E8
:101BB00007C0818181110DC0828181110AC0089501
:101BC0008F3F39F4FB018181811103C082818F3FF6
:101BD00041F083E00C94430B84E00C94B30B0C9421
:101BE000600C08958091193C089581E090911B3C10
:101BF000911101C080E00895803430F4E82FF0E0C6
:101C0000E855FF4F8491089580E00895CF93DF93C6
:101C1000C62F880F880F962F92959695969593705C
:101C2000890F0E94FC0DD82F8C2F8F730E94FC0D02
:101C3000C82F8D2F0E9470168C2FDF91CF910C949E
:101C40007016CF93C0916F3CC13079F40E947E141E
:101C50009695879520911C3C211132C0692F81E017
:101C60000E94060EC0931C3C52C0C23019F40E9460
:101C70009F150FC0C33049F480911C3C811102C0F4
:101C800060E037C00E9412051BC0C43041F40E94BE
:101C90006D1420911C3C211113C0692F2AC0C5303E
:101CA00039F480911C3C882359F30E94590F08C0D5
:101CB000C63041F480911C3C882311F30E945C0FD4
:101CC000682F20C09091973C93FF21C08091B33C36
:101CD00081111DC080911C3C95FD05C0882381F2B7
:101CE0006091703C0FC081110BC06091A73C6F7375
:101CF000605881E00E94060E81E080931C3C07C082
:101D00006091B43C82E00E94060E10921C3CCF9180
:101D10000895CF93DF93CDB7DEB7E197CDBFDEBF98
:101D20000E944F100E94F0150E9459130E94F81251
:101D30000E94AD110E945D160E94450F0E94060888
:101D40000E945E10789410E0F12C00E0E12C0E94DB
:101D50006310BE016F5F7F4FCE01C1960E94BD111F
:101D600089A9882331F0BE016F5F7F4F0E94C20DA9
:101D700019AA0E94F50D882339F00E9412168823B3
:101D800031F30E94560CE3CF0E946B1181508230D8
:101D900020F40E94A70F0E94D90F0E94ED1281111A
:101DA0000E94210E0E941D16882321F00E941C15FE
:101DB0000E9493000E941216882389F0111101C01D
:101DC00011E0F39485E0F81203C00E946C140AC07D
:101DD0009AE0F91207C00E947214F12C03C011237B
:101DE00009F4B5CF812F90E0FC013197EF30F10578
:101DF00008F045C0E25CFF4F0C94AE160E949511AE
:101E00000E9414103CC00E94DA0639C00E940006ED
:101E100036C00E94D90033C08BEF810F0E94790336
:101E20002EC00E94560C2BC08091973C82FF27C089
:101E30000E94A311882319F10E944C100E94F905F9
:101E40000E944C100E94F6001AC08091773C87FFD8
:101E500016C0E39499E09E1510F40F5FE12C402F1B
:101E600050E0282F2F7330E04217530744F086FFCD
:101E700002C08BE001C08CE00E941D1400E01F5FD7
:101E8000103108F464CF10E062CFA0E0B4E080E24B
:101E900012968C931297E0E4F4E084E082835596E6
:101EA0008C915597886055968C9382898860828B37
:101EB00008958091213C08958091203C089590914F
:101EC0001F3CE92FF0E0E252F34C80839F5F943097
:101ED00018F490931F3C02C010921F3C2091DE3CEE
:101EE0008091DF3C90E0820F911D2091E03C820FB9
:101EF000911D2091E13C820F911D24E096958795DC
:101F00002A95E1F7089590911E3CE92FF0E0EE51FB
:101F1000F34C80839F5F943018F490931E3C02C072
:101F200010921E3C2091E23C8091E33C90E0820FB5
:101F3000911D2091E43C820F911D2091E53C820F80
:101F4000911D24E0969587952A95E1F70895809153
:101F5000080485FF06C08091273C8F5F8093273C53
:101F600005C08091263C8F5F8093263C8091233C66
:101F70008F5F8093233C8A3FD8F08091263C0E945B
:101F80005F0F8093213C1092233C2091CD3C909197
:101F90001D3C20FF06C02091763C821710F4916012
:101FA00001C09E7F90931D3C1092273C1092263CCE
:101FB00008958091480482FF06C08091253C8F5F80
:101FC0008093253C05C08091243C8F5F8093243C06
:101FD0008091223C8F5F8093223C8A3FD8F0809191
:101FE000243C0E94830F8093203C1092223C20913D
:101FF000CD3C90911D3C21FF06C02091763C82177C
:1020000010F4926001C09D7F90931D3C1092253C7E
:102010001092243C08950E944E04811103C08091C7
:102020001D3C089580E00895909108048091293C1A
:1020300092FF11C09091080494FD1DC09091283C1E
:10204000992319F091509093283C8E31A0F48E5F23
:102050008093293C10C09091080494FF0CC0882301
:1020600019F081508093293C8091283C8E3118F4DE
:102070008E5F8093283C8091293C803110F081E074
:1020800005C08091283C803120F082E080932A3C7A
:10209000089510922A3C089580912A3C089561E0A9
:1020A00081E690E00E94DB1664E080E890E00E9408
:1020B000DB1660E081E890E00C94DB1666E080E0DF
:1020C00091E00C94DB16A895089580912B3C90919B
:1020D0000804982792FF0BC09091080492FF02C059
:1020E000846001C08B7F80932B3C81E001C080E045
:1020F00090912B3C20910804292724FF0AC082607C
:102100002091080424FF02C0906101C09F7E90933B
:102110002B3C089580FF5AC020912B3C90913F3C6E
:1021200022FF42C090FD3BC0916090933F3C2091C4
:102130004A0A30914B0A40913D3C50913E3C421737
:10214000530728F420914A0A30914B0A05C0209188
:102150004A0A30914B0A3053241B350B20933B3CE9
:1021600030933C3C9091313C91609093313C209174
:102170004A0A30914B0A29333F4C38F020914A0AE1
:1021800030914B0A28533F4C06C020914A0A3091A7
:102190004B0A28533F4F2093E63C3093E73C109284
:1021A000383C1092303C12C090FF10C09E7F90933C
:1021B0003F3C20914A0A30914B0A20933D3C30939A
:1021C0003E3C9091313C9E7F9093313C8370B9F1BD
:1021D00090912B3C80913F3C94FF27C081FD20C013
:1021E000826080933F3C8091313C82608093313C9F
:1021F00080914A0A90914B0A89339F4C38F0809124
:102200004A0A90914B0A88539F4C06C080914A0A13
:1022100090914B0A88539F4F80930A3D90930B3DBA
:102220001092383C1092303C0AC081FF08C08D7F6C
:1022300080933F3C8091313C8D7F8093313C8091F5
:10224000080482FD14C08091080484FD10C08091B0
:10225000303C811114C080914A0A90914B0A8093BE
:102260002E3C90932F3C81E08093303C0895109257
:10227000383C1092303C10922E3C10922F3C089526
:102280001F920F920FB60F9211242F933F934F93EB
:102290005F936F937F938F939F93AF93BF93EF93CE
:1022A000FF93E0E0F4E08185846181870E946510FE
:1022B0000E948A10FF91EF91BF91AF919F918F91F2
:1022C0007F916F915F914F913F912F910F900FBE32
:1022D0000F901F9018959091313C90FF10C0409145
:1022E0004A0A50914B0A2091E63C3091E73C241772
:1022F000350728F49E7F9093313C81E00895892F23
:10230000827091FF11C040914A0A50914B0A20916E
:102310000A3D30910B3D2417350728F49D7F90939B
:10232000313C82E0089580E008958091323C9091A4
:10233000333C803223E0920728F401968093323CAC
:102340009093333C089581E02091323C3091333CAE
:102350002032334008F480E00895E0E0F4E084E1C6
:10236000828381E0828B848BE0E4FAE083E08083E7
:102370008FEF9FEC848795870895FC018091973CAF
:1023800083FF8DC04091383C4423E1F180910804E3
:1023900082FD04C08091080484FF09C01092383C7B
:1023A0001092303C10922E3C10922F3C78C020911D
:1023B0004A0A30914B0A8091363C9091373C821703
:1023C000930728F420914A0A30914B0A05C02091C6
:1023D0004A0A30914B0A3053281B390B413009F01F
:1023E0005EC080912C3C90912D3C2817390708F451
:1023F00056C08091343C81608093343C82E080936D
:10240000383C4DC08091303C8823B1F18091080464
:1024100082FDC4CF8091080484FDC0CF20914A0A78
:1024200030914B0A80912E3C90912F3C821793075C
:1024300028F420914A0A30914B0A05C020914A0A9B
:1024400030914B0A3053281B390B2338310538F1B2
:1024500081E08093383C80914A0A90914B0A8093A6
:10246000363C9093373C8CE390E080932C3C9093E7
:102470002D3C1092303C08958091080482FD0FC0DD
:102480008091080484FD0BC080914A0A90914B0A08
:1024900080932E3C90932F3C81E08093303C809140
:1024A0003B3C90913C3C009739F42091393C309171
:1024B0003A3C232B09F490C010923B3C10923C3CD8
:1024C0001092393C10923A3C9C012D5D3109253E19
:1024D000310588F481E080930C3D8091353C8F5F1D
:1024E0008093353CA0910D3DB0E0A651B34C8C914A
:1024F000880F8F5F21C0855F91408B35914C08F02C
:102500006BC010920C3D8091353C8E3060F081E0C4
:1025100080932E3D1092EA3C10920D3D10922F3D7B
:102520001092353C08951092353CA0910D3DB0E0DD
:10253000A651B34C8C91880F8C9380910D3D8032C5
:1025400008F04AC080912E3D81111BC080910C3D46
:102550008130B9F480912F3D811113C010828081A8
:1025600090910D3D891770F490E0DC01A651B34CB9
:102570002C91DB01A80FB91F2C9380818F5F808382
:10258000EECF108280912E3D8F5F80932E3D89305B
:1025900019F51092323C1092333CE0910D3DE1115F
:1025A00007C08091EA3C8F3F19F480930D3D089558
:1025B000AE2FB0E0A651B34C90912F3D8C9189275E
:1025C00080932F3DEF5FE0930D3DF0E0E651F34C3B
:1025D000108210922E3D089508959091343C892FD9
:1025E000817090FF04C09E7F9093343C81E00895F9
:1025F000E0E0F4E0818188688183E0E2F4E08181B9
:1026000088638183A0E4B4E011968C911197836074
:1026100011968C9381818D7F818388E0818B0895D1
:1026200090E08730910538F5FC01E35BFF4F0C9497
:10263000AE1688E003C082E00EC080E8662319F081
:1026400080930504089580930604089588E00CC0E3
:1026500080E20AC081E0662319F080934504089562
:1026600080934604089580E1662319F08093250441
:10267000089580932604089580912804869581709A
:1026800091E0892708958091403C0895CF9381304F
:1026900019F48093403C02C01092403CC0E060912D
:1026A000403C8C2F0E941013CF5FC730C1F7CF91F1
:1026B0000895E0E0F4E082E0828320E4218381E079
:1026C00080932104A0E4B4E098E011969C931197C4
:1026D000268316969C93A0E0BAE08C9393E1119622
:1026E0009C9311972FEF30E096962D933C939797FC
:1026F00098961D921C92999795819064958390E38A
:102700009093A000E0E0F6E095E09083818384E47C
:10271000828380E28383148208959091533C9111C7
:102720001CC09091BF3C9130C1F0813039F488E0F9
:102730008093460480E4809305040895823039F440
:1027400080E48093060488E080934504089580E443
:102750008093060488E0809346040895813071F4E4
:1027600093E09093010A98E09093460490E490934C
:102770000504809325048093533C089588E080935A
:10278000460480E48093060481E08093260483E17C
:102790008093010A1092533C08959091BF3C913070
:1027A00079F0813059F0823011F483E007C08C3029
:1027B00011F48DE003C08B3019F48FE08093000A90
:1027C00008951F920F920FB60F9211242F933F93EB
:1027D0004F935F936F937F938F939F93AF93BF9329
:1027E000EF93FF9380910B0A816080930B0A809195
:1027F000523C882389F0813051F40E94CD1310920D
:10280000523C80910A0A8E7F80930A0A05C00E947A
:10281000CD1381E08093523CFF91EF91BF91AF9136
:102820009F918F917F916F915F914F913F912F91E8
:102830000F900FBE0F901F9018959091533C9111DF
:102840000BC09091BF3C913039F08093523C809105
:102850000A0A816080930A0A08956091AE3C9091C3
:102860004C3C961798F42091AD3C30E04FEF50E08F
:10287000421B530B949FF001959FF00D112470E0C3
:10288000CF010E949A16862F820F08958FEF089528
:10289000CF939091BF3C913019F480934C3C17C07A
:1028A00090914C3C891799F0C82F80934E3C8093AF
:1028B0004C3C0E942D14682F80934F3C2FEFC29FF9
:1028C000C001112470E00E94861660934B3CCF91AA
:1028D000089580914C3C089508958091453C9091D5
:1028E000463C08958091AC3C87FF07C080914A3CEC
:1028F000811103C081E080934A3C08958091473C58
:102900009091483C08958F929F92AF92BF92CF9240
:10291000DF92EF92FF920F931F93CF93DF9320915B
:102920004E3C211103C010924D3C79C0A090A13CB7
:10293000B12CC090A23CD12CE090A33CF12C409152
:10294000473C5091483C569547953FEF349FC00116
:10295000359F900D11246091A83C70E00E9486166E
:1029600030E0CB016F3F710519F014F08FEF90E06C
:102970008901081B190BEAE0F0E0C801BF010E94C1
:102980009A168091433C9091443CEB01C80FD91FAB
:10299000C093433CD093443C8091413C9091423C55
:1029A000A801481B590BCA0164E670E00E949A1600
:1029B0004B010093413C1093423CA09EC001A19E5C
:1029C000900DB09E900D1124BF010E949A168B01AC
:1029D000CC9EC001CD9E900DDC9E900D1124BF01B8
:1029E0000E949A16E801C60FD71FE89CC001E99C17
:1029F000900DF89C900D1124BF010E949A166C0F47
:102A00007D1F620F731F6F3F710529F024F08FEF58
:102A100080934D3C04C077FD86CF60934D3CDF91A1
:102A2000CF911F910F91FF90EF90DF90CF90BF90CB
:102A3000AF909F908F9008958091BF3C813009F4B2
:102A40007DC08091533C811179C080914A3C88239C
:102A5000C9F18436E8F4813059F48091280A9091C4
:102A6000290A8093493C1092280A1092290A0AC028
:102A70008A3041F481E0809306068093080684E65C
:102A800080934A3C80914A3C8F5F80934A3C0895F2
:102A9000853609F053C08091080680FD4FC08091B3
:102AA0001006909111068093473C9093483C1092F9
:102AB0004A3C8091493C90E08093280A9093290AEF
:102AC0000C9483149091AC3C892F8F7729F497FD57
:102AD0002BC080914C3C2DC0833051F48091513CEF
:102AE0001092513C8F3F09F408958091503C06C0EC
:102AF0008091503C91FF02C08E5F01C08F5F809338
:102B0000503C20914F3C8091503C281758F4109233
:102B1000280A1092290A8EEF90E08093200A909361
:102B2000210A089597FF03C080914D3C02C0809117
:102B30004B3C90E08093280A9093290A0895809155
:102B40004D3C90E008959091BF3C913001F593E0A9
:102B50009093010A613039F498E09093460490E430
:102B6000909305040BC090E49093060498E06230C3
:102B700019F49093450402C090934604882321F0F1
:102B800081E080932504089581E0809326040895D0
:102B90001F920F920FB60F9211248F938091543C85
:102BA00081608093543C81E0809353018F910F901A
:102BB0000FBE0F901F9018951F920F920FB60F9295
:102BC00011248F9383E0809343018091543C826071
:102BD0008093543C8F910F900FBE0F901F901895CB
:102BE000809141018111FCCF10924C0110924D0156
:102BF00081E090E080934A0190934B01109247014D
:102C000081E880934001809152018160809352015C
:102C100081E2809350018091420183608093420160
:102C2000789408959091543C892F817090FF04C04E
:102C30009E7F9093543C81E008959091543C892F5D
:102C4000827091FF04C09D7F9093543C81E0089571
:102C50001F920F920FB60F9211248F939F93EF93B1
:102C6000FF9380910408806280930408F894809117
:102C7000563CE82FF0E0EF5CF24C90819093020814
:102C80008F5F803318F48093563C02C01092563CFC
:102C90009091563C8091553C981305C08091050851
:102CA0008F7D809305087894FF91EF919F918F918C
:102CB0000F900FBE0F901F901895E0E2F4E0818115
:102CC00084608183858184608583E0E0F8E080EA28
:102CD00090E08087918780E4868383E087830895EE
:102CE0009091553CE92FF0E0EF5CF24C80839F5FC0
:102CF000903318F49093553C02C01092553C80914B
:102D0000050880628093050878940895AA1BBB1B70
:102D100051E107C0AA1FBB1FA617B70710F0A61BDB
:102D2000B70B881F991F5A95A9F780959095BC01FC
:102D3000CD01089597FB072E16F4009407D077FD78
:102D400009D00E94861607FC05D03EF49095819527
:102D50009F4F0895709561957F4F0895EE0FFF1F67
:102D60000590F491E02D099403D08081992708956E
:102D7000FC01E050FC4E0895262F0E94B8160080FA
:102D8000021619F00E94C816019701970895262F80
:102D9000AF93BF93E0E0F0E1328131FDFDCFDC0184
:102DA000A050BC4E2C932DE924BF23E02083019634
:102DB000BF91AF910895DC0128ED209334006C930E
:062DC0000895F894FFCF16
:042DC600FFFFFF000C
:00000001FF
