:100000000C946D000C948A000C948A000C94390EA8
:100010000C948A000C948A000C940E130C94FA121F
:100020000C94F7100C948A000C948A000C948A00AB
:100030000C948A000C948A000C948A000C948A0018
:100040000C948A000C948A000C948A000C948A0008
:100050000C948A000C948A000C948A000C948A00F8
:100060000C948A000C948A000C948A000C948A00E8
:100070000C945A130C948A000C948A00760C7C0C15
:100080007F0C820C850C880C990CB40C1210141087
:1000900016101F10211023102C10ACAAA9A5A3A67E
:1000A0009C9A999593968E8D8BB1B2B4B874726CFC
:1000B0006A696563665C5A595553564E4D4B477194
:1000C000E8E4E2D1C9C5D8D4D2C9C6CC78171B1D83
:1000D0001E2E363A272B2D35393311241FBECFEF74
:1000E000CDBFDFE3DEBF1CE3A0E0BCE3EEE1F8E25E
:1000F00002C005900D92A430B107D9F72DE3A4E01A
:10010000BCE301C01D92A233B207E1F70E94170CB5
:100110000C940D140C94000040914E3CEFE8FCE36D
:1001200090E021E03191307C49F0303419F4813095
:1001300041F404C0303829F4823019F4342F3223CA
:10014000932B220F3CE3E739F30761F790939A3C36
:1001500008956F7146131BC04091893C222351F0D2
:1001600021E030E001C0220F8A95EAF7242B20938A
:10017000893C089521E030E0B90102C0660F771F85
:100180008A95E2F7CB01809584238093893C08957A
:100190000F93962F9F71491327C0607C40919A3C22
:1001A00061110CC0222399F021E030E001C0220F40
:1001B0008A95EAF7242B20939A3C16C0603419F4F0
:1001C000013029F4EFCF603811F4023059F321E007
:1001D00030E0B90102C0660F771F8A95E2F7CB01C4
:1001E0008095842380939A3C0F9108959091973C39
:1001F000913061F48F71681309C080919A3C442357
:1002000011F0806801C08F7780939A3C0895EF9237
:10021000FF920F931F93CF93DF93C82FD62F142FE6
:1002200040934D3C8DE8E82E8CE3F82E262F4C2F82
:10023000F701608180E00E94A9002D2F4C2FF7016B
:10024000618181E00E94A900012F2D2F4C2FF70121
:10025000628180E00E94C8002D2F4C2FF70163813E
:1002600081E00E94C8002D2F4C2FF701648182E0AD
:100270000E94C8002D2F4C2FF701658183E00E945A
:10028000C8002D2F4C2FF701668184E00E94C80022
:100290002D2F4C2FF701678185E00E94C8002D2F7C
:1002A0004C2FF701608586E00E94C800212F4D2F5A
:1002B0006C2FF70181850E94F6002D2F4C2F609145
:1002C0007F3C83E00E94A9002D2F4C2F6091513C70
:1002D00082E00E94A9002D2F4C2F6091863C86E081
:1002E0000E94A9002D2F4C2F6091853C87E0DF9163
:1002F000CF911F910F91FF90EF900C94A900DF9286
:10030000EF92FF920F931F93CF93DF93182FE62E58
:10031000042F813049F4C0914C3CCC2309F459C0DE
:1003200084E0F82ED1E029C0823049F4C0917A3CB3
:10033000CC2309F44EC048E0F42ED5E01EC0833033
:1003400049F4C091523CCC2309F443C03CE0F32E65
:10035000D9E013C0843041F4C091873CCC23C9F16B
:1003600024E1F22EDDE009C0853099F5C091813C91
:10037000CC2379F19CE1F92ED5E10E943510882338
:1003800029F0013011F001E001C002E0DD24D39436
:10039000FD1660F08C2F8D2131F0402F6D2D6E21D8
:1003A0008D2F0E940701DD0CDF5FF2CF113089F441
:1003B00080914C3C84FF0DC06E2D6071402F80E019
:1003C000DF91CF911F910F91FF90EF90DF900C94F0
:1003D0000701DF91CF911F910F91FF90EF90DF9078
:1003E0000895962F873010F40C940910873021F46B
:1003F000642F892F0C94CA1208950F931F93CF93E3
:10040000DF93182F062F8730C9F40E9435108823F8
:1004100029F080914D3C813069F408C08091893C7D
:1004200082FD08C0D0914D3CD23029F4C091A53C4A
:10043000D2E00DC0D1E0C091A43C09C08730F0F5F6
:10044000D0914D3CE82FF0E0E556F34CC2818C2F63
:100450008F70813079F48091893C82FD08C083FDE2
:1004600006C080FD04C00E947F11811118C0C09198
:100470009B3C15C0823049F48091893C82FD0DC0BF
:1004800083FD0BC081FF0BC008C0833041F4809115
:10049000893C82FD02C083FF02C04D2F05C0C2957A
:1004A000CF704D2FC01710F460E001C061E0812FC4
:1004B000DF91CF911F910F910C94F101DF91CF91BA
:1004C0001F910F9108958F929F92AF92BF92CF92FA
:1004D000DF92EF92FF920F931F93CF93DF930E94CF
:1004E0003C1081119BC08091043C8F5F803118F4D7
:1004F0008093043C02C01092043C9BE9A92E9CE32B
:10050000B92E2DE8C22E2CE3D22E00E010E0882474
:100510008394EE24E394F12CC02F073029F48091CA
:10052000973C813009F06EC0D02FF6018281982F60
:100530009F719F3109F042C0807C51F4C701002EA9
:1005400001C0880F0A94EAF790919A3C892B34C035
:100550000E94970B982E0E943510882341F0F2E0FC
:100560009F1619F082E0982E02C099249394F60108
:10057000828140919A3C87FF0CC0F2E09F1671F097
:10058000970101C0220FDA95EAF72095842F822384
:1005900013C086FF13C081E0981207C0C70101C0D5
:1005A000880FDA95EAF7842B07C0C70101C0880FCE
:1005B000DA95EAF78095842380939A3C80919A3C5F
:1005C000882169F48091893C82FD09C081FF0FC0B8
:1005D000F50182818F70823041F0833031F4609177
:1005E000043C8C2F0E94FD010CC060E007C060E05D
:1005F000C73021F480E00E94CA1203C08C2F0E94F1
:100600000910880C0F5F1F4FFFEFAF1ABF0A8FEF63
:10061000C81AD80A0830110509F07ECFDF91CF91B2
:100620001F910F91FF90EF90DF90CF90BF90AF9010
:100630009F908F9008958091893C881F8827881FFC
:1006400008958091893C86FB882780F908958091E0
:10065000A93C0895CF93DF93D82FC62F6093A93C70
:100660000E941B03882331F08091793CC89FC00110
:100670001124C92F8091003C8D1741F08D2F0E94CD
:100680009710D093003C8FEF80930D3CC13029F43C
:100690001092A83C1092A73C63C08091A73C8111A6
:1006A00013C08091883C882379F0CC2359F0909135
:1006B000063C911104C08093063C10920F3CC093FD
:1006C000053C53C01092053CC093A73C8091553C1B
:1006D000C81710F4C111C82F9091A83C981718F4AE
:1006E000C1118093A83C80910D3C811139C080914B
:1006F0000C3C81113AC00E942F0D90910B3CD817F1
:1007000009F1992321F08091993C81112EC090FF2D
:1007100003C09E7F90930B3C9091A73C8091A83C96
:10072000981720F42091573C222341F0891720F498
:100730002091563C222311F0981317C0C093A83C77
:100740008C2F0FC0916090930B3C80914F3C811196
:100750000CC08091573C811108C01092A83C01C088
:1007600080E0DF91CF910C945E11DF91CF910895DD
:1007700010920C3CE62FEF70EE0F11F460E00AC00F
:10078000E23011F461E006C064FDEF5FF0E0E75A8B
:10079000F34C60810C942A0310920C3C9091553CD0
:1007A0005091593C3091583C951700F55317F0F48F
:1007B000603450F4591B569FB001112456E07595D2
:1007C00067955A95E1F71CC0432F451B70E06054B4
:1007D0007109469F9001479F300D112446E03595E1
:1007E00027954A95E1F7652F620F0DC0931750F4D6
:1007F000391B369FB0011124660F672F661F770BD8
:10080000690F01C0660F0C942A0391E090930C3C91
:100810006091983C0C942A0380910D3C8823D1F080
:10082000815080930D3C8111BBC09091A73C809179
:10083000A83C981720F42091573C222349F08917AF
:1008400020F42091563C222319F09813A9C0892F37
:100850000C945E119091063C80910F3C8F5F992320
:1008600089F0843688F010920F3C8FEF890F8093C7
:10087000063C811195C08091053C8093A73C109265
:10088000A83C0895803118F480930F3C089510928D
:100890000F3C90910E3C9F5F90930E3C80910C3CDE
:1008A0008823B1F08091A83C2091A73C821738F4AE
:1008B0002091823C921708F473C08F5F6BC0281799
:1008C00008F06CC02091823C921708F469C061C0A6
:1008D0000E942F0D9091003C891709F441C090911E
:1008E0000B3C8091A73C90FF24C09091993C9111C2
:1008F00004C09091563C992351F020910E3C291749
:1009000060F09091A83C981740F481E0890F8093A3
:10091000A83C0E945E1110920E3C9091A83C8091E0
:10092000A73C9817E8F180910B3C8E7F80930B3C9D
:1009300008959091A83C981740F42091563C8091DE
:100940000E3C821768F181E009C0891738F52091C3
:10095000573C80910E3C821718F18FEF890F1AC017
:100960008091A83C8823E1F090910B3C916090939A
:100970000B3C90914F3C911108C09091573C9111C4
:1009800004C01092A83C80E007C020910E3C2917BB
:1009900038F081508093A83C0E945E1110920E3C6A
:1009A000089580910A3C8170089580915C3C882371
:1009B00009F441C00E942F0D9091003C891335C06D
:1009C0002091083C3091093C2F5F3F4F283E93E037
:1009D000390728F42093083C3093093C089510927D
:1009E000083C1092093C9091073C9F5F9093073C14
:1009F00020915C3C9217F8F090910A3C90FF02C065
:100A00009E7F01C0916090930A3C813011F482E096
:100A100003C0823019F481E08093003C8091003C57
:100A20000E9497108FEF80930D3C1092083C10921B
:100A3000093C1092073C089590E0805090400C943F
:100A4000E6138F3F910509F010F40C941C0580E02B
:100A500008959091021091FDFCCF90E0805090405D
:100A60000C94EE1369E083E40E94290562E184E4BA
:100A70000E9429056BE185E40E94290564E286E471
:100A80000E9429056EE287E40E94290567E388E455
:100A90000E94290560E489E40E94290569E48AE44A
:100AA0000E94290562E58BE40E9429056BE58CE430
:100AB0000E94290564E68DE40E9429056DE68EE416
:100AC0000E94290566E78FE40E94290560E880E519
:100AD0000E94290569E881E50E94290562E982E50D
:100AE0000E9429056BE983E50E94290564EA84E5F3
:100AF0000E9429056DEA85E50E94290566EB86E5D9
:100B00000E9429056FEB87E50E94290568EC88E5BE
:100B10000E94290561ED89E50E9429056BED8AE5B2
:100B20000E94290564EE8BE50E9429056DEE8CE597
:100B30000E94290566EF8DE50E9429056FEF8EE57D
:100B40000C9429058530A8F440914C3C811103C0D8
:100B5000842F80610BC0815021E030E0B90102C0D8
:100B6000660F771F8A95E2F7CB01842B80934C3C6C
:100B70000895893080F4855021E030E0A90102C059
:100B8000440F551F8A95E2F7CA0190917A3C892B50
:100B900080937A3C08958D3080F4895021E030E0D4
:100BA000B90102C0660F771F8A95E2F7CB019091D9
:100BB000523C892B8093523C0895853180F48D50AE
:100BC00021E030E0A90102C0440F551F8A95E2F7E9
:100BD000CA019091873C892B8093873C08958D3181
:100BE00078F4845121E030E0B90102C0660F771F2C
:100BF0008A95E2F7CB019091813C892B8093813CCF
:100C00000895EF92FF920F931F93CF93809102105C
:100C100081FDFCCF80E090E00E94E6138F3F39F425
:100C2000CF911F910F91FF90EF900C94FE0604E579
:100C30001CE3C0E0CF5F8C2F0E941C05F80181935C
:100C40008F01C630B9F781E190E00E94E6138093EE
:100C5000833C82E190E00E94E61380938B3C83E129
:100C600090E00E94E61380938A3C8BE190E00E9422
:100C7000E6138093A63C8DE190E00E94E6138093FA
:100C80007B3C0DE51CE3C3E48C2F0E941C05F8019E
:100C900081938F01CF5FCF35B9F78DE8E82E8CE3D4
:100CA000F82E0BE91CE3C1E28C2F0E941C05F70112
:100CB00081937F018F710E94A2058FE48C0F0E94A7
:100CC0001C05F80181938F01CF5FCC3269F78CE26C
:100CD00090E00E94E613C82F80937F3C8DE290E065
:100CE0000E94E6138093513C8C2F8F710E94A205C5
:100CF0008091513C8F710E94A20583E890E00E9490
:100D0000E6138093793C8FE290E00E94E613809393
:100D10005B3C82E390E00E94E61380934E3C83E3C9
:100D200090E00E94E6138093863C8F710E94A2059A
:100D300084E390E00E94E61380935C3C85E390E0BE
:100D40000E94E6138093993C86E390E00E94E613AC
:100D500080934F3C87E30E941C0580937C3C88E392
:100D60000E941C0580937D3C89E30E941C058093B2
:100D70007E3C8AE890E00E94E6138093843C8AE3FC
:100D800090E00E94E6138093983C8BE390E00E94F1
:100D9000E6138093823C8CE390E00E94E6138093FC
:100DA000503C8DE390E00E94E61380938C3C8EE3F0
:100DB00090E00E94E6138093803C8FE390E00E94D5
:100DC000E6138093853C8F710E94A20580E490E039
:100DD0000E94E61380935A3C8CE890E00E94E61350
:100DE0008093883C84EF90E00E94E6138093533C0C
:100DF000CF911F910F91FF90EF90089563E081E0F4
:100E00000E94290560E082E00E94290560E083E0FD
:100E10000E94290560E084E00E9429056FEF85E0CB
:100E20000E9429056FE786E00E94290561E087E0BE
:100E30000E9429056DE088E00E94290560EC81E1AF
:100E40000E94290560E082E10E94290560E083E1BB
:100E50000E94290563E08BE10E9429056EE08DE187
:100E60000E94290564E081E20E94290567E082E290
:100E70000E94290560E483E20E94290561E884E27A
:100E80000E94290561E885E20E94290560E886E262
:100E90000E94290561E487E20E94290561E488E255
:100EA0000E94290563E089E20E94290560E08AE248
:100EB0000E94290560E08BE20E9429056EE38CE226
:100EC0000E94290566E08DE20E9429056FE48FE209
:100ED0000E94290569EC82E30E94290565E083E30D
:100EE0000E94290560E084E30E9429056AE085E309
:100EF0000E94290563E086E30E9429056EE187E3ED
:100F00000E9429056AE088E30E94290568E289E3D6
:100F10000E9429056FE78AE30E94290563E08BE3BD
:100F20000E94290563E88CE30E9429056FE58DE3A3
:100F30000E94290560EC8EE30E94290567E08FE39B
:100F40000E94290561E080E40E94290560E480E7B1
:100F50000E94290561EF82E70E94290563EF83E77C
:100F60000E94290562EF84E70E94290561EF85E769
:100F70000E94290563EF86E70E94290562EF87E753
:100F80000E94290560EF88E70E94290561EF89E743
:100F90000E94290562EF8AE70E9429056FE383E832
:100FA0000E94290564E68AE80E94290560E08CE831
:100FB0000E94290560E084EF0E9429050E94320505
:100FC00060E080E00E9429050C9401060F931F93B6
:100FD000CF93DF93EC01162F8F3F910511F008F0AE
:100FE00011C18F50823058F08FE090E00E94E613DC
:100FF000082F80E190E00E94E613081303C1C53377
:10100000D10509F4D2C008F058C0CD31D10509F49A
:10101000B7C040F5C830D10509F49DC060F4C130B7
:10102000D10508F4E7C0C730D10508F0EBC0FE01D8
:10103000ED5AF34CC0C0C231D10509F49BC038F45D
:10104000C131D10509F0D6C01093833CD3C0C33160
:10105000D10509F492C0CB31D10509F0CBC0109372
:10106000A63CC8C0CD32D10509F496C078F4C1328F
:10107000D10508F4BFC0812F8F71CC32D10508F0A3
:1010800086C0FE01E459F34C108383C0C233D105FE
:1010900009F485C038F4CF32D10509F0ABC0109304
:1010A0005B3CA8C0C333D10509F47CC0C433D1056F
:1010B00009F0A0C010935C3C9DC0CF33D10509F46A
:1010C00088C0E8F4CA33D10509F477C038F4C633D0
:1010D000D10509F06DC010934F3C8CC0CC33D105C5
:1010E00009F471C008F46CC0CD33D10509F46EC0A9
:1010F000CE33D10509F07EC01093803C7BC0CB3746
:10110000D10590F4C037D10508F06BC0C034D105CB
:1011100009F464C0CE01835491094C9708F06AC069
:10112000FE01E65EF34C47C0CA38D10509F45DC044
:1011300038F4C338D10509F05DC01093793C5AC02A
:10114000CC38D10509F454C0C43FD10509F052C0D0
:101150001093533C4FC01D3019F0183009F052C0A5
:101160006FEF80E00E942905DF91CF911F910F91D1
:101170000C94FE0610938B3C3DC010938A3C3AC001
:1011800080915A3C80FD186010937B3C33C01093D3
:101190007F3C0E94A2052EC01093513C1CC01093AE
:1011A0004E3C28C01093863C25C01093993C22C029
:1011B000FE01EB5BF34C10831DC01093983C1AC0EA
:1011C0001093823C17C01093503C14C010938C3C79
:1011D00011C01093853C812F8F71DBCF10935A3C47
:1011E00009C0FE01E55DF34CE6CF1093843C02C0DC
:1011F0001093883C612F8C2FDF91CF911F910F911D
:101200000C942905DF91CF911F910F910895FF92C2
:101210000F931F93CF93DF938C01F62E862F877049
:10122000C1E0D0E001C0CC0F8A95EAF7C8010E9466
:101230002105F3FE03C06C2F682B03C0C0956C2FF3
:101240006823C801DF91CF911F910F91FF900C94FB
:10125000E60781E08093113C8093123C0E943F108E
:1012600081E00C94C4101092AA3C0895CF93FB0126
:1012700020818091AC3C28135DC0C1818091AD3C40
:10128000C81358C092818091AE3C981353C022FD80
:101290001CC08091103C90E00197880F991F880F27
:1012A000991F322F3370830F911D019623FF06C0C3
:1012B0006C2F0E94E6078091AA3C2CC00E94210559
:1012C000C81342C08091AA3C2FC0822F87708530FE
:1012D00081F028F48430C1F58DE190E012C08630B1
:1012E00029F0873089F588E090E00BC087E090E036
:1012F00008C08091AA3C80FD27C0C093103C81604B
:1013000014C023FF09C06C2F0E94E6078091AA3CFD
:1013100082FD1AC0846009C00E942105C81314C050
:101320008091AA3C81FD10C082608093AA3CCF913D
:101330000C9429092093AC3C81818093AD3C82813F
:101340008093AE3C1092123CCF910895CF93FB0155
:1013500020818091AC3C281329C081819091AD3CC3
:10136000891324C0C2819091AE3CC9131FC0338140
:101370009091AF3C39131AC09091123C911123C047
:10138000322F337090E0830F911D01962C70243022
:1013900031F02C30C1F46C2F0E94E60704C00E948B
:1013A0002105C81310C0CF910C9429092093AC3C9F
:1013B00081818093AD3C82818093AE3C8381809318
:1013C000AF3C1092123CCF9108958091113C88233C
:1013D00089F08F5F8D3018F48093113C089510923E
:1013E000113C81E08093123C82E00E943F1082E039
:1013F0000C94C41008958091163C882329F08150E4
:101400008093163C0C94E5090895EF92FF921F9388
:10141000CF93DF93FB0190818330E9F4911110C0E9
:101420002181211118C02281211115C08EE18093E4
:10143000163CDF91CF911F91FF90EF900C943309F0
:101440009F3F49F42181211106C022812F3F19F4C9
:101450001092163C36C130918A3C332341F097FDFF
:1014600006C09181907E903E11F03093153C3091F2
:10147000153C9081332339F0992309F422C19F77D9
:1014800093131FC11FC097FD09C020917B3C25FD10
:1014900005C02091543C921314C114C0292F207C04
:1014A000203C09F00EC120917B3C25FF0AC1209110
:1014B000833C921306C1218190918B3C291301C179
:1014C00022E001C021E030E0EF01C20FD31F6881AC
:1014D000962F907E903809F47DC050F4AF0190347F
:1014E00009F44AC0903609F447C0903259F0E9C077
:1014F000903C09F48FC0903E09F49BC0903A09F0EB
:10150000E0C073C090E0F90133968E179F0709F091
:10151000D8C06F716F3109F0D4C02F5F3F4FFA010F
:10152000E20FF31FC081CF778FEF8093023C908151
:1015300080917B3C97FF04C080FF04C082E003C021
:1015400080FFFCCF81E08093143C0E94D10488236B
:1015500049F08091143C813011F482E001C081E0B7
:101560008093143C6C2F8091143CDF91CF911F919C
:10157000FF90EF900C94CC0390E02E5F3F4F8217CA
:10158000930709F09EC08FEF8093013C80917B3CD4
:1015900065FF04C080FF04C082E003C080FFFCCF71
:1015A00081E08093143C0E94D104882349F080910B
:1015B000143C813011F482E001C081E08093143C3E
:1015C00068818091143CDF91CF911F91FF90EF9043
:1015D0000C94B80390E02E5F3F4F8217930709F0F9
:1015E00070C04091143C81E00CC090E02E5F3F4FF2
:1015F0008217930709F065C04091143C64FF08C04E
:1016000082E0DF91CF911F91FF90EF900C947F01CA
:1016100083E0F7CF6E3D29F44091143C698184E06A
:10162000F0CF6F3D09F04DC04091143C698185E0D9
:10163000E8CFE4EBFCE37E0187EB9CE39E012F5FA8
:101640003F4FAE014E5F5F4F61E01191D7017D9139
:101650007D01171769F078817093B43CD9017C91B2
:101660007093B53CDA017C917093B63C6093133C67
:101670008E179F0751F71092133C988193FF21C05A
:10168000892F8370298192FF0EC090E0982F8827C0
:10169000820F911D6A810196DF91CF911F91FF907A
:1016A000EF900C94E60790E0982F8827820F911D09
:1016B0006A810196DF91CF911F91FF90EF900C947A
:1016C0000709DF91CF911F91FF90EF90089582302D
:1016D00069F19091163C992339F1FB019081907743
:1016E000903711F59EE19093163C833019F08430C9
:1016F000C1F00895FB018081811107C081818111B2
:101700000DC0828181110AC008958F3F39F4FB0119
:101710008181811103C082818F3F41F083E00C946D
:10172000360984E00C94A6090C94050A089580916A
:10173000143C089581E09091163C911101C080E025
:101740000895803430F4E82FF0E0E656FF4F84919E
:10175000089580E00895CF93DF93C62F880F880FF8
:10176000962F9295969596959370890F0E94A10B4E
:10177000D82F8C2F8F730E94A10BC82F8D2F0E9402
:10178000A2138C2FDF91CF910C94A213CF93C09111
:10179000533CC13079F40E948E1196958795209123
:1017A000173C21111BC0692F81E00E94AB0BC09335
:1017B000173C3BC0C23041F40E94C6122091173C36
:1017C00021110CC0692F23C0C33051F48091173C04
:1017D000811102C060E01BC00E942703682F20C057
:1017E00090917B3C93FF21C080918A3C81111DC068
:1017F0008091173C95FD05C0882361F36091543CAE
:101800000FC081110BC06091833C6F73605881E001
:101810000E94AB0B81E08093173C07C060918B3C2A
:1018200082E00E94AB0B1092173CCF910895CF93AA
:10183000DF93CDB7DEB7E197CDBFDEBF0E94730D5A
:101840000E9422130E9452100E94F10F0E94A60EC5
:101850000E948F130E94C10C0E9401067894E12C13
:1018600010E000E0F12CBE016F5F7F4FCE01C1960A
:101870000E94B60E89A9882331F0BE016F5F7F4FA9
:101880000E94670B19AA0E949A0B882339F00E94C4
:101890004413882341F30E94FB09E5CF0E94640EA4
:1018A0008150823020F40E94D50C0E94020D0E94CB
:1018B000E60F81110E94C60B0E944F1381110E94F6
:1018C00043120E944413882319F0112379F002C0B7
:1018D000112349F2812F90E0FC013197E830F105A6
:1018E00008F049C0E25CFF4F0C94E0130E948E0E9A
:1018F0000E94380D11E03FC00E94D5043CC00E94F8
:10190000630239C00E940C0436C00E94FB0933C038
:1019100080917B3C82FF2FC00E949C0E882359F14E
:101920000E94700D0E9405040E94700D0E948C00A0
:1019300022C080915B3C87FF1EC0F39499E09F1505
:1019400010F40F5FF12C402F50E0282F2F7330E060
:101950004217530784F086FF02C08BE001C08CE081
:101960000E94331100E007C0E3948AE0E81203C04C
:101970000E948211E12C1F5F193008F474CF10E02F
:1019800072CFA0E0B4E080E212968C931297E0E46C
:10199000F4E084E0828355968C9155978860559643
:1019A0008C9382898860828B08958091080485FFDA
:1019B00006C080911E3C8F5F80931E3C05C08091C5
:1019C0001D3C8F5F80931D3C80911A3C8F5F8A3F46
:1019D00018F480931A3C089510921A3C9091A63CFA
:1019E0008091183C90FF06C090911D3C9A3010F4F5
:1019F000816001C08E7F8093183C10921E3C109233
:101A00001D3C08958091480482FF06C080911C3CD3
:101A10008F5F80931C3C05C080911B3C8F5F80933F
:101A20001B3C8091193C8F5F8A3F18F48093193CCE
:101A300008951092193C9091A63C8091183C91FF1A
:101A400006C090911B3C9A3010F4826001C08D7FDB
:101A50008093183C10921C3C10921B3C08950E94ED
:101A60002103811103C08091183C089580E00895FE
:101A7000909108048091203C92FF11C0909108043D
:101A800094FD1DC090911F3C992319F091509093A3
:101A90001F3C8E31A0F48E5F8093203C10C090914B
:101AA000080494FF0CC0882319F081508093203CD7
:101AB00080911F3C8E3118F48E5F80931F3C809183
:101AC000203C803110F081E005C080911F3C8031C6
:101AD00020F082E08093213C08951092213C0895EB
:101AE0008091213C089588ED84BF81E0809361005E
:101AF000E0E8F0E084E08083118208958091223C48
:101B000090910804982792FF0BC09091080492FFCF
:101B100002C0846001C08B7F8093223C81E001C0C1
:101B200080E09091223C20910804292724FF0AC0DC
:101B300082602091080424FF02C0906101C09F7E52
:101B40009093223C089580FF5AC02091223C9091AE
:101B5000363C22FF42C090FD3BC091609093363CE2
:101B600020914A0A30914B0A4091343C5091353CC7
:101B70004217530728F420914A0A30914B0A05C0B6
:101B800020914A0A30914B0A3053241B350B209385
:101B9000323C3093333C9091283C91609093283CA8
:101BA00020914A0A30914B0A29333F4C38F020915A
:101BB0004A0A30914B0A28533F4C06C020914A0AEA
:101BC00030914B0A28533F4F2093B73C3093B83C99
:101BD00010922F3C1092273C12C090FF10C09E7FA5
:101BE0009093363C20914A0A30914B0A2093343C22
:101BF0003093353C9091283C9E7F9093283C837095
:101C0000B9F19091223C8091363C94FF27C081FD30
:101C100020C082608093363C8091283C8260809313
:101C2000283C80914A0A90914B0A89339F4C38F0A6
:101C300080914A0A90914B0A88539F4C06C080912C
:101C40004A0A90914B0A88539F4F8093DB3C9093B4
:101C5000DC3C10922F3C1092273C089581FF08C075
:101C60008D7F8093363C8091283C8D7F8093283CEB
:101C700008951F920F920FB60F9211242F933F9346
:101C80004F935F936F937F938F939F93AF93BF9384
:101C9000EF93FF93E0E0F4E08185846181870E9407
:101CA0007E0D0E94A30DFF91EF91BF91AF919F9187
:101CB0008F917F916F915F914F913F912F910F90F5
:101CC0000FBE0F901F9018959091283C90FF10C068
:101CD00040914A0A50914B0A2091B73C3091B83C50
:101CE0002417350728F49E7F9093283C81E00895BF
:101CF000892F827091FF11C040914A0A50914B0A7E
:101D00002091DB3C3091DC3C2417350728F49D7F83
:101D10009093283C82E0089580E008958091293CCA
:101D200090912A3C803223E0920728F40196809318
:101D3000293C90932A3C089581E02091293C3091E0
:101D40002A3C2032334008F480E00895E0E0F4E0DB
:101D500084E1828381E0828B848BE0E4FAE083E09B
:101D600080838FEF9FEC848795870895FC01809195
:101D70007B3C83FF8DC040912F3C4423E1F1809157
:101D8000080482FD04C08091080484FF09C01092F9
:101D90002F3C1092273C1092253C1092263C78C094
:101DA00020914A0A30914B0A80912D3C90912E3C13
:101DB0008217930728F420914A0A30914B0A05C0F4
:101DC00020914A0A30914B0A3053281B390B41307D
:101DD00009F05EC08091233C9091243C281739077C
:101DE00008F456C080912B3C816080932B3C82E0AC
:101DF00080932F3C4DC08091273C8823B1F1809186
:101E0000080482FDC4CF8091080484FDC0CF2091D6
:101E10004A0A30914B0A8091253C9091263C8217CA
:101E2000930728F420914A0A30914B0A05C020916B
:101E30004A0A30914B0A3053281B390B233831059D
:101E400038F181E080932F3C80914A0A90914B0AAF
:101E500080932D3C90932E3C8CE390E08093233C28
:101E60009093243C1092273C08958091080482FDB1
:101E70000FC08091080484FD0BC080914A0A9091A4
:101E80004B0A8093253C9093263C81E08093273C2D
:101E90008091323C9091333C009739F42091303C52
:101EA0003091313C232B09F490C01092323C1092B7
:101EB000333C1092303C1092313C9C012D5D310935
:101EC000253E310588F481E08093DD3C80912C3CF7
:101ED0008F5F80932C3CA091DE3CB0E0A554B34CC6
:101EE0008C91880F8F5F21C0855F91408B35914C1D
:101EF00008F06BC01092DD3C80912C3C8E3060F07D
:101F000081E08093FF3C1092BB3C1092DE3C10922B
:101F1000003D10922C3C089510922C3CA091DE3C88
:101F2000B0E0A554B34C8C91880F8C938091DE3C2B
:101F3000803208F04AC08091FF3C81111BC0809123
:101F4000DD3C8130B9F48091003D811113C01082D5
:101F500080819091DE3C891770F490E0DC01A554FB
:101F6000B34C2C91DB01A80FB91F2C9380818F5F9C
:101F70008083EECF10828091FF3C8F5F8093FF3C87
:101F8000893019F5E091DE3CE11107C08091BB3C3E
:101F90008F3F19F48093DE3C0895AE2FB0E0A55436
:101FA000B34C9091003D8C9189278093003DEF5F69
:101FB000E093DE3CF0E0E554F34C10821092FF3CDD
:101FC0001092293C10922A3C0895089590912B3C40
:101FD000892F817090FF04C09E7F90932B3C81E0FD
:101FE0000895E0E0F4E0818188688183E0E2F4E034
:101FF000818188638183A0E4B4E011968C9111976C
:10200000836011968C9381818D7F818388E0818BA1
:10201000089590E08730910538F5FC01EA5BFF4FA9
:102020000C94E01388E003C082E00EC080E86623D1
:1020300019F080930504089580930604089588E0BC
:102040000CC080E20AC081E0662319F08093450449
:10205000089580934604089580E1662319F08093E3
:102060002504089580932604089580912804869578
:10207000817091E0892708958091373C0895CF932E
:10208000813019F48093373C02C01092373CC0E095
:102090006091373C8C2F0E940910CF5FC730C1F789
:1020A000CF910895E0E0F4E08281826082838181B3
:1020B00080648183A0E2B4E011968C9111978160D5
:1020C00011968C93A0E4B4E011968C9111978860DE
:1020D00011968C93119786818064868316968C91D5
:1020E0001697886016968C93A0E0BAE091E09C93D6
:1020F00083E111968C9311972FEF30E096962D93F4
:102100003C93979798961D921C929997858180642D
:10211000858380E38093A000E0E0F6E085E08083A3
:10212000918384E4828380E2838314820895909172
:10213000483C911128C09091973C913021F1813019
:1021400059F4809146048860809346048091050488
:102150008064809305040895823059F480910604C8
:1021600080648093060480914504886080934504D0
:10217000089580910604806480930604809146044B
:102180008860809346040895813071F493E09093C1
:10219000010A98E09093460490E49093050480939C
:1021A00025048093483C089588E08093460480E4A9
:1021B0008093060481E08093260483E18093010AE2
:1021C0001092483C08959091973C913079F081307D
:1021D00059F0823011F483E007C08C3011F48DE0A7
:1021E00003C08B3019F48FE08093000A08951F928A
:1021F0000F920FB60F9211242F933F934F935F933B
:102200006F937F938F939F93AF93BF93EF93FF93BE
:1022100080910B0A816080930B0A8091473C882350
:1022200089F0813051F40E94E3101092473C809174
:102230000A0A8E7F80930A0A05C00E94E31081E09B
:102240008093473CFF91EF91BF91AF919F918F9108
:102250007F916F915F914F913F912F910F900FBEA2
:102260000F901F9018959091483C91110BC0909140
:10227000973C913039F08093473C80910A0A816005
:1022800080930A0A08959091413C6091803C961792
:1022900098F420918C3C30E04FEF50E0421B530B00
:1022A000949FF001959FF00D112470E0CF010E94E2
:1022B000CC13862F820F08958FEF0895CF939091BE
:1022C000973C913019F48093413C17C09091413C68
:1022D000891799F0C82F8093433C8093413C0E941A
:1022E0004311682F8093443C2FEFC29FC0011124FB
:1022F00070E00E94B8136093403CCF9108958091A4
:10230000413C08958091503C87FF07C080913F3C3D
:10231000811103C081E080933F3C089580913C3C53
:1023200090913D3C08958F929F92AF92BF92CF9231
:10233000DF92EF92FF920F931F93CF93DF93409121
:10234000433C411103C01092423C90C0A0907C3CA1
:10235000B12CC0907D3CD12CE0907E3CF12C2091A2
:102360003C3C30913D3C369527955FEF529FC00134
:10237000539F900D11246091843C70E00E94B8132B
:10238000242F30E0CB016F3F710519F014F08FEF6F
:1023900090E08901081B190BEAE0F0E0C801BF01D9
:1023A0000E94CC1380913A3C90913B3CEB01C80FCA
:1023B000D91FC0933A3CD0933B3C8091383C9091DC
:1023C000393CB801681B790BCB0164E670E00E94D0
:1023D000CC134B010093383C1093393CA09EC001B4
:1023E000A19E900DB09E900D1124BF010E94CC13B0
:1023F0008B01CC9EC001CD9E900DDC9E900D1124D2
:10240000BF010E94CC13E801C60FD71FE89CC00192
:10241000E99C900DF89C900D1124BF010E94CC13F3
:102420006C0F7D1F6F3F710529F024F08FEF8093B3
:10243000423C07C077FF03C01092423C02C0609349
:10244000423C5091423C852F90E0451738F4821B66
:10245000930B813A910554F0405606C0281B390B66
:10246000213A31051CF0405A4093423CDF91CF9114
:102470001F910F91FF90EF90DF90CF90BF90AF90A2
:102480009F908F9008958091973C813009F47DC092
:102490008091483C811179C080913F3C8823C9F1EB
:1024A0008436E8F4813059F48091280A9091290A01
:1024B00080933E3C1092280A1092290A0AC08A3062
:1024C00041F481E0809306068093080684E68093B9
:1024D0003F3C80913F3C8F5F80933F3C0895853621
:1024E00009F053C08091080680FD4FC0809110060E
:1024F0009091110680933C3C90933D3C10923F3C60
:1025000080913E3C90E08093280A9093290A0C9495
:1025100093119091503C892F8F7729F497FD2BC010
:102520008091413C2DC0833051F48091463C109203
:10253000463C8F3F09F408958091453C06C0809148
:10254000453C91FF02C08E5F01C08F5F8093453C88
:102550002091443C8091453C281758F41092280A59
:102560001092290A8EEF90E08093200A9093210A1E
:10257000089597FF03C08091423C02C08091403C87
:1025800090E08093280A9093290A08958091423C14
:1025900090E008959091973C913059F593E0909395
:1025A000010A613059F49091460498609093460472
:1025B0009091050490649093050412C090910604D4
:1025C000906490930604623031F4909145049860D1
:1025D0009093450405C090914604986090934604FA
:1025E000882321F081E080932504089581E0809381
:1025F000260408951F920F920FB60F9211248F9305
:102600008091493C81608093493C81E080935301F3
:102610008F910F900FBE0F901F9018951F920F92E1
:102620000FB60F9211248F9383E080934301809122
:10263000493C82608093493C8F910F900FBE0F9070
:102640001F901895809141018111FCCF10924C018F
:1026500010924D0181E090E080934A0190934B01EC
:102660001092470181E8809340018091520181607E
:102670008093520181E280935001809142018360F6
:1026800080934201789408959091493C892F8170FC
:1026900090FF04C09E7F9093493C81E00895909103
:1026A000493C892F827091FF04C09D7F9093493CE3
:1026B00081E008951F920F920FB60F9211248F930D
:1026C0009F93EF93FF9380910408806280930408A6
:1026D000F89480914B3CE82FF0E0EE5FF24C908153
:1026E000909302088F5F803318F480934B3C02C0B4
:1026F00010924B3C90914B3C80914A3C981305C002
:10270000809105088F7D809305087894FF91EF9163
:102710009F918F910F900FBE0F901F901895E0E240
:10272000F4E0818184608183858184608583E0E039
:10273000F8E080EA90E08087918780E4868383E0F8
:102740008783089590914A3CE92FF0E0EE5FF24CC8
:1027500080839F5F903318F490934A3C02C010929C
:102760004A3C80910508806280930508789408951A
:10277000AA1BBB1B51E107C0AA1FBB1FA617B707A7
:1027800010F0A61BB70B881F991F5A95A9F78095C3
:102790009095BC01CD01089597FB072E16F4009487
:1027A00007D077FD09D00E94B81307FC05D03EF48E
:1027B000909581959F4F0895709561957F4F0895ED
:1027C000EE0FFF1F0590F491E02D099403D0808156
:1027D00099270895FC01E050FC4E0895262F0E9491
:1027E000EA130080021619F00E94FA13019701976C
:1027F0000895262FAF93BF93E0E0F0E1328131FDE1
:10280000FDCFDC01A050BC4E2C932DE924BF23E06A
:0E28100020830196BF91AF910895F894FFCFF9
:04281E00FFFFFF00B9
:00000001FF
