:1000000025C03FC03EC0BBCA3CC03BC01ACD00CDDE
:1000100038C037C036C035C034C033C032C031C03C
:1000200030C02FC02EC02DC02CC02BC02AC029C06C
:1000300028C027C026C025C050CD23C022C040CC38
:1000400041CC42CC4ACC4BCC4CCC54CC11241FBE1E
:10005000CFEFCDBFDFE3DEBF1EE3A0E0BEE3E8EC01
:10006000FBE102C005900D92A430B107D9F72FE350
:10007000A4E0BEE301C01D92A630B207E1F7FDD8AF
:10008000A1CDBECF8091083E8823F1F18091053E3D
:10009000873098F4E82FF0E0E25BF14C90819923EF
:1000A00029F120915B3E2F7092959F70291710F4D3
:1000B00061E001C060E0FCDB19C08730B9F48091D9
:1000C000553E882399F090915B3E9F7082958F708A
:1000D0002091613E22FD03C06091423E01C061E07B
:1000E000981710F481E001C080E065DC8091053E46
:1000F0008F5F8093053E883039F480915B3E8F5F3F
:1001000080935B3E1092053E089504DC811118C077
:100110008091043E8F5F803118F48093043E02C0CA
:100120001092043EEFE2FEE380819181009719F086
:1001300001968083918332968EE3E134F807A1F72C
:1001400008954091433EE6E6FEE390E021E03191E0
:10015000307C49F0303419F4813041F404C0303837
:1001600029F4823019F4342F3223932B220F3EE3EB
:10017000EE36F30761F78093423E47FF05C080915A
:100180006E3E813009F490689093063E08956F7139
:1001900046131BC04091613E222351F021E030E024
:1001A00001C0220F8A95EAF7242B2093613E08951F
:1001B00021E030E0B90102C0660F771F8A95E2F7AF
:1001C000CB01809584238093613E08950F93CF9354
:1001D000DF93962F9F71491363C0607C482F50E0D6
:1001E0009091063EE091073E611103C021110BC0C2
:1001F0002EC0603419F4013051F5F8CF603839F56C
:10020000023029F5F3CFC1E0D0E09E01082E01C0F5
:10021000220F0A94EAF7922B9093063E6E2F70E01D
:1002200060957095DB0102C0B595A7958A95E2F7B8
:10023000A0FF36C0DA01AA0FBB1FA15DB14CCD9360
:10024000DC93DA01A25BB14C1C922E2B27C0C1E0DB
:10025000D0E09E01082E01C0220F0A94EAF72095F3
:1002600092239093063E6E2F70E0DB0102C0B5959D
:10027000A7958A95E2F7A0FF13C0DA01AA0FBB1F6A
:10028000A15DB14CCD93DC93DA01A25BB14C1C9221
:100290008091083E82238093083E2E232093073EC0
:1002A000DF91CF910F91089590916E3E913069F555
:1002B0008F7168132AC09091063E8091073E4423B7
:1002C00079F090689093063E87FD1FC021E030E0F2
:1002D00020933D3E30933E3E1092553E806813C0C1
:1002E0009F779093063E87FF10C021E030E0209377
:1002F0003D3E30933E3E1092553E9091083E9F7792
:100300009093083E8F778093073E0895EF92FF9277
:100310000F931F93CF93DF93C82FD62F142F4093A3
:10032000423E84E6E82E8EE3F82E262F4C2FF7016E
:10033000608180E02CDF2D2F4C2FF701618181E05F
:1003400026DF012F2D2F4C2FF701628180E03EDF49
:100350002D2F4C2FF701638181E038DF2D2F4C2F9B
:10036000F701648182E032DF2D2F4C2FF701658188
:1003700083E02CDF2D2F4C2FF701668184E026DFF0
:100380002D2F4C2FF701678185E020DF2D2F4C2F7B
:10039000F701608586E01ADF212F4D2F6C2FF701C2
:1003A000818582DF2D2F4C2F6091573E83E0EFDE59
:1003B0002D2F4C2F6091443E82E0E9DE2D2F4C2FF3
:1003C00060915F3E87E0DF91CF911F910F91FF9089
:1003D000EF90DDCEDF92EF92FF920F931F93CF93BA
:1003E000DF93182FE62E042F813049F4C091413E4F
:1003F000CC2309F456C084E0F82ED1E029C0823025
:1004000049F4C0914C3ECC2309F44BC048E0F42E93
:10041000D5E01EC0833049F4C091453ECC2309F499
:1004200040C03CE0F32ED9E013C0843041F4C091C9
:100430005A3ECC23B1F124E1F22EDDE009C0853033
:1004400081F5C091583ECC2361F19CE1F92ED5E1B4
:100450005ADA882329F0013011F001E001C002E0EE
:10046000DD24D394FD1658F08C2F8D2129F0402FD8
:100470006D2D6E218D2F4ADFDD0CDF5FF3CF113044
:1004800081F48091413E84FF0CC06E2D6071402F3D
:1004900080E0DF91CF911F910F91FF90EF90DF905F
:1004A00035CFDF91CF911F910F91FF90EF90DF90AB
:1004B0000895962F873008F4FBC9873019F4642F0C
:1004C000892F79CA08956F927F928F929F92AF92EF
:1004D000BF92CF92DF92EF92FF920F931F93CF9331
:1004E000DF931F92CDB7DEB7873051F44091423E83
:1004F000423019F46090793E0DC06090783E0AC099
:10050000873008F075C04091423EE82FF0E0E15995
:10051000F14C6280862E282F30E061E070E06B01A4
:10052000082E01C0CC0C0A94EAF79090063E9C205D
:10053000962D9F70B901625B714C5B01913039F56A
:1005400080916F3E807F77247394780E8091613E16
:100550008901000F111F82FD04C083FD02C080FFCE
:1005600009C09801215D314C75018E010F5F1F4F4D
:10057000482D0BC0F2D19801215D314C75018E01DF
:100580000F5F1F4F482D811129C0672D28C0923061
:1005900049F49091613E92FD0DC093FD0BC091FF17
:1005A00014C008C0933089F49091613E92FD02C05E
:1005B00093FF0BC0F5011082C0949091083EC922B0
:1005C000C092083E60E075DF13C0220F331F215D2B
:1005D000314C75018E010F5F1F4F482D662D892DFF
:1005E000E1D0F50180838091083EC82AC092083E80
:1005F0000F90DF91CF911F910F91FF90EF90DF90BF
:10060000CF90BF90AF909F908F907F906F90089504
:10061000AF92BF92CF92DF92EF92FF920F931F9310
:10062000CF93DF93E82EF12CC1E0D0E0082E01C07B
:10063000CC0F0A94EAF7873029F490916E3E9130FE
:1006400009F0A5C0182F670182E0C80ED11CF60181
:10065000EC59F14C5F018081982F9F719F3109F017
:100660004EC0807C19F48091063E12C0FCD5082F44
:100670004AD9882329F0023011F002E001C001E0DC
:10068000F50190818091063E97FF06C0023011F47B
:100690008C2B0BC09C2F07C096FF09C09C2F0130EC
:1006A00011F48C2B02C0909589238093063E2091F3
:1006B000063E8091073E422F482750E0012E02C09F
:1006C000559547950A94E2F740FF19C0F701EE0FE0
:1006D000FF1FE15DF14C41E050E04083518330E089
:1006E000012E02C0359527950A94E2F720FF02C03B
:1006F0008C2B03C09C2F909589238093073E80917B
:10070000063E8C2371F06091043E812FDF91CF91E2
:100710001F910F91FF90EF90DF90CF90BF90AF901F
:10072000D2CE8091613E82FDEECF81FF0AC0F601FC
:10073000E159F14C80818F70823091F0833081F4E7
:10074000E2CF173069F460E080E0DF91CF911F9134
:100750000F91FF90EF90DF90CF90BF90AF902BC99B
:10076000F701E25BF14C1082C0958091083EC823EE
:10077000C093083E60E0812FDF91CF911F910F91D0
:10078000FF90EF90DF90CF90BF90AF9091C8DF9136
:10079000CF911F910F91FF90EF90DF90CF90BF907E
:1007A000AF900895EF92FF920F931F93CF93DF9333
:1007B000982FF901D801E701862F82958F70462F77
:1007C0004F70413009F5911105C0108211821882D5
:1007D0001C927FC0208131812115310529F1B90199
:1007E0007695679576956795962F92959F70981751
:1007F00038F010821182962F9F6098834C9384C0AA
:1008000068834C93862F85C0443089F0453009F4C5
:100810004EC0463009F075C09923B9F2408151812C
:100820004115510509F057C06F6068836AC099236C
:1008300061F2408151814115510509F462C048328D
:10084000510530F491E09C9318821092093E15C036
:100850004238510540F1443B510548F491E09C93E6
:10086000188228E0829FC0011124876052C0423D57
:10087000510548F491E09C93188224E0829FC001C6
:100880001124836046C04C3791E05907D8F443FFE8
:100890000AC081E08C9318828091093E8F5F80931B
:1008A000093E880F36C091E09C93188232C099238C
:1008B00009F48BCF408151814115510511F1403927
:1008C000514028F0108211821C9218821DC01C9287
:1008D000188280E01EC05695479556954795942FEF
:1008E00092959F70981740F010821182942F9F600C
:1008F000988391E09C9308C0488381E08C93842F77
:1009000008C0108211821C9220E1829FC001112434
:100910008F60DF91CF911F910F91FF90EF9008951D
:100920009091003E98138093003E660F6C7119F40D
:1009300010927C3E089581E080937C3E08959091D2
:10094000003E98138093003E613019F410927C3E73
:100950000895660F60937C3E089580917C3E0895D3
:1009600080910A3E8170089590E080509040FDC8CB
:100970008F3F910509F008F4F7CF80E0089590913A
:10098000021091FDFCCF90E080509040F6C8853079
:10099000A8F44091413E811103C0842F80610BC0B7
:1009A000815021E030E0B90102C0660F771F8A95BF
:1009B000E2F7CB01842B8093413E0895893080F487
:1009C000855021E030E0A90102C0440F551F8A95EF
:1009D000E2F7CA0190914C3E892B80934C3E0895DA
:1009E0008D3080F4895021E030E0B90102C0660FFB
:1009F000771F8A95E2F7CB019091453E892B809332
:100A0000453E0895853180F48D5021E030E0A90104
:100A100002C0440F551F8A95E2F7CA0190915A3ED1
:100A2000892B80935A3E08958D3178F4845121E0CA
:100A300030E0B90102C0660F771F8A95E2F7CB015B
:100A40009091583E892B8093583E0895EF92FF92E3
:100A50000F931F93CF938091021081FDFCCF80E014
:100A600090E083D88F3F31F4CF911F910F91FF9089
:100A7000EF9066C006E41EE3C0E0CF5F8C2F74DF0A
:100A8000F80181938F01C630C1F781E190E06DD804
:100A90008093593E82E190E068D88093633E83E181
:100AA00090E063D88093623E8BE190E05ED88093C3
:100AB0007A3E8DE190E059D880934D3E84E6E82E51
:100AC0008EE3F82E0FE61EE3C1E28C2F4DDFF70117
:100AD00081937F018F715BDF8FE48C0F45DFF8011D
:100AE00081938F01CF5FCC3281F78CE290E03DD8CB
:100AF000C82F8093573E8DE290E037D88093443ED4
:100B00008C2F8F7144DF8091443E8F7140DF82E3F0
:100B100090E02BD88093433E0CE51EE3CCE38C2F72
:100B200023DFF80181938F01CF5FC134C1F780913A
:100B30005F3E8F71CF911F910F91FF90EF9027CF64
:100B400063E081E01CDF60E082E019DF60E083E0C9
:100B500016DF60E084E013DF6FEF85E010DF6FE702
:100B600086E00DDF61E087E00ADF6DE088E007DF07
:100B700060EC81E104DF60E082E101DF60E083E1BD
:100B8000FEDE63E08BE1FBDE6EE08DE1F8DE64E02B
:100B900081E2F5DE67E082E2F2DE60E483E2EFDE2E
:100BA00061E884E2ECDE61E885E2E9DE60E886E2A5
:100BB000E6DE61E487E2E3DE61E488E2E0DE63E052
:100BC00089E2DDDE60E08AE2DADE61E08BE2D7DE38
:100BD0006EE38CE2D4DE6EE38DE2D1DE69EC82E37B
:100BE000CEDE63E88CE3CBDE6FE58DE3C8DE60EC40
:100BF0008EE3C5DE67E08FE3C2DE61E080E4BFDE46
:100C000060E480E7BCDE61EF82E7B9DE63EF83E793
:100C1000B6DE62EF84E7B3DE61EF85E7B0DE63EF57
:100C200086E7ADDE62EF87E7AADE64EF88E7A7DE3E
:100C300061EF89E7A4DE62EF8AE7A1DE60E080E091
:100C40009EDE04CF0F931F93CF93DF93EC01162FFB
:100C50008F3F910511F008F08BC08F50823048F023
:100C60008FE090E082D7082F80E190E07ED70813D4
:100C70007FC0CC32D10528F5C132D10508F05EC065
:100C8000C131D10509F447C088F4C730D10509F452
:100C90006FC040F4C130D10508F463C0FE01EB5BC6
:100CA000F14C5EC0C830D10551F15BC0C331D105F4
:100CB000C1F1A0F1CB31D105B9F1CD31D105B9F1F7
:100CC00050C0CF33D10570F4CC33D10508F03EC00D
:100CD000CC32D105C1F1CD32D10509F042C010931B
:100CE000443E3AC0C034D10589F1A0F1CE0180570D
:100CF00091090B97B0F5FE01E150F24C31C01D3067
:100D000011F01830A9F56FEF80E039DEDF91CF9157
:100D10001F910F9115CF1093593E23C01093633E3E
:100D200020C01093623E1DC010937A3E1AC080917D
:100D3000603E80FD186010934D3E13C0FE01ED5BD8
:100D4000F14C108309C01093573E06C0FE01E05ECF
:100D5000F14C06C010935F3E812F8F7118DE01C0E9
:100D60001083612F8C2FDF91CF911F910F9107CEB0
:100D7000DF91CF911F910F910895FF920F931F93D1
:100D8000CF93DF938C01F62E862F8770C1E0D0E0E1
:100D900001C0CC0F8A95EAF7C801EADDF3FE03C073
:100DA0006C2F682B03C0C0956C2F6823C801DF919E
:100DB000CF911F910F91FF9045CF81E080930C3E22
:100DC00080930D3EAAD581E0DDC510927E3E089548
:100DD000CF93FB0120818091803E281358C0C181B0
:100DE0008091813EC81353C092818091823E9813B6
:100DF0004EC022FD1AC080910B3E90E00197880FF3
:100E0000991F880F991F322F3370830F911D019600
:100E100023FF05C06C2F16DF80917E3E2AC0A8DD1F
:100E2000C8133FC080917E3E2DC0822F87708530D1
:100E300081F028F48430A9F58DE190E012C086306D
:100E400029F0873071F588E090E00BC087E090E0F2
:100E500008C080917E3E80FD24C0C0930B3E81601F
:100E600012C023FF08C06C2FEDDE80917E3E82FD14
:100E700018C0846008C07CDDC81313C080917E3E1A
:100E800081FD0FC0826080937E3ECF9196CF2093EC
:100E9000803E81818093813E82818093823E109248
:100EA0000D3ECF910895CF93FB0120818091803E2C
:100EB000281326C081819091813E891321C0C2816F
:100EC0009091823EC9131CC033819091833E3913A7
:100ED00017C090910D3E911120C0322F337090E0D9
:100EE000830F911D01962C70243029F02C30A9F429
:100EF0006C2FA8DE03C03CDDC8130FC0CF915DCFBF
:100F00002093803E81818093813E82818093823EC6
:100F100083818093833E10920D3ECF9108958091FE
:100F20000C3E882379F08F5F8D3018F480930C3E4F
:100F3000089510920C3E81E080930D3E82E0EDD446
:100F400082E020C508958091113E882321F08150D0
:100F50008093113EE4CF0895EF92FF921F93CF93B9
:100F6000DF93FB0190818330E1F491110FC0218167
:100F7000211117C02281211114C08EE18093113EEE
:100F8000DF91CF911F91FF90EF901FCF9F3F49F4CA
:100F90002181211106C022812F3F19F41092113EA8
:100FA0002FC13091623E332341F097FD06C09181FD
:100FB000907E903E11F03093103E3091103E908123
:100FC000332339F0992309F41BC19F77931318C178
:100FD0001FC097FD09C020914D3E25FD05C0209101
:100FE000463E92130DC114C0292F207C203C09F0ED
:100FF00007C120914D3E25FF03C12091593E921318
:10100000FFC021819091633E2913FAC022E001C004
:1010100021E030E0EF01C20FD31F6881962F907E50
:10102000903809F479C050F4AF01903409F448C005
:10103000903609F445C0903259F0E2C0903C09F472
:101040008AC0903E09F496C0903A09F0D9C06FC0AA
:1010500090E0F90133968E179F0709F0D1C06F71A8
:101060006F3109F0CDC02F5F3F4FFA01E20FF31F40
:10107000C081CF778FEF8093023E908180914D3E6B
:1010800097FF04C080FF04C082E003C080FFFCCF54
:1010900081E080930F3E64DC882349F080910F3E0D
:1010A000813011F482E001C081E080930F3E6C2F0B
:1010B00080910F3EDF91CF911F91FF90EF903FCC39
:1010C00090E02E5F3F4F8217930709F099C08FEF92
:1010D0008093013E80914D3E65FF04C080FF04C0B7
:1010E00082E003C080FFFCCF81E080930F3E38DCBC
:1010F000882349F080910F3E813011F482E001C0D5
:1011000081E080930F3E688180910F3EDF91CF9107
:101110001F91FF90EF9004CC90E02E5F3F4F82171D
:10112000930709F06DC040910F3E81E00CC090E044
:101130002E5F3F4F8217930709F062C040910F3E28
:1011400064FF07C082E0DF91CF911F91FF90EF9085
:1011500041C983E0F8CF6E3D29F440910F3E69818B
:1011600084E0F1CF6F3D09F04BC040910F3E6981A3
:1011700085E0E9CFE8E8FEE37E018BE89EE39E018F
:101180002F5F3F4FAE014E5F5F4F61E01191D7017E
:101190007D917D01171769F078817093883ED901A0
:1011A0007C917093893EDA017C9170938A3E6093C2
:1011B0000E3E8E179F0751F710920E3E988193FFB7
:1011C0001FC0892F8370298192FF0DC090E0982F56
:1011D0008827820F911D6A810196DF91CF911F911F
:1011E000FF90EF902FCD90E0982F8827820F911DD0
:1011F0006A810196DF91CF911F91FF90EF90BDCD55
:10120000DF91CF911F91FF90EF900895823051F1BF
:101210009091113E992329F1FB01908190779037AD
:1012200001F59EE19093113E833019F08430B9F0BE
:101230000895FB018081811107C0818181110DC05A
:10124000828181110AC008958F3F39F4FB018181A9
:10125000811103C082818F3F29F083E0B9CD84E002
:1012600022CE7ACE089580910F3E089581E090912C
:10127000113E911101C080E00895CF93DF93CDB767
:10128000DEB7E197CDBFDEBF8DD0EFD358D3F8D214
:10129000B7D158D4DBDB92D0789410E093D0BE0164
:1012A0006F5F7F4FCE01C196BBD189A9882329F0FA
:1012B000BE016F5F7F4FAADF19AAD8DF882329F00C
:1012C000F6D3882359F33FDEE9CFFCD38111DAD678
:1012D000EED3882319F0112391F002C01123E9F213
:1012E0001D3040F4153078F4113049F01430D1F449
:1012F0000CD718C01D3059F01E3059F013C068D1FA
:1013000016D011E00FC08BEF810F82D90BC01BDE0E
:1013100009C080914D3E82FF05C068D1882311F03D
:101320003ED00FD71F5F103108F0B7CFB7CF9091E5
:1013300008048091133E92FF11C09091080494FD1F
:101340001DC09091123E992319F091509093123E36
:101350008E31A0F48E5F8093133E10C090910804EC
:1013600094FF0CC0882319F081508093133E809124
:10137000123E8E3118F48E5F8093123E8091133EA0
:10138000803110F081E005C08091123E803120F064
:1013900082E08093143E08951092143E0895809147
:1013A000143E089561E081E690E006D464E080E8B0
:1013B00090E002D460E081E890E0FEC366E080E067
:1013C00091E0FAC3A89508958091153E9091080484
:1013D000982792FF0BC09091080492FF02C084608E
:1013E00001C08B7F8093153E81E001C080E0909129
:1013F000153E20910804292724FF0AC0826020910D
:10140000080424FF02C0906101C09F7E9093153EA6
:10141000089580FF5AC02091153E9091293E22FFE9
:1014200042C090FD3BC091609093293E20914A0AB2
:1014300030914B0A4091273E5091283E4217530766
:1014400028F420914A0A30914B0A05C020914A0A9B
:1014500030914B0A3053241B350B2093253E30939B
:10146000263E90911B3E916090931B3E20914A0A2C
:1014700030914B0A29333F4C38F020914A0A309181
:101480004B0A28533F4C06C020914A0A30914B0A20
:1014900028533F4F20938B3E30938C3E1092223E38
:1014A00010921A3E12C090FF10C09E7F9093293E6A
:1014B00020914A0A30914B0A2093273E3093283ED0
:1014C00090911B3E9E7F90931B3E8370B9F190914B
:1014D000153E8091293E94FF27C081FD20C0826087
:1014E0008093293E80911B3E826080931B3E8091B9
:1014F0004A0A90914B0A89339F4C38F080914A0AEE
:1015000090914B0A88539F4C06C080914A0A909153
:101510004B0A88539F4F8093AF3E9093B03E1092FA
:10152000223E10921A3E0AC081FF08C08D7F809330
:10153000293E80911B3E8D7F80931B3E8091080445
:1015400082FD14C08091080484FD10C080911A3E71
:10155000811114C080914A0A90914B0A8093183EE1
:101560009093193E81E080931A3E08951092223E96
:1015700010921A3E1092183E1092193E08951F9232
:101580000F920FB60F9211242F933F934F935F93B7
:101590006F937F938F939F93AF93BF93EF93FF933B
:1015A000E0E0F4E08185846181870EDF32DFFF9126
:1015B000EF91BF91AF919F918F917F916F915F91CB
:1015C0004F913F912F910F900FBE0F901F90189544
:1015D00080911C3E90911D3E803223E0920728F4BA
:1015E000019680931C3E90931D3E089581E02091CA
:1015F0001C3E30911D3E2032334008F480E00895B7
:10160000E0E0F4E084E1828381E0828B848BE0E49B
:10161000FAE083E080838FEF9FEC848795870895BD
:10162000FC0180914D3E83FF8DC04091223E4423BA
:10163000E1F18091080482FD04C08091080484FFD8
:1016400009C01092223E10921A3E1092183E10923B
:10165000193E78C020914A0A30914B0A8091203E71
:101660009091213E8217930728F420914A0A3091E5
:101670004B0A05C020914A0A30914B0A3053281B6F
:10168000390B413009F05EC08091163E9091173EB3
:101690002817390708F456C080911E3E8160809358
:1016A0001E3E82E08093223E4DC080911A3E8823E8
:1016B000B1F18091080482FDC4CF8091080484FDBB
:1016C000C0CF20914A0A30914B0A8091183E9091E8
:1016D000193E8217930728F420914A0A30914B0A49
:1016E00005C020914A0A30914B0A3053281B390B10
:1016F0002338310538F181E08093223E80914A0AF7
:1017000090914B0A8093203E9093213E8CE390E091
:101710008093163E9093173E10921A3E0895809142
:10172000080482FD0FC08091080484FD0BC08091E5
:101730004A0A90914B0A8093183E9093193E81E09B
:1017400080931A3E8091253E9091263E009739F471
:101750002091233E3091243E232B09F490C0109217
:10176000253E1092263E1092233E1092243E9C016C
:101770002D5D3109253E310588F481E08093B13E2D
:1017800080911F3E8F5F80931F3EA091B23EB0E0DC
:10179000A157B14C8C91880F8F5F21C0855F91401C
:1017A0008B35914C08F06BC01092B13E80911F3E7A
:1017B0008E3060F081E08093D33E10928F3E109285
:1017C000B23E1092D43E10921F3E089510921F3EDA
:1017D000A091B23EB0E0A157B14C8C91880F8C9390
:1017E0008091B23E803208F04AC08091D33E811190
:1017F0001BC08091B13E8130B9F48091D43E8111FB
:1018000013C0108280819091B23E891770F490E0ED
:10181000DC01A157B14C2C91DB01A80FB91F2C930F
:1018200080818F5F8083EECF10828091D33E8F5F67
:101830008093D33E893019F510921C3E10921D3EC4
:10184000E091B23EE11107C080918F3E8F3F19F4C5
:101850008093B23E0895AE2FB0E0A157B14C909165
:10186000D43E8C9189278093D43EEF5FE093B23EC3
:10187000F0E0E157F14C10821092D33E08950895A4
:10188000E0E0F4E0818188688183E0E2F4E0818136
:1018900088638183A0E4B4E011968C9111978360F2
:1018A00011968C9381818D7F818388E0818B08954F
:1018B00090E08730910530F5FC01E15EFF4F09941F
:1018C00088E003C082E00EC080E8662319F08093B0
:1018D0000504089580930604089588E00CC080E212
:1018E0000AC081E0662319F080934504089580932F
:1018F0004604089580E1662319F080932504089535
:10190000809326040895809128048695817091E043
:101910008927089580912A3E0895CF93813019F444
:1019200080932A3E02C010922A3EC0E060912A3E77
:101930008C2FBEDFCF5FC730C9F7CF910895E0E0AD
:10194000F4E0828182608283818180648183A0E26D
:10195000B4E011968C911197816011968C93A0E45C
:10196000B4E011968C911197886011968C93119721
:1019700086818064868316968C9116978860169669
:101980008C930895813059F498E09093460490E444
:10199000909305048093250480932B3E089588E05E
:1019A0008093460480E48093060481E080932604BB
:1019B00010922B3E089590916E3E913041F561302A
:1019C00059F49091460498609093460490910504D0
:1019D00090649093050412C09091060490649093D3
:1019E0000604623031F49091450498609093450468
:1019F00005C090914604986090934604882321F096
:101A000081E080932504089581E080932604089561
:101A10001F920F920FB60F9211248F9380912C3E3C
:101A200082FF03C08B7F816001C0846080932C3E65
:101A300081E0809353018F910F900FBE0F901F9004
:101A400018951F920F920FB60F9211248F9383E077
:101A50008093430180912C3E826080932C3E8F9135
:101A60000F900FBE0F901F9018958091410181112A
:101A7000FCCF10924C0110924D0181E090E08093D8
:101A80004A0190934B011092470181E880934001F5
:101A90008091520181608093520181E280935001D4
:101AA00080914201836080934201789408959091DF
:101AB0002C3E892F817090FF04C09E7F90932C3E16
:101AC00081E0089590912C3E892F827091FF04C08F
:101AD0009D7F90932C3E81E008951F920F920FB648
:101AE0000F9211248F939F93EF93FF93809104089B
:101AF000806280930408F89480912E3EE82FF0E0F5
:101B0000EA52F14C9081909302088F5F803318F471
:101B100080932E3E02C010922E3E90912E3E8091D8
:101B20002D3E981305C0809105088F7D8093050890
:101B30007894FF91EF919F918F910F900FBE0F902E
:101B40001F901895E0E2F4E08181846081838581B3
:101B500084608583E0E0F8E080EA90E08087918708
:101B600080E4868383E08783089503D0808199276A
:101B70000895FC01E050FC4E0895262F0E94B90DF7
:101B80000080021619F00E94C90D0197019708956F
:101B9000262FAF93BF93E0E0F0E1328131FDFDCF1E
:101BA000DC01A050BC4E2C932DE924BF23E0208300
:101BB0000196BF91AF910895DC0128ED2093340088
:081BC0006C930895F894FFCF27
:041BC800FFFFFF001C
:00000001FF
