:1000000025C03FC03EC0FCCA3CC03BC0B0CC96CC73
:1000100038C037C036C035C034C033C032C031C03C
:1000200030C02FC02EC02DC02CC02BC02AC029C06C
:1000300028C027C026C025C0E6CC23C022C0EFCBF5
:10004000F0CBF1CBF9CBFACBFBCB03CC11241FBE09
:10005000CFEFCDBFDFE3DEBF1EE3A0E0BEE3E4EF02
:10006000FAE102C005900D92A430B107D9F72EE352
:10007000A4E0BEE301C01D92AE3FB207E1F762D932
:1000800037CDBECF8091083E8823F1F18091053EA7
:10009000873098F4E82FF0E0EA5BF14C90819923E7
:1000A00029F12091533E2F7092959F70291710F4DB
:1000B00061E001C060E0ABDB19C08730B9F480912A
:1000C0004D3E882399F09091533E9F7082958F709A
:1000D0002091593E22FD03C060913A3E01C061E08B
:1000E000981710F481E001C080E006DC8091053EA5
:1000F0008F5F8093053E883039F48091533E8F5F47
:100100008093533E1092053E0895B3DB811118C0D1
:100110008091043E8F5F803118F48093043E02C0CA
:100120001092043EE7E2FEE380819181009719F08E
:1001300001968083918332968EE3E933F807A1F725
:10014000089540913B3EEEE5FEE390E021E03191E1
:10015000307C49F0303419F4813041F404C0303837
:1001600029F4823019F4342F3223932B220F3EE3EB
:10017000E636F30761F780933A3E47FF05C080916A
:10018000663E813009F490689093063E08956F7141
:1001900046131BC04091593E222351F021E030E02C
:1001A00001C0220F8A95EAF7242B2093593E089527
:1001B00021E030E0B90102C0660F771F8A95E2F7AF
:1001C000CB01809584238093593E08950F93CF935C
:1001D000DF93962F9F71491363C0607C482F50E0D6
:1001E0009091063EE091073E611103C021110BC0C2
:1001F0002EC0603419F4013051F5F8CF603839F56C
:10020000023029F5F3CFC1E0D0E09E01082E01C0F5
:10021000220F0A94EAF7922B9093063E6E2F70E01D
:1002200060957095DB0102C0B595A7958A95E2F7B8
:10023000A0FF36C0DA01AA0FBB1FA95DB14CCD9358
:10024000DC93DA01AA5BB14C1C922E2B27C0C1E0D3
:10025000D0E09E01082E01C0220F0A94EAF72095F3
:1002600092239093063E6E2F70E0DB0102C0B5959D
:10027000A7958A95E2F7A0FF13C0DA01AA0FBB1F6A
:10028000A95DB14CCD93DC93DA01AA5BB14C1C9211
:100290008091083E82238093083E2E232093073EC0
:1002A000DF91CF910F9108959091663E913069F55D
:1002B0008F7168132AC09091063E8091073E4423B7
:1002C00079F090689093063E87FD1FC021E030E0F2
:1002D0002093353E3093363E10924D3E806813C0D9
:1002E0009F779093063E87FF10C021E030E0209377
:1002F000353E3093363E10924D3E9091083E9F77AA
:100300009093083E8F778093073E0895EF92FF9277
:100310000F931F93CF93DF93C82FD62F142F4093A3
:100320003A3E8CE5E82E8EE3F82EF70160816F7778
:100330002D2F4C2F80E02BDF2D2F4C2FF7016181CB
:1003400081E025DF012F2D2F4C2FF701628180E006
:100350003DDF2D2F4C2FF701638181E037DF2D2FFB
:100360004C2FF701648182E031DF2D2F4C2FF701F4
:10037000658183E02BDF2D2F4C2FF701668184E010
:1003800025DF2D2F4C2FF701678185E01FDF2D2FF3
:100390004C2FF701608586E019DF212F4D2F6C2F40
:1003A000F701818581DF2D2F4C2F60914F3E83E037
:1003B000EEDE2D2F4C2F60913C3E82E0E8DE2D2FAB
:1003C0004C2F6091573E87E0DF91CF911F910F91A5
:1003D000FF90EF90DCCEDF92EF92FF920F931F938E
:1003E000CF93DF93182FE62E042F813049F4C0916C
:1003F000393ECC2309F456C084E0F82ED1E029C060
:10040000823049F4C091443ECC2309F44BC048E00B
:10041000F42ED5E01EC0833049F4C0913D3ECC237C
:1004200009F440C03CE0F32ED9E013C0843041F41D
:10043000C091523ECC23B1F124E1F22EDDE009C09F
:10044000853081F5C091503ECC2361F19CE1F92EBD
:10045000D5E108DA882329F0013011F001E001C06C
:1004600002E0DD24D394FD1658F08C2F8D2129F065
:10047000402F6D2D6E218D2F49DFDD0CDF5FF3CF17
:10048000113081F48091393E84FF0CC06E2D607173
:10049000402F80E0DF91CF911F910F91FF90EF905F
:1004A000DF9034CFDF91CF911F910F91FF90EF90AC
:1004B000DF900895962F873008F4A9C9873019F482
:1004C000642F892F19CA08956F927F928F929F92FD
:1004D000AF92BF92CF92DF92EF92FF920F931F9352
:1004E000CF93DF931F92CDB7DEB7873051F44091A1
:1004F0003A3E423019F47090713E0DC07090703EDB
:100500000AC0873008F07BC040913A3EE82FF0E007
:10051000E959F14C7280862E282F30E061E070E0BE
:100520006B01082E01C0CC0C0A94EAF79090063EAD
:100530009C20972D9F70B9016A5B714C5B019130D3
:1005400069F58091673E807F66246394680E809190
:10055000593E8901000F111F82FD04C083FD02C0B6
:1005600080FF09C09801295D314C75018E010F5F34
:100570001F4F482D11C080915C3E87FF02C098013B
:100580002DC0F2D19801295D314C75018E010F5FAC
:100590001F4F482D811129C0662D28C0923049F483
:1005A0009091593E92FD0DC093FD0BC091FF14C078
:1005B00008C0933089F49091593E92FD02C093FF98
:1005C0000BC0F5011082C0949091083EC922C092E0
:1005D000083E60E06FDF13C0220F331F295D314CEE
:1005E00075018E010F5F1F4F482D672D892DE1D0BA
:1005F000F50180838091083EC82AC092083E0F9082
:10060000DF91CF911F910F91FF90EF90DF90CF90EE
:10061000BF90AF909F908F907F906F900895AF9212
:10062000BF92CF92DF92EF92FF920F931F93CF93DF
:10063000DF93E82EF12CC1E0D0E0082E01C0CC0FF2
:100640000A94EAF7873029F49091663E913009F0D8
:10065000A5C0182F670182E0C80ED11CF601E45A2C
:10066000F14C5F018081982F9F719F3109F04EC03E
:10067000807C19F48091063E12C05AD6082FF2D819
:10068000882329F0023011F002E001C001E0F501F9
:1006900090818091063E97FF06C0023011F48C2BAA
:1006A0000BC09C2F07C096FF09C09C2F013011F48E
:1006B0008C2B02C0909589238093063E2091063EA4
:1006C0008091073E422F482750E0012E02C05595E9
:1006D00047950A94E2F740FF19C0F701EE0FFF1F9C
:1006E000E95DF14C41E050E04083518330E0012E60
:1006F00002C0359527950A94E2F720FF02C08C2BA3
:1007000003C09C2F909589238093073E8091063EDD
:100710008C2371F06091043E812FDF91CF911F9166
:100720000F91FF90EF90DF90CF90BF90AF90CCCE25
:100730008091593E82FDEECF81FF0AC0F601E95952
:10074000F14C80818F70823091F0833081F4E2CF60
:10075000173069F460E080E0DF91CF911F910F9135
:10076000FF90EF90DF90CF90BF90AF90C5C8F7019A
:10077000EA5BF14C1082C0958091083EC823C0937B
:10078000083E60E0812FDF91CF911F910F91FF9084
:10079000EF90DF90CF90BF90AF9039C8DF91CF91AD
:1007A0001F910F91FF90EF90DF90CF90BF90AF908F
:1007B0000895EF92FF920F931F93CF93DF93982F9B
:1007C000F901D801E701862F82958F70462F4F706F
:1007D000413009F5911105C01082118218821C92D6
:1007E0007FC0208131812115310529F1B90176952C
:1007F000679576956795962F92959F70981738F024
:1008000010821182962F9F6098834C9384C06883D6
:100810004C93862F85C0443089F0453009F44EC092
:10082000463009F075C09923B9F2408151814115D4
:10083000510509F057C06F6068836AC0992361F25F
:10084000408151814115510509F462C0483251057A
:1008500030F491E09C9318821092093E15C0423802
:10086000510540F1443B510548F491E09C931882B6
:1008700028E0829FC0011124876052C0423D51058B
:1008800048F491E09C93188224E0829FC0011124D7
:10089000836046C04C3791E05907D8F443FF0AC043
:1008A00081E08C9318828091093E8F5F8093093E8E
:1008B000880F36C091E09C93188232C0992309F4C6
:1008C0008BCF408151814115510511F14039514083
:1008D00028F0108211821C9218821DC01C9218826E
:1008E00080E01EC05695479556954795942F929552
:1008F0009F70981740F010821182942F9F60988308
:1009000091E09C9308C0488381E08C93842F08C0B9
:10091000108211821C9220E1829FC00111248F60FD
:10092000DF91CF911F910F91FF90EF9008959091DB
:10093000003E98138093003E660F6C7119F410927C
:10094000743E089581E08093743E08959091003E36
:1009500098138093003E613019F41092743E08950C
:10096000660F6093743E08958091743E089580915F
:100970000A3E8170089590E0805090408CC88F3F6F
:10098000910509F008F4F7CF80E0089590910210E6
:1009900091FDFCCF90E08050904085C88530A8F450
:1009A0004091393E811103C0842F80610BC081507A
:1009B00021E030E0B90102C0660F771F8A95E2F7A7
:1009C000CB01842B8093393E0895893080F4855083
:1009D00021E030E0A90102C0440F551F8A95E2F7DB
:1009E000CA019091443E892B8093443E08958D30F6
:1009F00080F4895021E030E0B90102C0660F771F12
:100A00008A95E2F7CB0190913D3E892B80933D3E44
:100A10000895853180F48D5021E030E0A90102C0B5
:100A2000440F551F8A95E2F7CA019091523E892BD7
:100A30008093523E08958D3178F4845121E030E066
:100A4000B90102C0660F771F8A95E2F7CB0190913A
:100A5000503E892B8093503E0895EF92FF920F9362
:100A60001F93CF938091021081FDFCCF80E090E036
:100A700012D88F3F31F4CF911F910F91FF90EF90DB
:100A800066C00EE31EE3C0E0CF5F8C2F74DFF80179
:100A900081938F01C630C1F781E190E0FCD780934C
:100AA000513E82E190E0F7D780935B3E83E190E096
:100AB000F2D780935A3E8BE190E0EDD78093723E5F
:100AC0008DE190E0E8D78093453E8CE5E82E8EE3FB
:100AD000F82E07E61EE3C1E28C2F4DDFF70181936C
:100AE0007F018F715BDF8FE48C0F45DFF80181930D
:100AF0008F01CF5FCC3281F78CE290E0CCD7C82F4A
:100B000080934F3E8DE290E0C6D780933C3E8C2F81
:100B10008F7144DF80913C3E8F7140DF82E390E033
:100B2000BAD780933B3E04E51EE3CCE38C2F23DF52
:100B3000F80181938F01CF5FC134C1F78091573E97
:100B40008F71CF911F910F91FF90EF9027CF63E0AE
:100B500081E01CDF60E082E019DF60E083E016DF07
:100B600060E084E013DF6FEF85E010DF6FE786E081
:100B70000DDF65E087E00ADF6DE088E007DF60EC0D
:100B800081E104DF60E082E101DF60E083E1FEDE1D
:100B900063E08BE1FBDE6EE08DE1F8DE64E081E294
:100BA000F5DE67E082E2F2DE60E483E2EFDE61E838
:100BB00084E2ECDE61E885E2E9DE60E886E2E6DE1A
:100BC00061E487E2E3DE61E488E2E0DE63E089E29B
:100BD000DDDE60E08AE2DADE61E08BE2D7DE6EE342
:100BE0008CE2D4DE6EE38DE2D1DE6FEF82E3CEDE07
:100BF00063E88CE3CBDE6FE58DE3C8DE60EC8EE36B
:100C0000C5DE67E08FE3C2DE61E080E4BFDE60E462
:100C100080E7BCDE61EF82E7B9DE63EF83E7B6DE33
:100C200062EF84E7B3DE61EF85E7B0DE63EF86E76E
:100C3000ADDE62EF87E7AADE64EF88E7A7DE61EF4B
:100C400089E7A4DE62EF8AE7A1DE60E080E09EDE55
:100C500004CF0F931F93CF93DF93EC01162F8F3F99
:100C6000910511F008F08FC08F50823048F08FE06E
:100C700090E011D7082F80E190E00DD7081383C0D2
:100C8000CC32D10528F5C132D10508F05FC0C131A1
:100C9000D10509F448C088F4C730D10509F473C000
:100CA00040F4C130D10508F467C0FE01E35CF14CAB
:100CB00062C0C830D10559F15FC0C331D105C9F157
:100CC000A8F1CB31D105C1F1CD31D105C1F154C06D
:100CD000CF33D10578F4CC33D10508F042C0CD3202
:100CE000D105E1F1C0F1C233D10509F045C010933F
:100CF0003B3E42C0C034D105A1F1B8F1CE018057CE
:100D000091090B97C8F5FE01E950F24C34C01D3033
:100D100011F01830C1F56FEF80E038DEDF91CF9130
:100D20001F910F9114CF1093513E26C010935B3E3C
:100D300023C010935A3E20C01093723E1DC0809174
:100D4000583E80FD18601093453E16C0FE01E55CDC
:100D5000F14C10830CC010934F3E09C010933C3EE1
:100D600006C0FE01E85EF14C06C01093573E812F8D
:100D70008F7114DE01C01083612F8C2FDF91CF9112
:100D80001F910F9103CEDF91CF911F910F91089585
:100D9000FF920F931F93CF93DF938C01F62E862F34
:100DA0008770C1E0D0E001C0CC0F8A95EAF7C80196
:100DB000E6DDF3FE03C06C2F682B03C0C0956C2FDB
:100DC0006823C801DF91CF911F910F91FF9041CF10
:100DD00081E080930C3E80930D3E4ED581E073C53B
:100DE0008BE080930C3E81E080930D3E45D581E001
:100DF0006AC510920C3E10920D3E82E03DD582E015
:100E000062C51092763E0895CF93FB0120818091B8
:100E1000783E281358C0C1818091793EC81353C0D1
:100E2000928180917A3E98134EC022FD1AC0809123
:100E30000B3E90E00197880F991F880F991F322F62
:100E40003370830F911D019623FF05C06C2F01DFC6
:100E50008091763E2AC093DDC8133FC08091763ED4
:100E60002DC0822F8770853081F028F48430A9F559
:100E70008DE190E012C0863029F0873071F588E06E
:100E800090E00BC087E090E008C08091763E80FD46
:100E900024C0C0930B3E816012C023FF08C06C2F9A
:100EA000D8DE8091763E82FD18C0846008C067DD80
:100EB000C81313C08091763E81FD0FC0826080937D
:100EC000763ECF9185CF2093783E81818093793E85
:100ED000828180937A3E10920D3ECF9108950F93B8
:100EE0001F93CF93DF93FB0180819091783E89130C
:100EF00064C001819091793E09135FC0C2819091D5
:100F00007A3EC9135AC0238190917B3E291355C064
:100F100090910D3E911163C0982F937010E0090FCE
:100F2000111D0F5F1F4F8C70883031F08C30E9F14C
:100F3000843009F054C034C08C2F807E803E09F08C
:100F40004EC08C2F8770C1E0D0E002C0CC0FDD1FF7
:100F50008A95E2F7C80113DD20917A3E922F9870AE
:100F600024FF10C0992319F06C2F682B04C09C2F0C
:100F70009095692F6823C8016CDEDF91CF911F9196
:100F80000F912ECF992319F0C82349F1F6CF682F7E
:100F900070E060957095C623D723CD2B01F1EDCF7E
:100FA000C801EDDCC8131BC003C06C2FC80151DEA3
:100FB000DF91CF911F910F910BCF8093783E81816C
:100FC0008093793E828180937A3E838180937B3EB9
:100FD00010920D3EDF91CF911F910F910ACFDF91BB
:100FE000CF911F910F91089580910C3E882379F045
:100FF0008F5F8D3018F480930C3E089510920C3E54
:1010000081E080930D3E82E037D482E05CC4089595
:101010008091113E882321F081508093113EE4CFCE
:101020000895EF92FF921F93CF93DF93FB0190817E
:101030008330E1F491110FC02181211117C0228169
:10104000211114C08EE18093113EDF91CF911F9149
:10105000FF90EF90D6CE9F3F49F42181211106C029
:1010600022812F3F19F41092113E2FC130915A3E28
:10107000332341F097FD06C09181907E903E11F0A0
:101080003093103E3091103E9081332339F09923F4
:1010900009F41BC19F77931318C11FC097FD09C0A6
:1010A0002091453E25FD05C020913E3E92130DC185
:1010B00014C0292F207C203C09F007C12091453E17
:1010C00025FF03C12091513E9213FFC021819091D1
:1010D0005B3E2913FAC022E001C021E030E0EF01BD
:1010E000C20FD31F6881962F907E903809F479C083
:1010F00050F4AF01903409F448C0903609F445C06B
:10110000903259F0E2C0903C09F48AC0903E09F454
:1011100096C0903A09F0D9C06FC090E0F9013396BB
:101120008E179F0709F0D1C06F716F3109F0CDC0E4
:101130002F5F3F4FFA01E20FF31FC081CF778FEF90
:101140008093023E90818091453E97FF04C080FFCE
:1011500004C082E003C080FFFCCF81E080930F3E9B
:1011600006DC882349F080910F3E813011F482E043
:1011700001C081E080930F3E6C2F80910F3EDF9184
:10118000CF911F91FF90EF90E1CB90E02E5F3F4F0A
:101190008217930709F099C08FEF8093013E8091E9
:1011A000453E65FF04C080FF04C082E003C080FFAD
:1011B000FCCF81E080930F3EDADB882349F08091F9
:1011C0000F3E813011F482E001C081E080930F3E38
:1011D000688180910F3EDF91CF911F91FF90EF903A
:1011E000A6CB90E02E5F3F4F8217930709F06DC0AA
:1011F00040910F3E81E00CC090E02E5F3F4F821780
:10120000930709F062C040910F3E64FF07C082E07F
:10121000DF91CF911F91FF90EF90DDC883E0F8CF71
:101220006E3D29F440910F3E698184E0F1CF6F3D1E
:1012300009F04BC040910F3E698185E0E9CFE0E8BD
:10124000FEE37E0183E89EE39E012F5F3F4FAE01E8
:101250004E5F5F4F61E01191D7017D917D011717BE
:1012600069F078817093803ED9017C917093813EC2
:10127000DA017C917093823E60930E3E8E179F0739
:1012800051F710920E3E988193FF1FC0892F8370F3
:10129000298192FF0DC090E0982F8827820F911D21
:1012A0006A810196DF91CF911F91FF90EF90D1CC91
:1012B00090E0982F8827820F911D6A810196DF9117
:1012C000CF911F91FF90EF9063CDDF91CF911F9150
:1012D000FF90EF900895823051F19091113E992343
:1012E00029F1FB0190819077903701F59EE1909371
:1012F000113E833019F08430B9F00895FB018081EC
:10130000811107C0818181110DC0828181110AC0C4
:1013100008958F3F39F4FB018181811103C08281DF
:101320008F3F29F083E070CD84E0D9CD7ACE089547
:1013300080910F3E089581E09091113E911101C07E
:1013400080E00895CF93DF93CDB7DEB7E197CDBFAF
:10135000DEBF8DD020D3A2D242D293D189D37DDB00
:1013600092D0789410E093D0BE016F5F7F4FCE0192
:10137000C19697D189A9882329F0BE016F5F7F4F5D
:10138000AADF19AAD8DF882329F027D3882359F3A5
:101390003FDEE9CF2DD3811175D61FD3882319F0F5
:1013A000112391F002C01123E9F21D3040F41530F1
:1013B00078F4113049F01430D1F4A7D618C01D309C
:1013C00059F01E3059F013C044D116D011E00FC0AF
:1013D0008BEF810F24D90BC01BDE09C08091453EE5
:1013E00082FF05C044D1882311F03ED0AAD61F5FEA
:1013F000103108F0B7CFB7CF909108048091133E19
:1014000092FF11C09091080494FD1DC09091123E6E
:10141000992319F091509093123E8E31A0F48E5F73
:101420008093133E10C09091080494FF0CC0882351
:1014300019F081508093133E8091123E8E3118F442
:101440008E5F8093123E8091133E803110F081E0D8
:1014500005C08091123E803120F082E08093143EDE
:1014600008951092143E08958091143E089561E00D
:1014700081E690E037D364E080E890E033D360E029
:1014800081E890E02FC366E080E091E02BC3A8954F
:1014900008958091153E90910804982792FF0BC003
:1014A0009091080492FF02C0846001C08B7F8093FA
:1014B000153E81E001C080E09091153E2091080426
:1014C000292724FF0AC082602091080424FF02C05B
:1014D000906101C09F7E9093153E089580FF58C093
:1014E0002091153E9091213E22FF40C090FD3BC0CF
:1014F00091609093213E20914A0A30914B0A40918D
:101500001F3E5091203E4217530728F420914A0A6B
:1015100030914B0A05C020914A0A30914B0A305352
:10152000241B350B20931D3E30931E3E9091163E9A
:1015300091609093163E20914A0A30914B0A2933CC
:101540003F4C38F020914A0A30914B0A28533F4CC7
:1015500006C020914A0A30914B0A28533F4F2093EE
:10156000833E3093843E10921A3E12C090FF10C00A
:101570009E7F9093213E20914A0A30914B0A2093FE
:101580001F3E3093203E9091163E9E7F9093163ED4
:101590008370A9F19091153E8091213E94FF25C062
:1015A00081FD20C082608093213E8091163E826042
:1015B0008093163E80914A0A90914B0A89339F4C42
:1015C00038F080914A0A90914B0A88539F4C06C08C
:1015D00080914A0A90914B0A88539F4F8093A73E6F
:1015E0009093A83E10921A3E089581FF08C08D7F07
:1015F0008093213E8091163E8D7F8093163E089504
:101600001F920F920FB60F9211242F933F934F9377
:101610005F936F937F938F939F93AF93BF93EF935A
:10162000FF93E0E0F4E081858461818732DF56DF5B
:10163000FF91EF91BF91AF919F918F917F916F91AA
:101640005F914F913F912F910F900FBE0F901F9080
:1016500018958091173E9091183E803223E09207B2
:1016600028F401968093173E9093183E089581E0E8
:101670002091173E3091183E2032334008F480E02C
:101680000895E0E0F4E084E1828381E0828B848B42
:10169000E0E4FAE083E080838FEF9FEC8487958716
:1016A0000895DC0180911D3E90911E3E009739F413
:1016B00020911B3E30911C3E232B09F48FC01092C9
:1016C0001D3E10921E3E10921B3E10921C3E9C012D
:1016D0002D5D3109253E310588F481E08093A93ED6
:1016E0008091193E8F5F8093193EE091AA3EF0E011
:1016F000E957F14C8081880F8F5F21C0855F914051
:101700008B35914C08F06AC01092A93E8091193E29
:101710008B3060F081E08093CB3E1092873E109238
:10172000AA3E1092CC3E1092193E08951092193E96
:10173000E091AA3EF0E0E957F14C8081880F808368
:101740008091AA3E803208F049C08091CB3E811141
:101750001BC08091A93E8130B9F48091CC3E8111AB
:1017600013C01C922C918091AA3E281770F430E08F
:10177000F901E957F14C8081FB01E20FF31F8083EF
:101780008C918F5F8C93EECF1C928091CB3E8F5FBC
:101790008093CB3E893011F51092173E1092183E7F
:1017A000E091AA3EE11107C08091873E8F3F19F476
:1017B0008093AA3E0895AE2FB0E0A957B14C909106
:1017C000CC3E8C9189278093CC3EEF5FE093AA3E7C
:1017D000F0E0E957F14C10821092CB3E0895E0E022
:1017E000F4E0818188688183E0E2F4E081818863AC
:1017F0008183A0E4B4E011968C91119783601196D7
:101800008C9381818D7F818388E0818B089590E026
:101810008730910530F5FC01E15EFF4F099488E0C7
:1018200003C082E00EC080E8662319F080930504AF
:10183000089580930604089588E00CC080E20AC0F1
:1018400081E0662319F0809345040895809346044F
:10185000089580E1662319F080932504089580930C
:1018600026040895809128048695817091E0892747
:1018700008958091223E0895CF93813019F480938A
:10188000223E02C01092223EC0E06091223E8C2F88
:10189000BEDFCF5FC730C9F7CF910895E0E0F4E035
:1018A00082E0828320E4218381E080932104A0E40C
:1018B000B4E098E011969C931197268316969C931A
:1018C0008093000A0895813059F498E0909346047B
:1018D00090E490930504809325048093233E08951B
:1018E00088E08093460480E48093060481E080933E
:1018F00026041092233E08959091663E9130E9F4BB
:10190000613039F498E09093460490E49093050494
:101910000BC090E49093060498E0623019F4909321
:10192000450402C090934604882321F081E080930F
:101930002504089581E08093260408951F920F9254
:101940000FB60F9211248F938091243E82FF03C023
:101950008B7F816001C084608093243E81E080930E
:1019600053018F910F900FBE0F901F9018951F92EB
:101970000F920FB60F9211248F9383E0809343014F
:101980008091243E82608093243E8F910F900FBE01
:101990000F901F901895809141018111FCCF1092FA
:1019A0004C0110924D0181E090E080934A019093A8
:1019B0004B011092470181E88093400180915201D0
:1019C00081608093520181E28093500180914201B5
:1019D000836080934201789408959091243E892FEA
:1019E000817090FF04C09E7F9093243E81E0089513
:1019F0009091243E892F827091FF04C09D7F909327
:101A0000243E81E008951F920F920FB60F92112489
:101A10008F939F93EF93FF9380910408806280934C
:101A20000408F8948091263EE82FF0E0E253F14C50
:101A30009081909302088F5F803318F48093263E44
:101A400002C01092263E9091263E8091253E98132A
:101A500005C0809105088F7D809305087894FF91DB
:101A6000EF919F918F910F900FBE0F901F9018953F
:101A7000E0E2F4E0818184608183858184608583F4
:101A8000E0E0F8E080EA90E08087918780E4868358
:101A900083E08783089503D0808199270895FC010E
:101AA000E050FC4E0895262F0E944F0D0080021634
:101AB00019F00E945F0D019701970895262FAF93AB
:101AC000BF93E0E0F0E1328131FDFDCFDC01A050B9
:101AD000BC4E2C932DE924BF23E020830196BF91B7
:101AE000AF910895DC0128ED209334006C930895A4
:041AF000F894FFCF98
:041AF400FFFFFF00F1
:00000001FF
