:1000000025C03FC03EC051CB3CC03BC0DBCDC1CDC5
:1000100038C037C036C035C034C033C032C031C03C
:1000200030C02FC02EC02DC02CC02BC02AC029C06C
:1000300028C027C026C025C011CE23C022C0D6CCE0
:10004000D7CCD8CCE0CCE1CCE2CCEACC11241FBE9A
:10005000CFEFCDBFDFE3DEBF1EE3A0E0BEE3EAE407
:10006000FDE102C005900D92A430B107D9F72FE34E
:10007000A4E0BEE301C01D92A432B207E1F77ED92D
:1000800062CEBECF8091083E8823F1F18091053E7B
:10009000873098F4E82FF0E0E459F14C90819923EF
:1000A00029F12091793E2F7092959F70291710F4B5
:1000B00061E001C060E092DC19C08730B9F4809142
:1000C000733E882399F09091793E9F7082958F704E
:1000D00020917F3E22FD03C06091433E01C061E05C
:1000E000981710F481E001C080E023DD8091053E87
:1000F0008F5F8093053E883039F48091793E8F5F21
:100100008093793E1092053E08959ADC811118C0C3
:100110008091043E8F5F803118F48093043E02C0CA
:100120001092043EE0E3FEE380819181009719F094
:1001300001968083918332968EE3E234F807A1F72B
:1001400008954091443EE4E8FEE390E021E03191DF
:10015000307C49F0303419F4813041F404C0303837
:1001600029F4823019F4342F3223932B220F3EE3EB
:10017000EC38F30761F78093433E47FF05C0809159
:100180008C3E813009F490689093063E08956F711B
:1001900046131BC040917F3E222351F021E030E006
:1001A00001C0220F8A95EAF7242B20937F3E089501
:1001B00021E030E0B90102C0660F771F8A95E2F7AF
:1001C000CB018095842380937F3E08950F93CF9336
:1001D000DF93962F9F71491363C0607C482F50E0D6
:1001E0009091063EE091073E611103C021110BC0C2
:1001F0002EC0603419F4013051F5F8CF603839F56C
:10020000023029F5F3CFC1E0D0E09E01082E01C0F5
:10021000220F0A94EAF7922B9093063E6E2F70E01D
:1002200060957095DB0102C0B595A7958A95E2F7B8
:10023000A0FF36C0DA01AA0FBB1FA05DB14CCD9361
:10024000DC93DA01A459B14C1C922E2B27C0C1E0DB
:10025000D0E09E01082E01C0220F0A94EAF72095F3
:1002600092239093063E6E2F70E0DB0102C0B5959D
:10027000A7958A95E2F7A0FF13C0DA01AA0FBB1F6A
:10028000A05DB14CCD93DC93DA01A459B14C1C9222
:100290008091083E82238093083E2E232093073EC0
:1002A000DF91CF910F91089590918C3E913069F537
:1002B0008F7168132AC09091063E8091073E4423B7
:1002C00079F090689093063E87FD1FC021E030E0F2
:1002D00020933E3E30933F3E1092733E806813C0A1
:1002E0009F779093063E87FF10C021E030E0209377
:1002F0003E3E30933F3E1092733E9091083E9F7772
:100300009093083E8F778093073E0895EF92FF9277
:100310000F931F93CF93DF93C82FD62F142F4093A3
:10032000433E82E8E82E8EE3F82E262F4C2FF7016D
:10033000608180E02CDF2D2F4C2FF701618181E05F
:1003400026DF012F2D2F4C2FF701628180E03EDF49
:100350002D2F4C2FF701638181E038DF2D2F4C2F9B
:10036000F701648182E032DF2D2F4C2FF701658188
:1003700083E02CDF2D2F4C2FF701668184E026DFF0
:100380002D2F4C2FF701678185E020DF2D2F4C2F7B
:10039000F701608586E01ADF212F4D2F6C2FF701C2
:1003A000818582DF2D2F4C2F6091753E83E0EFDE3B
:1003B0002D2F4C2F6091453E82E0E9DE2D2F4C2FF2
:1003C00060917D3E87E0DF91CF911F910F91FF906B
:1003D000EF90DDCEDF92EF92FF920F931F93CF93BA
:1003E000DF93182FE62E042F813049F4C091423E4E
:1003F000CC2309F456C084E0F82ED1E029C0823025
:1004000049F4C0916A3ECC2309F44BC048E0F42E75
:10041000D5E01EC0833049F4C091463ECC2309F498
:1004200040C03CE0F32ED9E013C0843041F4C091C9
:10043000783ECC23B1F124E1F22EDDE009C0853015
:1004400081F5C091763ECC2361F19CE1F92ED5E196
:10045000F0DA882329F0013011F001E001C002E058
:10046000DD24D394FD1658F08C2F8D2129F0402FD8
:100470006D2D6E218D2F4ADFDD0CDF5FF3CF113044
:1004800081F48091423E84FF0CC06E2D6071402F3C
:1004900080E0DF91CF911F910F91FF90EF90DF905F
:1004A00035CFDF91CF911F910F91FF90EF90DF90AB
:1004B0000895962F873008F491CA873019F4642F75
:1004C000892F37CB08956F927F928F929F92AF9230
:1004D000BF92CF92DF92EF92FF920F931F93CF9331
:1004E000DF931F92CDB7DEB7873051F44091433E82
:1004F000423019F46090973E0DC06090963E0AC05D
:10050000873008F075C04091433EE82FF0E0E35794
:10051000F14C6280862E282F30E061E070E06B01A4
:10052000082E01C0CC0C0A94EAF79090063E9C205D
:10053000962D9F70B9016459714C5B01913039F56A
:1005400080918D3E807F77247394780E80917F3EDA
:100550008901000F111F82FD04C083FD02C080FFCE
:1005600009C09801205D314C75018E010F5F1F4F4E
:10057000482D0BC010D29801205D314C75018E01C1
:100580000F5F1F4F482D811129C0672D28C0923061
:1005900049F490917F3E92FD0DC093FD0BC091FFF9
:1005A00014C008C0933089F490917F3E92FD02C040
:1005B00093FF0BC0F5011082C0949091083EC922B0
:1005C000C092083E60E075DF13C0220F331F205D2C
:1005D000314C75018E010F5F1F4F482D662D892DFF
:1005E000E1D0F50180838091083EC82AC092083E80
:1005F0000F90DF91CF911F910F91FF90EF90DF90BF
:10060000CF90BF90AF909F908F907F906F90089504
:10061000AF92BF92CF92DF92EF92FF920F931F9310
:10062000CF93DF93E82EF12CC1E0D0E0082E01C07B
:10063000CC0F0A94EAF7873029F490918C3E9130E0
:1006400009F0A5C0182F670182E0C80ED11CF60181
:10065000EE57F14C5F018081982F9F719F3109F017
:100660004EC0807C19F48091063E12C07DD6082FC2
:10067000E0D9882329F0023011F002E001C001E046
:10068000F50190818091063E97FF06C0023011F47B
:100690008C2B0BC09C2F07C096FF09C09C2F0130EC
:1006A00011F48C2B02C0909589238093063E2091F3
:1006B000063E8091073E422F482750E0012E02C09F
:1006C000559547950A94E2F740FF19C0F701EE0FE0
:1006D000FF1FE05DF14C41E050E04083518330E08A
:1006E000012E02C0359527950A94E2F720FF02C03B
:1006F0008C2B03C09C2F909589238093073E80917B
:10070000063E8C2371F06091043E812FDF91CF91E2
:100710001F910F91FF90EF90DF90CF90BF90AF901F
:10072000D2CE80917F3E82FDEECF81FF0AC0F601DE
:10073000E357F14C80818F70823091F0833081F4E7
:10074000E2CF173069F460E080E0DF91CF911F9134
:100750000F91FF90EF90DF90CF90BF90AF90E9C9DD
:10076000F701E459F14C1082C0958091083EC823EE
:10077000C093083E60E0812FDF91CF911F910F91D0
:10078000FF90EF90DF90CF90BF90AF9027C9DF919F
:10079000CF911F910F91FF90EF90DF90CF90BF907E
:1007A000AF900895EF92FF920F931F93CF93DF9333
:1007B000E901F801D701262F22952F70362F3F70BF
:1007C0003130F1F4811105C0188219821C92108217
:1007D0004FC088819981009701F1969587959695EC
:1007E0008795482F42954F70421738F0188219822A
:1007F000982F9F609C93308355C08C93308357C053
:10080000343071F0353019F1363009F048C08823A2
:10081000D9F288819981009769F56F606C933FC028
:10082000882391F2888199810097C9F18C339105D1
:10083000D0F08837910520F481E080831C9237C086
:10084000843B910580F080399140B0F30AC0882341
:1008500009F4BACF88819981009709F180399140D4
:1008600028F01882198210821C921CC010821C92DF
:1008700080E01DC09695879596958795382F32957F
:100880003F70321740F018821982982F9F609C9316
:1008900081E0808307C08C9391E0908308C0188228
:1008A0001982108230E1239FC00111248F60DF91F3
:1008B000CF911F910F91FF90EF90089560939B3E11
:1008C0009091003E981729F08093003E8FEF80931F
:1008D0000B3E613029F410929A3E1092993E089591
:1008E0006093993E8091483E681710F46111682F1B
:1008F00090919A3E981718F4611180939A3E08954A
:1009000010920A3EE62FEF70EE0F11F460E00AC07D
:10091000E23011F461E006C064FDEF5FF0E0E65BF9
:10092000F14C6081CBCF10920A3E9091483E50919D
:100930004C3E30914B3E951700F55317F0F4603460
:1009400050F4591B569FB001112456E075956795D8
:100950005A95E1F71CC0432F451B70E060547109A4
:10096000469F9001479F300D112446E0359527950D
:100970004A95E1F7652F620F0DC0931750F4391BAC
:10098000369FB0011124660F672F661F770B690F22
:1009900001C0660F93CF80919A3E08958091093EE1
:1009A0008170089590E080509040A0C98F3F9105DC
:1009B00009F008F4F7CF80E008959091021091FDBE
:1009C000FCCF90E08050904099C969E083E4F5DF66
:1009D00062E184E4F2DF6BE185E4EFDF64E286E468
:1009E000ECDF6EE287E4E9DF67E388E4E6DF60E4FA
:1009F00089E4E3DF69E48AE4E0DF62E58BE4DDDFDC
:100A00006BE58CE4DADF64E68DE4D7DF6DE68EE437
:100A1000D4DF66E78FE4D1DF60E880E5CEDF69E808
:100A200081E5CBDF62E982E5C8DF6BE983E5C5DFFD
:100A300064EA84E5C2DF6DEA85E5BFDF66EB86E543
:100A4000BCDF6FEB87E5B9DF68EC88E5B6DF61ED09
:100A500089E5B3DF6BED8AE5B0DF64EE8BE5ADDFF2
:100A60006DEE8CE5AADF66EF8DE5A7DF6FEF8EE513
:100A7000A4CF8530A8F44091423E811103C0842F59
:100A800080610BC0815021E030E0B90102C0660FE7
:100A9000771F8A95E2F7CB01842B8093423E08951D
:100AA000893080F4855021E030E0A90102C0440F74
:100AB000551F8A95E2F7CA0190916A3E892B80936F
:100AC0006A3E08958D3080F4895021E030E0B9010C
:100AD00002C0660F771F8A95E2F7CB019091463EE0
:100AE000892B8093463E0895853180F48D5021E016
:100AF00030E0A90102C0440F551F8A95E2F7CA01F0
:100B00009091783E892B8093783E08958D3178F4CA
:100B1000845121E030E0B90102C0660F771F8A9549
:100B2000E2F7CB019091763E892B8093763E089533
:100B3000EF92FF920F931F93CF938091021081FD4C
:100B4000FCCF80E090E0D2D88F3F31F4CF911F915D
:100B50000F91FF90EF906CC007E41EE3C0E0CF5F01
:100B60008C2F20DFF80181938F01C630C1F781E11E
:100B700090E0BCD88093773E82E190E0B7D8809334
:100B8000813E83E190E0B2D88093803E8BE190E09B
:100B9000ADD88093983E8DE190E0A8D880936B3ECD
:100BA0000EE41EE3C3E48C2FFDDEF80181938F0178
:100BB000CF5FCF35C1F782E8E82E8EE3F82E0DE83F
:100BC0001EE3C1E28C2FEEDEF70181937F018F716E
:100BD00050DF8FE48C0FE6DEF80181938F01CF5F49
:100BE000CC3281F78CE290E081D8C82F8093753E9B
:100BF0008DE290E07BD88093453E8C2F8F7139DF5A
:100C00008091453E8F7135DF0AE71EE3CCE38C2FE0
:100C1000C9DEF80181938F01CF5FC134C1F78091A4
:100C20007D3E8F71CF911F910F91FF90EF9021CF5B
:100C300063E081E0C2DE60E082E0BFDE60E083E08E
:100C4000BCDE60E084E0B9DE6FEF85E0B6DE6FE722
:100C500086E0B3DE61E087E0B0DE6DE088E0ADDE27
:100C600060EC81E1AADE60E082E1A7DE60E083E182
:100C7000A4DE63E08BE1A1DE6EE08DE19EDE64E048
:100C800081E29BDE67E082E298DE60E483E295DE4B
:100C900061E884E292DE61E885E28FDE60E886E268
:100CA0008CDE61E487E289DE61E488E286DE63E06F
:100CB00089E283DE60E08AE280DE61E08BE27DDE55
:100CC0006EE38CE27ADE6EE38DE277DE63E88CE33E
:100CD00074DE6FE58DE371DE60EC8EE36EDE67E05F
:100CE0008FE36BDE61E080E468DE60E480E765DE70
:100CF00061EF82E762DE63EF83E75FDE62EF84E746
:100D00005CDE61EF85E759DE63EF86E756DE62EF72
:100D100087E753DE64EF88E750DE61EF89E74DDE59
:100D200062EF8AE74ADE51DE60E080E046DE00CF17
:100D30000F931F93CF93DF93EC01162F8F3F9105F5
:100D400011F008F096C08F50823048F08FE090E0AC
:100D5000CDD7082F80E190E0C9D708138AC0CC32E4
:100D6000D10528F5C132D10508F063C0C131D105E4
:100D700009F44CC088F4C730D10509F47AC040F4B6
:100D8000C130D10508F46EC0FE01EA5BF14C69C0C8
:100D9000C830D10579F166C0C331D105E9F1C8F198
:100DA000CB31D105E1F1CD31D105E1F15BC0CF33DC
:100DB000D10509F450C050F4CD32D10509F444C036
:100DC000E8F1CC33D10508F042C04CC0CF35D10595
:100DD00040F4C334D10508F041C0C034D105B9F1A5
:100DE00041C0CE01805791090B97E0F5FE01E35E0B
:100DF000F14C37C01D3011F01830D9F56FEF80E09D
:100E0000DCDDDF91CF911F910F9112CF1093773ED0
:100E100029C01093813E26C01093803E23C01093BA
:100E2000983E20C080917E3E80FD186010936B3EFE
:100E300019C0FE01EF59F14C108302C01093753EAA
:100E4000812F8F7116DE0EC01093453EF9CFFE0143
:100E5000E25CF14C06C010937D3EF2CFFE01E55FEF
:100E6000F14C1083612F8C2FDF91CF911F910F9147
:100E7000A4CDDF91CF911F910F910895FF920F9311
:100E80001F93CF93DF938C01F62E862F8770C1E0DE
:100E9000D0E001C0CC0F8A95EAF7C80187DDF3FEE8
:100EA00003C06C2F682B03C0C0956C2F6823C8014A
:100EB000DF91CF911F910F91FF903ACF81E0809306
:100EC0000D3E80930E3EBFD581E014C610929C3E2D
:100ED0000895CF93FB01208180919E3E281358C036
:100EE000C18180919F3EC81353C092818091A03EE2
:100EF00098134EC022FD1AC080910C3E90E00197DD
:100F0000880F991F880F991F322F3370830F911DFF
:100F1000019623FF05C06C2F0BDF80919C3E2AC0F9
:100F200045DDC8133FC080919C3E2DC0822F877045
:100F3000853081F028F48430A9F58DE190E012C06D
:100F4000863029F0873071F588E090E00BC087E0AB
:100F500090E008C080919C3E80FD24C0C0930C3E70
:100F6000816012C023FF08C06C2FE2DE80919C3E9E
:100F700082FD18C0846008C019DDC81313C08091B9
:100F80009C3E81FD0FC0826080939C3ECF9196CFA6
:100F900020939E3E818180939F3E82818093A03EDC
:100FA00010920E3ECF910895CF93FB012081809146
:100FB0009E3E281326C0818190919F3E891321C0B7
:100FC000C2819091A03EC9131CC033819091A13E73
:100FD000391317C090910E3E911120C0322F3370FB
:100FE00090E0830F911D01962C70243029F02C3055
:100FF000A9F46C2F9DDE03C0D9DCC8130FC0CF91BC
:101000005DCF20939E3E818180939F3E828180931D
:10101000A03E83818093A13E10920E3ECF91089511
:1010200080910D3E882379F08F5F8D3018F4809386
:101030000D3E089510920D3E81E080930E3E82E0B9
:1010400002D582E057C508958091123E882321F091
:1010500081508093123EE4CF0895EF92FF921F9348
:10106000CF93DF93FB0190818330E1F491110FC0A6
:101070002181211117C02281211114C08EE180939A
:10108000123EDF91CF911F91FF90EF901FCF9F3FB6
:1010900049F42181211106C022812F3F19F41092B9
:1010A000123E2FC13091803E332341F097FD06C0A0
:1010B0009181907E903E11F03093113E3091113E1F
:1010C0009081332339F0992309F41BC19F7793133F
:1010D00018C11FC097FD09C020916B3E25FD05C0BA
:1010E0002091473E92130DC114C0292F207C203C33
:1010F00009F007C120916B3E25FF03C12091773E87
:101100009213FFC021819091813E2913FAC022E001
:1011100001C021E030E0EF01C20FD31F6881962F9C
:10112000907E903809F479C050F4AF01903409F4FE
:1011300048C0903609F445C0903259F0E2C0903C66
:1011400009F48AC0903E09F496C0903A09F0D9C0DB
:101150006FC090E0F90133968E179F0709F0D1C058
:101160006F716F3109F0CDC02F5F3F4FFA01E20F71
:10117000F31FC081CF778FEF8093023E90818091E3
:101180006B3E97FF04C080FF04C082E003C080FF75
:10119000FCCF81E08093103E01DC882349F08091F0
:1011A000103E813011F482E001C081E08093103E56
:1011B0006C2F8091103EDF91CF911F91FF90EF90A7
:1011C000B2CB90E02E5F3F4F8217930709F099C092
:1011D0008FEF8093013E80916B3E65FF04C080FFDE
:1011E00004C082E003C080FFFCCF81E08093103E0A
:1011F000D5DB882349F08091103E813011F482E0E4
:1012000001C081E08093103E68818091103EDF91A3
:10121000CF911F91FF90EF9073CB90E02E5F3F4FE7
:101220008217930709F06DC04091103E81E00CC019
:1012300090E02E5F3F4F8217930709F062C0409104
:10124000103E64FF07C082E0DF91CF911F91FF90B5
:10125000EF90C0C883E0F8CF6E3D29F44091103E76
:10126000698184E0F1CF6F3D09F04BC04091103EA1
:10127000698185E0E9CFE6EAFEE37E0189EA9EE343
:101280009E012F5F3F4FAE014E5F5F4F61E01191B6
:10129000D7017D917D01171769F078817093A63E83
:1012A000D9017C917093A73EDA017C917093A83E9E
:1012B00060930F3E8E179F0751F710920F3E988153
:1012C00093FF1FC0892F8370298192FF0DC090E08A
:1012D000982F8827820F911D6A810196DF91CF9107
:1012E0001F91FF90EF9024CD90E0982F8827820FD8
:1012F000911D6A810196DF91CF911F91FF90EF9030
:10130000BDCDDF91CF911F91FF90EF900895823076
:1013100051F19091123E992329F1FB019081907730
:10132000903701F59EE19093123E833019F084309E
:10133000B9F00895FB018081811107C0818181117D
:101340000DC0828181110AC008958F3F39F4FB01DD
:101350008181811103C082818F3F29F083E0B9CD63
:1013600084E022CE7ACE08958091103E089581E0E7
:101370009091123E911101C080E00895CF93DF93C8
:10138000CDB7DEB7E197CDBFDEBFA2D02FD46DD3EE
:101390000DD3CCD198D44DD0CBDBA6D0789410E02F
:1013A000A7D0BE016F5F7F4FCE01C196CFD189A973
:1013B000882329F0BE016F5F7F4FA9DF19AAD7DF0D
:1013C000882329F035D4882359F33EDEE9CF3BD476
:1013D000811158D62DD4882319F0112391F002C021
:1013E0001123E9F21D3040F4153078F4113049F042
:1013F0001430D1F48AD618C01D3059F01E3059F07F
:1014000013C07CD12AD011E00FC08BEF810F00D91F
:101410000BC01ADE09C080916B3E82FF05C07CD1F3
:10142000882311F052D08DD61F5F103108F0B7CF4E
:10143000B7CFA0E0B4E080E212968C931297E0E47C
:10144000F4E084E0828355968C9155978860559698
:101450008C9382898860828B089590910804809192
:10146000143E92FF11C09091080494FD1DC090910C
:10147000133E992319F091509093133E8E31A0F4AE
:101480008E5F8093143E10C09091080494FF0CC0AE
:10149000882319F081508093143E8091133E8E3141
:1014A00018F48E5F8093133E8091143E803110F0CB
:1014B00081E005C08091133E803120F082E080936E
:1014C000153E08951092153E08958091153E089599
:1014D00061E081E690E031D464E080E890E02DD4D2
:1014E00060E081E890E029C466E080E091E025C4F6
:1014F000A89508958091163E90910804982792FF30
:101500000BC09091080492FF02C0846001C08B7FE1
:101510008093163E81E001C080E09091163E2091BC
:101520000804292724FF0AC082602091080424FFB0
:1015300002C0906101C09F7E9093163E089580FF87
:101540005AC02091163E90912A3E22FF42C090FD43
:101550003BC0916090932A3E20914A0A30914B0AF9
:101560004091283E5091293E4217530728F420917C
:101570004A0A30914B0A05C020914A0A30914B0A21
:101580003053241B350B2093263E3093273E9091F9
:101590001C3E916090931C3E20914A0A30914B0A68
:1015A00029333F4C38F020914A0A30914B0A285396
:1015B0003F4C06C020914A0A30914B0A28533F4FB6
:1015C0002093A93E3093AA3E1092233E10921B3ED8
:1015D00012C090FF10C09E7F90932A3E20914A0A2D
:1015E00030914B0A2093283E3093293E90911C3E27
:1015F0009E7F90931C3E8370B9F19091163E80912E
:101600002A3E94FF27C081FD20C0826080932A3E3D
:1016100080911C3E826080931C3E80914A0A90918A
:101620004B0A89339F4C38F080914A0A90914B0ABB
:1016300088539F4C06C080914A0A90914B0A885368
:101640009F4F8093CD3E9093CE3E1092233E1092BA
:101650001B3E0AC081FF08C08D7F80932A3E809187
:101660001C3E8D7F80931C3E8091080482FD14C037
:101670008091080484FD10C080911B3E811114C02C
:1016800080914A0A90914B0A8093193E90931A3E9A
:1016900081E080931B3E08951092233E10921B3EE2
:1016A0001092193E10921A3E08951F920F920FB693
:1016B0000F9211242F933F934F935F936F937F93D8
:1016C0008F939F93AF93BF93EF93FF93E0E0F4E08A
:1016D0008185846181870EDF32DFFF91EF91BF91B9
:1016E000AF919F918F917F916F915F914F913F91BA
:1016F0002F910F900FBE0F901F90189580911D3E57
:1017000090911E3E803223E0920728F40196809348
:101710001D3E90931E3E089581E020911D3E309124
:101720001E3E2032334008F480E00895E0E0F4E00B
:1017300084E1828381E0828B848BE0E4FAE083E0C1
:1017400080838FEF9FEC848795870895FC018091BB
:101750006B3E83FF8DC04091233E4423E1F1809195
:10176000080482FD04C08091080484FF09C010921F
:10177000233E10921B3E1092193E10921A3E78C0E2
:1017800020914A0A30914B0A8091213E9091223E4D
:101790008217930728F420914A0A30914B0A05C01A
:1017A00020914A0A30914B0A3053281B390B4130A3
:1017B00009F05EC08091173E9091183E28173907B6
:1017C00008F456C080911F3E816080931F3E82E0E6
:1017D0008093233E4DC080911B3E8823B1F18091C0
:1017E000080482FDC4CF8091080484FDC0CF2091FD
:1017F0004A0A30914B0A8091193E90911A3E821705
:10180000930728F420914A0A30914B0A05C0209191
:101810004A0A30914B0A3053281B390B23383105C3
:1018200038F181E08093233E80914A0A90914B0ADF
:101830008093213E9093223E8CE390E08093173E6C
:101840009093183E10921B3E08958091080482FDEB
:101850000FC08091080484FD0BC080914A0A9091CA
:101860004B0A8093193E90931A3E81E080931B3E71
:101870008091263E9091273E009739F42091243E96
:101880003091253E232B09F490C01092263E1092F1
:10189000273E1092243E1092253E9C012D5D310979
:1018A000253E310588F481E08093CF3E8091203E33
:1018B0008F5F8093203EA091D03EB0E0A355B14C05
:1018C0008C91880F8F5F21C0855F91408B35914C43
:1018D00008F06BC01092CF3E8091203E8E3060F0B9
:1018E00081E08093F13E1092AD3E1092D03E109276
:1018F000F23E1092203E08951092203EA091D03EDC
:10190000B0E0A355B14C8C91880F8C938091D03E60
:10191000803208F04AC08091F13E81111BC0809155
:10192000CF3E8130B9F48091F23E811113C0108214
:1019300080819091D03E891770F490E0DC01A3552E
:10194000B14C2C91DB01A80FB91F2C9380818F5FC4
:101950008083EECF10828091F13E8F5F8093F13EC5
:10196000893019F510921D3E10921E3EE091D03E36
:10197000E11107C08091AD3E8F3F19F48093D03EB6
:101980000895AE2FB0E0A355B14C9091F23E8C91EA
:1019900089278093F23EEF5FE093D03EF0E0E3557D
:1019A000F14C10821092F13E08950895E0E0F4E0C9
:1019B000818188688183E0E2F4E0818188638183AA
:1019C000A0E4B4E011968C911197836011968C93EA
:1019D00081818D7F818388E0818B089590E08730BD
:1019E000910530F5FC01E15EFF4F099488E003C0EA
:1019F00082E00EC080E8662319F080930504089504
:101A000080930604089588E00CC080E20AC081E05B
:101A1000662319F080934504089580934604089541
:101A200080E1662319F080932504089580932604AD
:101A30000895809128048695817091E08927089502
:101A400080912B3E0895CF93813019F480932B3EE3
:101A500002C010922B3EC0E060912B3E8C2FBEDF67
:101A6000CF5FC730C9F7CF910895E0E0F4E08281FD
:101A700082608283818180648183A0E2B4E01196D8
:101A80008C911197816011968C93A0E4B4E011962B
:101A90008C911197886011968C9311978681806440
:101AA000868316968C911697886016968C93A0E084
:101AB000BAE091E09C9383E111968C9311972FEFFC
:101AC00030E096962D933C93979798961D921C9292
:101AD000999785818064858380E38093A000E0E00E
:101AE000F6E085E08083918384E4828380E28383CF
:101AF00014820895813071F493E09093010A98E084
:101B00009093460490E49093050480932504809379
:101B10002C3E089588E08093460480E48093060478
:101B200081E08093260483E18093010A10922C3E89
:101B3000089590918C3E913059F593E09093010A6D
:101B4000613059F4909146049860909346049091C6
:101B5000050490649093050412C09091060490646B
:101B600090930604623031F490914504986090930C
:101B7000450405C0909146049860909346048823DC
:101B800021F081E080932504089581E0809326046C
:101B900008951F920F920FB60F9211248F93809188
:101BA0002D3E82FF03C08B7F816001C084608093E3
:101BB0002D3E81E0809353018F910F900FBE0F90C7
:101BC0001F9018951F920F920FB60F9211248F93AA
:101BD00083E08093430180912D3E826080932D3E6F
:101BE0008F910F900FBE0F901F901895809141011B
:101BF0008111FCCF10924C0110924D0181E090E0D8
:101C000080934A0190934B011092470181E88093A1
:101C100040018091520181608093520181E2809362
:101C2000500180914201836080934201789408952D
:101C300090912D3E892F817090FF04C09E7F9093DC
:101C40002D3E81E0089590912D3E892F827091FF65
:101C500004C09D7F90932D3E81E008951F920F92C6
:101C60000FB60F9211248F939F93EF93FF93809160
:101C70000408806280930408F89480912F3EE82F36
:101C8000F0E0EC50F14C9081909302088F5F80332C
:101C900018F480932F3E02C010922F3E90912F3E59
:101CA00080912E3E981305C0809105088F7D80930A
:101CB00005087894FF91EF919F918F910F900FBE3F
:101CC0000F901F901895E0E2F4E081818460818399
:101CD000858184608583E0E0F8E080EA90E0808799
:101CE000918780E4868383E08783089503D0808191
:101CF00099270895FC01E050FC4E0895262F0E947C
:101D00007A0E0080021619F00E948A0E0197019740
:101D10000895262FAF93BF93E0E0F0E1328131FDCB
:101D2000FDCFDC01A050BC4E2C932DE924BF23E055
:101D300020830196BF91AF910895DC0128ED209397
:0A1D400034006C930895F894FFCF6F
:041D4A00FFFFFF0098
:00000001FF
