:100000000C9461010C947E010C947E010C949A0F67
:100010000C947E010C947E010C9447150C943315BE
:100020000C9413130C947E010C947E010C947E01AD
:100030000C947E010C947E010C947E010C947E0144
:100040000C947E010C947E010C947E010C947E0134
:100050000C947E010C947E010C947E010C947E0124
:100060000C947E010C947E010C947E010C947E0114
:100070000C948B150C947E010C947E01E909E9091E
:10008000E909E909E909E9096A0AEE09660A660A5D
:10009000660A660A660A660A660A660AFA09FD09B7
:1000A000000A660A660A660A660A660A660A660A36
:1000B000030A660A060A660A660A660A0D0A0D0A35
:1000C0000D0A0D0A0D0A0D0A0D0A0D0A0D0A0D0A78
:1000D0000D0A160A1D0A660A240A660A660A270A13
:1000E0002A0A2D0A300A330A360A360A360A3B0A29
:1000F0003E0A410A440A470A4A0A510A660A660A3F
:10010000540A540A540A540A540A540A540A540AFF
:10011000540A540A540A540A540A540A540A540AEF
:10012000540A540A540A540A540A540A540A540ADF
:10013000540A540A540A540A660A660A660A660A87
:10014000660A660A660A660A660A660A660A660A2F
:10015000660A660A660A660A660A590A590A590A46
:10016000590A590A590A590A590A590A590A590A77
:10017000660A660A660A660A660A660A660A660AFF
:100180005E0A660A660A660A660A660A660A610AFC
:10019000660A660A660A660A660A660A660A660ADF
:1001A000660A660A660A660A660A660A660A660ACF
:1001B000660A660A660A660A660A660A660A660ABF
:1001C000660A660A660A660A660A660A660A660AAF
:1001D000660A660A660A660A660A660A660A660A9F
:1001E000660A660A660A660A660A660A660A660A8F
:1001F000660A660A660A660A660A660A660A660A7F
:10020000660A660A660A660A660A660A660A660A6E
:10021000660A660A660A660A660A660A660A660A5E
:10022000660A660A660A660A660A660A660A660A4E
:10023000660A660A660A660A660A660A660A660A3E
:10024000660A660A660A660A660A660A660A660A2E
:10025000660A660A660A660A660A660A660A660A1E
:10026000660A640A6E0E740E770E7A0E7D0E800E8C
:10027000910EAF0E00120A1214121E122812321220
:100280003C12ACAAA9A5A3A69C9A999593968E8D8B
:100290008BB1B2B4B874726C6A696563665C5A59A2
:1002A0005553564E4D4B4771E8E4E2D1C9C5D8D4F9
:1002B000D2C9C6CC78171B1D1E2E363A272B2D35DA
:1002C000393311241FBECFEFCDBFDFE3DEBF1CE308
:1002D000A0E0BCE3E6E8FCE202C005900D92A43089
:1002E000B107D9F72DE3A4E0BCE301C01D92AA3207
:1002F000B207E1F70E94090E0C9441160C9400001D
:100300006091483CE8E8FCE340E95CE330E021E050
:100310009191907C81F0903431F4813079F4962F72
:100320009223392B0BC0903849F4823039F4962F40
:100330009223392B03C0962F9223392B220FE417D7
:10034000F50731F73093933C08956F71461320C041
:10035000222379F021E030E0A90102C0440F551FAB
:100360008A95E2F7CA019091823C892B8093823C66
:10037000089521E030E0A90102C0440F551F8A957D
:10038000E2F7CA0180959091823C89238093823C58
:1003900008950F93962F9F71491338C0607C29F4FC
:1003A00091E0211113C090E011C0603439F40130A4
:1003B000F1F491E021110AC090E008C06038B9F46E
:1003C0000230A9F491E0211101C090E0992379F065
:1003D00021E030E0A90102C0440F551F8A95E2F7E1
:1003E000CA019091933C892B8093933C0FC021E0EC
:1003F00030E0A90102C0440F551F8A95E2F7CA01F7
:1004000080959091933C89238093933C0F9108951C
:100410009091903C913081F48F7168130DC044230A
:1004200031F08091933C80688093933C0895809153
:10043000933C8F778093933C0895EF92FF920F93B4
:100440001F93CF93DF93C82FD62F142F4093473C91
:100450000F2EF6E8EF2EFCE3FF2EF02D262F482F6F
:10046000F701608180E00E94A5012D2F4C2FF7013C
:10047000618181E00E94A501012F2D2F4C2FF701F2
:10048000628180E00E94C9012D2F4C2FF70163810A
:1004900081E00E94C9012D2F4C2FF701648182E079
:1004A0000E94C9012D2F4C2FF701658183E00E9426
:1004B000C9012D2F4C2FF701668184E00E94C901EC
:1004C0002D2F4C2FF701678185E00E94C9012D2F48
:1004D0004C2FF701608586E00E94C901212F4D2F26
:1004E0006C2FF70181850E9408022D2F4C2F6091FF
:1004F000793C83E00E94A5012D2F4C2F60914B3C4D
:1005000082E00E94A5012D2F4C2F6091803C86E057
:100510000E94A5012D2F4C2F60917F3C87E00E9407
:10052000A501DF91CF911F910F91FF90EF9008955A
:10053000DF92EF92FF920F931F93CF93DF93F82EEA
:10054000D62EE42E81E0F81208C01091463C11230B
:1005500009F459C004E0C1E051C082E0F81208C0BB
:100560001091743C112309F44EC008E0C5E046C068
:1005700083E0F81208C010914C3C112309F443C0E9
:100580000CE0C9E03BC084E0F81207C01091813C48
:100590001123C9F104E1CDE031C085E0F81233C088
:1005A00010917B3C112379F10CE1C5E127C081E07A
:1005B000E81619F0EE24E39403C06894EE24E1F801
:1005C0000C1770F0D1E0812F8D2331F04E2D6D2D61
:1005D0006D238C2F0E941D02DD0FCF5F0C1798F743
:1005E00081E0F81210C08091463C84FF0CC06D2D54
:1005F00060714E2D80E00E941D0205C00E944612CF
:100600008111D5CFDFCFDF91CF911F910F91FF9057
:10061000EF90DF900895962F873018F40E94F6111E
:100620000895873021F4642F892F0E94FE140895C5
:100630000F931F93CF93DF93C82F162F8730D1F4DA
:100640000E944612882331F08091473C813051F05E
:1006500001E00DC08091823C82FD08C00091473CC2
:10066000023029F4D0919E3C02E00EC001E0D0910E
:100670009D3C0AC0873008F073C00091473CE82FCA
:10068000F0E0EC56F34CD2818D2F8F70813019F54C
:100690008091823C82FF05C0D091943CD295DF705E
:1006A00052C083FF05C0D091943CD295DF704BC0FF
:1006B00080FF05C0D091943CD295DF7044C00E9469
:1006C0009B13882319F0D295DF703DC0D091943CE4
:1006D000D295DF7038C08230E9F48091823C82FF8D
:1006E00006C0402F60E08C2F0E940B0339C083FFAF
:1006F00006C0402F60E08C2F0E940B0331C081FFA9
:1007000006C0402F60E08C2F0E940B0329C0D295B9
:10071000DF7019C08330A9F48091823C82FF06C04B
:10072000402F60E08C2F0E940B031AC083FF06C08D
:10073000402F60E08C2F0E940B0312C0D295DF7017
:1007400002C0D295DF70D11730F4402F60E08C2FBB
:100750000E940B0305C0402F61E08C2F0E940B0309
:10076000DF91CF911F910F9108953F924F925F9229
:100770006F927F928F929F92AF92BF92CF92DF92B1
:10078000EF92FF920F931F93CF93DF930E944D122E
:100790008111D2C08091043C8F5F803108F4ABC0DE
:1007A0001092043CAAC087E0581205C0F30182856C
:1007B000813009F0C1C021960F5F1F4F7E01E818FC
:1007C000F9088A81982F9F719F3109F055C0807C6C
:1007D00061F4C50102C0880F991FEA94E2F7909175
:1007E000933C892B8093933C47C00E94720D382E16
:1007F0000E944612882321F0F2E03F128FC092C07F
:100800008A818823E4F4F2E03F120CC0C50102C0E3
:10081000880F991FEA94E2F79091933C892B80937B
:10082000933C2AC0C50102C0880F991FEA94E2F7E1
:1008300080959091933C89238093933C1DC086FFC3
:100840001BC081E038120CC0C50102C0880F991F7F
:10085000EA94E2F79091933C892B8093933C0CC0EF
:10086000C50102C0880F991FEA94E2F78095909124
:10087000933C89238093933C8091933C842131F075
:100880006091043C852D0E9418032FC08091823C0A
:1008900082FF06C06091043C852D0E94180325C08C
:1008A00081FF17C0F80182818F70823029F460E0E7
:1008B000852D0E94F61119C0833031F46091043CFB
:1008C000852D0E94180311C060E0852D0E94F6114D
:1008D0000CC0F7E05F1205C060E080E00E94FE14EB
:1008E0002BC060E0852D0E94F611440C539488E0E3
:1008F000581259CF21C08093043C0F2EF6E88F2E5A
:10090000FCE39F2EF02D04E91CE3E401442443940E
:10091000512CAA24A394B12C340150CF8A8188236E
:1009200044F474CF8A8188230CF47CCF86FD8CCF6D
:10093000A3CF86FD95CFA0CFDF91CF911F910F91CF
:10094000FF90EF90DF90CF90BF90AF909F908F90EF
:100950007F906F905F904F903F9008958091823C80
:10096000881F8827881F08958091823C86FB8827EE
:1009700080F90895CF93DF93D82FC62F0E94AE043D
:10098000882351F08091733C8C9FC00111249923DE
:1009900014F481509F4FC92F8091003C8D1741F076
:1009A0008D2F0E94AB12D093003C8FEF80930B3CB5
:1009B000C093A03CC13039F41092A13C1092A03CED
:1009C00080E00E947A1380914F3CC81718F4CC2322
:1009D00041F0C82F9091A13C981718F4C111809351
:1009E000A13C80910B3C81114BC080910A3C81114C
:1009F0004AC00E94420FD81789F18091093C882390
:100A000049F09091923C91113EC080FF03C08E7FCF
:100A10008093093C9091A03C8091A13C981750F4A0
:100A20002091513C211106C0C093A13C8C2F0E9403
:100A30007A1329C0891750F42091503C211106C027
:100A4000C093A13C8C2F0E947A131DC098131BC029
:100A5000C093A13C8C2F0E947A1315C08091093C51
:100A600081608093093C8091493C81110CC0809148
:100A7000513C811108C01092A13C0E947A1303C01E
:100A800080E00E947A13DF91CF91089510920A3C82
:100A9000E62FEF70EE0F21F460E00E94BA04089593
:100AA000E23021F461E00E94BA04089564FDEF5F32
:100AB000F0E0ED5AF34C60810E94BA040895109260
:100AC0000A3CEEE4FCE34181E5814E1780F590910C
:100AD000523CE91760F5603490F4E41BE69FF001A6
:100AE0001124FF230CF4FF960E2EEF2F000CEE1FA7
:100AF000FF0B000CEE1FFF1F642F6E0F2CC09E1B00
:100B000070E060547109969FA001979F500D1124C9
:100B1000552314F4415C5F4F042E452F000C441FF5
:100B2000550B000C441F551F6E2F640F14C02091ED
:100B3000523C421778F4241B269F90011124332342
:100B400014F421583F4F220F232F221F330B642F01
:100B5000620F01C0660F0E94BA04089591E090935D
:100B60000A3C6091913C0E94BA04089580910B3C2C
:100B7000882309F1815080930B3C8111F8C090913A
:100B8000A03C8091A13C981738F42091513C211150
:100B900003C00E947A130895891738F42091503CBD
:100BA000211103C00E947A1308959813E0C0892F81
:100BB0000E947A13089580910D3C8F5F803119F067
:100BC00080930D3C089510920D3C90910C3C9F5FDA
:100BD00090930C3C80910A3C882329F18091A13CA0
:100BE0002091A03C821768F420917C3C921708F475
:100BF000BEC08F5F8093A13C0E947A1310920C3C80
:100C00000895281768F420917C3C921708F4AFC02F
:100C100081508093A13C0E947A1310920C3C08955D
:100C200010920C3C08950E94420F9091003C89174D
:100C300009F46DC08091093C80FF41C08091923CD5
:100C400081111FC08091503C811109C08091A03C4E
:100C50008093A13C0E947A1310920C3C23C0909187
:100C60000C3C9817F8F08091A13C9091A03C89171A
:100C700000F58F5F8093A13C0E947A1310920C3C88
:100C800011C090910C3C981768F08091A13C909114
:100C9000A03C891770F48F5F8093A13C0E947A1367
:100CA00010920C3C9091A13C8091A03C981708F4C4
:100CB0005EC08091093C8E7F8093093C08958091AD
:100CC000A13C9091A03C891778F42091503C9091E0
:100CD0000C3C921708F44BC08F5F8093A13C0E949C
:100CE0007A1310920C3C0895981770F42091513C9F
:100CF00090910C3C9217D8F181508093A13C0E94B6
:100D00007A1310920C3C089510920C3C0895809137
:100D1000A13C882361F19091093C91609093093C3A
:100D20009091493C911118C09091513C911108C08B
:100D30001092A13C80E00E947A1310920C3C08951E
:100D400020910C3C291798F081508093A13C0E947F
:100D50007A1310920C3C089520910C3C291738F01E
:100D600081508093A13C0E947A1310920C3C08950C
:100D70008091083C817008958091563C882309F445
:100D80004CC00E94420F9091003C891739F010929C
:100D9000063C1092073C1092053C08952091063CB9
:100DA0003091073C2F5F3F4F283E93E0390728F4EE
:100DB0002093063C3093073C08951092063C109215
:100DC000073C9091053C9F5F9093053C2091563CD9
:100DD000921718F19091083C90FF04C09E7F909369
:100DE000083C03C091609093083C813021F482E07C
:100DF0008093003C05C0823019F481E08093003C70
:100E00008091003C0E94AB128FEF80930B3C1092BC
:100E1000063C1092073C1092053C089590E08050EB
:100E200090400E941A1608958F3F910509F018F41A
:100E30000E940E07089580E00895E2E0F0E19081BD
:100E400091FDFDCF90E0805090400E9422160895C1
:100E500069E083E40E941D0762E184E40E941D07AB
:100E60006BE185E40E941D0764E286E40E941D0791
:100E70006EE287E40E941D0767E388E40E941D0775
:100E800060E489E40E941D0769E48AE40E941D076A
:100E900062E58BE40E941D076BE58CE40E941D0750
:100EA00064E68DE40E941D076DE68EE40E941D0736
:100EB00066E78FE40E941D0760E880E50E941D0739
:100EC00069E881E50E941D0762E982E50E941D072D
:100ED0006BE983E50E941D0764EA84E50E941D0713
:100EE0006DEA85E50E941D0766EB86E50E941D07F9
:100EF0006FEB87E50E941D0768EC88E50E941D07DF
:100F000061ED89E50E941D076BED8AE50E941D07D2
:100F100064EE8BE50E941D076DEE8CE50E941D07B7
:100F200066EF8DE50E941D076FEF8EE50E941D079D
:100F300008958530C0F4811106C08091463C8061DF
:100F40008093463C0895815021E030E0A90102C021
:100F5000440F551F8A95E2F7CA019091463C892BB0
:100F60008093463C0895893080F4855021E030E03C
:100F7000A90102C0440F551F8A95E2F7CA0190915A
:100F8000743C892B8093743C08958D3080F4895093
:100F900021E030E0A90102C0440F551F8A95E2F715
:100FA000CA0190914C3C892B80934C3C089585312B
:100FB00080F48D5021E030E0A90102C0440F551F9C
:100FC0008A95E2F7CA019091813C892B8093813CFC
:100FD00008958D3178F4845121E030E0A90102C0F8
:100FE000440F551F8A95E2F7CA0190917B3C892BEB
:100FF00080937B3C0895EF92FF920F931F93CF93C2
:10100000DF93E2E0F0E1808181FDFDCF80E00E948E
:101010000E078F3F19F40E94E108CCC00EE41CE3D8
:10102000C0E0CF5F8C2F0E940E07F80181938F01E3
:10103000C630B9F781E10E940E0780937D3C82E1C2
:101040000E940E078093843C83E10E940E078093E8
:10105000833C8BE10E940E0780939F3C8DE10E94B0
:101060000E078093753C07E51CE30F2EF3E7EF2E88
:10107000FCE3FF2EF02DC3E48C2F0E940E07F80135
:1010800081938F01CF5FEE15FF05B1F70F2EF6E8C4
:10109000EF2EFCE3FF2EF02D04E91CE3C1E28C2FC0
:1010A0000E940E07F70181937F018F710E949907BB
:1010B0008FE48C0F0E940E07F80181938F01CF5FA0
:1010C000CC3269F78CE20E940E07C82F8093793CDE
:1010D0008DE20E940E0780934B3C8C2F8F710E94F3
:1010E000990780914B3C8F710E94990783E80E9479
:1010F0000E078093733C8FE20E940E078093553C4D
:1011000082E30E940E078093483C83E30E940E070F
:101110008093803C8F710E94990784E30E940E07A0
:101120008093563C85E30E940E078093923C86E3B1
:101130000E940E078093493C87E30E940E07C6E792
:10114000DCE3888388E30E940E07898389E30E9499
:101150000E078A838AE80E940E0780937E3C8AE30A
:101160000E940E078093913C8BE30E940E078093B0
:101170007C3C8CE30E940E0780934A3C8DE30E94E6
:101180000E078093853C8EE30E940E0780937A3C85
:101190008FE30E940E0780937F3C8F710E94990716
:1011A00080E40E940E078093543C84EF0E940E0757
:1011B00080934D3CDF91CF911F910F91FF90EF9065
:1011C000089563E081E00E941D0760E082E00E94D4
:1011D0001D0760E083E00E941D0760E084E00E943C
:1011E0001D076FEF85E00E941D076FE786E00E94F4
:1011F0001D0761E087E00E941D076DE088E00E9406
:101200001D0760EC81E10E941D0760E082E10E9401
:101210001D0760E083E10E941D0763E08BE10E94EF
:101220001D076EE08DE10E941D0764E081E20E94CF
:101230001D0767E082E20E941D0760E483E20E94CE
:101240001D0761E884E20E941D0761E885E20E94B3
:101250001D0760E886E20E941D0761E487E20E94A4
:101260001D0761E488E20E941D0763E089E20E9495
:101270001D0760E08AE20E941D0760E08BE20E9489
:101280001D076EE38CE20E941D0766E08DE20E945E
:101290001D076FE48FE20E941D0769EC82E30E9444
:1012A0001D0765E083E30E941D0760E084E30E9460
:1012B0001D076AE085E30E941D0763E086E30E9444
:1012C0001D0768E287E30E941D0769E188E30E9429
:1012D0001D0764E689E30E941D076FE78AE30E9409
:1012E0001D0763E08BE30E941D0763E88CE30E9407
:1012F0001D076FE58DE30E941D0760EC8EE30E94E1
:101300001D0767E08FE30E941D0761E080E40E94F3
:101310001D0760E480E70E941D0761EF82E70E94DD
:101320001D0763EF83E70E941D0762EF84E70E94B9
:101330001D0761EF85E70E941D0763EF86E70E94A6
:101340001D0762EF87E70E941D0760EF88E70E9494
:101350001D0761EF89E70E941D0762EF8AE70E947F
:101360001D076FE383E80E941D0764E68AE80E9478
:101370001D0760E084EF0E941D070E94280760E0BF
:1013800080E00E941D070E94FB0708950F931F93A2
:10139000CF93DF93EC01162F8F3F910511F008F0EA
:1013A00099C08F50823048F08FE00E940E07082FBE
:1013B00080E10E940E0708138DC0CE019927FC0121
:1013C0003197E43FF10508F081C0E25CFF4F0C94D7
:1013D0001416FC01E35BF34C108378C01D3019F048
:1013E000183009F077C06FEF80E00E941D070E945F
:1013F000E10870C010937D3C69C01093843C66C0C6
:101400001093833C63C010939F3C60C08091543C18
:1014100080FD18601093753C59C0FC01EB59F34CEA
:101420001083812F8F710E94990750C01093793CCF
:10143000812F8F710E94990749C010934B3C812FD7
:101440008F710E94990742C01093553C3FC0109382
:10145000483C3CC01093803C39C01093563C36C089
:101460001093923C33C01093493C30C0FC01E15CC6
:10147000F34C10832BC01093913C28C010937C3CFC
:1014800025C010934A3C22C01093853C1FC0109386
:101490007A3C1CC010937F3C812F8F710E9499076A
:1014A00015C01093543C12C0FC01EC5EF34C108349
:1014B0000DC0FC01EC5DF34C108308C01093733C2D
:1014C00005C010937E3C02C010934D3C612F8C2FC1
:1014D0000E941D07DF91CF911F910F910895FF92F8
:1014E0000F931F93CF93DF938C01F62E862F877077
:1014F000C1E0D0E002C0CC0FDD1F8A95E2F7C80141
:101500000E941407F3FE03C06C2F682B03C0C09524
:101510006C2F6823C8010E94C609DF91CF911F91EB
:101520000F91FF90089581E080930F3C8093103CD1
:101530000E94501281E00E94D8120895CF93FB01BF
:1015400090818091A43C981376C0C1818091A53C84
:10155000C81371C022818091A63C28136CC092FDF3
:101560002AC020910E3C30E021503109220F331F58
:10157000220F331F892F8370280F311D2F5F3F4F9C
:1015800093FF0CC06C2FC9010E94C6098091A23C38
:1015900084608093A23C0E94930A59C0C9010E94B2
:1015A0001407C81354C08091A23C82608093A23C6F
:1015B0000E94930A4CC0892F8770853061F018F41F
:1015C0008430C1F044C0863019F0873081F03FC0CC
:1015D00027E030E011C08091A23C80FD38C0C0936C
:1015E0000E3C81608093A23C0E94930A30C028E0A8
:1015F00030E002C02DE130E093FF0EC06C2FC90136
:101600000E94C6098091A23C82FD21C08460809323
:10161000A23C0E94930A1BC0C9010E941407C81370
:1016200016C08091A23C81FD12C082608093A23CD2
:101630000E94930A0CC0A4EABCE39C93818111969A
:101640008C931197828112968C931092103CCF91BB
:101650000895CF93FB0190818091A43C98132FC0F3
:1016600021818091A53C28132AC0C2818091A63C8B
:10167000C81325C033818091A73C381320C08091C6
:10168000103C81112CC0892F837030E0280F311D50
:101690002F5F3F4F9C70943019F09C3049F01FC071
:1016A000C9010E941407C8131AC00E94930A17C0E8
:1016B0006C2FC9010E94C6090E94930A10C0A4EAB7
:1016C000BCE39C93818111968C9311978281129631
:1016D0008C931297838113968C931092103CCF9128
:1016E000089580910F3C882389F08F5F8D3018F426
:1016F00080930F3C089510920F3C81E08093103C42
:1017000082E00E94501282E00E94D81208958091D7
:10171000143C882329F081508093143C0E94710B63
:1017200008958F929F92BF92CF92DF92EF92FF9295
:101730000F931F93CF93DF93FB018330C9F4808114
:1017400081110AC08181811189C18281811186C183
:101750008EE18093143C88C18F3F51F481818111C7
:1017600075C182818F3F09F071C11092143C7CC118
:101770008091833C882361F0908199230CF41AC1F5
:101780002181207E203E09F41BC18093133C04C0BC
:101790008091133C882341F09081992309F464C11E
:1017A0009F77981361C118C19081992354F080915B
:1017B000753C85FD0BC180914E3C891355C181E07C
:1017C0000CC1892F807C803C09F04EC18091753C12
:1017D00085FF4AC180917D3C891346C191818091EA
:1017E000843C981341C182E0F8C00196E80FF91FCC
:1017F000C081CF778091023CC81335C08FEF8093B2
:10180000023C8081882364F48091753C80FF04C091
:1018100082E08093123C0FC081E08093123C0BC0A9
:101820008091753C80FF04C081E08093123C03C02E
:1018300082E08093123C0E94B806882359F0809180
:10184000123C813021F482E08093123C03C081E09D
:101850008093123C6C2F8091123C0E945F058FEFA9
:101860008093023C01C1C093023CFEC08091013CC8
:10187000861331C09FEF9093013C85FF0CC080918F
:10188000753C80FF04C082E08093123C0FC081E071
:101890008093123C0BC08091753C80FF04C081E0B6
:1018A0008093123C03C082E08093123C0E94B806F1
:1018B000882359F08091123C813021F482E080939A
:1018C000123C03C081E08093123C68818091123CFD
:1018D0000E944605C9C06093013CC6C04091123CBD
:1018E00081E00E949802C0C064FF06C04091123C93
:1018F00082E00E949802B8C04091123C83E00E94AE
:101900009802B2C06E3D49F4E80FF91F4091123CB5
:10191000618184E00E949802A7C06F3D09F0A4C0D5
:10192000E80FF91F4091123C618185E00E94980206
:101930009BC0D4017D914D01DA016D91AD01761707
:1019400079F06881D9016C93D6016C91D901119617
:101950006C93D8016C91D90112966C93B092113CA2
:101960008E149F0431F71092113C288123FF7CC014
:1019700022FF10C0E80FF91F8181237030E0322F61
:101980002227A901480F511DCA01628101960E94B8
:10199000C6096AC0E80FF91F8181237030E0322F39
:1019A0002227D901A80FB11DCD01628101960E94A5
:1019B0006F0A5AC08091133C882309F402CFECCE01
:1019C0008091133C882309F4F2CEE6CE892F807CE7
:1019D000803C09F049C0FECE81E090E0EF01C80FE5
:1019E000D91F6881262F207E203809F477CF50F444
:1019F000203409F43BCF203609F438CF203209F4E3
:101A0000F4CE32C0203C09F47DCF203E19F0203ABC
:101A100059F56ACF0F2EFCEA8F2EFCE39F2EF02D96
:101A2000AE010F2EFFEAEF2EFCE3FF2EF02D940106
:101A30008F01080F191F6801BFEFCB1ADB0A0E5F79
:101A40001F4FBB24B39475CF9081B4CF8091833C5A
:101A5000882309F49DCEF8CF908192CE8091833C6B
:101A6000882309F495CEF8CFDF91CF911F910F9184
:101A7000FF90EF90DF90CF90BF909F908F90089550
:101A8000823079F19091143C992349F1FB019081C6
:101A90009077903721F59EE19093143C833019F0B4
:101AA0008430C9F00895FB018081811107C08181D4
:101AB00081110DC0828181110AC008958F3F39F4D0
:101AC000FB018181811103C082818F3F51F083E04E
:101AD0000E949E0A089584E00E94290B08950E94A6
:101AE000910B08958091123C089581E09091143CEF
:101AF000911101C080E00895803430F4E82FF0E0C7
:101B0000EE57FD4F8491089580E00895CF93DF93C1
:101B1000C62F880F880F962F92959695969593705D
:101B2000890F0E947C0DD82F8C2F8F730E947C0D03
:101B3000C82F8D2F0E94D6158C2F0E94D615DF91AD
:101B4000CF91089580914D3C8130B9F40E94A61345
:101B5000BC01769567959091153C911108C0672F4F
:101B600081E00E94860D81E08093153C089582E01B
:101B70000E94860D1092153C08958230A9F40E94AF
:101B8000FA142091153C211108C0692F81E00E94B0
:101B9000860D81E08093153C0895682F82E00E94B5
:101BA000860D1092153C08958091753C83FF30C0DE
:101BB0009091833C91112CC085FD14C08091153CFF
:101BC000811108C060E081E00E94860D81E0809371
:101BD000153C089560914E3C82E00E94860D109263
:101BE000153C08958091153C81110BC060917D3C9E
:101BF0006F73605881E00E94860D81E08093153CF0
:101C000008956091843C82E00E94860D1092153CFC
:101C10000895CF93DF93CDB7DEB7E197CDBFDEBF99
:101C20000E948F0F0E945B150E9466120E94DE11B7
:101C30000E94C0100E94C3150E94C00E0E94FB07A4
:101C4000789400E010E0E12CF12CBE016F5F7F4F33
:101C5000CE01C1960E94DB1089A9882331F0BE0114
:101C60006F5F7F4F0E94400D19AA0E94750D882357
:101C700039F00E947515882341F30E94870BE5CF48
:101C80000E947E10813029F40E94D40E0E940B0F16
:101C900006C0823021F40E94D40E0E940B0F0E94D5
:101CA000D31181110E94A20D0E94801581110E9402
:101CB0005D140E947515882319F0112379F002C074
:101CC000112319F2812F90E0FC013197E830F105E2
:101CD00008F04CC0EE5CFE4F0C9414160E94A81045
:101CE0000E944B0F11E048C00E94BC0645C00E94F4
:101CF000B50342C00E94B6053FC00E94870B3CC09E
:101D00008091753C82FF38C00E94B6108823A1F1F3
:101D10000E948C0F0E94AE050E948C0F0E948001D1
:101D20002BC08091553C88233CF5F39499E09F1596
:101D300010F4E394F12C4E2D50E0282F2F7330E057
:101D400042175307CCF086FF05C08BE00E944F136B
:101D5000E12C12C08CE00E944F13E12C0DC00F5FEC
:101D60000A3061F40E949E1300E008C01F5F193022
:101D700008F46BCF10E069CF1F5F67CF10E065CF2D
:101D8000A0E0B4E080E212968C931297E0E4F4E0D5
:101D900084E0828355968C915597886055968C93F4
:101DA00082898860828B08958091080485FF06C02F
:101DB00080911C3C8F5F80931C3C05C080911B3C34
:101DC0008F5F80931B3C8091183C8F5F8A3F18F493
:101DD0008093183C08951092183C80919F3C80FF9E
:101DE00010C080911B3C8A3030F48091163C816099
:101DF0008093163C0BC08091163C8E7F8093163CDE
:101E000005C08091163C8E7F8093163C10921C3C3E
:101E100010921B3C08958091480482FF06C0809177
:101E20001A3C8F5F80931A3C05C08091193C8F5FEC
:101E30008093193C8091173C8F5F8A3F18F4809300
:101E4000173C08951092173C80919F3C81FF10C071
:101E50008091193C8A3030F48091163C82608093E6
:101E6000163C0BC08091163C8D7F8093163C05C0BC
:101E70008091163C8D7F8093163C10921A3C1092F4
:101E8000193C08950E94B404811103C08091163C4E
:101E9000089580E008958091080482FF13C0809126
:101EA000080484FD21C080911D3C882319F08150D5
:101EB00080931D3C80911E3C8E31B0F48E5F8093E8
:101EC0001E3C12C08091080484FF0EC080911E3C0D
:101ED0008823E9F0815080931E3C80911D3C8E3117
:101EE00018F48E5F80931D3C80911E3C803120F061
:101EF00081E080931F3C089580911D3C803120F04B
:101F000082E080931F3C089510921F3C08958091B9
:101F10001D3C8E3130F3F0CF80911F3C089588ED49
:101F200084BF81E080936100E0E8F0E084E080839A
:101F3000118208951F920F920FB60F9211242F93C2
:101F40003F934F935F938F939F93EF93FF93E0E0C3
:101F5000F4E0818584618187808582FF4AC0809119
:101F6000303C80FD5AC081608093303C80914A0AA9
:101F700090914B0A20912E3C30912F3C2817390725
:101F800058F480914A0A90914B0A821B930B8093DC
:101F90002A3C90932B3C0BC080914A0A90914B0AAB
:101FA0009053821B930B80932A3C90932B3C8091FF
:101FB000203C81608093203C80914A0A90914B0A9A
:101FC00089339F4C58F080914A0A90914B0A88536C
:101FD0009F4C8093AF3C9093B03C1FC080914A0AC5
:101FE00090914B0A88539F4F8093AF3C9093B03CA5
:101FF00014C08091303C80FF10C08E7F8093303CB5
:1020000080914A0A90914B0A80932E3C90932F3CEA
:102010008091203C8E7F8093203C8091080484FF37
:102020004CC08091303C81FD5CC082608093303C2C
:1020300020914A0A30914B0A80912C3C90912D3C82
:102040008217930760F420914A0A30914B0AA90144
:10205000481B590B4093283C5093293C0CC02091BD
:102060004A0A30914B0A3053A901481B590B40933F
:10207000283C5093293C8091203C82608093203CF6
:1020800080914A0A90914B0A89339F4C58F0809175
:102090004A0A90914B0A88539F4C8093D33C90936B
:1020A000D43C1FC080914A0A90914B0A88539F4F9D
:1020B0008093D33C9093D43C14C08091303C81FFFA
:1020C00010C08D7F8093303C80914A0A90914B0ADA
:1020D00080932C3C90932D3C8091203C8D7F80936D
:1020E000203CFF91EF919F918F915F914F913F9194
:1020F0002F910F900FBE0F901F9018959091203C3C
:1021000090FF10C040914A0A50914B0A2091AF3C79
:102110003091B03C2417350728F49E7F9093203CE3
:1021200081E00895892F827091FF11C040914A0A81
:1021300050914B0A2091D33C3091D43C2417350761
:1021400028F49D7F9093203C82E0089580E00895DC
:102150008091213C9091223C8C3221E0920728F41E
:1021600001968093213C9093223C089581E0209138
:10217000213C3091223C2C32314008F480E008951B
:10218000E0E0F4E084E1828381E0828B848BE0E410
:10219000FAE083E080838FEF9FEC84879587089532
:1021A00083588B3330F0635881E06B3318F080E054
:1021B000089581E00895EF92FF920F931F93CF93BC
:1021C000DF93AC019091273C992319F120914A0AA1
:1021D00030914B0A8091253C9091263C82179307C1
:1021E00038F420914A0A30914B0A281B390B07C05A
:1021F00020914A0A30914B0A3053281B390B2E315B
:10220000310538F08091233C81608093233C10920B
:10221000273C20912A3C30912B3C2115310539F483
:102220008091283C9091293C892B09F4B5C07B0111
:102230008A01C091283CD091293C10922A3C1092EE
:102240002B3C1092283C1092293C622F8C2F0E942C
:10225000D010882381F08091273C81119DC081E0BE
:102260008093273C80914A0A90914B0A8093253CA9
:102270009093263C91C0CE018D5D9109853E9105DC
:1022800090F481E08093D53C8091243C8F5F8093D3
:10229000243CE091D63CF0E0ED54F34C8081880F73
:1022A0008F5F808322C0C55FD140CB35D14C08F011
:1022B00073C01092D53C8091243C8E3060F081E058
:1022C0008093F73C1092B33C1092D63C1092F83CAD
:1022D0001092243C61C01092243CE091D63CF0E086
:1022E000ED54F34C8081880F80838091D63C8032FE
:1022F00008F052C08091F73C811123C08091D53CF9
:102300008130F9F48091F83C811118C0F8011082F5
:102310009091D63C9923B9F090E0FC01ED54F34C38
:102320002081F701E80FF91F2083F80180818F5F7A
:1023300080839091D63C891778F305C0F80110820C
:1023400002C0F80110828091F73C8F5F8093F73CC8
:10235000893011F5E091D63CE11107C08091B33C82
:102360008F3F19F48093D63C17C0AE2FB0E0AD5428
:10237000B34C9091F83C8C9189278093F83CEF5FA7
:10238000E093D63CF0E0ED54F34C10821092F73C11
:102390001092213C1092223CDF91CF911F910F911E
:1023A000FF90EF9008959091233C892F817090FFCA
:1023B00004C09E7F9093233C81E00895E0E0F4E028
:1023C000818188688183E0E2F4E081818863818390
:1023D000A0E4B4E011968C911197836011968C93D0
:1023E00081818D7F818388E0818B089590E08730A3
:1023F000910508F04AC0FC01E65CFE4F0C941416EF
:10240000662321F088E080930504089588E0809396
:1024100006040895662321F082E080934504089520
:1024200082E0809346040895662321F080E880933B
:102430000504089580E8809306040895662321F03A
:1024400088E080932504089588E080932604089509
:10245000662321F080E280932504089580E2809332
:1024600026040895662321F081E0809345040895B1
:1024700081E0809346040895662321F080E18093F3
:102480002504089580E1809326040895809128040E
:102490008695817091E0892708958091313C089557
:1024A000CF93813019F48093313C0CC01092313CB1
:1024B00009C06091313C8C2F0E94F611CF5FC7306C
:1024C000C1F702C0C0E0F5CFCF910895E0E0F4E09D
:1024D000828182608283818180648183A0E2B4E012
:1024E00011968C911197816011968C93A0E4B4E0C1
:1024F00011968C911197886011968C931197868113
:102500008064868316968C911697886016968C93B5
:10251000A0E0BAE091E09C9383E111968C9311972F
:102520002FEF30E096962D933C93979798961D92B7
:102530001C92999785818064858380E38093A000B5
:10254000E0E0F6E085E08083918384E4828380E2AA
:102550008383148208959091423C911128C09091F8
:10256000903C913021F1813059F4E0E4F4E086812F
:1025700088608683E0E0F4E0858180648583089547
:10258000823059F4E0E0F4E0868180648683E0E400
:10259000F4E08581886085830895E0E0F4E0868139
:1025A00080648683E0E4F4E0868188608683089511
:1025B000813079F483E08093010A88E080934604B7
:1025C00080E48093050481E0809325048093423C5D
:1025D000089588E08093460480E48093060481E0B7
:1025E0008093260483E18093010A1092423C08956F
:1025F0009091903C9130B1F0813019F48093000AB1
:102600000895823021F483E08093000A08958C308D
:1026100021F48DE08093000A08958B3019F48FE047
:102620008093000A08951F920F920FB60F92112403
:102630002F933F934F935F936F937F938F939F93CA
:10264000AF93BF93EF93FF93E0E0FAE0838581605F
:1026500083878091413C882389F0813051F40E9426
:10266000F8121092413CE0E0FAE082858E7F82878A
:1026700005C00E94F81281E08093413CFF91EF91E8
:10268000BF91AF919F918F917F916F915F914F918A
:102690003F912F910F900FBE0F901F901895909122
:1026A000423C91110BC09091903C913039F0809355
:1026B000413CE0E0FAE08285816082870895909154
:1026C0003B3C60917A3C961798F42091853C30E031
:1026D0004FEF50E0421B530B949FF001959FF00D7C
:1026E000112470E0CF010E940016862F820F0895FA
:1026F0008FEF0895CF939091903C913019F480938F
:102700003B3C17C090913B3C891799F0C82F8093B0
:102710003D3C80933B3C0E945F13682F80933E3C7E
:102720002FEFC29FC001112470E00E94EC1560934E
:102730003A3CCF91089580913B3C08958091393C7B
:10274000811103C081E08093393C08958091363C2B
:102750009091373C08958F929F92AF92BF92CF9203
:10276000DF92EF92FF920F931F93CF93DF934091ED
:102770003D3C411103C010923C3C92C0E6E7FCE3B3
:10278000A080B12CC180D12CE280F12C2091363C6C
:102790003091373C369527955FEF529FC001539F8C
:1027A000900D11246091733C70E00E94EC15042F91
:1027B00010E0862F972F8F3F910519F014F08FEFBF
:1027C00090E0E801C81BD90B2AE030E0CE01B90146
:1027D0000E9400168091343C9091353CFB01E80F3B
:1027E000F91FE093343CF093353C8091323C90915A
:1027F000333CBE01681B790BCB0164E670E00E949C
:1028000000164B01C093323CD093333CAC9EC001C8
:10281000AD9E900DBC9E900D1124B9010E94001632
:10282000EB01CE9EC001CF9E900DDE9E900D112437
:10283000B9010E940016FE01E60FF71FE89CC001D7
:10284000E99C900DF89C900D1124B9010E9400168E
:102850006E0F7F1F6F3F710529F024F08FEF80937B
:102860003C3C08C0772324F410923C3C80E010C02C
:1028700060933C3C80913C3C481750F490E0801BB6
:10288000910B813A910564F0405640933C3C08C05E
:10289000081B1109013A11051CF0405A40933C3CB9
:1028A000DF91CF911F910F91FF90EF90DF90CF902C
:1028B000BF90AF909F908F9008958091903C813011
:1028C00009F497C08091423C811193C08091393CBA
:1028D0008823C1F18436D8F4813049F4E0E0FAE08D
:1028E00080A591A58093383C10A611A60AC08A3015
:1028F00041F4E0E0F6E081E08683808784E680931F
:10290000393C8091393C8F5F8093393C08958536FE
:1029100009F06FC08091080680FD6BC080911006A1
:10292000909111068093363C9093373C1092393C3D
:102930008091383C90E08093280A9093290A0E9465
:10294000AB13089580914A3C982F9F7791F4882388
:1029500044F480913C3C90E08093280A9093290AAB
:10296000089580913B3C90E08093280A9093290A37
:102970000895933079F48091403C8F3F19F4109280
:10298000403C08951092403C80913F3C8F5F809383
:102990003F3C0DC081FF06C080913F3C8E5F80931D
:1029A0003F3C05C080913F3C8F5F80933F3C9091BE
:1029B0003E3C80913F3C981748F4E0E0FAE010A6D6
:1029C00011A68EEF90E080A391A3089580914A3CD8
:1029D000882344F480913C3C90E08093280A9093B3
:1029E000290A089580913A3C90E08093280A9093B8
:1029F000290A089580913C3C90E008959091903C84
:102A0000913081F593E09093010A613059F4E0E44C
:102A1000F4E0968198609683E0E0F4E0958190641C
:102A2000958317C0623059F4E0E0F4E09681906439
:102A30009683E0E4F4E09581986095830AC0E0E035
:102A4000F4E0968190649683E0E4F4E096819860E7
:102A50009683882321F081E080932504089581E006
:102A60008093260408951F920F920FB60F9211249F
:102A70008F938091433C81608093433C81E08093BD
:102A800053018F910F900FBE0F901F9018951F92BA
:102A90000F920FB60F9211248F9383E0809343011E
:102AA0008091433C82608093433C8F910F900FBE96
:102AB0000F901F901895E0E4F1E081818111FDCF26
:102AC000E0E4F1E01486158681E090E08287938748
:102AD000178281E8808382898160828B81E2808B8A
:102AE000828183608283789408959091433C892FFA
:102AF000817090FF04C09E7F9093433C81E00895D5
:102B00009091433C892F827091FF04C09D7F9093E8
:102B1000433C81E008951F920F920FB60F9211244B
:102B20008F939F93AF93BF93EF93FF93E0E0F8E011
:102B3000848180628483F8948091453CA82FB0E022
:102B4000A650B34C9C9192838F5F803318F480938E
:102B5000453C02C01092453C9091453C8091443CDC
:102B6000981305C0E0E0F8E085818F7D8583789437
:102B7000FF91EF91BF91AF919F918F910F900FBEF9
:102B80000F901F901895E0E2F4E0818184608183CA
:102B9000858184608583E0E0F8E080EA90E08087CA
:102BA000918780E4868383E0878308959091443CF5
:102BB000E92FF0E0E650F34C80839F5F903318F4E8
:102BC0009093443C02C01092443CE0E0F8E08581E0
:102BD0008062858378940895AA1BBB1B51E107C0CE
:102BE000AA1FBB1FA617B70710F0A61BB70B881F9D
:102BF000991F5A95A9F780959095BC01CD0108952C
:102C000097FB072E16F4009407D077FD09D00E9499
:102C1000EC1507FC05D03EF4909581959F4F0895E3
:102C2000709561957F4F0895EE0FFF1F0590F49109
:102C3000E02D099403D0808199270895FC01E0508C
:102C4000FC4E0895262F0E941E160080021619F0D1
:102C50000E942E16019701970895262FAF93BF93D8
:102C6000E0E0F0E1328131FDFDCFDC01A050BC4E4F
:102C70002C932DE924BF23E020830196BF91AF91CF
:062C80000895F894FFCF57
:042C8600FFFFFF004D
:00000001FF
