:100000000C9461010C947E010C947E010C9495106B
:100010000C947E010C947E010C944B160C943716B4
:100020000C9413140C947E010C947E010C947E01AC
:100030000C947E010C947E010C947E010C947E0144
:100040000C947E010C947E010C947E010C947E0134
:100050000C947E010C947E010C947E010C947E0124
:100060000C947E010C947E010C947E010C947E0114
:100070000C948F160C947E010C947E01E909E90919
:10008000E909E909E909E9096A0AEE09660A660A5D
:10009000660A660A660A660A660A660AFA09FD09B7
:1000A000000A660A660A660A660A660A660A660A36
:1000B000030A660A060A660A660A660A0D0A0D0A35
:1000C0000D0A0D0A0D0A0D0A0D0A0D0A0D0A0D0A78
:1000D0000D0A160A1D0A660A240A660A660A270A13
:1000E0002A0A2D0A300A330A360A360A360A3B0A29
:1000F0003E0A410A440A470A4A0A510A660A660A3F
:10010000540A540A540A540A540A540A540A540AFF
:10011000540A540A540A540A540A540A540A540AEF
:10012000540A540A540A540A540A540A540A540ADF
:10013000540A540A540A540A660A660A660A660A87
:10014000660A660A660A660A660A660A660A660A2F
:10015000660A660A660A660A660A590A590A590A46
:10016000590A590A590A590A590A590A590A590A77
:10017000660A660A660A660A660A660A660A660AFF
:100180005E0A660A660A660A660A660A660A610AFC
:10019000660A660A660A660A660A660A660A660ADF
:1001A000660A660A660A660A660A660A660A660ACF
:1001B000660A660A660A660A660A660A660A660ABF
:1001C000660A660A660A660A660A660A660A660AAF
:1001D000660A660A660A660A660A660A660A660A9F
:1001E000660A660A660A660A660A660A660A660A8F
:1001F000660A660A660A660A660A660A660A660A7F
:10020000660A660A660A660A660A660A660A660A6E
:10021000660A660A660A660A660A660A660A660A5E
:10022000660A660A660A660A660A660A660A660A4E
:10023000660A660A660A660A660A660A660A660A3E
:10024000660A660A660A660A660A660A660A660A2E
:10025000660A660A660A660A660A660A660A660A1E
:10026000660A640A6B0E710E740E770E7A0E7D0E9E
:100270008E0EAC0E00130A1314131E132813321320
:100280003C13ACAAA9A5A3A69C9A999593968E8D8A
:100290008BB1B2B4B874726C6A696563665C5A59A2
:1002A0005553564E4D4B4771E8E4E2D1C9C5D8D4F9
:1002B000D2C9C6CC78171B1D1E2E363A272B2D35DA
:1002C000393311241FBECFEFCDBFDFE3DEBF1CE308
:1002D000A0E0BCE3EEE8FEE202C005900D92A4307F
:1002E000B107D9F72DE3A4E0BCE301C01D92A03310
:1002F000B207E1F70E94060E0C9445170C9400001B
:1003000060914E3CEEE8FCE346E95CE330E021E03E
:100310009191907C81F0903431F4813079F4962F72
:100320009223392B0BC0903849F4823039F4962F40
:100330009223392B03C0962F9223392B220FE417D7
:10034000F50731F73093993C08956F71461320C03B
:10035000222379F021E030E0A90102C0440F551FAB
:100360008A95E2F7CA019091883C892B8093883C5A
:10037000089521E030E0A90102C0440F551F8A957D
:10038000E2F7CA0180959091883C89238093883C4C
:1003900008950F93962F9F71491338C0607C29F4FC
:1003A00091E0211113C090E011C0603439F40130A4
:1003B000F1F491E021110AC090E008C06038B9F46E
:1003C0000230A9F491E0211101C090E0992379F065
:1003D00021E030E0A90102C0440F551F8A95E2F7E1
:1003E000CA019091993C892B8093993C0FC021E0E0
:1003F00030E0A90102C0440F551F8A95E2F7CA01F7
:1004000080959091993C89238093993C0F91089510
:100410009091963C913081F48F7168130DC0442304
:1004200031F08091993C80688093993C0895809147
:10043000993C8F778093993C0895EF92FF920F93A8
:100440001F93CF93DF93C82FD62F142F40934D3C8B
:100450000F2EFCE8EF2EFCE3FF2EF02D262F482F69
:10046000F701608180E00E94A5012D2F4C2FF7013C
:10047000618181E00E94A501012F2D2F4C2FF701F2
:10048000628180E00E94C9012D2F4C2FF70163810A
:1004900081E00E94C9012D2F4C2FF701648182E079
:1004A0000E94C9012D2F4C2FF701658183E00E9426
:1004B000C9012D2F4C2FF701668184E00E94C901EC
:1004C0002D2F4C2FF701678185E00E94C9012D2F48
:1004D0004C2FF701608586E00E94C901212F4D2F26
:1004E0006C2FF70181850E9408022D2F4C2F6091FF
:1004F0007F3C83E00E94A5012D2F4C2F6091513C41
:1005000082E00E94A5012D2F4C2F6091863C86E051
:100510000E94A5012D2F4C2F6091853C87E00E9401
:10052000A501DF91CF911F910F91FF90EF9008955A
:10053000DF92EF92FF920F931F93CF93DF93F82EEA
:10054000D62EE42E81E0F81208C010914C3C112305
:1005500009F459C004E0C1E051C082E0F81208C0BB
:1005600010917A3C112309F44EC008E0C5E046C062
:1005700083E0F81208C01091523C112309F443C0E3
:100580000CE0C9E03BC084E0F81207C01091873C42
:100590001123C9F104E1CDE031C085E0F81233C088
:1005A0001091813C112379F10CE1C5E127C081E074
:1005B000E81619F0EE24E39403C06894EE24E1F801
:1005C0000C1770F0D1E0812F8D2331F04E2D6D2D61
:1005D0006D238C2F0E941D02DD0FCF5F0C1798F743
:1005E00081E0F81210C080914C3C84FF0CC06D2D4E
:1005F00060714E2D80E00E941D0205C00E944613CE
:100600008111D5CFDFCFDF91CF911F910F91FF9057
:10061000EF90DF900895962F873018F40E94F6121D
:100620000895873021F4642F892F0E9402160895BF
:100630000F931F93CF93DF93C82F162F8730D1F4DA
:100640000E944613882331F080914D3C813051F057
:1006500001E00DC08091883C82FD08C000914D3CB6
:10066000023029F4D091A43C02E00EC001E0D09108
:10067000A33C0AC0873008F073C000914D3CE82FBE
:10068000F0E0E656F34CD2818D2F8F70813019F552
:100690008091883C82FF05C0D0919A3CD295DF7052
:1006A00052C083FF05C0D0919A3CD295DF704BC0F9
:1006B00080FF05C0D0919A3CD295DF7044C00E9463
:1006C0009B14882319F0D295DF703DC0D0919A3CDD
:1006D000D295DF7038C08230E9F48091883C82FF87
:1006E00006C0402F60E08C2F0E940B0339C083FFAF
:1006F00006C0402F60E08C2F0E940B0331C081FFA9
:1007000006C0402F60E08C2F0E940B0329C0D295B9
:10071000DF7019C08330A9F48091883C82FF06C045
:10072000402F60E08C2F0E940B031AC083FF06C08D
:10073000402F60E08C2F0E940B0312C0D295DF7017
:1007400002C0D295DF70D11730F4402F60E08C2FBB
:100750000E940B0305C0402F61E08C2F0E940B0309
:10076000DF91CF911F910F9108953F924F925F9229
:100770006F927F928F929F92AF92BF92CF92DF92B1
:10078000EF92FF920F931F93CF93DF930E944D132D
:100790008111D2C08091043C8F5F803108F4ABC0DE
:1007A0001092043CAAC087E0581205C0F30182856C
:1007B000813009F0C1C021960F5F1F4F7E01E818FC
:1007C000F9088A81982F9F719F3109F055C0807C6C
:1007D00061F4C50102C0880F991FEA94E2F7909175
:1007E000993C892B8093993C47C00E946F0D382E0D
:1007F0000E944613882321F0F2E03F128FC092C07E
:100800008A818823E4F4F2E03F120CC0C50102C0E3
:10081000880F991FEA94E2F79091993C892B809375
:10082000993C2AC0C50102C0880F991FEA94E2F7DB
:1008300080959091993C89238093993C1DC086FFB7
:100840001BC081E038120CC0C50102C0880F991F7F
:10085000EA94E2F79091993C892B8093993C0CC0E3
:10086000C50102C0880F991FEA94E2F78095909124
:10087000993C89238093993C8091993C842131F063
:100880006091043C852D0E9418032FC08091883C04
:1008900082FF06C06091043C852D0E94180325C08C
:1008A00081FF17C0F80182818F70823029F460E0E7
:1008B000852D0E94F61219C0833031F46091043CFA
:1008C000852D0E94180311C060E0852D0E94F6124C
:1008D0000CC0F7E05F1205C060E080E00E940216E5
:1008E0002BC060E0852D0E94F612440C539488E0E2
:1008F000581259CF21C08093043C0F2EFCE88F2E54
:10090000FCE39F2EF02D0AE91CE3E4014424439408
:10091000512CAA24A394B12C340150CF8A8188236E
:1009200044F474CF8A8188230CF47CCF86FD8CCF6D
:10093000A3CF86FD95CFA0CFDF91CF911F910F91CF
:10094000FF90EF90DF90CF90BF90AF909F908F90EF
:100950007F906F905F904F903F9008958091883C7A
:10096000881F8827881F08958091883C86FB8827E8
:1009700080F90895CF93DF93D82FC62F0E94AE043D
:10098000882351F08091793C8C9FC00111249923D8
:1009900014F481509F4FC92F8091003C8D1741F076
:1009A0008D2F0E94AB13D093003C8FEF80930B3CB4
:1009B000C093A63CC13039F41092A73C1092A63CDB
:1009C00080E00E947A148091553CC81718F4CC231B
:1009D00041F0C82F9091A73C981718F4C11180934B
:1009E000A73C80910B3C81114BC080910A3C811146
:1009F0004AC00E943F0FD81789F18091093C882393
:100A000049F09091983C91113EC080FF03C08E7FC9
:100A10008093093C9091A63C8091A73C981750F494
:100A20002091573C211106C0C093A73C8C2F0E94F7
:100A30007A1429C0891750F42091563C211106C020
:100A4000C093A73C8C2F0E947A141DC098131BC022
:100A5000C093A73C8C2F0E947A1415C08091093C4A
:100A600081608093093C80914F3C81110CC0809142
:100A7000573C811108C01092A73C0E947A1403C011
:100A800080E00E947A14DF91CF91089510920A3C81
:100A9000E62FEF70EE0F21F460E00E94BA04089593
:100AA000E23021F461E00E94BA04089564FDEF5F32
:100AB000F0E0E75AF34C60810E94BA040895109266
:100AC0000A3CE4E5FCE34181E5814E1780F5909115
:100AD000583CE91760F5603490F4E41BE69FF001A0
:100AE0001124FF230CF4FF960E2EEF2F000CEE1FA7
:100AF000FF0B000CEE1FFF1F642F6E0F2CC09E1B00
:100B000070E060547109969FA001979F500D1124C9
:100B1000552314F4415C5F4F042E452F000C441FF5
:100B2000550B000C441F551F6E2F640F14C02091ED
:100B3000583C421778F4241B269F9001112433233C
:100B400014F421583F4F220F232F221F330B642F01
:100B5000620F01C0660F0E94BA04089591E090935D
:100B60000A3C6091973C0E94BA04089580910B3C26
:100B7000882309F1815080930B3C8111F8C090913A
:100B8000A63C8091A73C981738F42091573C21113E
:100B900003C00E947A140895891738F42091563CB6
:100BA000211103C00E947A1408959813E0C0892F80
:100BB0000E947A14089580910D3C8F5F803119F066
:100BC00080930D3C089510920D3C90910C3C9F5FDA
:100BD00090930C3C80910A3C882329F18091A73C9A
:100BE0002091A63C821768F42091823C921708F469
:100BF000BEC08F5F8093A73C0E947A1410920C3C79
:100C00000895281768F42091823C921708F4AFC029
:100C100081508093A73C0E947A1410920C3C089556
:100C200010920C3C08950E943F0F9091003C891750
:100C300009F46DC08091093C80FF41C08091983CCF
:100C400081111FC08091563C811109C08091A63C42
:100C50008093A73C0E947A1410920C3C23C0909180
:100C60000C3C9817F8F08091A73C9091A63C89170E
:100C700000F58F5F8093A73C0E947A1410920C3C81
:100C800011C090910C3C981768F08091A73C90910E
:100C9000A63C891770F48F5F8093A73C0E947A145A
:100CA00010920C3C9091A73C8091A63C981708F4B8
:100CB0005EC08091093C8E7F8093093C08958091AD
:100CC000A73C9091A63C891778F42091563C9091CE
:100CD0000C3C921708F44BC08F5F8093A73C0E9496
:100CE0007A1410920C3C0895981770F42091573C98
:100CF00090910C3C9217D8F181508093A73C0E94B0
:100D00007A1410920C3C089510920C3C0895809136
:100D1000A73C882361F19091093C91609093093C34
:100D200090914F3C911118C09091573C911108C07F
:100D30001092A73C80E00E947A1410920C3C089517
:100D400020910C3C291798F081508093A73C0E9479
:100D50007A1410920C3C089520910C3C291738F01D
:100D600081508093A73C0E947A1410920C3C089505
:100D70008091083C8170089580915C3C882309F43F
:100D80004CC00E943F0F9091003C891739F010929F
:100D9000063C1092073C1092053C08952091063CB9
:100DA0003091073C2F5F3F4F283E93E0390728F4EE
:100DB0002093063C3093073C08951092063C109215
:100DC000073C9091053C9F5F9093053C20915C3CD3
:100DD000921718F19091083C90FF04C09E7F909369
:100DE000083C03C091609093083C813021F482E07C
:100DF0008093003C05C0823019F481E08093003C70
:100E00008091003C0E94AB138FEF80930B3C1092BB
:100E1000063C1092073C1092053C089590E08050EB
:100E200090400E941E1708958F3F910509F018F415
:100E30000E940E07089580E00895E2E0F0E19081BD
:100E400091FDFDCF90E0805090400E9426170895BC
:100E500069E083E40E941D0762E184E40E941D07AB
:100E60006BE185E40E941D0764E286E40E941D0791
:100E70006EE287E40E941D0767E388E40E941D0775
:100E800060E489E40E941D0769E48AE40E941D076A
:100E900062E58BE40E941D076BE58CE40E941D0750
:100EA00064E68DE40E941D076DE68EE40E941D0736
:100EB00066E78FE40E941D0760E880E50E941D0739
:100EC00069E881E50E941D0762E982E50E941D072D
:100ED0006BE983E50E941D0764EA84E50E941D0713
:100EE0006DEA85E50E941D0766EB86E50E941D07F9
:100EF0006FEB87E50E941D0768EC88E50E941D07DF
:100F000061ED89E50E941D076BED8AE50E941D07D2
:100F100064EE8BE50E941D076DEE8CE50E941D07B7
:100F200066EF8DE50E941D076FEF8EE50E941D079D
:100F300008958530C0F4811106C080914C3C8061D9
:100F400080934C3C0895815021E030E0A90102C01B
:100F5000440F551F8A95E2F7CA0190914C3C892BAA
:100F600080934C3C0895893080F4855021E030E036
:100F7000A90102C0440F551F8A95E2F7CA0190915A
:100F80007A3C892B80937A3C08958D3080F4895087
:100F900021E030E0A90102C0440F551F8A95E2F715
:100FA000CA019091523C892B8093523C089585311F
:100FB00080F48D5021E030E0A90102C0440F551F9C
:100FC0008A95E2F7CA019091873C892B8093873CF0
:100FD00008958D3178F4845121E030E0A90102C0F8
:100FE000440F551F8A95E2F7CA019091813C892BE5
:100FF0008093813C0895EF92FF920F931F93CF93BC
:10100000DF93E2E0F0E1808181FDFDCF80E00E948E
:101010000E078F3F19F40E94E108CCC004E51CE3E1
:10102000C0E0CF5F8C2F0E940E07F80181938F01E3
:10103000C630B9F781E10E940E078093833C82E1BC
:101040000E940E0780938A3C83E10E940E078093E2
:10105000893C8BE10E940E078093A53C8DE10E94A4
:101060000E0780937B3C0DE51CE30F2EF9E7EF2E76
:10107000FCE3FF2EF02DC3E48C2F0E940E07F80135
:1010800081938F01CF5FEE15FF05B1F70F2EFCE8BE
:10109000EF2EFCE3FF2EF02D0AE91CE3C1E28C2FBA
:1010A0000E940E07F70181937F018F710E949907BB
:1010B0008FE48C0F0E940E07F80181938F01CF5FA0
:1010C000CC3269F78CE20E940E07C82F80937F3CD8
:1010D0008DE20E940E078093513C8C2F8F710E94ED
:1010E00099078091513C8F710E94990783E80E9473
:1010F0000E078093793C8FE20E940E0780935B3C41
:1011000082E30E940E0780934E3C83E30E940E0709
:101110008093863C8F710E94990784E30E940E079A
:1011200080935C3C85E30E940E078093983C86E3A5
:101130000E940E0780934F3C87E30E940E07CCE786
:10114000DCE3888388E30E940E07898389E30E9499
:101150000E078A838AE80E940E078093843C8AE304
:101160000E940E078093973C8BE30E940E078093AA
:10117000823C8CE30E940E078093503C8DE30E94DA
:101180000E0780938B3C8EE30E940E078093803C79
:101190008FE30E940E078093853C8F710E94990710
:1011A00080E40E940E0780935A3C84EF0E940E0751
:1011B0008093533CDF91CF911F910F91FF90EF905F
:1011C000089563E081E00E941D0760E082E00E94D4
:1011D0001D0760E083E00E941D0760E084E00E943C
:1011E0001D076FEF85E00E941D076FE786E00E94F4
:1011F0001D0761E087E00E941D076DE088E00E9406
:101200001D0760EC81E10E941D0760E082E10E9401
:101210001D0760E083E10E941D0763E08BE10E94EF
:101220001D076EE08DE10E941D0764E081E20E94CF
:101230001D0767E082E20E941D0760E483E20E94CE
:101240001D0761E884E20E941D0761E885E20E94B3
:101250001D0760E886E20E941D0761E487E20E94A4
:101260001D0761E488E20E941D0763E089E20E9495
:101270001D0760E08AE20E941D0760E08BE20E9489
:101280001D076EE38CE20E941D0766E08DE20E945E
:101290001D076FE48FE20E941D0769EC82E30E9444
:1012A0001D0765E083E30E941D0760E084E30E9460
:1012B0001D076AE085E30E941D0763E086E30E9444
:1012C0001D076EE187E30E941D076AE088E30E9424
:1012D0001D0768E289E30E941D076FE78AE30E9409
:1012E0001D0763E08BE30E941D0763E88CE30E9407
:1012F0001D076FE58DE30E941D0760EC8EE30E94E1
:101300001D0767E08FE30E941D0761E080E40E94F3
:101310001D0760E480E70E941D0761EF82E70E94DD
:101320001D0763EF83E70E941D0762EF84E70E94B9
:101330001D0761EF85E70E941D0763EF86E70E94A6
:101340001D0762EF87E70E941D0760EF88E70E9494
:101350001D0761EF89E70E941D0762EF8AE70E947F
:101360001D076FE383E80E941D0764E68AE80E9478
:101370001D0760E084EF0E941D070E94280760E0BF
:1013800080E00E941D070E94FB0708950F931F93A2
:10139000CF93DF93EC01162F8F3F910511F008F0EA
:1013A00099C08F50823048F08FE00E940E07082FBE
:1013B00080E10E940E0708138DC0CE019927FC0121
:1013C0003197E43FF10508F081C0E25CFF4F0C94D7
:1013D0001817FC01ED5AF34C108378C01D3019F03A
:1013E000183009F077C06FEF80E00E941D070E945F
:1013F000E10870C01093833C69C010938A3C66C0BA
:101400001093893C63C01093A53C60C080915A3C06
:1014100080FD186010937B3C59C0FC01E559F34CEA
:101420001083812F8F710E94990750C010937F3CC9
:10143000812F8F710E94990749C01093513C812FD1
:101440008F710E94990742C010935B3C3FC010937C
:101450004E3C3CC01093863C39C010935C3C36C077
:101460001093983C33C010934F3C30C0FC01EB5BB1
:10147000F34C10832BC01093973C28C01093823CF0
:1014800025C01093503C22C010938B3C1FC010937A
:10149000803C1CC01093853C812F8F710E9499075E
:1014A00015C010935A3C12C0FC01E65EF34C108349
:1014B0000DC0FC01E65DF34C108308C01093793C2D
:1014C00005C01093843C02C01093533C612F8C2FB5
:1014D0000E941D07DF91CF911F910F910895FF92F8
:1014E0000F931F93CF93DF938C01F62E862F877077
:1014F000C1E0D0E002C0CC0FDD1F8A95E2F7C80141
:101500000E941407F3FE03C06C2F682B03C0C09524
:101510006C2F6823C8010E94C609DF91CF911F91EB
:101520000F91FF90089581E080930F3C8093103CD1
:101530000E94501381E00E94D8130895CF93FB01BD
:1015400090818091AA3C981376C0C1818091AB3C78
:10155000C81371C022818091AC3C28136CC092FDED
:101560002AC020910E3C30E021503109220F331F58
:10157000220F331F892F8370280F311D2F5F3F4F9C
:1015800093FF0CC06C2FC9010E94C6098091A83C32
:1015900084608093A83C0E94930A59C0C9010E94AC
:1015A0001407C81354C08091A83C82608093A83C63
:1015B0000E94930A4CC0892F8770853061F018F41F
:1015C0008430C1F044C0863019F0873081F03FC0CC
:1015D00027E030E011C08091A83C80FD38C0C09366
:1015E0000E3C81608093A83C0E94930A30C028E0A2
:1015F00030E002C02DE130E093FF0EC06C2FC90136
:101600000E94C6098091A83C82FD21C0846080931D
:10161000A83C0E94930A1BC0C9010E941407C8136A
:1016200016C08091A83C81FD12C082608093A83CC6
:101630000E94930A0CC0AAEABCE39C938181119694
:101640008C931197828112968C931092103CCF91BB
:101650000895CF93FB0190818091AA3C98132FC0ED
:1016600021818091AB3C28132AC0C2818091AC3C7F
:10167000C81325C033818091AD3C381320C08091C0
:10168000103C81112CC0892F837030E0280F311D50
:101690002F5F3F4F9C70943019F09C3049F01FC071
:1016A000C9010E941407C8131AC00E94930A17C0E8
:1016B0006C2FC9010E94C6090E94930A10C0AAEAB1
:1016C000BCE39C93818111968C9311978281129631
:1016D0008C931297838113968C931092103CCF9128
:1016E000089580910F3C882389F08F5F8D3018F426
:1016F00080930F3C089510920F3C81E08093103C42
:1017000082E00E94501382E00E94D81308958091D5
:10171000143C882329F081508093143C0E94710B63
:1017200008958F929F92BF92CF92DF92EF92FF9295
:101730000F931F93CF93DF93FB018330C9F4808114
:1017400081110AC08181811186C18281811183C189
:101750008EE18093143C85C18F3F51F481818111CA
:1017600072C182818F3F09F06EC11092143C79C121
:101770008091893C882361F0908199230CF417C1F2
:101780002181207E203E09F418C18093133C04C0BF
:101790008091133C882341F09081992309F461C121
:1017A0009F7798135EC115C19081992354F0809161
:1017B0007B3C85FD08C18091543C891352C181E076
:1017C00009C1892F807C803C09F04BC180917B3C12
:1017D00085FF47C18091833C891343C191818091EA
:1017E0008A3C98133EC182E0F5C00196E80FF91FCC
:1017F000C081CF778091023CC81332C08FEF8093B5
:10180000023C8081882364F480917B3C80FF04C08B
:1018100082E08093123C0FC081E08093123C0BC0A9
:1018200080917B3C80FF04C081E08093123C03C028
:1018300082E08093123C0E94B806882359F0809180
:10184000123C813021F482E08093123C03C081E09D
:101850008093123C6C2F8091123C0E945F0501C165
:10186000C093023CFEC08091013C861331C09FEFC3
:101870009093013C85FF0CC080917B3C80FF04C0AD
:1018800082E08093123C0FC081E08093123C0BC039
:1018900080917B3C80FF04C081E08093123C03C0B8
:1018A00082E08093123C0E94B806882359F0809110
:1018B000123C813021F482E08093123C03C081E02D
:1018C0008093123C68818091123C0E944605C9C0F9
:1018D0006093013CC6C04091123C81E00E94980296
:1018E000C0C064FF06C04091123C82E00E94980292
:1018F000B8C04091123C83E00E949802B2C06E3D95
:1019000049F4E80FF91F4091123C618184E00E9484
:101910009802A7C06F3D09F0A4C0E80FF91F4091DD
:10192000123C618185E00E9498029BC0D4017D91A8
:101930004D01DA016D91AD01761779F06881D90119
:101940006C93D6016C91D90111966C93D8016C916E
:10195000D90112966C93B092113C8E149F0431F70A
:101960001092113C288123FF7CC022FF10C0E80F99
:10197000F91F8181237030E0322F2227A901480FFF
:10198000511DCA01628101960E94C6096AC0E80F12
:10199000F91F8181237030E0322F2227D901A80F4F
:1019A000B11DCD01628101960E946F0A5AC08091DB
:1019B000133C882309F405CFEFCE8091133C882394
:1019C00009F4F5CEE9CE892F807C803C09F049C02E
:1019D00001CF81E090E0EF01C80FD91F6881262F69
:1019E000207E203809F477CF50F4203409F43BCF1F
:1019F000203609F438CF203209F4F7CE32C0203C2B
:101A000009F47DCF203E19F0203A59F56ACF0F2E08
:101A1000F2EB8F2EFCE39F2EF02DAE010F2EF5EB97
:101A2000EF2EFCE3FF2EF02D94018F01080F191FFC
:101A30006801BFEFCB1ADB0A0E5F1F4FBB24B394C4
:101A400075CF9081B4CF8091893C882309F4A0CED2
:101A5000F8CF908195CE8091893C882309F498CE67
:101A6000F8CFDF91CF911F910F91FF90EF90DF9012
:101A7000CF90BF909F908F900895823079F1909190
:101A8000143C992349F1FB0190819077903721F51F
:101A90009EE19093143C833019F08430C9F008958E
:101AA000FB018081811107C0818181110DC082817C
:101AB00081110AC008958F3F39F4FB0181818111A2
:101AC00003C082818F3F51F083E00E949E0A0895F7
:101AD00084E00E94290B08950E94910B0895809143
:101AE000123C089581E09091143C911101C080E076
:101AF0000895803430F4E82FF0E0EE57FD4F8491E4
:101B0000089580E00895CF93DF93C62F880F880F44
:101B1000962F9295969596959370890F0E94790DC0
:101B2000D82F8C2F8F730E94790DC82F8D2F0E9474
:101B3000DA168C2F0E94DA16DF91CF9108958091EA
:101B4000533C8130B9F40E94AA14BC017695679584
:101B50009091153C911108C0672F81E00E94830D80
:101B600081E08093153C089582E00E94830D1092DD
:101B7000153C08958230A9F40E94FE152091153C71
:101B8000211108C0692F81E00E94830D81E08093BC
:101B9000153C0895682F82E00E94830D1092153C39
:101BA000089580917B3C83FF30C09091893C9111D6
:101BB0002CC085FD14C08091153C811108C060E0E7
:101BC00081E00E94830D81E08093153C089560912F
:101BD000543C82E00E94830D1092153C0895809140
:101BE000153C81110BC06091833C6F73605881E09C
:101BF0000E94830D81E08093153C089560918A3C9A
:101C000082E00E94830D1092153C0895CF93DF93DC
:101C1000CDB7DEB7E197CDBFDEBF0E948C0F0E942B
:101C20005F160E9466130E94DE120E9402110E943B
:101C3000C7160E94BD0E0E94FB07789400E010E0DA
:101C4000E12CF12CBE016F5F7F4FCE01C1960E9447
:101C50001D1189A9882331F0BE016F5F7F4F0E945B
:101C60003D0D19AA0E94720D882339F00E94791641
:101C7000882341F30E94870BE5CF0E94C01081307A
:101C800029F40E94D10E0E94080F06C0823021F470
:101C90000E94D10E0E94080F0E94D31281110E944F
:101CA0009F0D0E94841681110E9461150E94791671
:101CB000882319F0112379F002C0112319F2812F22
:101CC00090E0FC013197E830F10508F04CC0EE5C83
:101CD000FE4F0C9418170E94EA100E94480F11E062
:101CE00048C00E94BC0645C00E94B50342C00E9485
:101CF000B6053FC00E94870B3CC080917B3C82FFB1
:101D000038C00E94F8108823A1F10E94890F0E9418
:101D1000AE050E94890F0E9480012BC080915B3C20
:101D200088233CF5F39499E09F1510F4E394F12C8B
:101D30004E2D50E0282F2F7330E042175307CCF080
:101D400086FF05C08BE00E944F14E12C12C08CE08E
:101D50000E944F14E12C0DC00F5F0A3061F40E9405
:101D60009E1400E008C01F5F193008F46BCF10E02C
:101D700069CF1F5F67CF10E065CFA0E0B4E080E2DD
:101D800012968C931297E0E4F4E084E082835596F7
:101D90008C915597886055968C9382898860828B48
:101DA00008958091080485FF06C080911C3C8F5FD8
:101DB00080931C3C05C080911B3C8F5F80931B3C33
:101DC0008091183C8F5F8A3F18F48093183C0895E7
:101DD0001092183C8091A53C80FF10C080911B3C64
:101DE0008A3030F48091163C81608093163C0BC0A1
:101DF0008091163C8E7F8093163C05C08091163CE6
:101E00008E7F8093163C10921C3C10921B3C0895D0
:101E10008091480482FF06C080911A3C8F5F8093B6
:101E20001A3C05C08091193C8F5F8093193C8091CA
:101E3000173C8F5F8A3F18F48093173C08951092E7
:101E4000173C8091A53C81FF10C08091193C8A30DD
:101E500030F48091163C82608093163C0BC08091D8
:101E6000163C8D7F8093163C05C08091163C8D7F7B
:101E70008093163C10921A3C1092193C08950E94CF
:101E8000B404811103C08091163C089580E0089548
:101E90008091080482FF13C08091080484FD21C052
:101EA00080911D3C882319F0815080931D3C8091C6
:101EB0001E3C8E31B0F48E5F80931E3C12C0809128
:101EC000080484FF0EC080911E3C8823E9F08150F5
:101ED00080931E3C80911D3C8E3118F48E5F809360
:101EE0001D3C80911E3C803120F081E080931F3C9E
:101EF000089580911D3C803120F082E080931F3C4A
:101F0000089510921F3C089580911D3C8E3130F34E
:101F1000F0CF80911F3C089588ED84BF81E08093CD
:101F20006100E0E8F0E084E0808311820895909100
:101F3000203C80910804892782FF0EC0809108040C
:101F400082FF05C094609093203C81E006C09B7F97
:101F50009093203C81E001C080E02091203C909152
:101F60000804922794FF0CC082609091080494FFAB
:101F700004C020612093203C08952F7E2093203CB4
:101F8000089580FF68C09091203C92FF50C09091CE
:101F9000363C90FD47C091609093363C40914A0A90
:101FA00050914B0A2091343C3091353C2417350731
:101FB00060F440914A0A50914B0ABA01621B730BBC
:101FC0006093303C7093313C0CC040914A0A509170
:101FD0004B0A5053BA01621B730B6093303C7093F1
:101FE000313C9091263C91609093263C20914A0A86
:101FF00030914B0A29333F4C58F020914A0A3091D6
:102000004B0A28533F4C2093B53C3093B63C0AC052
:1020100020914A0A30914B0A28533F4F2093B53CF8
:102020003093B63C10922D3C1092253C14C09091F8
:10203000363C90FF10C09E7F9093363C20914A0A18
:1020400030914B0A2093343C3093353C9091263CA0
:102050009E7F9093263C837009F466C08091203C5B
:1020600084FF4EC08091363C81FD45C082608093E4
:10207000363C80914A0A90914B0A2091323C309133
:10208000333C2817390758F480914A0A90914B0A3B
:10209000821B930B80932E3C90932F3C0BC080911E
:1020A0004A0A90914B0A9053821B930B80932E3CCB
:1020B00090932F3C8091263C82608093263C8091B7
:1020C0004A0A90914B0A89339F4C58F080914A0AF2
:1020D00090914B0A88539F4C8093D93C9093DA3C63
:1020E0000AC080914A0A90914B0A88539F4F80936F
:1020F000D93C9093DA3C10922D3C1092253C0895E7
:102100008091363C81FF10C08D7F8093363C80915A
:102110004A0A90914B0A8093323C9093333C8091D1
:10212000263C8D7F8093263C08951F920F920FB618
:102130000F9211242F933F934F935F936F937F934D
:102140008F939F93AF93BF93EF93FF93E0E0F4E0FF
:102150008185846181870E94970F0E94C10FFF9142
:10216000EF91BF91AF919F918F917F916F915F910F
:102170004F913F912F910F900FBE0F901F90189588
:102180009091263C90FF10C040914A0A50914B0A12
:102190002091B53C3091B63C2417350728F49E7F3A
:1021A0009093263C81E00895892F827091FF11C0A1
:1021B00040914A0A50914B0A2091D93C3091DA3C27
:1021C0002417350728F49D7F9093263C82E00895DC
:1021D00080E008958091273C9091283C8C3221E04A
:1021E000920728F401968093273C9093283C089509
:1021F00081E02091273C3091283C2C32314008F47A
:1022000080E00895E0E0F4E084E1828381E0828B65
:10221000848BE0E4FAE083E080838FEF9FEC848797
:102220009587089583588B3330F0635881E06B3382
:1022300018F080E0089581E00895EF92FF920F93E7
:102240001F93CF93DF938C017B0180917B3C982F70
:10225000987083FF88C180912D3C8823F1F12091F3
:10226000080422FD04C02091080424FF09C0109234
:102270002D3C1092253C1092233C1092243C62C1CC
:1022800020914A0A30914B0A40912B3C50912C3CB2
:102290004217530738F420914A0A30914B0A241B05
:1022A000350B07C020914A0A30914B0A3053241B4A
:1022B000350B813009F046C14091213C5091223CC0
:1022C0002417350708F43EC18091293C8160809332
:1022D000293C82E080932D3C35C18091253C8823A8
:1022E00009F43FC08091080482FD04C08091080475
:1022F00084FF09C010922D3C1092253C1092233C83
:102300001092243C1FC120914A0A30914B0A4091FF
:10231000233C5091243C4217530738F420914A0A39
:1023200030914B0A241B350BF8C020914A0A30919A
:102330004B0A3053241B350BF0C081E080932D3CB9
:1023400080914A0A90914B0A80932B3C90932C3CAD
:102350008CE390E08093213C9093223C1092253CAA
:102360001BC18091080482FDEDC08091080484FDAA
:10237000E9C020914A0A30914B0A2093233C3093C4
:10238000243C81E08093253CDDC0C091303CD0915D
:10239000313C209749F460912E3C70912F3C61159F
:1023A000710509F0E7C0F8C060912E3C1092303CF6
:1023B0001092313C10922E3C10922F3C8C2F0E9498
:1023C0001211811105C016C080912D3C8111E4C00D
:1023D00081E080932D3C80914A0A90914B0A809332
:1023E0002B3C90932C3C8EE190E08093213C909389
:1023F000223CD2C0CE01895C9109893F910590F4BD
:1024000081E08093DB3C80912A3C8F5F80932A3C63
:10241000E091DC3CF0E0E754F34C8081880F8F5F63
:10242000808322C0C15ED140CF36D14C08F0B4C009
:102430001092DB3C80912A3C8E3060F081E08093EA
:10244000FD3C1092B93C1092DC3C1092FE3C109284
:102450002A3CA2C010922A3CE091DC3CF0E0E75418
:10246000F34C8081880F80838091DC3C803208F0BF
:1024700093C08091FD3C811123C08091DB3C813071
:10248000F9F48091FE3C811118C0F80110829091FE
:10249000DC3C9923B9F090E0FC01E754F34C208137
:1024A000F701E80FF91F2083F80180818F5F808397
:1024B0009091DC3C891778F305C0F801108202C0C6
:1024C000F80110828091FD3C8F5F8093FD3C893044
:1024D00009F062C0E091DC3CE11107C08091B93C99
:1024E0008F3F19F48093DC3C57C0AE2FB0E0A75467
:1024F000B34C9091FE3C8C9189278093FE3CEF5F1A
:10250000E093DC3CF0E0E754F34C10821092FD3C89
:102510001092273C1092283C3FC02338310508F424
:1025200034CF0BCF60912E3C1092303C1092313C56
:1025300010922E3C10922F3C8C2F0E941211811170
:1025400043CF58CFC091303CD091313C209709F413
:1025500022CFE8CF1092303C1092313C10922E3CAA
:1025600010922F3C47CFC091303CD091313C209706
:1025700089F711CF1092303C1092313C10922E3CD2
:1025800010922F3C992341F080E00E94121181119A
:102590001BCFC0E0D0E046CFDF91CF911F910F91CC
:1025A000FF90EF9008959091293C892F817090FFC2
:1025B00004C09E7F9093293C81E00895E0E0F4E020
:1025C000818188688183E0E2F4E08181886381838E
:1025D000A0E4B4E011968C911197836011968C93CE
:1025E00081818D7F818388E0818B089590E08730A1
:1025F000910508F04AC0FC01E65CFE4F0C941817E8
:10260000662321F088E080930504089588E0809394
:1026100006040895662321F082E08093450408951E
:1026200082E0809346040895662321F080E8809339
:102630000504089580E8809306040895662321F038
:1026400088E080932504089588E080932604089507
:10265000662321F080E280932504089580E2809330
:1026600026040895662321F081E0809345040895AF
:1026700081E0809346040895662321F080E18093F1
:102680002504089580E1809326040895809128040C
:102690008695817091E0892708958091373C08954F
:1026A000CF93813019F48093373C0CC01092373CA3
:1026B00009C06091373C8C2F0E94F612CF5FC73063
:1026C000C1F702C0C0E0F5CFCF910895E0E0F4E09B
:1026D000828182608283818180648183A0E2B4E010
:1026E00011968C911197816011968C93A0E4B4E0BF
:1026F00011968C911197886011968C931197868111
:102700008064868316968C911697886016968C93B3
:10271000A0E0BAE091E09C9383E111968C9311972D
:102720002FEF30E096962D933C93979798961D92B5
:102730001C92999785818064858380E38093A000B3
:10274000E0E0F6E085E08083918384E4828380E2A8
:102750008383148208959091483C911128C09091F0
:10276000963C913021F1813059F4E0E4F4E0868127
:1027700088608683E0E0F4E0858180648583089545
:10278000823059F4E0E0F4E0868180648683E0E4FE
:10279000F4E08581886085830895E0E0F4E0868137
:1027A00080648683E0E4F4E086818860868308950F
:1027B000813079F483E08093010A88E080934604B5
:1027C00080E48093050481E0809325048093483C55
:1027D000089588E08093460480E48093060481E0B5
:1027E0008093260483E18093010A1092483C089567
:1027F0009091963C9130B1F0813019F48093000AA9
:102800000895823021F483E08093000A08958C308B
:1028100021F48DE08093000A08958B3019F48FE045
:102820008093000A08951F920F920FB60F92112401
:102830002F933F934F935F936F937F938F939F93C8
:10284000AF93BF93EF93FF93E0E0FAE0838581605D
:1028500083878091473C882389F0813051F40E941E
:10286000F8131092473CE0E0FAE082858E7F828781
:1028700005C00E94F81381E08093473CFF91EF91DF
:10288000BF91AF919F918F917F916F915F914F9188
:102890003F912F910F900FBE0F901F901895909120
:1028A000483C91110BC09091963C913039F0809347
:1028B000473CE0E0FAE0828581608287089590914C
:1028C000413C6091803C961798F420918B3C30E01D
:1028D0004FEF50E0421B530B949FF001959FF00D7A
:1028E000112470E0CF010E940417862F820F0895F3
:1028F0008FEF0895CF939091963C913019F4809387
:10290000413C17C09091413C891799F0C82F8093A2
:10291000433C8093413C0E945F14682F8093443C69
:102920002FEFC29FC001112470E00E94F016609347
:10293000403CCF9108958091413C08958091503C56
:1029400088233CF480913F3C811103C081E0809357
:102950003F3C089580913C3C90913D3C08958F927E
:102960009F92AF92BF92CF92DF92EF92FF920F931E
:102970001F93CF93DF934091433C411103C01092CA
:10298000423C92C0ECE7FCE3A080B12CC180D12C8A
:10299000E280F12C20913C3C30913D3C36952795CE
:1029A0005FEF529FC001539F900D11246091793CBD
:1029B00070E00E94F016042F10E0862F972F8F3FB3
:1029C000910519F014F08FEF90E0E801C81BD90BC6
:1029D0002AE030E0CE01B9010E94041780913A3C10
:1029E00090913B3CFB01E80FF91FE0933A3CF093D8
:1029F0003B3C8091383C9091393CBE01681B790B7F
:102A0000CB0164E670E00E9404174B01C093383C90
:102A1000D093393CAC9EC001AD9E900DBC9E900DF4
:102A20001124B9010E940417EB01CE9EC001CF9E74
:102A3000900DDE9E900D1124B9010E940417FE0135
:102A4000E60FF71FE89CC001E99C900DF89C900DE3
:102A50001124B9010E9404176E0F7F1F6F3F71058B
:102A600029F024F08FEF8093423C08C0772324F4B0
:102A70001092423C80E010C06093423C8091423C06
:102A8000481750F490E0801B910B813A910564F057
:102A900040564093423C08C0081B1109013A1105F9
:102AA0001CF0405A4093423CDF91CF911F910F910F
:102AB000FF90EF90DF90CF90BF90AF909F908F905E
:102AC00008958091963C813009F497C08091483CEC
:102AD000811193C080913F3C8823C1F18436D8F4A2
:102AE000813049F4E0E0FAE080A591A580933E3C76
:102AF00010A611A60AC08A3041F4E0E0F6E081E0B9
:102B00008683808784E680933F3C80913F3C8F5F43
:102B100080933F3C0895853609F06FC08091080688
:102B200080FD6BC0809110069091110680933C3C13
:102B300090933D3C10923F3C80913E3C90E08093CE
:102B4000280A9093290A0E94AF1408958091503C5E
:102B5000982F9F7791F4882344F48091423C90E031
:102B60008093280A9093290A08958091413C90E02F
:102B70008093280A9093290A0895933079F48091DC
:102B8000463C8F3F19F41092463C08951092463C03
:102B90008091453C8F5F8093453C0DC081FF06C00E
:102BA0008091453C8E5F8093453C05C08091453CBB
:102BB0008F5F8093453C9091443C8091453C9817B1
:102BC00048F4E0E0FAE010A611A68EEF90E080A3B2
:102BD00091A308958091503C882344F48091423C15
:102BE00090E08093280A9093290A08958091403CB0
:102BF00090E08093280A9093290A08958091423C9E
:102C000090E008959091963C913081F593E09093F7
:102C1000010A613059F4E0E4F4E09681986096830B
:102C2000E0E0F4E095819064958317C0623059F438
:102C3000E0E0F4E0968190649683E0E4F4E095812E
:102C4000986095830AC0E0E0F4E0968190649683F2
:102C5000E0E4F4E0968198609683882321F081E097
:102C600080932504089581E08093260408951F929F
:102C70000F920FB60F9211248F938091493C81607F
:102C80008093493C81E0809353018F910F900FBE58
:102C90000F901F9018951F920F920FB60F9211244C
:102CA0008F9383E0809343018091493C82608093BD
:102CB000493C8F910F900FBE0F901F901895E0E444
:102CC000F1E081818111FDCFE0E4F1E01486158609
:102CD00081E090E082879387178281E880838289F0
:102CE0008160828B81E2808B828183608283789491
:102CF00008959091493C892F817090FF04C09E7F78
:102D00009093493C81E008959091493C892F8270CD
:102D100091FF04C09D7F9093493C81E008951F92EC
:102D20000F920FB60F9211248F939F93AF93BF937F
:102D3000EF93FF93E0E0F8E0848180628483F8946D
:102D400080914B3CA82FB0E0A050B34C9C91928353
:102D50008F5F803318F480934B3C02C010924B3C41
:102D600090914B3C80914A3C981305C0E0E0F8E01C
:102D700085818F7D85837894FF91EF91BF91AF918D
:102D80009F918F910F900FBE0F901F901895E0E2CA
:102D9000F4E0818184608183858184608583E0E0C3
:102DA000F8E080EA90E08087918780E4868383E082
:102DB0008783089590914A3CE92FF0E0E050F34C6E
:102DC00080839F5F903318F490934A3C02C0109226
:102DD0004A3CE0E0F8E0858180628583789408953C
:102DE000AA1BBB1B51E107C0AA1FBB1FA617B70731
:102DF00010F0A61BB70B881F991F5A95A9F780954D
:102E00009095BC01CD01089597FB072E16F4009410
:102E100007D077FD09D00E94F01607FC05D03EF4DC
:102E2000909581959F4F0895709561957F4F089576
:102E3000EE0FFF1F0590F491E02D099403D08081DF
:102E400099270895FC01E050FC4E0895262F0E941A
:102E500022170080021619F00E943217019701977D
:102E60000895262FAF93BF93E0E0F0E1328131FD6A
:102E7000FDCFDC01A050BC4E2C932DE924BF23E0F4
:0E2E800020830196BF91AF910895F894FFCF83
:042E8E00FFFFFF0043
:00000001FF
