:100000000C9468010C9485010C9485010C94CE121B
:100010000C9485010C9485010C9413180C94FF1713
:100020000C94DB150C9485010C9485010C948501CE
:100030000C9485010C9485010C9485010C94850128
:100040000C9485010C9485010C9485010C94850118
:100050000C9485010C9485010C9485010C94850108
:100060000C9485010C9485010C9485010C948501F8
:100070000C9457180C9485010C948501080C080CFD
:10008000080C080C080C080C8C0C0D0C880C880C47
:10009000880C880C880C880C880C880C190C1C0C9B
:1000A0001F0C880C880C880C880C880C880C880C19
:1000B000220C880C250C880C880C880C2C0C2C0C21
:1000C0002C0C2C0C2C0C2C0C2C0C2C0C2C0C2C0C70
:1000D0002C0C350C3C0C880C430C880C880C460C02
:1000E000490C4C0C4F0C520C550C550C550C5A0C21
:1000F0005D0C600C630C660C690C700C880C880C31
:10010000730C730C730C730C730C730C730C730CF7
:10011000730C730C730C730C730C730C730C730CE7
:10012000730C730C730C730C730C730C730C730CD7
:10013000730C730C730C730C880C880C880C880C73
:10014000880C880C880C880C880C880C880C880C0F
:10015000880C880C880C880C880C780C780C780C2F
:10016000780C780C780C780C780C780C780C780C6F
:10017000880C880C880C880C880C880C880C880CDF
:100180007D0C880C880C880C880C880C880C800CE2
:10019000880C830C880C880C880C880C880C880CC4
:1001A000880C880C880C880C880C880C880C880CAF
:1001B000880C880C880C880C880C880C880C880C9F
:1001C000880C880C880C880C880C880C880C880C8F
:1001D000880C880C880C880C880C880C880C880C7F
:1001E000880C880C880C880C880C880C880C880C6F
:1001F000880C880C880C880C880C880C880C880C5F
:10020000880C880C880C880C880C880C880C880C4E
:10021000880C880C880C880C880C880C880C880C3E
:10022000880C880C880C880C880C880C880C880C2E
:10023000880C880C880C880C880C880C880C880C1E
:10024000880C880C880C880C880C880C880C880C0E
:10025000880C880C880C880C880C880C880C880CFE
:10026000880C860CC810CC10CF10D210D510D51029
:10027000D510D510D510D510D510D510DA10DD1049
:10028000EE10C814D214DC14E614F014FA14041599
:10029000ACAAA9A5A3A69C9A999593968E8D8BB18D
:1002A000B2B4B874726C6A696563665C5A59555326
:1002B000564E4D4B4771E8E4E2D1C9C5D8D4D2C9F6
:1002C000C6CC78171B1D1E2E363A272B2D353933F9
:1002D00011241FBECFEFCDBFDFE3DEBF1CE3A0E0E4
:1002E000BCE3EEE1F2E302C005900D92A430B10749
:1002F000D9F72DE3A4E0BCE301C01D92A035B207FD
:10030000E1F70E9458100C940D190C9400000F9303
:100310001F93CF938091073C882309F442C08091BA
:10032000A63C8F5F8093A63C01E91CE3C0E0F80186
:1003300081918F01882369F09091A63C981728F449
:1003400061E08C2F0E94BE1404C060E08C2F0E94DC
:10035000BE14CF5FC73059F78091983C882309F1CC
:100360000E940E15882331F08091623C813049F063
:1003700061E00AC08091A83C82FD05C06091623CAA
:1003800003C062E001C061E09091983C8091A63C7E
:10039000891720F481E00E94CA1703C080E00E9400
:1003A000CA17CF911F910F9108950E9415158111C1
:1003B0001BC08091043C8F5F803178F01092043C28
:1003C0000EC080819181009719F0019680839183FE
:1003D0003296E217F307A9F708958093043CEFE4FF
:1003E000FCE321E63CE3EDCF08956091633CEEEA47
:1003F000FCE346EB5CE330E021E09191907C81F0FE
:10040000903431F4813079F4962F9223392B0BC03C
:10041000903849F4823039F4962F9223392B03C057
:10042000962F9223392B220FE417F50731F73093DB
:10043000053C08956F71461320C0222379F021E016
:1004400030E0A90102C0440F551F8A95E2F7CA01A6
:100450009091A83C892B8093A83C089521E030E03E
:10046000A90102C0440F551F8A95E2F7CA01809581
:100470009091A83C89238093A83C08950F93962FD0
:100480009F71491379C0607C29F491E0211113C058
:1004900090E011C0603439F40130E9F591E02111A8
:1004A0000AC090E008C06038B1F50230A1F591E0D3
:1004B000211101C090E0992371F1682F70E041E0B3
:1004C00050E0082E02C0440F551F0A94E2F79091A5
:1004D000053C942B9093053CE091063C2E2F30E098
:1004E00020953095D90102C0B595A7958A95E2F778
:1004F000A0FF42C0DB01AA0FBB1FA15BB34C81E090
:1005000090E08D939C93DB01AF56B34C1C924E2B25
:100510004093063C31C0682F70E021E030E0082EA7
:1005200002C0220F331F0A94E2F720959091053CF8
:1005300092239093053C3091063C432F50E0FA0102
:1005400002C0F595E7958A95E2F7E0FF15C0FB013B
:10055000EE0FFF1FE15BF34C81E090E0808391831D
:10056000FB01EF56F34C10828091073C822380936D
:10057000073C23232093063C0F9108959091B63CAD
:10058000913099F58F71681330C04423A9F08091A0
:10059000053C80688093053C8091063C88232CF1C3
:1005A00021E030E020935D3C30935E3C1092983C1B
:1005B00080688093063C08958091053C8F778093F6
:1005C000053C8091063C882384F421E030E02093B0
:1005D0005D3C30935E3C1092983C9091073C9F7735
:1005E0009093073C8F778093063C0895EF92FF929B
:1005F0000F931F93CF93DF93C82FD62F142F4093C1
:10060000623C0F2EFCEAEF2EFCE3FF2EF02D262F8E
:10061000482FF701608180E00E941A022D2F4C2F95
:10062000F701618181E00E941A02012F2D2F4C2FCA
:10063000F701628180E00E943E022D2F4C2FF701CE
:10064000638181E00E943E022D2F4C2FF7016481CF
:1006500082E00E943E022D2F4C2FF701658183E03E
:100660000E943E022D2F4C2FF701668184E00E94EC
:100670003E022D2F4C2FF701678185E00E943E023C
:100680002D2F4C2FF701608586E00E943E02212F1E
:100690004D2F6C2FF70181850E94BE022D2F4C2F0C
:1006A00060919D3C83E00E941A022D2F4C2F609197
:1006B000663C82E00E941A022D2F4C2F6091A43CD0
:1006C00086E00E941A022D2F4C2F6091A33C87E0F8
:1006D0000E941A02DF91CF911F910F91FF90EF902E
:1006E0000895DF92EF92FF920F931F93CF93DF93C2
:1006F000F82ED62EE42E81E0F81208C01091613C4D
:10070000112309F459C004E0C1E051C082E0F8129D
:1007100008C010918F3C112309F44EC008E0C5E0D9
:1007200046C083E0F81208C01091673C112309F419
:1007300043C00CE0C9E03BC084E0F81207C0109150
:10074000A53C1123C9F104E1CDE031C085E0F812E8
:1007500033C010919F3C112379F10CE1C5E127C012
:1007600081E0E81619F0EE24E39403C06894EE24C7
:10077000E1F80C1770F0D1E0812F8D2331F04E2D70
:100780006D2D6D238C2F0E94F602DD0FCF5F0C17AD
:1007900098F781E0F81210C08091613C84FF0CC092
:1007A0006D2D60714E2D80E00E94F60205C00E9402
:1007B0000E158111D5CFDFCFDF91CF911F910F9112
:1007C000FF90EF90DF900895962F873018F40E94E5
:1007D000BE140895873021F4642F892F0E94CA1710
:1007E00008954F925F926F927F928F929F92AF92F5
:1007F000BF92CF92DF92EF92FF920F931F93CF930E
:10080000DF931F92CDB7DEB7D82E962E87E0D81291
:100810001FC00E940E15882339F08091623C813000
:1008200061F08824839411C08091A83C82FD0BC0A4
:100830008090623C92E0891208C05090C33C68945A
:10084000882481F810C0882483945090C23C0BC047
:1008500086E08D1508F421C18090623CED2DF0E01A
:10086000E754F34C52806D2C712C81E090E05C01D8
:100870000D2C02C0AA0CBB1C0A94E2F7C090053CE8
:10088000CA2009F40AC1852D8F70813009F06CC02F
:100890006091B93C607F44244394460E8091A83C0B
:1008A00082FF12C09301220F331F215B334CC3011F
:1008B0008F56934C7C018E010F5F1F4F492D642D85
:1008C0008C2D0E944F06C9C083FF12C09301220FD6
:1008D000331F215B334CC3018F56934C7C018E0137
:1008E0000F5F1F4F492D642D8C2D0E944F06B5C000
:1008F00080FF12C09301220F331F215B334CC301D1
:100900008F56934C7C018E010F5F1F4F492D642D34
:100910008C2D0E944F06A1C00E946316882391F07F
:100920009301220F331F215B334CC3018F56934C2D
:100930007C018E010F5F1F4F492D652D8C2D0E946C
:100940004F068BC09301220F331F215B334CC30131
:100950008F56934C7C018E010F5F1F4F492D642DE4
:100960008C2D0E944F0679C0823061F58091A83CA1
:1009700082FF06C0482D60E08D2D0E94E4038DC0EB
:1009800083FF06C0482D60E08D2D0E94E40385C0E2
:1009900081FF06C0482D60E08D2D0E94E4037DC0DC
:1009A0009301220F331F215B334CC3018F56934CAD
:1009B0007C018E010F5F1F4F492D652D8C2D0E94EC
:1009C0004F064BC08330C1F58091A83C82FF06C022
:1009D000482D60E08D2D0E94E4035FC083FF06C0B8
:1009E000482D60E08D2D0E94E40357C0837091F084
:1009F0009301220F331F215B334CC3018F56934C5D
:100A00007C018E010F5F1F4F492D652D8C2D0E949B
:100A10004F0623C09301220F331F215B334CC301C8
:100A20008F56934C7C018E010F5F1F4F492D652D12
:100A30008C2D0E944F0611C09301220F331F215BA2
:100A4000334CC3018F56934C7C018E010F5F1F4FB7
:100A5000492D652D8C2D0E944F069981992351F0C7
:100A6000F301EF56F34C80838091073CA82AA092B3
:100A7000073C13C0891530F4482D60E08D2D0E948D
:100A8000E40305C0482D61E08D2D0E94E403A0948D
:100A90008091073CA822A092073C0F90DF91CF9154
:100AA0001F910F91FF90EF90DF90CF90BF90AF908C
:100AB0009F908F907F906F905F904F900895CF920E
:100AC000DF92EF92FF920F931F93CF93DF93E82E65
:100AD000F12C01E010E0082E02C0000F111F0A9453
:100AE000E2F7873029F49091B63C913009F0C2C00A
:100AF000C82F670182E0C80ED11CF601E455F34C03
:100B00008081982F9F719F3109F065C0807C31F4FE
:100B10008091053C802B8093053C32C00E94AA0F37
:100B2000D82F0E940E15882321F0D23009F08EC0F4
:100B300094C0F601E455F34C8081882384F4D230CC
:100B400031F48091053C802B8093053C19C0909135
:100B5000053C802F809589238093053C11C086FF3A
:100B60000FC0D13031F48091053C802B8093053C3F
:100B700007C09091053C802F809589238093053C88
:100B80002091053C3091063C822F832790E00C2E6B
:100B900002C0959587950A94E2F780FF1CC0F70183
:100BA000EE0FFF1FE15BF34C81E090E080839183C7
:100BB000822F90E00C2E02C0959587950A94E2F75B
:100BC00080FF04C0302B3093063C05C0802F8095F9
:100BD00038233093063C8091053C082331F0609126
:100BE000043C8C2F0E94F10345C08091A83C82FFF9
:100BF00006C06091043C8C2F0E94F1033BC081FF32
:100C000019C0F601E754F34C80818F70823029F4CB
:100C100060E08C2F0E94BE142DC0833031F46091AF
:100C2000043C8C2F0E94F10325C060E08C2F0E94B1
:100C3000BE1420C0C73029F460E080E00E94CA17CB
:100C400019C060E08C2F0E94BE1414C0F601E45558
:100C5000F34C808188235CF474CFF601E455F34CA7
:100C6000808188230CF473CF86FF8ACF7CCF86FDEA
:100C700080CF86CFDF91CF911F910F91FF90EF90A2
:100C8000DF90CF9008958091A83C881F8827881F07
:100C900008958091A83C86FB882780F90895EF92FB
:100CA000FF920F931F93962F92959F70462F4F7030
:100CB000413069F5811108C0F90110821182F701F4
:100CC0001082F801108229C0F9014081518141153B
:100CD0005105D1F05695479556954795842F8295A5
:100CE0008F70891750F0108211824F60F701408396
:100CF00081E0F8018083892F10C0F701408381E0F3
:100D0000F8018083842F09C06F60F7016083F901C7
:100D100010821182F8011082892F1F910F91FF908C
:100D2000EF9008958091C73C0895CF93DF93D82F1B
:100D3000C62F6093C73C0E944306882351F08091E0
:100D40008E3C8C9FC0011124992314F481509F4F35
:100D5000C92F8091003C8D1741F08D2F0E94731593
:100D6000D093003C8FEF8093103CC13041F410923F
:100D7000C63C1092C53C80E00E94421680C0809123
:100D8000C53C81111AC08091A73C8823B1F0CC23C7
:100D900059F09091093C911104C08093093C109244
:100DA000123CC093083C6BC01092083CC093C53CF9
:100DB00080916A3CC81788F009C0C093C53C8091F7
:100DC0006A3CC81718F4CC2341F0C82F9091C63C58
:100DD000981718F4C1118093C63C8091103C811182
:100DE0004BC080910F3C81114AC00E94A211D817BC
:100DF00089F180910E3C882349F09091B83C911183
:100E00003EC080FF03C08E7F80930E3C9091C53C16
:100E10008091C63C981750F420916C3C211106C07B
:100E2000C093C63C8C2F0E94421629C0891750F4EB
:100E300020916B3C211106C0C093C63C8C2F0E94B0
:100E400042161DC098131BC0C093C63C8C2F0E9435
:100E5000421615C080910E3C816080930E3C8091BB
:100E6000643C81110CC080916C3C811108C01092CF
:100E7000C63C0E94421603C080E00E944216DF91E9
:100E8000CF91089510920F3CE62FEF70EE0F21F4F2
:100E900060E00E9495060895E23021F461E00E942E
:100EA0009506089564FDEF5FF0E0E259F34C608130
:100EB0000E949506089510920F3CE9E6FCE34181FB
:100EC000E5814E1780F590916D3CE91760F560342F
:100ED00090F4E41BE69FF0011124FF230CF4FF962D
:100EE0000E2EEF2F000CEE1FFF0B000CEE1FFF1F4E
:100EF000642F6E0F2CC09E1B70E060547109969F8A
:100F0000A001979F500D1124552314F4415C5F4FAD
:100F1000042E452F000C441F550B000C441F551F79
:100F20006E2F640F14C020916D3C421778F4241B7F
:100F3000269F90011124332314F421583F4F220F90
:100F4000232F221F330B642F620F01C0660F0E94F4
:100F50009506089591E090930F3C6091B73C0E94F4
:100F6000950608958091103C882309F18150809363
:100F7000103C811112C19091C53C8091C63C9817DC
:100F800038F420916C3C211103C00E944216089550
:100F9000891738F420916B3C211103C00E9442163E
:100FA00008959813FAC0892F0E94421608958091DF
:100FB000093C8823B1F09091123C9F5F943618F45D
:100FC0009093123C08951092123C81508093093CFA
:100FD0008111E3C08091083C8093C53C1092C63CCF
:100FE00008958091123C8F5F803118F48093123CF9
:100FF00008951092123C9091113C9F5F9093113C88
:1010000080910F3C882329F18091C63C2091C53CFA
:10101000821768F42091A03C921708F4BEC08F5F3D
:101020008093C63C0E9442161092113C08952817E6
:1010300068F42091A03C921708F4AFC081508093CF
:10104000C63C0E9442161092113C08951092113C29
:1010500008950E94A2119091003C891709F46DC077
:1010600080910E3C80FF41C08091B83C81111FC02F
:1010700080916B3C811109C08091C53C8093C63C36
:101080000E9442161092113C23C09091113C981777
:10109000F8F08091C63C9091C53C891700F58F5FB0
:1010A0008093C63C0E9442161092113C11C0909150
:1010B000113C981768F08091C63C9091C53C891707
:1010C00070F48F5F8093C63C0E9442161092113CD0
:1010D0009091C63C8091C53C981708F45EC0809101
:1010E0000E3C8E7F80930E3C08958091C63C90917B
:1010F000C53C891778F420916B3C9091113C921774
:1011000008F44BC08F5F8093C63C0E944216109239
:10111000113C0895981770F420916C3C9091113C0B
:101120009217D8F181508093C63C0E9442161092CB
:10113000113C08951092113C08958091C63C88237B
:1011400061F190910E3C916090930E3C9091643CC3
:10115000911118C090916C3C911108C01092C63C3E
:1011600080E00E9442161092113C08952091113C9B
:10117000291798F081508093C63C0E944216109225
:10118000113C08952091113C291738F0815080932B
:10119000C63C0E9442161092113C089580910D3C6D
:1011A000817008958091713C882309F44CC00E949D
:1011B000A2119091003C891739F010920B3C1092CB
:1011C0000C3C10920A3C089520910B3C30910C3C51
:1011D0002F5F3F4F283E93E0390728F420930B3CC4
:1011E00030930C3C089510920B3C10920C3C909163
:1011F0000A3C9F5F90930A3C2091713C921718F132
:1012000090910D3C90FF04C09E7F90930D3C03C0D5
:10121000916090930D3C813021F482E08093003CFA
:1012200005C0823019F481E08093003C8091003C3D
:101230000E9473158FEF8093103C10920B3C10921C
:101240000C3C10920A3C089590E0805090400E941F
:10125000E61808958F3F910509F018F40E942409BB
:10126000089580E00895E2E0F0E1908191FDFDCFE6
:1012700090E0805090400E94EE18089569E083E469
:101280000E94330962E184E40E9433096BE185E442
:101290000E94330964E286E40E9433096EE287E427
:1012A0000E94330967E388E40E94330960E489E41B
:1012B0000E94330969E48AE40E94330962E58BE401
:1012C0000E9433096BE58CE40E94330964E68DE4E7
:1012D0000E9433096DE68EE40E94330966E78FE4CD
:1012E0000E94330960E880E50E94330969E881E5DE
:1012F0000E94330962E982E50E9433096BE983E5C4
:101300000E94330964EA84E50E9433096DEA85E5A9
:101310000E94330966EB86E50E9433096FEB87E58F
:101320000E94330968EC88E50E94330961ED89E584
:101330000E9433096BED8AE50E94330964EE8BE568
:101340000E9433096DEE8CE50E94330966EF8DE54E
:101350000E9433096FEF8EE50E94330908958530AE
:10136000C0F4811106C08091613C80618093613C32
:101370000895815021E030E0A90102C0440F551FBB
:101380008A95E2F7CA019091613C892B8093613C78
:101390000895893080F4855021E030E0A90102C031
:1013A000440F551F8A95E2F7CA0190918F3C892B13
:1013B00080938F3C08958D3080F4895021E030E097
:1013C000A90102C0440F551F8A95E2F7CA01909106
:1013D000673C892B8093673C0895853180F48D505C
:1013E00021E030E0A90102C0440F551F8A95E2F7C1
:1013F000CA019091A53C892B8093A53C08958D311D
:1014000078F4845121E030E0A90102C0440F551F57
:101410008A95E2F7CA0190919F3C892B80939F3C6B
:101420000895EF92FF920F931F93CF93DF93E2E023
:10143000F0E1808181FDFDCF80E00E9424098F3F93
:1014400019F40E94FC0AD1C009E61CE3C0E0CF5F9A
:101450008C2F0E942409F80181938F01C630B9F7BF
:1014600081E10E9424098093A13C82E10E94240929
:101470008093AA3C83E10E9424098093A93C8BE1DC
:101480000E9424098093C43C8DE10E94240980932A
:10149000903C02E71CE30F2EFEE8EF2EFCE3FF2E4C
:1014A000F02DC3E48C2F0E942409F80181938F0151
:1014B000CF5FEE15FF05B1F70F2EFCEAEF2EFCE330
:1014C000FF2EF02D09EB1CE3C1E28C2F0E942409B2
:1014D000F70181937F018F710E94AF098FE48C0F18
:1014E0000E942409F80181938F01CF5FCC3269F704
:1014F0008CE20E942409C82F80939D3C8DE20E94BB
:1015000024098093663C8C2F8F710E94AF098091D3
:10151000663C8F710E94AF0983E80E942409809382
:101520008E3C8FE20E9424098093703C82E30E94EB
:1015300024098093633C83E30E9424098093A43CA4
:101540008F710E94AF0984E30E9424098093713C4B
:1015500085E30E9424098093B83C86E30E94240915
:101560008093643C87E30E942409CAE9DCE3888312
:1015700088E30E942409898389E30E9424098A83DD
:101580008AE80E9424098093A23C8AE30E942409ED
:101590008093B73C8BE30E9424098093A03C8CE3AA
:1015A0000E9424098093653C8DE30E942409809366
:1015B000AB3C8EE30E94240980939E3C8FE30E9403
:1015C00024098093A33C8F710E94AF0980E40E949C
:1015D000240980936F3C8CE80E9424098093A73CE7
:1015E00084EF0E9424098093683CDF91CF911F9182
:1015F0000F91FF90EF90089563E081E00E9433091E
:1016000060E082E00E94330960E083E00E943309D9
:1016100060E084E00E9433096FEF85E00E943309A7
:101620006FE786E00E94330961E087E00E9433099A
:101630006DE088E00E94330960EC81E10E9433098B
:1016400060E082E10E94330960E083E10E94330997
:1016500063E08BE10E9433096EE08DE10E94330963
:1016600064E081E20E94330967E082E20E9433096C
:1016700060E483E20E94330961E884E20E94330956
:1016800061E885E20E94330960E886E20E9433093E
:1016900061E487E20E94330961E488E20E94330931
:1016A00063E089E20E94330960E08AE20E94330924
:1016B00060E08BE20E9433096EE38CE20E94330902
:1016C00066E08DE20E9433096FE48FE20E943309E5
:1016D00069EC82E30E94330965E083E30E943309E9
:1016E00060E084E30E9433096AE085E30E943309E5
:1016F00063E086E30E9433096EE187E30E943309C9
:101700006AE088E30E94330968E289E30E943309B2
:101710006FE78AE30E94330963E08BE30E94330999
:1017200063E88CE30E9433096FE58DE30E9433097F
:1017300060EC8EE30E94330967E08FE30E94330977
:1017400061E080E40E94330960E480E70E9433098D
:1017500061EF82E70E94330963EF83E70E94330958
:1017600062EF84E70E94330961EF85E70E94330945
:1017700063EF86E70E94330962EF87E70E9433092F
:1017800060EF88E70E94330961EF89E70E9433091F
:1017900062EF8AE70E9433096FE383E80E9433090E
:1017A00064E68AE80E94330960E08CE80E9433090D
:1017B00060E084EF0E9433090E943E0960E080E00F
:1017C0000E9433090E94110A08950F931F93CF932B
:1017D000DF93EC01162F8F3F910511F008F09CC0AC
:1017E0008F50823048F08FE00E942409082F80E15A
:1017F0000E942409081390C0CE019927FC0131975B
:10180000E43FF10508F084C0E25CFF4F0C94E0185F
:10181000FC01E859F34C10837BC01D3019F01830DF
:1018200009F07AC06FEF80E00E9433090E94FC0A41
:1018300073C01093A13C6CC01093AA3C69C0109374
:10184000A93C66C01093C43C63C080916F3C80FD8E
:1018500018601093903C5CC0FC01E557F34C10837A
:10186000812F8F710E94AF0953C010939D3C812F2F
:101870008F710E94AF094CC01093663C812F8F710D
:101880000E94AF0945C01093703C42C01093633C66
:101890003FC01093A43C3CC01093713C39C01093DE
:1018A000B83C36C01093643C33C0FC01ED59F34C96
:1018B00010832EC01093B73C2BC01093A03C28C0BF
:1018C0001093653C25C01093AB3C22C010939E3C06
:1018D0001FC01093A33C812F8F710E94AF0918C0C5
:1018E00010936F3C15C0FC01E15DF34C108310C0F8
:1018F000FC01E75BF34C10830BC010938E3C08C0D7
:101900001093A23C05C01093A73C02C01093683C02
:10191000612F8C2F0E943309DF91CF911F910F917E
:101920000895FF920F931F93CF93DF938C01F62EB0
:10193000862F8770C1E0D0E002C0CC0FDD1F8A95F2
:10194000E2F7C8010E942A09F3FE03C06C2F682B3E
:1019500003C0C0956C2F6823C8010E94E50BDF917E
:10196000CF911F910F91FF90089581E08093143CD7
:101970008093153C0E94181581E00E94A0150895DF
:101980001092C83C0895CF93FB0190818091CA3C8E
:10199000981376C0C1818091CB3CC81371C022815D
:1019A0008091CC3C28136CC092FD2AC02091133C3E
:1019B00030E021503109220F331F220F331F892FAE
:1019C0008370280F311D2F5F3F4F93FF0CC06C2F8A
:1019D000C9010E94E50B8091C83C84608093C83C9B
:1019E0000E94B50C59C0C9010E942A09C81354C0ED
:1019F0008091C83C82608093C83C0E94B50C4CC06A
:101A0000892F8770853061F018F48430C1F044C0AC
:101A1000863019F0873081F03FC027E030E011C0F8
:101A20008091C83C80FD38C0C093133C8160809396
:101A3000C83C0E94B50C30C028E030E002C02DE167
:101A400030E093FF0EC06C2FC9010E94E50B80911E
:101A5000C83C82FD21C084608093C83C0E94B50CC4
:101A60001BC0C9010E942A09C81316C08091C83C36
:101A700081FD12C082608093C83C0E94B50C0CC0EE
:101A8000AAECBCE39C93818111968C93119782817F
:101A900012968C931092153CCF910895CF93FB0131
:101AA00090818091CA3C98132FC021818091CB3CBA
:101AB00028132AC0C2818091CC3CC81325C0338131
:101AC0008091CD3C381320C08091153C81112CC0F1
:101AD000892F837030E0280F311D2F5F3F4F9C709E
:101AE000943019F09C3049F01FC0C9010E942A09A6
:101AF000C8131AC00E94B50C17C06C2FC9010E94F0
:101B0000E50B0E94B50C10C0AAECBCE39C9381814C
:101B100011968C931197828112968C9312978381E0
:101B200013968C931092153CCF9108958091143C9C
:101B3000882389F08F5F8D3018F48093143C0895CA
:101B40001092143C81E08093153C82E00E941815AD
:101B500082E00E94A01508958091193C882329F005
:101B600081508093193C0E94960D08958F929F9208
:101B7000BF92CF92DF92EF92FF920F931F93CF937A
:101B8000DF93FB018330D9F4908191110CC09181D6
:101B900091119CC19281911199C18EE18093193C60
:101BA0000E94C00C99C19F3F51F49181911186C14F
:101BB00092819F3F09F082C11092193C8DC1909192
:101BC000A93C992361F0208122230CF42AC13181A0
:101BD000307E303E09F42BC19093183C04C09091A4
:101BE000183C992341F02081222309F475C12F77F5
:101BF000291372C128C12081222354F09091903C76
:101C000095FD1BC19091693C921366C121E01CC1F6
:101C1000922F907C903C09F05FC19091903C95FF91
:101C20005BC19091A13C921357C121819091AA3C34
:101C3000291352C122E008C190E030E02D5F3F4FF0
:101C40008217930709F048C16F716F3109F044C1E1
:101C50004F5F5F4FE40FF51FC081CF778FEF809309
:101C6000023C8081882364F48091903C80FF04C012
:101C700082E08093173C0FC081E08093173C0BC03B
:101C80008091903C80FF04C081E08093173C03C0AA
:101C900082E08093173C0E94CE08882359F08091FF
:101CA000173C813021F482E08093173C03C081E02F
:101CB0008093173C6C2F8091173C0E945B070CC1EE
:101CC00090E030E02E5F3F4F8217930709F004C188
:101CD0008FEF8093013C65FF0CC08091903C80FFAA
:101CE00004C082E08093173C0FC081E08093173CD2
:101CF0000BC08091903C80FF04C081E08093173C32
:101D000003C082E08093173C0E94CE08882359F0DC
:101D10008091173C813021F482E08093173C03C00E
:101D200081E08093173C68818091173C0E944207B4
:101D3000D3C090E030E02E5F3F4F8217930709F049
:101D4000CBC04091173C81E00E947103C5C090E078
:101D500030E02E5F3F4F8217930709F0BDC064FF4C
:101D600006C04091173C82E00E947103B5C04091CB
:101D7000173C83E00E947103AFC06E3D49F4E40F4D
:101D8000F51F4091173C618184E00E947103A4C05B
:101D90006F3D09F0A1C0E40FF51F4091173C618130
:101DA00085E00E94710398C0D4017D914D01D90155
:101DB0006D919D01761779F06881DC016C93D601F5
:101DC0006C91DC0111966C93D8016C91DC01129638
:101DD0006C93B092163C8E149F0431F71092163C0F
:101DE000888183FF79C082FF0EC0E40FF51F218137
:101DF000837090E0982F8827820F911D6281019651
:101E00000E94E50B69C0E40FF51F2181837090E00B
:101E1000982F8827820F911D628101960E94910C54
:101E20005BC09091183C992309F4F2CEDCCE9091DE
:101E3000183C992309F4E2CED6CE922F907C903CA8
:101E400009F04AC0EECE21E0422F50E0EF01C40F6E
:101E5000D51F6881962F907E903809F46ACF50F490
:101E6000903409F42DCF903609F42ACF903209F43A
:101E7000E3CE32C0903C09F480CF903E19F0903A06
:101E800059F565CF0F2EF2ED8F2EFCE39F2EF02D2E
:101E90009E010F2EF5EDEF2EFCE3FF2EF02DC40179
:101EA0008F01040F151F6801BFEFCB1ADB0A0E5F0D
:101EB0001F4FBB24B39478CF2081B3CF9091A93C1E
:101EC000992309F48CCEF8CF208181CE9091A93C42
:101ED000992309F484CEF8CFDF91CF911F910F9110
:101EE000FF90EF90DF90CF90BF909F908F900895DC
:101EF000823079F19091193C992349F1FB0190814D
:101F00009077903721F59EE19093193C833019F03A
:101F10008430C9F00895FB018081811107C081815F
:101F200081110DC0828181110AC008958F3F39F45B
:101F3000FB018181811103C082818F3F51F083E0D9
:101F40000E94C30C089584E00E944E0D08950E94E3
:101F5000B60D08958091173C089581E09091193C49
:101F6000911101C080E00895803430F4E82FF0E052
:101F7000E057FD4F8491089580E00895CF93DF935B
:101F8000C62F880F880F962F9295969596959370E9
:101F9000890F0E94B40FD82F8C2F8F730E94B40F1B
:101FA000C82F8D2F0E94A2188C2F0E94A218DF919B
:101FB000CF9108958091683C8130B9F40E947216E7
:101FC000BC017695679590911A3C911108C0672FD6
:101FD00081E00E94BE0F81E080931A3C089582E068
:101FE0000E94BE0F10921A3C08958230A9F40E94FC
:101FF000C61720911A3C211108C0692F81E00E9468
:10200000BE0F81E080931A3C0895682F82E00E9401
:10201000BE0F10921A3C08958330A9F480911A3CA7
:10202000811108C060E081E00E94BE0F81E08093D2
:102030001A3C08950E949206682F82E00E94BE0F0B
:1020400010921A3C08958091903C83FF30C090918B
:10205000A93C91112CC085FD14C080911A3C8111BE
:1020600008C060E081E00E94BE0F81E080931A3CCE
:1020700008956091693C82E00E94BE0F10921A3C64
:10208000089580911A3C81110BC06091A13C6F733F
:10209000605881E00E94BE0F81E080931A3C089551
:1020A0006091AA3C82E00E94BE0F10921A3C0895F3
:1020B000CF93DF93CDB7DEB7E197CDBFDEBF0E94F0
:1020C000EF110E9427180E942E150E94A6140E944C
:1020D0003B130E948F180E9420110E94110A7894CD
:1020E00000E010E0E12CF12CBE016F5F7F4FCE01CC
:1020F000C1960E944B1389A9882331F0BE016F5FFE
:102100007F4F0E94780F19AA0E94AD0F882339F0E3
:102110000E944118882341F30E94AC0DE5CF0E9434
:10212000F912813029F40E9434110E946B1106C00B
:10213000823021F40E9434110E946B110E949B1482
:1021400081110E94DA0F0E944C18882321F00E940E
:1021500029170E9487010E944118882351F01123FA
:1021600009F465C05FC011E00E9423130E94661647
:1021700000E0112309F4B8CF812F90E0FC013197E2
:10218000EF30F10508F048C0EE5CFE4F0C94E0180B
:102190000E94AB1111E052C00E94D2084FC00E94B1
:1021A000B2074CC00E94D50149C08BEF810F0E943D
:1021B0005F0532C00E94AC0D41C08091903C82FF0F
:1021C0003DC00E9431138823C9F10E94EC110E9486
:1021D000AA070E94EC110E94F50130C08091703C6A
:1021E000882354F5F39499E09F1510F4E394F12CAF
:1021F0004E2D50E0282F2F7330E042175307E4F0A4
:1022000086FF05C08BE00E941716E12C15C08CE0FC
:102210000E941716E12C10C01F5F103108F464CF24
:1022200010E062CF0F5F0A3009F0A6CF9DCF0F5F9D
:102230000A3009F498CFACCF10E056CF1F5F54CFCF
:10224000A0E0B4E080E212968C931297E0E4F4E010
:1022500084E0828355968C915597886055968C932F
:1022600082898860828B08958091080485FF06C06A
:102270008091213C8F5F8093213C05C08091203C60
:102280008F5F8093203C80911D3C8F5F8A3F18F4C4
:1022900080931D3C089510921D3C8091C43C80FFAA
:1022A00010C08091203C8A3030F480911B3C8160CA
:1022B00080931B3C0BC080911B3C8E7F80931B3C0A
:1022C00005C080911B3C8E7F80931B3C1092213C6B
:1022D0001092203C08958091480482FF06C08091AE
:1022E0001F3C8F5F80931F3C05C080911E3C8F5F19
:1022F00080931E3C80911C3C8F5F8A3F18F4809332
:102300001C3C089510921C3C8091C43C81FF10C07D
:1023100080911E3C8A3030F480911B3C8260809317
:102320001B3C0BC080911B3C8D7F80931B3C05C0E8
:1023300080911B3C8D7F80931B3C10921F3C109220
:102340001E3C08950E944906811103C080911B3CE8
:10235000089580E008958091080482FF13C0809161
:10236000080484FD21C08091223C882319F081500B
:102370008093223C8091233C8E31B0F48E5F809319
:10238000233C12C08091080484FF0EC08091233C3E
:102390008823E9F081508093233C8091223C8E3148
:1023A00018F48E5F8093223C8091233C803120F092
:1023B00081E08093243C08958091223C803120F07C
:1023C00082E08093243C08951092243C08958091EB
:1023D000223C8E3130F3F0CF8091243C089588ED7B
:1023E00084BF81E080936100E0E8F0E084E08083D6
:1023F000118208959091253C80910804892782FFDD
:102400000EC08091080482FF05C094609093253C23
:1024100081E006C09B7F9093253C81E001C080E075
:102420002091253C90910804922794FF0CC0826073
:102430009091080494FF04C020612093253C0895E6
:102440002F7E2093253C089580FF68C09091253C05
:1024500092FF50C09091393C90FD47C0916090939D
:10246000393C40914A0A50914B0A2091373C3091B7
:10247000383C2417350760F440914A0A50914B0AC2
:10248000BA01621B730B6093353C7093363C0CC0F1
:1024900040914A0A50914B0A5053BA01621B730B88
:1024A0006093353C7093363C90912B3C91609093B7
:1024B0002B3C20914A0A30914B0A29333F4C58F06B
:1024C00020914A0A30914B0A28533F4C2093D53C27
:1024D0003093D63C0AC020914A0A30914B0A2853C7
:1024E0003F4F2093D53C3093D63C1092323C109213
:1024F0002A3C14C09091393C90FF10C09E7F90936D
:10250000393C20914A0A30914B0A2093373C309352
:10251000383C90912B3C9E7F90932B3C8370E9F14B
:102520008091253C84FF2DC08091393C81FD24C0E1
:1025300082608093393C80912B3C826080932B3C5D
:1025400080914A0A90914B0A89339F4C58F08091B0
:102550004A0A90914B0A88539F4C8093F93C909380
:10256000FA3C0AC080914A0A90914B0A88539F4FC7
:102570008093F93C9093FA3C1092323C10922A3CA2
:1025800008958091393C81FF08C08D7F8093393C4C
:1025900080912B3C8D7F80932B3C08951F920F924E
:1025A0000FB60F9211242F933F934F935F936F9326
:1025B0007F938F939F93AF93BF93EF93FF93E0E04D
:1025C000F4E08185846181870E94FA110E942412BF
:1025D000FF91EF91BF91AF919F918F917F916F91FB
:1025E0005F914F913F912F910F900FBE0F901F90D1
:1025F000189590912B3C90FF10C040914A0A509141
:102600004B0A2091D53C3091D63C2417350728F44D
:102610009E7F90932B3C81E00895892F827091FFDB
:1026200011C040914A0A50914B0A2091F93C3091D7
:10263000FA3C2417350728F49D7F90932B3C82E0C9
:10264000089580E0089580912C3C90912D3C80323B
:1026500023E0920728F4019680932C3C90932D3C24
:10266000089581E020912C3C30912D3C2032334064
:1026700008F480E00895E0E0F4E084E1828381E002
:10268000828B848BE0E4FAE083E080838FEF9FEC21
:102690008487958708952091903C23FF99C02091CD
:1026A000323C2223F1F13091080432FD04C0309114
:1026B000080434FF09C01092323C10922A3C109258
:1026C000283C1092293C84C040914A0A50914B0A00
:1026D000E091303CF091313CE417F50738F440913B
:1026E0004A0A50914B0A4E1B5F0B07C040914A0AA1
:1026F00050914B0A50534E1B5F0B213009F068C0BC
:102700002091263C3091273C4217530708F460C0C3
:1027100020912E3C216020932E3C22E02093323CDD
:1027200057C020912A3C222309F43FC0209108047D
:1027300022FD04C02091080424FF09C01092323CFD
:1027400010922A3C1092283C1092293C41C02091C2
:102750004A0A30914B0A4091283C5091293C42173B
:10276000530738F420914A0A30914B0A241B350B49
:10277000D8C020914A0A30914B0A3053241B350BA4
:10278000D0C081E08093323C80914A0A90914B0AFC
:102790008093303C9093313C8CE390E08093263CD6
:1027A0009093273C10922A3C08952091080422FD22
:1027B0000FC02091080424FD0BC020914A0A3091DB
:1027C0004B0A2093283C3093293C21E020932A3C5B
:1027D0002091353C3091363C2115310541F48091F2
:1027E000333C9091343C892B09F0A0C0089510929D
:1027F000353C1092363C1092333C1092343CA90187
:102800004D5D5109453E510590F421E02093FB3C7C
:1028100020912F3C2F5F20932F3CE091FC3CF0E077
:10282000E752F34C2081220F2F5F208322C0255FC7
:1028300031402B35314C08F07DC01092FB3C20918B
:102840002F3C2E3060F081E080931D3D1092D93CEA
:102850001092FC3C10921E3D10922F3C0895109255
:102860002F3CE091FC3CF0E0E752F34C2081220F3A
:1028700020832091FC3C203208F05CC020911D3D5B
:10288000211123C02091FB3C2130F9F420911E3D01
:10289000211118C0FC0110823091FC3C3323B9F0A7
:1028A00030E0F901E752F34C4081FB01E20FF31FE6
:1028B0004083FC0120812F5F20833091FC3C231753
:1028C00078F305C0FC01108202C0FC0110828091E7
:1028D0001D3D8F5F80931D3D893061F5E091FC3C8B
:1028E000E11107C08091D93C8F3F19F48093FC3CE3
:1028F0000895AE2FB0E0A752B34C90911E3D8C913D
:10290000892780931E3DEF5FE093FC3CF0E0E752A7
:10291000F34C108210921D3D10922C3C10922D3CD5
:1029200008952338310508F453CF2BCF1092333C50
:102930001092343C089590912E3C892F817090FF25
:1029400004C09E7F90932E3C81E00895E0E0F4E087
:10295000818188688183E0E2F4E0818188638183FA
:10296000A0E4B4E011968C911197836011968C933A
:1029700081818D7F818388E0818B089590E087300D
:10298000910508F04AC0FC01EF5BFE4F0C94E01883
:10299000662321F088E080930504089588E0809301
:1029A00006040895662321F082E08093450408958B
:1029B00082E0809346040895662321F080E88093A6
:1029C0000504089580E8809306040895662321F0A5
:1029D00088E080932504089588E080932604089574
:1029E000662321F080E280932504089580E280939D
:1029F00026040895662321F081E08093450408951C
:102A000081E0809346040895662321F080E180935D
:102A10002504089580E18093260408958091280478
:102A20008695817091E08927089580913A3C0895B8
:102A3000CF93813019F480933A3C0CC010923A3C09
:102A400009C060913A3C8C2F0E94BE14CF5FC73002
:102A5000C1F702C0C0E0F5CFCF910895E0E0F4E007
:102A6000828182608283818180648183A0E2B4E07C
:102A700011968C911197816011968C93A0E4B4E02B
:102A800011968C911197886011968C93119786817D
:102A90008064868316968C911697886016968C9320
:102AA000A0E0BAE091E09C9383E111968C9311979A
:102AB0002FEF30E096962D933C93979798961D9222
:102AC0001C92999785818064858380E38093A00020
:102AD000E0E0F6E085E08083918384E4828380E215
:102AE00083831482089590914B3C911128C090915A
:102AF000B63C913021F1813059F4E0E4F4E0868174
:102B000088608683E0E0F4E08581806485830895B1
:102B1000823059F4E0E0F4E0868180648683E0E46A
:102B2000F4E08581886085830895E0E0F4E08681A3
:102B300080648683E0E4F4E086818860868308957B
:102B4000813079F483E08093010A88E08093460421
:102B500080E48093050481E08093250480934B3CBE
:102B6000089588E08093460480E48093060481E021
:102B70008093260483E18093010A10924B3C0895D0
:102B80009091B63C9130B1F0813019F48093000AF5
:102B90000895823021F483E08093000A08958C30F8
:102BA00021F48DE08093000A08958B3019F48FE0B2
:102BB0008093000A08951F920F920FB60F9211246E
:102BC0002F933F934F935F936F937F938F939F9335
:102BD000AF93BF93EF93FF93E0E0FAE083858160CA
:102BE000838780914A3C882389F0813051F40E9488
:102BF000C01510924A3CE0E0FAE082858E7F828721
:102C000005C00E94C01581E080934A3CFF91EF917E
:102C1000BF91AF919F918F917F916F915F914F91F4
:102C20003F912F910F900FBE0F901F90189590918C
:102C30004B3C91110BC09091B63C913039F0809390
:102C40004A3CE0E0FAE082858160828708959091B5
:102C5000443C60919E3C961798F42091AB3C30E048
:102C60004FEF50E0421B530B949FF001959FF00DE6
:102C7000112470E0CF010E94CC18862F820F089596
:102C80008FEF0895CF939091B63C913019F48093D3
:102C9000443C17C09091443C891799F0C82F809309
:102CA000463C8093443C0E942716682F8093473C03
:102CB0002FEFC29FC001112470E00E94B8186093EA
:102CC000433CCF9108958091443C08958091653CA8
:102CD00088233CF48091423C811103C081E08093C1
:102CE000423C089580913F3C9091403C08958F92E2
:102CF0009F92AF92BF92CF92DF92EF92FF920F938B
:102D00001F93CF93DF934091463C411103C0109233
:102D1000453C92C0EAE9FCE3A080B12CC180D12CF3
:102D2000E280F12C20913F3C3091403C3695279534
:102D30005FEF529FC001539F900D11246091A23C00
:102D400070E00E94B818042F10E0862F972F8F3F55
:102D5000910519F014F08FEF90E0E801C81BD90B32
:102D60002AE030E0CE01B9010E94CC1880913D3CB0
:102D700090913E3CFB01E80FF91FE0933D3CF0933E
:102D80003E3C80913B3C90913C3CBE01681B790BE2
:102D9000CB0164E670E00E94CC184B01C0933B3C31
:102DA000D0933C3CAC9EC001AD9E900DBC9E900D5E
:102DB0001124B9010E94CC18EB01CE9EC001CF9E18
:102DC000900DDE9E900D1124B9010E94CC18FE01D9
:102DD000E60FF71FE89CC001E99C900DF89C900D50
:102DE0001124B9010E94CC186E0F7F1F6F3F71052F
:102DF00029F024F08FEF8093453C08C0772324F41A
:102E00001092453C80E010C06093453C8091453C69
:102E1000481750F490E0801B910B813A910564F0C3
:102E200040564093453C08C0081B1109013A110562
:102E30001CF0405A4093453CDF91CF911F910F9178
:102E4000FF90EF90DF90CF90BF90AF909F908F90CA
:102E500008958091B63C813009F497C080914B3C35
:102E6000811193C08091423C8823C1F18436D8F40B
:102E7000813049F4E0E0FAE080A591A58093413CDF
:102E800010A611A60AC08A3041F4E0E0F6E081E025
:102E90008683808784E68093423C8091423C8F5FAA
:102EA0008093423C0895853609F06FC080910806F2
:102EB00080FD6BC0809110069091110680933F3C7D
:102EC0009093403C1092423C8091413C90E0809332
:102ED000280A9093290A0E94771608958091653CEC
:102EE000982F9F7791F4882344F48091453C90E09B
:102EF0008093280A9093290A08958091443C90E099
:102F00008093280A9093290A0895933079F4809148
:102F1000493C8F3F19F41092493C08951092493C66
:102F20008091483C8F5F8093483C0DC081FF06C074
:102F30008091483C8E5F8093483C05C08091483C1E
:102F40008F5F8093483C9091473C8091483C981714
:102F500048F4E0E0FAE010A611A68EEF90E080A31E
:102F600091A308958091653C882344F48091453C69
:102F700090E08093280A9093290A08958091433C19
:102F800090E08093280A9093290A08958091453C07
:102F900090E008959091B63C913081F593E0909344
:102FA000010A613059F4E0E4F4E096819860968378
:102FB000E0E0F4E095819064958317C0623059F4A5
:102FC000E0E0F4E0968190649683E0E4F4E095819B
:102FD000986095830AC0E0E0F4E09681906496835F
:102FE000E0E4F4E0968198609683882321F081E004
:102FF00080932504089581E08093260408951F920C
:103000000F920FB60F9211248F9380914C3C8160E8
:1030100080934C3C81E0809353018F910F900FBEC1
:103020000F901F9018951F920F920FB60F921124B8
:103030008F9383E08093430180914C3C8260809326
:103040004C3C8F910F900FBE0F901F901895E0E4AD
:10305000F1E081818111FDCFE0E4F1E01486158675
:1030600081E090E082879387178281E8808382895C
:103070008160828B81E2808B8281836082837894FD
:10308000089590914C3C892F817090FF04C09E7FE1
:1030900090934C3C81E0089590914C3C892F827034
:1030A00091FF04C09D7F90934C3C81E008951F9256
:1030B0000F920FB60F9211248F939F93AF93BF93EC
:1030C000EF93FF93E0E0F8E0848180628483F894DA
:1030D00080914E3CA82FB0E0A05EB24C9C919283B0
:1030E0008F5F803318F480934E3C02C010924E3CA8
:1030F00090914E3C80914D3C981305C0E0E0F8E083
:1031000085818F7D85837894FF91EF91BF91AF91F9
:103110009F918F910F900FBE0F901F901895E0E236
:10312000F4E0818184608183858184608583E0E02F
:10313000F8E080EA90E08087918780E4868383E0EE
:103140008783089590914D3CE92FF0E0E05EF24CCA
:1031500080839F5F903318F490934D3C02C010928F
:103160004D3CE0E0F8E085818062858378940895A5
:10317000AA1BBB1B51E107C0AA1FBB1FA617B7079D
:1031800010F0A61BB70B881F991F5A95A9F78095B9
:103190009095BC01CD01089597FB072E16F400947D
:1031A00007D077FD09D00E94B81807FC05D03EF47F
:1031B000909581959F4F0895709561957F4F0895E3
:1031C000EE0FFF1F0590F491E02D099403D080814C
:1031D00099270895FC01E050FC4E0895262F0E9487
:1031E000EA180080021619F00E94FA180197019758
:1031F0000895262FAF93BF93E0E0F0E1328131FDD7
:10320000FDCFDC01A050BC4E2C932DE924BF23E060
:0E32100020830196BF91AF910895F894FFCFEF
:04321E00FFFFFF00AF
:00000001FF
