:100000000C9468010C9485010C9485010C94BE132A
:100010000C9485010C9485010C9403190C94EF1831
:100020000C94CB160C9485010C9485010C948501DD
:100030000C9485010C9485010C9485010C94850128
:100040000C9485010C9485010C9485010C94850118
:100050000C9485010C9485010C9485010C94850108
:100060000C9485010C9485010C9485010C948501F8
:100070000C9447190C9485010C948501D80CD80C6C
:10008000D80CD80CD80CD80C5C0DDD0C580D580DC4
:10009000580D580D580D580D580D580DE90CEC0C15
:1000A000EF0C580D580D580D580D580D580D580D92
:1000B000F20C580DF50C580D580D580DFC0CFC0C9D
:1000C000FC0CFC0CFC0CFC0CFC0CFC0CFC0CFC0CF0
:1000D000FC0C050D0C0D580D130D580D580D160D7B
:1000E000190D1C0D1F0D220D250D250D250D2A0D99
:1000F0002D0D300D330D360D390D400D580D580DA9
:10010000430D430D430D430D430D430D430D430D6F
:10011000430D430D430D430D430D430D430D430D5F
:10012000430D430D430D430D430D430D430D430D4F
:10013000430D430D430D430D580D580D580D580DEB
:10014000580D580D580D580D580D580D580D580D87
:10015000580D580D580D580D580D480D480D480DA7
:10016000480D480D480D480D480D480D480D480DE7
:10017000580D580D580D580D580D580D580D580D57
:100180004D0D580D580D580D580D580D580D500D5A
:10019000580D530D580D580D580D580D580D580D3C
:1001A000580D580D580D580D580D580D580D580D27
:1001B000580D580D580D580D580D580D580D580D17
:1001C000580D580D580D580D580D580D580D580D07
:1001D000580D580D580D580D580D580D580D580DF7
:1001E000580D580D580D580D580D580D580D580DE7
:1001F000580D580D580D580D580D580D580D580DD7
:10020000580D580D580D580D580D580D580D580DC6
:10021000580D580D580D580D580D580D580D580DB6
:10022000580D580D580D580D580D580D580D580DA6
:10023000580D580D580D580D580D580D580D580D96
:10024000580D580D580D580D580D580D580D580D86
:10025000580D580D580D580D580D580D580D580D76
:10026000580D560D96119C119F11A211A511A511A3
:10027000A511A511A511A511A511A511AA11AD11C1
:10028000BE11B815C215CC15D615E015EA15F41532
:10029000ACAAA9A5A3A69C9A999593968E8D8BB18D
:1002A000B2B4B874726C6A696563665C5A59555326
:1002B000564E4D4B4771E8E4E2D1C9C5D8D4D2C9F6
:1002C000C6CC78171B1D1E2E363A272B2D353933F9
:1002D00011241FBECFEFCDBFDFE3DEBF1CE3A0E0E4
:1002E000BCE3EEEFF3E302C005900D92A430B1073A
:1002F000D9F72DE3A4E0BCE301C01D92A135B207FC
:10030000E1F70E9428110C94FD190C9400008091D3
:10031000083C882309F444C08091053C8730B0F440
:10032000E82FF0E0EE56F34C9081992359F120919B
:10033000A73C2F7092959F70291720F461E00E94CE
:10034000AE1520C060E00E94AE151CC08730D1F40D
:100350008091993C8823E9F09091A73C9F70829509
:100360008F702091A93C22FD03C06091633C01C0C5
:1003700061E0981720F481E00E94BA1803C080E081
:100380000E94BA188091053C8F5F8093053C8830AD
:1003900039F48091A73C8F5F8093A73C1092053C75
:1003A00008950E94051681111BC08091043C8F5F47
:1003B000803178F01092043C0EC0808191810097CA
:1003C00019F00196808391833296E217F307A9F71B
:1003D00008958093043CE0E5FCE322E63CE3EDCFA6
:1003E00008956091643CEFEAFCE347EB5CE330E0A6
:1003F00021E09191907C81F0903431F4813079F456
:10040000962F9223392B0BC0903849F4823039F45F
:10041000962F9223392B03C0962F9223392B220F2C
:10042000E417F50731F78093633C66232CF4809141
:10043000B73C813009F430683093063C08956F7101
:10044000461320C0222379F021E030E0A90102C048
:10045000440F551F8A95E2F7CA019091A93C892B58
:100460008093A93C089521E030E0A90102C0440F27
:10047000551F8A95E2F7CA0180959091A93C89237E
:100480008093A93C08950F93962F9F71491379C0CB
:10049000607C29F491E0211113C090E011C0603418
:1004A00039F40130E9F591E021110AC090E008C06B
:1004B0006038B1F50230A1F591E0211101C090E062
:1004C000992371F1682F70E041E050E0082E02C0DE
:1004D000440F551F0A94E2F79091063C942B909399
:1004E000063CE091073C2E2F30E020953095D90155
:1004F00002C0B595A7958A95E2F7A0FF42C0DB013F
:10050000AA0FBB1FA05BB34C81E090E08D939C933E
:10051000DB01AE56B34C1C924E2B4093073C31C0CE
:10052000682F70E021E030E0082E02C0220F331F58
:100530000A94E2F720959091063C92239093063C12
:100540003091073C432F50E0FA0102C0F595E79542
:100550008A95E2F7E0FF15C0FB01EE0FFF1FE05B9D
:10056000F34C81E090E080839183FB01EE56F34CE5
:1005700010828091083C82238093083C232320939F
:10058000073C0F9108959091B73C913099F58F7188
:10059000681330C04423A9F08091063C80688093A2
:1005A000063C8091073C88232CF121E030E0209329
:1005B0005E3C30935F3C1092993C80688093073C8E
:1005C00008958091063C8F778093063C8091073C8C
:1005D000882384F421E030E020935E3C30935F3C3C
:1005E0001092993C9091083C9F779093083C8F77AC
:1005F0008093073C0895EF92FF920F931F93CF9340
:10060000DF93C82FD62F142F4093633C0F2EFDEAA3
:10061000EF2EFCE3FF2EF02D262F482FF7016081EF
:1006200080E00E941F022D2F4C2FF701618181E095
:100630000E941F02012F2D2F4C2FF701628180E0B5
:100640000E9443022D2F4C2FF701638181E00E940D
:1006500043022D2F4C2FF701648182E00E94430258
:100660002D2F4C2FF701658183E00E9443022D2F2F
:100670004C2FF701668184E00E9443022D2F4C2FFE
:10068000F701678185E00E9443022D2F4C2FF7016F
:10069000608586E00E944302212F4D2F6C2FF701C9
:1006A00081850E94C3022D2F4C2F60919E3C83E0D8
:1006B0000E941F022D2F4C2F6091673C82E00E9408
:1006C0001F022D2F4C2F6091A53C86E00E941F0237
:1006D0002D2F4C2F6091A43C87E00E941F02DF91D8
:1006E000CF911F910F91FF90EF900895DF92EF92BD
:1006F000FF920F931F93CF93DF93F82ED62EE42E05
:1007000081E0F81208C01091623C112309F459C02D
:1007100004E0C1E051C082E0F81208C01091903CA2
:10072000112309F44EC008E0C5E046C083E0F8128A
:1007300008C01091683C112309F443C00CE0C9E0E3
:100740003BC084E0F81207C01091A63C1123C9F108
:1007500004E1CDE031C085E0F81233C01091A03C37
:10076000112379F10CE1C5E127C081E0E81619F009
:10077000EE24E39403C06894EE24E1F80C1770F0C3
:10078000D1E0812F8D2331F04E2D6D2D6D238C2FD7
:100790000E94FB02DD0FCF5F0C1798F781E0F81283
:1007A00010C08091623C84FF0CC06D2D60714E2D95
:1007B00080E00E94FB0205C00E94FE158111D5CF8A
:1007C000DFCFDF91CF911F910F91FF90EF90DF90DE
:1007D0000895962F873018F40E94AE15089587303B
:1007E00021F4642F892F0E94BA1808956F927F9286
:1007F0008F929F92AF92BF92CF92DF92EF92FF9231
:100800000F931F93CF93DF931F92CDB7DEB787303F
:1008100051F44091633C423019F47090C43C0DC0D7
:100820007090C33C0AC0873008F041C14091633CDE
:10083000E82FF0E0E654F34C7280962EA82EB12CEF
:1008400021E030E06901082E02C0CC0CDD1C0A94C6
:10085000E2F79091063C892E8C20972D9F70913065
:1008600009F06CC06091BA3C607F66246394660EA8
:100870008091A93C82FF12C09501220F331F205B9B
:10088000334CC5018E56934C7C018E010F5F1F4F78
:10089000492D662D882D0E947506F3C083FF12C076
:1008A0009501220F331F205B334CC5018E56934CAC
:1008B0007C018E010F5F1F4F492D662D882D0E94F0
:1008C0007506DFC080FF12C09501220F331F205B29
:1008D000334CC5018E56934C7C018E010F5F1F4F28
:1008E000492D662D882D0E947506CBC00E94531796
:1008F000882391F09501220F331F205B334CC501F3
:100900008E56934C7C018E010F5F1F4F492D672D32
:10091000882D0E947506B5C09501220F331F205BFC
:10092000334CC5018E56934C7C018E010F5F1F4FD7
:10093000492D662D882D0E947506A3C0923009F0BE
:1009400044C09091A93C92FF0EC0F501EE56F34CC5
:100950001082C0949091083CC922C092083C60E08B
:100960000E94E903A4C093FF0EC0F501EE56F34CBC
:100970001082C0949091083CC922C092083C60E06B
:100980000E94E90394C091FF0EC0F501EE56F34CAE
:100990001082C0949091083CC922C092083C60E04B
:1009A0000E94E90384C09501220F331F205B334C62
:1009B000C5018E56934C7C018E010F5F1F4F462F51
:1009C000672D882D0E9475065CC0933009F048C0E1
:1009D0009091A93C92FF0EC0F501EE56F34C1082A7
:1009E000C0949091083CC922C092083C60E00E94EB
:1009F000E9035DC093FF0EC0F501EE56F34C108283
:100A0000C0949091083CC922C092083C60E00E94CA
:100A1000E9034DC0937091F09501220F331F205BC5
:100A2000334CC5018E56934C7C018E010F5F1F4FD6
:100A3000462F672D882D0E94750623C09501220F31
:100A4000331F205B334CC5018E56934C7C018E01C5
:100A50000F5F1F4F462F672D882D0E94750611C00E
:100A60009501220F331F205B334CC5018E56934CEA
:100A70007C018E010F5F1F4F462F672D882D0E942E
:100A800075069981992351F0F501EE56F34C808358
:100A90008091083CC82AC092083C09C0F501EE5676
:100AA000F34C80838091083CC82AC092083C0F9088
:100AB000DF91CF911F910F91FF90EF90DF90CF903A
:100AC000BF90AF909F908F907F906F900895CF923E
:100AD000DF92EF92FF920F931F93CF93DF93E82E55
:100AE000F12C01E010E0082E02C0000F111F0A9443
:100AF000E2F7873029F49091B73C913009F0E0C0DB
:100B0000C82F670182E0C80ED11CF601E355F34CF3
:100B10008081982F9F719F3109F065C0807C31F4EE
:100B20008091063C802B8093063C32C00E947A1054
:100B3000D82F0E94FE15882321F0D23009F0ACC0D6
:100B4000B2C0F601E355F34C8081882384F4D2309F
:100B500031F48091063C802B8093063C19C0909123
:100B6000063C802F809589238093063C11C086FF28
:100B70000FC0D13031F48091063C802B8093063C2D
:100B800007C09091063C802F809589238093063C76
:100B90002091063C3091073C822F832790E00C2E59
:100BA00002C0959587950A94E2F780FF1CC0F70173
:100BB000EE0FFF1FE05BF34C81E090E080839183B8
:100BC000822F90E00C2E02C0959587950A94E2F74B
:100BD00080FF04C0302B3093073C05C0802F8095E8
:100BE00038233093073C8091063C802331F060919C
:100BF000043C8C2F0E94F60363C08091A93C82FFC5
:100C000006C06091043C8C2F0E94F60359C081FFFE
:100C10002DC0F601E654F34C80818F70823079F458
:100C2000F701EE56F34C108200958091083C0823A2
:100C30000093083C60E08C2F0E94AE1541C08330C9
:100C400031F46091043C8C2F0E94F60339C0F70107
:100C5000EE56F34C108200958091083C08230093D7
:100C6000083C60E08C2F0E94AE152AC0C73029F4E2
:100C700060E080E00E94BA1823C0F701EE56F34C02
:100C8000108200958091083C08230093083C60E0A6
:100C90008C2F0E94AE1514C0F601E355F34C8081F1
:100CA00088235CF456CFF601E355F34C808188230A
:100CB0000CF455CF86FF6CCF5ECF86FD62CF68CF38
:100CC000DF91CF911F910F91FF90EF90DF90CF9028
:100CD00008958091A93C881F8827881F08958091D6
:100CE000A93C86FB882780F90895EF92FF920F9325
:100CF0001F93F901962F92959F70362F3F703130D8
:100D000089F5811107C010821182D7011C92F80168
:100D10001082D3C02081318121153105F9F036953B
:100D2000279536952795822F82958F70891778F0B1
:100D300010821182822F8F60D7018C9381E0F8019D
:100D40008083F0E19F9FC00111248F60B6C0D7015E
:100D50002C9381E0F8018083822FAFC06F60D701B0
:100D60006C93A2C0343009F047C0811107C01082D3
:100D70001182F7011082D8011C929FC0208131811D
:100D80002115310509F490C02C33310550F4F801D8
:100D90001082D7011C92B0E19B9FC00111248F608B
:100DA0008CC02837310530F481E0F8018083D70109
:100DB0001C9283C0243B310550F4F8011082D70106
:100DC0001C92B0E19B9FC00111248F6076C0203936
:100DD000314030F481E0D8018C93F70110826DC06E
:100DE00010821182D8011C92F7011082F0E19F9FBE
:100DF000C00111248F6061C0353021F5811107C019
:100E000010821182D7011C92F801108256C02081F5
:100E100031812115310509F447C02039314060F096
:100E200010821182D8011C92F7011082F0E19F9F7D
:100E3000C00111248F6041C0D8011C92F7011082BB
:100E400080E03BC0363081F5811107C010821182ED
:100E5000D7011C92F801108230C020813181211508
:100E60003105F9F03695279536952795822F82958D
:100E70008F70891778F010821182822F8F60D701CE
:100E80008C9381E0F8018083F0E19F9FC0011124E1
:100E90008F6013C0D7012C9381E0F8018083822FEB
:100EA0000CC06F60D7016C9310821182F801108220
:100EB000F0E19F9FC00111248F601F910F91FF905F
:100EC000EF9008958091C83C0895CF93DF93D82F79
:100ED000C62F6093C83C0E946906882351F0809118
:100EE0008F3C8C9FC0011124992314F481509F4F93
:100EF000C92F8091003C8D1741F08D2F0E94631601
:100F0000D093003C8FEF8093113CC13041F410929C
:100F1000C73C1092C63C80E00E94321780C080918E
:100F2000C63C81111AC08091A83C8823B1F0CC2323
:100F300059F090910A3C911104C080930A3C1092A0
:100F4000133CC093093C6BC01092093CC093C63C53
:100F500080916B3CC81788F009C0C093C63C809153
:100F60006B3CC81718F4CC2341F0C82F9091C73CB4
:100F7000981718F4C1118093C73C8091113C8111DE
:100F80004BC08091103C81114AC00E947212D81748
:100F900089F180910F3C882349F09091B93C9111DF
:100FA0003EC080FF03C08E7F80930F3C9091C63C73
:100FB0008091C73C981750F420916D3C211106C0D8
:100FC000C093C73C8C2F0E94321729C0891750F458
:100FD00020916C3C211106C0C093C73C8C2F0E940D
:100FE00032171DC098131BC0C093C73C8C2F0E94A2
:100FF000321715C080910F3C816080930F3C809127
:10100000653C81110CC080916D3C811108C010922B
:10101000C73C0E94321703C080E00E943217DF9164
:10102000CF9108951092103CE62FEF70EE0F21F44F
:1010300060E00E9465070895E23021F461E00E94BB
:101040006507089564FDEF5FF0E0E159F34C6081BE
:101050000E94650708951092103CEAE6FCE3418186
:10106000E5814E1780F590916E3CE91760F560348C
:1010700090F4E41BE69FF0011124FF230CF4FF968B
:101080000E2EEF2F000CEE1FFF0B000CEE1FFF1FAC
:10109000642F6E0F2CC09E1B70E060547109969FE8
:1010A000A001979F500D1124552314F4415C5F4F0C
:1010B000042E452F000C441F550B000C441F551FD8
:1010C0006E2F640F14C020916E3C421778F4241BDD
:1010D000269F90011124332314F421583F4F220FEF
:1010E000232F221F330B642F620F01C0660F0E9453
:1010F0006507089591E09093103C6091B83C0E9480
:10110000650708958091113C882309F181508093EF
:10111000113C811112C19091C63C8091C73C981737
:1011200038F420916D3C211103C00E9432170895BC
:10113000891738F420916C3C211103C00E943217AA
:1011400008959813FAC0892F0E943217089580914C
:101150000A3C8823B1F09091133C9F5F943618F4B9
:101160009093133C08951092133C815080930A3C55
:101170008111E3C08091093C8093C63C1092C73C2A
:1011800008958091133C8F5F803118F48093133C55
:1011900008951092133C9091123C9F5F9093123CE3
:1011A0008091103C882329F18091C73C2091C63C56
:1011B000821768F42091A13C921708F4BEC08F5F9B
:1011C0008093C73C0E9432171092123C0895281752
:1011D00068F42091A13C921708F4AFC0815080932D
:1011E000C73C0E9432171092123C08951092123C94
:1011F00008950E9472129091003C891709F46DC005
:1012000080910F3C80FF41C08091B93C81111FC08B
:1012100080916C3C811109C08091C63C8093C73C91
:101220000E9432171092123C23C09091123C9817E2
:10123000F8F08091C73C9091C63C891700F58F5F0C
:101240008093C73C0E9432171092123C11C09091BB
:10125000123C981768F08091C73C9091C63C891762
:1012600070F48F5F8093C73C0E9432171092123C3B
:101270009091C73C8091C63C981708F45EC080915D
:101280000F3C8E7F80930F3C08958091C73C9091D6
:10129000C63C891778F420916C3C9091123C9217CF
:1012A00008F44BC08F5F8093C73C0E9432171092A6
:1012B000123C0895981770F420916D3C9091123C67
:1012C0009217D8F181508093C73C0E943217109238
:1012D000123C08951092123C08958091C73C8823D7
:1012E00061F190910F3C916090930F3C9091653C1F
:1012F000911118C090916D3C911108C01092C73C9B
:1013000080E00E9432171092123C08952091123C06
:10131000291798F081508093C73C0E943217109291
:10132000123C08952091123C291738F08150809387
:10133000C73C0E9432171092123C089580910E3CD7
:10134000817008958091723C882309F44CC00E94FA
:1013500072129091003C891739F010920C3C109257
:101360000D3C10920B3C089520910C3C30910D3CAB
:101370002F5F3F4F283E93E0390728F420930C3C21
:1013800030930D3C089510920C3C10920D3C9091BE
:101390000B3C9F5F90930B3C2091723C921718F18D
:1013A00090910E3C90FF04C09E7F90930E3C03C032
:1013B000916090930E3C813021F482E08093003C58
:1013C00005C0823019F481E08093003C8091003C9C
:1013D0000E9463168FEF8093113C10920C3C109288
:1013E0000D3C10920B3C089590E0805090400E947C
:1013F000D61908958F3F910509F018F40E94F40959
:10140000089580E00895E2E0F0E1908191FDFDCF44
:1014100090E0805090400E94DE19089569E083E4D6
:101420000E94030A62E184E40E94030A6BE185E4FE
:101430000E94030A64E286E40E94030A6EE287E4E3
:101440000E94030A67E388E40E94030A60E489E4D7
:101450000E94030A69E48AE40E94030A62E58BE4BD
:101460000E94030A6BE58CE40E94030A64E68DE4A3
:101470000E94030A6DE68EE40E94030A66E78FE489
:101480000E94030A60E880E50E94030A69E881E59A
:101490000E94030A62E982E50E94030A6BE983E580
:1014A0000E94030A64EA84E50E94030A6DEA85E566
:1014B0000E94030A66EB86E50E94030A6FEB87E54C
:1014C0000E94030A68EC88E50E94030A61ED89E541
:1014D0000E94030A6BED8AE50E94030A64EE8BE525
:1014E0000E94030A6DEE8CE50E94030A66EF8DE50B
:1014F0000E94030A6FEF8EE50E94030A089585306B
:10150000C0F4811106C08091623C80618093623C8E
:101510000895815021E030E0A90102C0440F551F19
:101520008A95E2F7CA019091623C892B8093623CD4
:101530000895893080F4855021E030E0A90102C08F
:10154000440F551F8A95E2F7CA019091903C892B70
:101550008093903C08958D3080F4895021E030E0F4
:10156000A90102C0440F551F8A95E2F7CA01909164
:10157000683C892B8093683C0895853180F48D50B8
:1015800021E030E0A90102C0440F551F8A95E2F71F
:10159000CA019091A63C892B8093A63C08958D3179
:1015A00078F4845121E030E0A90102C0440F551FB6
:1015B0008A95E2F7CA019091A03C892B8093A03CC8
:1015C0000895EF92FF920F931F93CF93DF93E2E082
:1015D000F0E1808181FDFDCF80E00E94F4098F3F22
:1015E00019F40E94CC0BD1C00AE61CE3C0E0CF5F27
:1015F0008C2F0E94F409F80181938F01C630B9F74E
:1016000081E10E94F4098093A23C82E10E94F409E6
:101610008093AB3C83E10E94F4098093AA3C8BE168
:101620000E94F4098093C53C8DE10E94F4098093E7
:10163000913C03E71CE30F2EFFE8EF2EFCE3FF2EA7
:10164000F02DC3E48C2F0E94F409F80181938F01DF
:10165000CF5FEE15FF05B1F70F2EFDEAEF2EFCE38D
:10166000FF2EF02D0AEB1CE3C1E28C2F0E94F4093F
:10167000F70181937F018F710E947F0A8FE48C0FA5
:101680000E94F409F80181938F01CF5FCC3269F792
:101690008CE20E94F409C82F80939E3C8DE20E9448
:1016A000F4098093673C8C2F8F710E947F0A809190
:1016B000673C8F710E947F0A83E80E94F40980933F
:1016C0008F3C8FE20E94F4098093713C82E30E9478
:1016D000F4098093643C83E30E94F4098093A53C61
:1016E0008F710E947F0A84E30E94F4098093723C08
:1016F00085E30E94F4098093B93C86E30E94F409D3
:101700008093653C87E30E94F409CBE9DCE388839E
:1017100088E30E94F409898389E30E94F4098A839B
:101720008AE80E94F4098093A33C8AE30E94F409AA
:101730008093B83C8BE30E94F4098093A13C8CE336
:101740000E94F4098093663C8DE30E94F409809323
:10175000AC3C8EE30E94F40980939F3C8FE30E948F
:10176000F4098093A43C8F710E947F0A80E40E9458
:10177000F4098093703C8CE80E94F4098093A83CA3
:1017800084EF0E94F4098093693CDF91CF911F910F
:101790000F91FF90EF90089563E081E00E94030AAB
:1017A00060E082E00E94030A60E083E00E94030A96
:1017B00060E084E00E94030A6FEF85E00E94030A64
:1017C0006FE786E00E94030A61E087E00E94030A57
:1017D0006DE088E00E94030A60EC81E10E94030A48
:1017E00060E082E10E94030A60E083E10E94030A54
:1017F00063E08BE10E94030A6EE08DE10E94030A20
:1018000064E081E20E94030A67E082E20E94030A28
:1018100060E483E20E94030A61E884E20E94030A12
:1018200061E885E20E94030A60E886E20E94030AFA
:1018300061E487E20E94030A61E488E20E94030AED
:1018400063E089E20E94030A60E08AE20E94030AE0
:1018500060E08BE20E94030A6EE38CE20E94030ABE
:101860006EE38DE20E94030A6FE48FE20E94030A96
:1018700069EC82E30E94030A6FEF83E30E94030A8C
:1018800060E084E30E94030A6AE085E30E94030AA1
:1018900063E086E30E94030A6EE187E30E94030A85
:1018A0006AE088E30E94030A68E289E30E94030A6F
:1018B0006FE78AE30E94030A63E08BE30E94030A56
:1018C00063E88CE30E94030A6FE58DE30E94030A3C
:1018D00060EC8EE30E94030A67E08FE30E94030A34
:1018E00061E080E40E94030A60E480E70E94030A4A
:1018F00061EF82E70E94030A63EF83E70E94030A15
:1019000062EF84E70E94030A61EF85E70E94030A01
:1019100063EF86E70E94030A62EF87E70E94030AEB
:1019200064EF88E70E94030A61EF89E70E94030AD7
:1019300062EF8AE70E94030A6FE383E80E94030ACA
:1019400064E68AE80E94030A60E08CE80E94030AC9
:1019500060E084EF0E94030A0E940E0A60E080E0CB
:101960000E94030A0E94E10A08950F931F93CF93E8
:10197000DF93EC01162F8F3F910511F008F09CC00A
:101980008F50823048F08FE00E94F409082F80E1E8
:101990000E94F409081390C0CE019927FC013197E9
:1019A000E43FF10508F084C0E25CFF4F0C94D019CD
:1019B000FC01E759F34C10837BC01D3019F018303F
:1019C00009F07AC06FEF80E00E94030A0E94CC0BFE
:1019D00073C01093A23C6CC01093AB3C69C01093D1
:1019E000AA3C66C01093C53C63C08091703C80FDEA
:1019F00018601093913C5CC0FC01E457F34C1083D9
:101A0000812F8F710E947F0A53C010939E3C812FBB
:101A10008F710E947F0A4CC01093673C812F8F7199
:101A20000E947F0A45C01093713C42C01093643CF1
:101A30003FC01093A53C3CC01093723C39C010933A
:101A4000B93C36C01093653C33C0FC01EC59F34CF3
:101A500010832EC01093B83C2BC01093A13C28C01B
:101A60001093663C25C01093AC3C22C010939F3C61
:101A70001FC01093A43C812F8F710E947F0A18C051
:101A80001093703C15C0FC01E05DF34C108310C056
:101A9000FC01E65BF34C10830BC010938F3C08C035
:101AA0001093A33C05C01093A83C02C01093693C5E
:101AB000612F8C2F0E94030ADF91CF911F910F910C
:101AC0000895FF920F931F93CF93DF938C01F62E0F
:101AD000862F8770C1E0D0E002C0CC0FDD1F8A9551
:101AE000E2F7C8010E94FA09F3FE03C06C2F682BCD
:101AF00003C0C0956C2F6823C8010E94B50CDF910C
:101B0000CF911F910F91FF90089581E08093153C34
:101B10008093163C0E94081681E00E94901608955A
:101B20001092C93C0895CF93FB0190818091CB3CEA
:101B3000981376C0C1818091CC3CC81371C02281BA
:101B40008091CD3C28136CC092FD2AC02091143C9A
:101B500030E021503109220F331F220F331F892F0C
:101B60008370280F311D2F5F3F4F93FF0CC06C2FE8
:101B7000C9010E94B50C8091C93C84608093C93C26
:101B80000E94850D59C0C9010E94FA09C81354C0AA
:101B90008091C93C82608093C93C0E94850D4CC0F5
:101BA000892F8770853061F018F48430C1F044C00B
:101BB000863019F0873081F03FC027E030E011C057
:101BC0008091C93C80FD38C0C093143C81608093F3
:101BD000C93C0E94850D30C028E030E002C02DE1F4
:101BE00030E093FF0EC06C2FC9010E94B50C8091AC
:101BF000C93C82FD21C084608093C93C0E94850D50
:101C00001BC0C9010E94FA09C81316C08091C93CC3
:101C100081FD12C082608093C93C0E94850D0CC07A
:101C2000ABECBCE39C93818111968C9311978281DC
:101C300012968C931092163CCF910895CF93FB018E
:101C400090818091CB3C98132FC021818091CC3C16
:101C500028132AC0C2818091CD3CC81325C033818E
:101C60008091CE3C381320C08091163C81112CC04D
:101C7000892F837030E0280F311D2F5F3F4F9C70FC
:101C8000943019F09C3049F01FC0C9010E94FA0934
:101C9000C8131AC00E94850D17C06C2FC9010E947D
:101CA000B50C0E94850D10C0ABECBCE39C93818108
:101CB00011968C931197828112968C93129783813F
:101CC00013968C931092163CCF9108958091153CF9
:101CD000882389F08F5F8D3018F48093153C089528
:101CE0001092153C81E08093163C82E00E94081619
:101CF00082E00E949016089580911A3C882329F072
:101D0000815080931A3C0E94660E08958F929F9294
:101D1000BF92CF92DF92EF92FF920F931F93CF93D8
:101D2000DF93FB018330D9F4908191110CC0918134
:101D300091119CC19281911199C18EE180931A3CBD
:101D40000E94900D99C19F3F51F49181911186C1DC
:101D500092819F3F09F082C110921A3C8DC19091EF
:101D6000AA3C992361F0208122230CF42AC13181FD
:101D7000307E303E09F42BC19093193C04C0909101
:101D8000193C992341F02081222309F475C12F7752
:101D9000291372C128C12081222354F09091913CD3
:101DA00095FD1BC190916A3C921366C121E01CC154
:101DB000922F907C903C09F05FC19091913C95FFEF
:101DC0005BC19091A23C921357C121819091AB3C91
:101DD000291352C122E008C190E030E02D5F3F4F4F
:101DE0008217930709F048C16F716F3109F044C140
:101DF0004F5F5F4FE40FF51FC081CF778FEF809368
:101E0000023C8081882364F48091913C80FF04C06F
:101E100082E08093183C0FC081E08093183C0BC097
:101E20008091913C80FF04C081E08093183C03C006
:101E300082E08093183C0E949E09882359F080918B
:101E4000183C813021F482E08093183C03C081E08B
:101E50008093183C6C2F8091183C0E942B080CC179
:101E600090E030E02E5F3F4F8217930709F004C1E6
:101E70008FEF8093013C65FF0CC08091913C80FF07
:101E800004C082E08093183C0FC081E08093183C2E
:101E90000BC08091913C80FF04C081E08093183C8E
:101EA00003C082E08093183C0E949E09882359F069
:101EB0008091183C813021F482E08093183C03C06B
:101EC00081E08093183C68818091183C0E94120840
:101ED000D3C090E030E02E5F3F4F8217930709F0A8
:101EE000CBC04091183C81E00E947603C5C090E0D1
:101EF00030E02E5F3F4F8217930709F0BDC064FFAB
:101F000006C04091183C82E00E947603B5C0409123
:101F1000183C83E00E947603AFC06E3D49F4E40FA5
:101F2000F51F4091183C618184E00E947603A4C0B3
:101F30006F3D09F0A1C0E40FF51F4091183C61818D
:101F400085E00E94760398C0D4017D914D01D901AE
:101F50006D919D01761779F06881DC016C93D60153
:101F60006C91DC0111966C93D8016C91DC01129696
:101F70006C93B092173C8E149F0431F71092173C6B
:101F8000888183FF79C082FF0EC0E40FF51F218195
:101F9000837090E0982F8827820F911D62810196AF
:101FA0000E94B50C69C0E40FF51F2181837090E099
:101FB000982F8827820F911D628101960E94610DE2
:101FC0005BC09091193C992309F4F2CEDCCE90913C
:101FD000193C992309F4E2CED6CE922F907C903C06
:101FE00009F04AC0EECE21E0422F50E0EF01C40FCD
:101FF000D51F6881962F907E903809F46ACF50F4EF
:10200000903409F42DCF903609F42ACF903209F498
:10201000E3CE32C0903C09F480CF903E19F0903A64
:1020200059F565CF0F2EF3ED8F2EFCE39F2EF02D8B
:102030009E010F2EF6EDEF2EFCE3FF2EF02DC401D6
:102040008F01040F151F6801BFEFCB1ADB0A0E5F6B
:102050001F4FBB24B39478CF2081B3CF9091AA3C7B
:10206000992309F48CCEF8CF208181CE9091AA3C9F
:10207000992309F484CEF8CFDF91CF911F910F916E
:10208000FF90EF90DF90CF90BF909F908F9008953A
:10209000823079F190911A3C992349F1FB019081AA
:1020A0009077903721F59EE190931A3C833019F098
:1020B0008430C9F00895FB018081811107C08181BE
:1020C00081110DC0828181110AC008958F3F39F4BA
:1020D000FB018181811103C082818F3F51F083E038
:1020E0000E94930D089584E00E941E0E08950E94A0
:1020F000860E08958091183C089581E090911A3CD5
:10210000911101C080E00895803430F4E82FF0E0B0
:10211000E057FD4F8491089580E00895CF93DF93B9
:10212000C62F880F880F962F929596959695937047
:10213000890F0E948410D82F8C2F8F730E948410D7
:10214000C82F8D2F0E9492198C2F0E949219DF9117
:10215000CF9108958091693C8130B9F40E94621753
:10216000BC017695679590911B3C911108C0672F33
:1021700081E00E948E1081E080931B3C089582E0F4
:102180000E948E1010921B3C08958230A9F40E9488
:10219000B61820911B3C211108C0692F81E00E94D4
:1021A0008E1081E080931B3C0895682F82E00E948E
:1021B0008E1010921B3C08958330A9F480911B3C33
:1021C000811108C060E081E00E948E1081E0809360
:1021D0001B3C08950E946207682F82E00E948E10C7
:1021E00010921B3C08958091913C83FF30C09091E8
:1021F000AA3C91112CC085FD14C080911B3C81111B
:1022000008C060E081E00E948E1081E080931B3C5A
:10221000089560916A3C82E00E948E1010921B3CEF
:10222000089580911B3C81110BC06091A23C6F739B
:10223000605881E00E948E1081E080931B3C0895DD
:102240006091AB3C82E00E948E1010921B3C08957E
:10225000CF93DF93CDB7DEB7E197CDBFDEBF0E944E
:10226000BF120E9417190E941E160E9496150E9406
:102270002B140E947F190E94F0110E94E10A7894A9
:1022800000E010E0E12CF12CBE016F5F7F4FCE012A
:10229000C1960E943B1489A9882331F0BE016F5F6B
:1022A0007F4F0E94481019AA0E947D10882339F0A0
:1022B0000E943119882341F30E947C0EE5CF0E94D1
:1022C000E913813029F40E9404120E943B1206C0D7
:1022D000823021F40E9404120E943B120E948B154E
:1022E00081110E94AA100E943C19882321F00E94AB
:1022F00019180E9487010E943119882341F0112387
:1023000009F465C05FC011E00E94561700E0112378
:1023100009F4BACF812F90E0FC013197EF30F1053D
:1023200008F04AC0EE5CFE4F0C94D0190E941314C2
:102330000E947B1211E052C00E94A2094FC00E946D
:1023400082084CC00E94D10149C08BEF810F0E94CE
:10235000670532C00E947C0E41C08091913C82FF93
:102360003DC00E9421148823C9F10E94BC120E9422
:102370007A080E94BC120E94F10130C08091713C29
:10238000882354F5F39499E09F1510F4E394F12C0D
:102390004E2D50E0282F2F7330E042175307E4F002
:1023A00086FF05C08BE00E940717E12C15C08CE06A
:1023B0000E940717E12C10C01F5F103108F464CF92
:1023C00010E062CF0F5F0A3009F0A4CF9DCF0F5FFE
:1023D0000A3009F498CFAACF10E056CF1F5F54CF30
:1023E000A0E0B4E080E212968C931297E0E4F4E06F
:1023F00084E0828355968C915597886055968C938E
:1024000082898860828B08958091080485FF06C0C8
:102410008091223C8F5F8093223C05C08091213CBB
:102420008F5F8093213C80911E3C8F5F8A3F18F420
:1024300080931E3C089510921E3C8091C53C80FF05
:1024400010C08091213C8A3030F480911C3C816026
:1024500080931C3C0BC080911C3C8E7F80931C3C65
:1024600005C080911C3C8E7F80931C3C1092223CC6
:102470001092213C08958091480482FF06C080910B
:10248000203C8F5F8093203C05C080911F3C8F5F74
:1024900080931F3C80911D3C8F5F8A3F18F480938E
:1024A0001D3C089510921D3C8091C53C81FF10C0D9
:1024B00080911F3C8A3030F480911C3C8260809374
:1024C0001C3C0BC080911C3C8D7F80931C3C05C044
:1024D00080911C3C8D7F80931C3C1092203C10927C
:1024E0001F3C08950E946F06811103C080911C3C1F
:1024F000089580E008958091080482FF13C08091C0
:10250000080484FD21C08091233C882319F0815068
:102510008093233C8091243C8E31B0F48E5F809375
:10252000243C12C08091080484FF0EC08091243C9A
:102530008823E9F081508093243C8091233C8E31A4
:1025400018F48E5F8093233C8091243C803120F0EE
:1025500081E08093253C08958091233C803120F0D8
:1025600082E08093253C08951092253C0895809147
:10257000233C8E3130F3F0CF8091253C089588EDD7
:1025800084BF81E080936100E0E8F0E084E0808334
:10259000118208959091263C80910804892782FF3A
:1025A0000EC08091080482FF05C094609093263C81
:1025B00081E006C09B7F9093263C81E001C080E0D3
:1025C0002091263C90910804922794FF0CC08260D1
:1025D0009091080494FF04C020612093263C089544
:1025E0002F7E2093263C089580FF68C09091263C62
:1025F00092FF50C090913A3C90FD47C091609093FB
:102600003A3C40914A0A50914B0A2091383C309113
:10261000393C2417350760F440914A0A50914B0A1F
:10262000BA01621B730B6093363C7093373C0CC04D
:1026300040914A0A50914B0A5053BA01621B730BE6
:102640006093363C7093373C90912C3C9160909312
:102650002C3C20914A0A30914B0A29333F4C58F0C8
:1026600020914A0A30914B0A28533F4C2093D63C84
:102670003093D73C0AC020914A0A30914B0A285324
:102680003F4F2093D63C3093D73C1092333C10926E
:102690002B3C14C090913A3C90FF10C09E7F9093C9
:1026A0003A3C20914A0A30914B0A2093383C3093AF
:1026B000393C90912C3C9E7F90932C3C8370E9F1A7
:1026C0008091263C84FF2DC080913A3C81FD24C03E
:1026D000826080933A3C80912C3C826080932C3CB9
:1026E00080914A0A90914B0A89339F4C58F080910F
:1026F0004A0A90914B0A88539F4C8093FA3C9093DE
:10270000FB3C0AC080914A0A90914B0A88539F4F24
:102710008093FA3C9093FB3C1092333C10922B3CFC
:102720000CC080913A3C81FF08C08D7F80933A3C79
:1027300080912C3C8D7F80932C3C8091080482FDFD
:1027400014C08091080484FD10C080912B3C81113D
:1027500014C080914A0A90914B0A8093293C90932F
:102760002A3C81E080932B3C08951092333C1092D8
:102770002B3C1092293C10922A3C08951F920F92F4
:102780000FB60F9211242F933F934F935F936F9344
:102790007F938F939F93AF93BF93EF93FF93E0E06B
:1027A000F4E08185846181870E94CA120E94F4123C
:1027B000FF91EF91BF91AF919F918F917F916F9119
:1027C0005F914F913F912F910F900FBE0F901F90EF
:1027D000189590912C3C90FF10C040914A0A50915E
:1027E0004B0A2091D63C3091D73C2417350728F46A
:1027F0009E7F90932C3C81E00895892F827091FFF9
:1028000011C040914A0A50914B0A2091FA3C3091F4
:10281000FB3C2417350728F49D7F90932C3C82E0E5
:10282000089580E0089580912D3C90912E3C803257
:1028300023E0920728F4019680932D3C90932E3C40
:10284000089581E020912D3C30912E3C2032334080
:1028500008F480E00895E0E0F4E084E1828381E020
:10286000828B848BE0E4FAE083E080838FEF9FEC3F
:102870008487958708952091913C23FF99C02091EA
:10288000333C2223F1F13091080432FD04C0309131
:10289000080434FF09C01092333C10922B3C109274
:1028A000293C10922A3C84C040914A0A50914B0A1C
:1028B000E091313CF091323CE417F50738F4409157
:1028C0004A0A50914B0A4E1B5F0B07C040914A0ABF
:1028D00050914B0A50534E1B5F0B213009F068C0DA
:1028E0002091273C3091283C4217530708F460C0E0
:1028F00020912F3C216020932F3C22E02093333CF9
:1029000057C020912B3C222309F43FC0209108049A
:1029100022FD04C02091080424FF09C01092333C1A
:1029200010922B3C1092293C10922A3C41C02091DD
:102930004A0A30914B0A4091293C50912A3C421757
:10294000530738F420914A0A30914B0A241B350B67
:10295000D8C020914A0A30914B0A3053241B350BC2
:10296000D0C081E08093333C80914A0A90914B0A19
:102970008093313C9093323C8CE390E08093273CF1
:102980009093283C10922B3C08952091080422FD3E
:102990000FC02091080424FD0BC020914A0A3091F9
:1029A0004B0A2093293C30932A3C21E020932B3C76
:1029B0002091363C3091373C2115310541F480910E
:1029C000343C9091353C892B09F0A0C008951092B9
:1029D000363C1092373C1092343C1092353CA901A1
:1029E0004D5D5109453E510590F421E02093FC3C9A
:1029F0002091303C2F5F2093303CE091FD3CF0E093
:102A0000E652F34C2081220F2F5F208322C0255FE6
:102A100031402B35314C08F07DC01092FC3C2091A8
:102A2000303C2E3060F081E080931E3D1092DA3C05
:102A30001092FD3C10921F3D1092303C0895109270
:102A4000303CE091FD3CF0E0E652F34C2081220F57
:102A500020832091FD3C203208F05CC020911E3D77
:102A6000211123C02091FC3C2130F9F420911F3D1D
:102A7000211118C0FC0110823091FD3C3323B9F0C4
:102A800030E0F901E652F34C4081FB01E20FF31F05
:102A90004083FC0120812F5F20833091FD3C231770
:102AA00078F305C0FC01108202C0FC011082809105
:102AB0001E3D8F5F80931E3D893061F510922D3C45
:102AC00010922E3CE091FD3CE11107C08091DA3C70
:102AD0008F3F19F48093FD3C0895AE2FB0E0A652CD
:102AE000B34C90911F3D8C91892780931F3DEF5FE0
:102AF000E093FD3CF0E0E652F34C108210921E3D54
:102B000008952338310508F453CF2BCF1092343C6D
:102B10001092353C089590912F3C892F817090FF41
:102B200004C09E7F90932F3C81E00895E0E0F4E0A4
:102B3000818188688183E0E2F4E081818863818318
:102B4000A0E4B4E011968C911197836011968C9358
:102B500081818D7F818388E0818B089590E087302B
:102B6000910508F04AC0FC01EF5BFE4F0C94D019B0
:102B7000662321F088E080930504089588E080931F
:102B800006040895662321F082E0809345040895A9
:102B900082E0809346040895662321F080E88093C4
:102BA0000504089580E8809306040895662321F0C3
:102BB00088E080932504089588E080932604089592
:102BC000662321F080E280932504089580E28093BB
:102BD00026040895662321F081E08093450408953A
:102BE00081E0809346040895662321F080E180937C
:102BF0002504089580E18093260408958091280497
:102C00008695817091E08927089580913B3C0895D5
:102C1000CF93813019F480933B3C0CC010923B3C25
:102C200009C060913B3C8C2F0E94AE15CF5FC7302E
:102C3000C1F702C0C0E0F5CFCF910895E0E0F4E025
:102C4000828182608283818180648183A0E2B4E09A
:102C500011968C911197816011968C93A0E4B4E049
:102C600011968C911197886011968C93119786819B
:102C70008064868316968C911697886016968C933E
:102C8000A0E0BAE091E09C9383E111968C931197B8
:102C90002FEF30E096962D933C93979798961D9240
:102CA0001C92999785818064858380E38093A0003E
:102CB000E0E0F6E085E08083918384E4828380E233
:102CC00083831482089590914C3C911128C0909177
:102CD000B73C913021F1813059F4E0E4F4E0868191
:102CE00088608683E0E0F4E08581806485830895D0
:102CF000823059F4E0E0F4E0868180648683E0E489
:102D0000F4E08581886085830895E0E0F4E08681C1
:102D100080648683E0E4F4E0868188608683089599
:102D2000813079F483E08093010A88E0809346043F
:102D300080E48093050481E08093250480934C3CDB
:102D4000089588E08093460480E48093060481E03F
:102D50008093260483E18093010A10924C3C0895ED
:102D60009091B73C9130B1F0813019F48093000A12
:102D70000895823021F483E08093000A08958C3016
:102D800021F48DE08093000A08958B3019F48FE0D0
:102D90008093000A08951F920F920FB60F9211248C
:102DA0002F933F934F935F936F937F938F939F9353
:102DB000AF93BF93EF93FF93E0E0FAE083858160E8
:102DC000838780914B3C882389F0813051F40E94A5
:102DD000B01610924B3CE0E0FAE082858E7F82874D
:102DE00005C00E94B01681E080934B3CFF91EF91AB
:102DF000BF91AF919F918F917F916F915F914F9113
:102E00003F912F910F900FBE0F901F9018959091AA
:102E10004C3C91110BC09091B73C913039F08093AC
:102E20004B3CE0E0FAE082858160828708959091D2
:102E3000453C60919F3C961798F42091AC3C30E063
:102E40004FEF50E0421B530B949FF001959FF00D04
:102E5000112470E0CF010E94BC19862F820F0895C3
:102E60008FEF0895CF939091B73C913019F48093F0
:102E7000453C17C09091453C891799F0C82F809325
:102E8000473C8093453C0E941717682F8093483C2D
:102E90002FEFC29FC001112470E00E94A819609317
:102EA000443CCF9108958091453C08958091663CC3
:102EB00088233CF48091433C811103C081E08093DE
:102EC000433C08958091403C9091413C08958F92FD
:102ED0009F92AF92BF92CF92DF92EF92FF920F93A9
:102EE0001F93CF93DF934091473C411103C0109251
:102EF000463C92C0EBE9FCE3A080B12CC180D12C10
:102F0000E280F12C2091403C3091413C3695279550
:102F10005FEF529FC001539F900D11246091A33C1D
:102F200070E00E94A819042F10E0862F972F8F3F82
:102F3000910519F014F08FEF90E0E801C81BD90B50
:102F40002AE030E0CE01B9010E94BC1980913E3CDC
:102F500090913F3CFB01E80FF91FE0933E3CF0935A
:102F60003F3C80913C3C90913D3CBE01681B790BFD
:102F7000CB0164E670E00E94BC194B01C0933C3C5D
:102F8000D0933D3CAC9EC001AD9E900DBC9E900D7B
:102F90001124B9010E94BC19EB01CE9EC001CF9E45
:102FA000900DDE9E900D1124B9010E94BC19FE0106
:102FB000E60FF71FE89CC001E99C900DF89C900D6E
:102FC0001124B9010E94BC196E0F7F1F6F3F71055C
:102FD00029F024F08FEF8093463C08C0772324F437
:102FE0001092463C80E010C06093463C8091463C85
:102FF000481750F490E0801B910B813A910564F0E2
:1030000040564093463C08C0081B1109013A11057F
:103010001CF0405A4093463CDF91CF911F910F9195
:10302000FF90EF90DF90CF90BF90AF909F908F90E8
:1030300008958091B73C813009F497C080914C3C51
:10304000811193C08091433C8823C1F18436D8F428
:10305000813049F4E0E0FAE080A591A58093423CFC
:1030600010A611A60AC08A3041F4E0E0F6E081E043
:103070008683808784E68093433C8091433C8F5FC6
:103080008093433C0895853609F06FC0809108060F
:1030900080FD6BC080911006909111068093403C9A
:1030A0009093413C1092433C8091423C90E080934D
:1030B000280A9093290A0E94671708958091663C18
:1030C000982F9F7791F4882344F48091463C90E0B8
:1030D0008093280A9093290A08958091453C90E0B6
:1030E0008093280A9093290A0895933079F4809167
:1030F0004A3C8F3F19F410924A3C089510924A3C82
:103100008091493C8F5F8093493C0DC081FF06C090
:103110008091493C8E5F8093493C05C08091493C39
:103120008F5F8093493C9091483C8091493C98172F
:1031300048F4E0E0FAE010A611A68EEF90E080A33C
:1031400091A308958091663C882344F48091463C85
:1031500090E08093280A9093290A08958091443C36
:1031600090E08093280A9093290A08958091463C24
:1031700090E008959091B73C913081F593E0909361
:10318000010A613059F4E0E4F4E096819860968396
:10319000E0E0F4E095819064958317C0623059F4C3
:1031A000E0E0F4E0968190649683E0E4F4E09581B9
:1031B000986095830AC0E0E0F4E09681906496837D
:1031C000E0E4F4E0968198609683882321F081E022
:1031D00080932504089581E08093260408951F922A
:1031E0000F920FB60F9211248F9380914D3C816006
:1031F00080934D3C81E0809353018F910F900FBEDF
:103200000F901F9018951F920F920FB60F921124D6
:103210008F9383E08093430180914D3C8260809343
:103220004D3C8F910F900FBE0F901F901895E0E4CA
:10323000F1E081818111FDCFE0E4F1E01486158693
:1032400081E090E082879387178281E8808382897A
:103250008160828B81E2808B82818360828378941B
:10326000089590914D3C892F817090FF04C09E7FFE
:1032700090934D3C81E0089590914D3C892F827050
:1032800091FF04C09D7F90934D3C81E008951F9273
:103290000F920FB60F9211248F939F93AF93BF930A
:1032A000EF93FF93E0E0F8E0848180628483F894F8
:1032B00080914F3CA82FB0E0AF5DB24C9C919283BF
:1032C0008F5F803318F480934F3C02C010924F3CC4
:1032D00090914F3C80914E3C981305C0E0E0F8E09F
:1032E00085818F7D85837894FF91EF91BF91AF9118
:1032F0009F918F910F900FBE0F901F901895E0E255
:10330000F4E0818184608183858184608583E0E04D
:10331000F8E080EA90E08087918780E4868383E00C
:103320008783089590914E3CE92FF0E0EF5DF24CD9
:1033300080839F5F903318F490934E3C02C01092AC
:103340004E3CE0E0F8E085818062858378940895C2
:10335000AA1BBB1B51E107C0AA1FBB1FA617B707BB
:1033600010F0A61BB70B881F991F5A95A9F78095D7
:103370009095BC01CD01089597FB072E16F400949B
:1033800007D077FD09D00E94A81907FC05D03EF4AC
:10339000909581959F4F0895709561957F4F089501
:1033A000EE0FFF1F0590F491E02D099403D080816A
:1033B00099270895FC01E050FC4E0895262F0E94A5
:1033C000DA190080021619F00E94EA190197019794
:1033D0000895262FAF93BF93E0E0F0E1328131FDF5
:1033E000FDCFDC01A050BC4E2C932DE924BF23E07F
:0E33F00020830196BF91AF910895F894FFCF0E
:0433FE00FFFFFF00CE
:00000001FF
