:100000000C9472000C948F000C948F000C94881543
:100010000C9474150C948F000C949B110C948F000D
:100020000C9451130C948F000C948F000C948F003F
:100030000C94A7100C948F000C948F000C948F00DC
:100040000C948F000C948F000C94D4150C948F009A
:100050000C948F000C948F000C948F000C948F00E4
:100060000C948F000C948F000C948F000C948F00D4
:100070000C948F000C948F00140F190F1C0F1F0F7E
:10008000240F240F240F240F240F240F240F240FD8
:100090002D0F300F410F1113131315131E132013BF
:1000A00022132B13ACAAA9A5A3A69C9A9995939663
:1000B0008E8D8BB1B2B4B874726C6A696563665C1C
:1000C0005A595553564E4D4B4771E8E4E2D1C9C5D4
:1000D000D8D4D2C9C6CC78171B1D1E2E363A272B72
:1000E0002D35393311241FBECFEFCDBFDFE3DEBF87
:1000F00018E3A0E0B8E3EEE1FDE202C005900D9246
:10010000A430B107D9F729E3A4E0B8E301C01D92F8
:10011000A138B207E1F70E94A90E0C948D160C9439
:10012000000080910838882309F440C08091053888
:100130008730A0F4E82FF0E0E854F74C9081992341
:1001400039F12091CB382F7092959F70291710F4B8
:1001500061E001C060E00E9408131AC08730C1F45A
:100160008091BF388823A1F09091CB389F70829501
:100170008F702091D23822FD03C06091893801C070
:1001800061E0981710F481E001C080E00E944F15F3
:10019000809105388F5F80930538883039F48091DD
:1001A000CB388F5F8093CB381092053808950E942A
:1001B0003B13811118C0809104388F5F803118F48F
:1001C0008093043802C010920438E6E7F8E3808197
:1001D0009181009719F0019680839183329688E38C
:1001E000E838F807A1F7089540918A38E7EDF8E379
:1001F00090E021E03191307C49F0303419F48130C5
:1002000041F404C0303829F4823019F4342F3223F9
:10021000932B220F38E3EF3DF30761F78093893882
:1002200047FF05C08091DF38813009F490689093D2
:10023000063808956F7146131BC04091D2382223AF
:1002400051F021E030E001C0220F8A95EAF7242B1B
:100250002093D238089521E030E0B90102C0660F42
:10026000771F8A95E2F7CB01809584238093D2385B
:1002700008950F93CF93DF93962F9F71491363C017
:10028000607C482F50E090910638E091073861116A
:1002900003C021110BC02EC0603419F4013051F598
:1002A000F8CF603839F5023029F5F3CFC1E0D0E05E
:1002B0009E01082E01C0220F0A94EAF7922B909318
:1002C00006386E2F70E060957095DB0102C0B59521
:1002D000A7958A95E2F7A0FF36C0DA01AA0FBB1FE7
:1002E000AA58B74CCD93DC93DA01A854B74C1C92B2
:1002F0002E2B27C0C1E0D0E09E01082E01C0220FA6
:100300000A94EAF720959223909306386E2F70E0B6
:10031000DB0102C0B595A7958A95E2F7A0FF13C04F
:10032000DA01AA0FBB1FAA58B74CCD93DC93DA01B0
:10033000A854B74C1C9280910838822380930838C7
:100340002E2320930738DF91CF910F91089590913C
:10035000DF38913069F58F7168132AC090910638A3
:1003600080910738442379F090689093063887FD90
:100370001FC021E030E020938438309385381092FC
:10038000BF38806813C09F779093063887FF10C0EE
:1003900021E030E020938438309385381092BF38C4
:1003A000909108389F77909308388F77809307381B
:1003B0000895EF92FF920F931F93CF93DF93C82F6F
:1003C000D62F142F4093893885EDE82E88E3F82E38
:1003D000F70160816F772D2F4C2F80E00E941A016A
:1003E0002D2F4C2FF701618181E00E941A01012F0E
:1003F0002D2F4C2FF701628180E00E9439012D2FB3
:100400004C2FF701638181E00E9439012D2F4C2F81
:10041000F701648182E00E9439012D2F4C2FF701F2
:10042000658183E00E9439012D2F4C2FF7016681F1
:1004300084E00E9439012D2F4C2FF701678185E060
:100440000E9439012D2F4C2FF701608586E00E9414
:100450003901212F4D2F6C2FF70181850E94A701B3
:100460002D2F4C2F6091C43883E00E941A012D2F4C
:100470004C2F60918C3882E00E941A012D2F4C2F56
:100480006091C93886E00E941A012D2F4C2F60918F
:10049000CF3887E0DF91CF911F910F91FF90EF90C0
:1004A0000C941A01DF92EF92FF920F931F93CF9358
:1004B000DF93182FE62E042F813049F4C09188383D
:1004C000CC2309F459C084E0F82ED1E029C0823051
:1004D00049F4C091B638CC2309F44EC048E0F42E5C
:1004E000D5E01EC0833049F4C0918D38CC2309F487
:1004F00043C03CE0F32ED9E013C0843041F4C091F6
:10050000CA38CC23C9F124E1F22EDDE009C08530E0
:1005100099F5C091C538CC2379F19CE1F92ED5E14C
:100520000E943413882329F0013011F001E001C04A
:1005300002E0DD24D394FD1660F08C2F8D2131F084
:10054000402F6D2D6E218D2F0E94D901DD0CDF5FB4
:10055000F2CF113089F48091883884FF0DC06E2D60
:100560006071402F80E0DF91CF911F910F91FF903C
:10057000EF90DF900C94D901DF91CF911F910F91F3
:10058000FF90EF90DF900895962F873010F40C9431
:100590000813873021F4642F892F0C944F15089588
:1005A0006F927F928F929F92AF92BF92CF92DF9283
:1005B000EF92FF920F931F93CF93DF931F92CDB7CC
:1005C000DEB7873051F440918938423019F4709089
:1005D000EC380DC07090EB380AC0873008F07EC050
:1005E00040918938E82FF0E0EE51F74C7280862E6A
:1005F000282F30E061E070E06B01082E01C0CC0CC8
:100600000A94EAF7909006389C20972D9F70B901C4
:100610006854774C5B01913071F58091E238807FAE
:1006200066246394680E8091D2388901000F111FEF
:1006300082FD04C083FD02C080FF09C098012A58D2
:10064000374C75018E010F5F1F4F482D12C08091EE
:10065000D53887FF02C098012FC00E94131498015B
:100660002A58374C75018E010F5F1F4F482D81119D
:100670002AC0662D29C0923049F49091D23892FD5B
:100680000DC093FD0BC091FF15C008C0933091F4CD
:100690009091D23892FD02C093FF0CC0F5011082F8
:1006A000C09490910838C922C092083860E00E9436
:1006B000C40214C0220F331F2A58374C75018E0113
:1006C0000F5F1F4F482D672D892D0E945904F5019A
:1006D000808380910838C82AC09208380F90DF9133
:1006E000CF911F910F91FF90EF90DF90CF90BF902F
:1006F000AF909F908F907F906F900895AF92BF9230
:10070000CF92DF92EF92FF920F931F93CF93DF93DD
:10071000E82EF12CC1E0D0E0082E01C0CC0F0A94E5
:10072000EAF7873029F49091DF38913009F0AAC0B8
:10073000182F670182E0C80ED11CF601EB52F74C6E
:100740005F018081982F9F719F3109F050C0807C9C
:1007500019F48091063814C00E94120E082F0E94CE
:100760003413882329F0023011F002E001C001E0C7
:10077000F50190818091063897FF06C0023011F490
:100780008C2B0BC09C2F07C096FF09C09C2F0130FB
:1007900011F48C2B02C09095892380930638209108
:1007A000063880910738422F482750E0012E02C0BA
:1007B000559547950A94E2F740FF19C0F701EE0FEF
:1007C000FF1FEA58F74C41E050E04083518330E08E
:1007D000012E02C0359527950A94E2F720FF02C04A
:1007E0008C2B03C09C2F9095892380930738809190
:1007F00006388C2379F060910438812FDF91CF91F6
:100800001F910F91FF90EF90DF90CF90BF90AF902E
:100810000C94D0028091D23882FDEDCF81FF0AC0C6
:10082000F601EE51F74C80818F70823099F0833061
:1008300089F4E1CF173071F460E080E0DF91CF916F
:100840001F910F91FF90EF90DF90CF90BF90AF90EE
:100850000C944F15F701E854F74C1082C095809125
:100860000838C823C093083860E0812FDF91CF910A
:100870001F910F91FF90EF90DF90CF90BF90AF90BE
:100880000C940813DF91CF911F910F91FF90EF907F
:10089000DF90CF90BF90AF9008958091D238881F9D
:1008A0008827881F08958091D23886FB882780F991
:1008B0000895EF92FF920F931F93CF93DF93982F9A
:1008C000F901D801E701862F82958F70462F4F706E
:1008D000413009F5911105C01082118218821C92D5
:1008E0007FC0208131812115310529F1B90176952B
:1008F000679576956795962F92959F70981738F023
:1009000010821182962F9F6098834C9384C06883D5
:100910004C93862F85C0443089F0453009F44EC091
:10092000463009F075C09923B9F2408151814115D3
:10093000510509F057C06F6068836AC0992361F25E
:10094000408151814115510509F462C04832510579
:1009500030F491E09C9318821092093815C0423807
:10096000510540F1443B510548F491E09C931882B5
:1009700028E0829FC0011124876052C0423D51058A
:1009800048F491E09C93188224E0829FC0011124D6
:10099000836046C04C3791E05907D8F443FF0AC042
:1009A00081E08C931882809109388F5F8093093899
:1009B000880F36C091E09C93188232C0992309F4C5
:1009C0008BCF408151814115510511F14039514082
:1009D00028F0108211821C9218821DC01C9218826D
:1009E00080E01EC05695479556954795942F929551
:1009F0009F70981740F010821182942F9F60988307
:100A000091E09C9308C0488381E08C93842F08C0B8
:100A1000108211821C9220E1829FC00111248F60FC
:100A2000DF91CF911F910F91FF90EF9008958091EA
:100A3000F0380895CF93DF93D82FC62F6093F03806
:100A40000E944D04882331F08091B538C89FC001C1
:100A50001124C92F0E943413882329F0D23011F0B9
:100A6000D2E001C0D1E080910038D81741F08D2F3D
:100A70000E949713D09300388FEF80931238C130C3
:100A800029F41092EF381092EE3863C08091EE385E
:100A9000811113C08091D138882379F0CC2359F08B
:100AA00090910B38911104C080930B381092143838
:100AB000C0930A3853C010920A38C093EE38809120
:100AC0009038C81710F4C111C82F9091EF389817BB
:100AD00018F4C1118093EF3880911238811139C018
:100AE0008091113881113AC00E94111090911038F4
:100AF000D81709F1992321F08091E13881112EC096
:100B000090FF03C09E7F909310389091EE388091B3
:100B1000EF38981720F420919238222341F089175A
:100B200020F420919138222311F0981317C0C0931C
:100B3000EF388C2F0FC091609093103880918B38D4
:100B400081110CC080919238811108C01092EF3849
:100B500001C080E0DF91CF910C94F213DF91CF912F
:100B6000089510921138E62FEF70EE0F11F460E047
:100B70000AC0E23011F461E006C064FDEF5FF0E00E
:100B8000EB56F74C60810C941A0510921138909135
:100B900090385091943830919338951700F5531749
:100BA000F0F4603450F4591B569FB001112456E004
:100BB000759567955A95E1F71CC0432F451B70E06A
:100BC00060547109469F9001479F300D112446E003
:100BD000359527954A95E1F7652F620F0DC093175C
:100BE00050F4391B369FB0011124660F672F661F22
:100BF000770B690F01C0660F0C941A05CF93C82FAD
:100C000081E0809311380E943413882329F0C23088
:100C100011F0C2E001C0C1E06091E0388C2FCF91AB
:100C20000C941A05809112388823D1F0815080935A
:100C300012388111CCC09091EE388091EF3898171E
:100C400020F420919238222349F0891720F4209132
:100C50009138222319F09813BAC0892F0C94F213FB
:100C600090910B38809114388F5F992389F08436E6
:100C700088F0109214388FEF890F80930B38811110
:100C8000A6C080910A388093EE381092EF3808950C
:100C9000803118F48093143808951092143890918C
:100CA00013389F5F90931338809111388823B1F0E7
:100CB0008091EF382091EE38821738F42091C638B1
:100CC000921708F484C08F5F6CC0281708F07DC0AD
:100CD0002091C638921708F47AC062C00E941110A1
:100CE00090910038891709F442C090911038809192
:100CF000EE3890FF25C09091E138911104C0909199
:100D00009138992351F020911338291760F0909170
:100D1000EF38981740F481E0890F8093EF380E94F4
:100D2000F213109213389091EF388091EE389817A3
:100D300008F44DC0809110388E7F8093103808954C
:100D40009091EF38981740F42091913880911338A2
:100D50008217E8F181E009C08917B8F5209192382F
:100D600080911338821798F18FEF890F1AC0809104
:100D7000EF38882361F1909110389160909310388A
:100D800090918B38911110C090919238911104C0BC
:100D90001092EF3880E017C0209113382917B8F06F
:100DA00081508093EF380FC020911338291778F0C5
:100DB00081508093EF389091EE38981710F490930B
:100DC000EF388091EF380E94F21310921338089593
:100DD00080910F388170089580919738882309F4A5
:100DE00041C00E94111090910038891335C02091A4
:100DF0000D3830910E382F5F3F4F283E93E0390772
:100E000028F420930D3830930E38089510920D3841
:100E100010920E3890910C389F5F90930C3820916F
:100E200097389217F8F090910F3890FF02C09E7F8C
:100E300001C0916090930F38813011F482E003C0BB
:100E4000823019F481E080930038809100380E944C
:100E500097138FEF8093123810920D3810920E383E
:100E600010920C38089590E0805090400C946016D9
:100E70008F3F910509F010F40C94330780E008953A
:100E80009091021091FDFCCF90E0805090400C9426
:100E9000681669E083E40E94400762E184E40E94EE
:100EA00040076BE185E40E94400764E286E40E940B
:100EB00040076EE287E40E94400767E388E40E94EF
:100EC000400760E489E40E94400769E48AE40E94E4
:100ED000400762E58BE40E9440076BE58CE40E94CA
:100EE000400764E68DE40E9440076DE68EE40E94B0
:100EF000400766E78FE40E94400760E880E50E94B3
:100F0000400769E881E50E94400762E982E50E94A6
:100F100040076BE983E50E94400764EA84E50E948C
:100F200040076DEA85E50E94400766EB86E50E9472
:100F300040076FEB87E50E94400768EC88E50E9458
:100F4000400761ED89E50E9440076BED8AE50E944C
:100F5000400764EE8BE50E9440076DEE8CE50E9431
:100F6000400766EF8DE50E9440076FEF8EE50C9419
:100F700040078530A8F440918838811103C0842F40
:100F800080610BC0815021E030E0B90102C0660FE2
:100F9000771F8A95E2F7CB01842B809388380895D8
:100FA000893080F4855021E030E0A90102C0440F6F
:100FB000551F8A95E2F7CA019091B638892B809324
:100FC000B63808958D3080F4895021E030E0B901C1
:100FD00002C0660F771F8A95E2F7CB0190918D389A
:100FE000892B80938D380895853180F48D5021E0D0
:100FF00030E0A90102C0440F551F8A95E2F7CA01EB
:101000009091CA38892B8093CA3808958D3178F42D
:10101000845121E030E0B90102C0660F771F8A9544
:10102000E2F7CB019091C538892B8093C53808959C
:10103000EF92FF920F931F93CF938091021081FD47
:10104000FCCF80E090E00E9460168F3F39F4CF9192
:101050001F910F91FF90EF900C9411090FE818E386
:10106000C0E0CF5F8C2F0E943307F80181938F017E
:10107000C630B9F781E190E00E9460168093C738CE
:1010800082E190E00E9460168093D43883E190E082
:101090000E9460168093D3388BE190E00E94601626
:1010A0008093ED388DE190E00E9460168093B73810
:1010B00009E918E3C3E48C2F0E943307F8018193F8
:1010C0008F01CF5FCF35B9F785EDE82E88E3F82E95
:1010D00002EE18E3C1E28C2F0E943307F7018193DF
:1010E0007F018F710E94B9078FE48C0F0E94330734
:1010F000F80181938F01CF5FCC3269F78CE290E0E9
:101100000E946016C82F8093C4388DE290E00E9440
:10111000601680938C388C2F8F710E94B907809154
:101120008C388F710E94B90782E390E00E946016AC
:1011300080938A3883E890E00E9460168093B538E7
:101140008FE290E00E9460168093963883E390E0EF
:101150000E9460168093C9388F710E94B90784E39A
:1011600090E00E9460168093973885E390E00E949B
:1011700060168093E13886E390E00E9460168093C9
:101180008B3880E390E00E9460168093953887E367
:101190000E9433078093C13888E30E94330780930D
:1011A000C23889E30E9433078093C3388AE890E00D
:1011B0000E9460168093C8388AE390E00E9460160F
:1011C0008093E0388BE390E00E9460168093C638ED
:1011D0000CEC18E3CCE38C2F0E943307F8018193C9
:1011E0008F01CF5FC134B9F78091CF388F710E94E2
:1011F000B9078CE890E00E9460168093D13884E9AA
:1012000090E00E9460168093983884EF90E00E94EE
:10121000601680938E38CF911F910F91FF90EF90C1
:10122000089563E081E00E94400760E082E00E9450
:10123000400760E083E00E94400760E084E00E9495
:1012400040076FEF85E00E9440076FE786E00E944D
:10125000400766E087E00E9440076DE088E00E945A
:10126000400760EC81E10E94400760E082E10E945B
:10127000400760E083E10E94400763E08BE10E9449
:1012800040076EE08DE10E94400764E081E20E9429
:10129000400767E082E20E94400760E483E20E9428
:1012A000400761E884E20E94400761E885E20E940D
:1012B000400760E886E20E94400761E487E20E94FE
:1012C000400761E488E20E94400763E089E20E94EF
:1012D000400760E08AE20E94400760E08BE20E94E3
:1012E00040076EE38CE20E9440076EE38DE20E94AD
:1012F00040076FEF82E30E9440076FE48FE20E9495
:10130000400767E080E30E9440076FEF83E30E949D
:10131000400760E084E30E9440076AE085E30E94A2
:10132000400763E086E30E9440076EE187E30E9486
:1013300040076AE088E30E94400768E289E30E9470
:1013400040076FE78AE30E94400763E08BE30E9457
:10135000400763E88CE30E9440076FE58DE30E943D
:10136000400760EC8EE30E94400767E08FE30E9435
:10137000400761E080E40E94400760E480E70E944B
:10138000400761EF82E70E94400763EF83E70E9416
:10139000400762EF84E70E94400761EF85E70E9403
:1013A000400763EF86E70E94400762EF87E70E94ED
:1013B000400764EF88E70E94400761EF89E70E94D9
:1013C000400762EF8AE70E9440076FE383E80E94CC
:1013D000400764E68AE80E94400760E08CE80E94CB
:1013E000400763E084E90E94400760E084EF0E94C8
:1013F00040070E94490760E080E00E9440070C948B
:1014000018080F931F93CF93DF93EC01162F8F3F94
:10141000910511F008F00EC18F50823058F08FE026
:1014200090E00E946016082F80E190E00E94601614
:10143000081300C1C533D10509F4D6C008F05EC059
:10144000CD31D10509F4B9C040F5C830D10509F452
:101450009FC060F4C130D10508F4E4C0C730D105A5
:1014600008F0E8C0FE01E257F74CC4C0C231D10514
:1014700009F49DC038F4C131D10509F0D3C01093EF
:10148000C738D0C0C331D10509F494C0CB31D105E0
:1014900009F0C8C01093ED38C5C0CF32D10509F4AA
:1014A0009DC0A8F4CC32D10509F48EC048F4C132F5
:1014B000D10508F4B7C0FE01EC54F74C108386C088
:1014C000CD32D10509F0AEC010938C387FC0C23345
:1014D000D10509F480C038F4C033D10509F0A2C0A9
:1014E000109395389FC0C333D10509F47AC0C43333
:1014F000D10509F097C01093973894C0C034D10536
:1015000009F47DC0B8F4CA33D10509F475C038F4C4
:10151000C633D10509F06BC010938B3883C0CF332D
:10152000D10508F070C0CC33D10508F068C0109325
:10153000C63878C0C338D10509F46CC090F4C33400
:10154000D10508F46FC0CF35D10508F45FC0CE01D6
:10155000805791090B9708F065C0FE01EE58F74CD3
:1015600049C0CC38D10509F458C038F4CA38D1057F
:1015700009F058C01093C83855C0C439D10509F4D2
:101580004FC0C43FD10509F04DC010938E384AC0FA
:101590001D3019F0183009F04DC06FEF80E00E9447
:1015A0004007DF91CF911F910F910C941109109377
:1015B000D43838C01093D33835C08091D03880FDEE
:1015C00018601093B7382EC01093C438812F8F71D4
:1015D0000E94B90727C010938A3824C01093963808
:1015E00021C01093C9381EC01093E1381BC0FE0102
:1015F000E657F74C108316C01093E03813C0FE0175
:10160000E057F74CF7CF1093CF38E0CFFE01EA5AFE
:10161000F74CF0CF1093B53805C01093D13802C005
:1016200010939838612F8C2FDF91CF911F910F91DC
:101630000C944007DF91CF911F910F910895FF9275
:101640000F931F93CF93DF938C01F62E862F877015
:10165000C1E0D0E001C0CC0F8A95EAF7C8010E9432
:101660003807F3FE03C06C2F682B03C0C0956C2FA6
:101670006823C801DF91CF911F910F91FF900C94C7
:10168000010A81E080931638809317380E943E1338
:1016900081E00C94B81385E08093163881E0809344
:1016A00017380E943E1381E00C94B813109216383C
:1016B0001092173882E00E943E1382E00C94B81317
:1016C0001092F1380895CF93FB0120818091F33877
:1016D00028135DC0C1818091F438C81358C092812D
:1016E0008091F538981353C022FD1CC080911538A5
:1016F00090E00197880F991F880F991F322F337040
:10170000830F911D019623FF06C06C2F0E94010AD2
:101710008091F1382CC00E943807C81342C08091D4
:10172000F1382FC0822F8770853081F028F4843003
:10173000C1F58DE190E012C0863029F0873089F53F
:1017400088E090E00BC087E090E008C08091F1381D
:1017500080FD27C0C0931538816014C023FF09C0E5
:101760006C2F0E94010A8091F13882FD1AC08460BA
:1017700009C00E943807C81314C08091F13881FD58
:1017800010C082608093F138CF910C94410B20936C
:10179000F33881818093F43882818093F5381092F8
:1017A0001738CF9108950F931F93CF93DF93FB01C9
:1017B00080819091F33889136BC001819091F43846
:1017C000091366C0C2819091F538C91361C02381A5
:1017D0009091F63829135CC09091173891116BC025
:1017E000982F937010E0090F111D0F5F1F4F8C7021
:1017F000883039F08C3009F441C0843009F05BC086
:1018000037C08C2F807E803E09F055C08C2F8770AA
:10181000C1E0D0E002C0CC0FDD1F8A95E2F7C8011D
:101820000E9438072091F538922F987024FF12C03B
:10183000992319F06C2F682B04C09C2F9095692F69
:101840006823C8010E94010ADF91CF911F910F9177
:101850000C944B0B992319F0C82369F1F5CF682F2D
:1018600070E060957095C623D723CD2B21F1ECCF86
:10187000C8010E943807C8131EC004C06C2FC801DD
:101880000E94010ADF91CF911F910F910C94410B9F
:101890008093F33881818093F43882818093F53886
:1018A00083818093F63810921738DF91CF911F9182
:1018B0000F910C94560BDF91CF911F910F910895CA
:1018C00080911638882389F08F5F8D3018F48093CB
:1018D000163808951092163881E08093173882E008
:1018E0000E943E1382E00C94B813089580911B3837
:1018F000882329F0815080931B380C94600C089544
:10190000EF92FF921F93CF93DF93FB01908183307F
:10191000E9F4911110C02181211118C022812111F7
:1019200015C08EE180931B38DF91CF911F91FF90FE
:10193000EF900C94600B9F3F49F42181211106C068
:1019400022812F3F19F410921B3836C13091D338C1
:10195000332341F097FD06C09181907E903E11F0B7
:1019600030931A3830911A389081332339F0992303
:1019700009F422C19F7793131FC11FC097FD09C0AF
:101980002091B73825FD05C020918F38921314C1DE
:1019900014C0292F207C203C09F00EC12091B738BB
:1019A00025FF0AC12091C738921306C12181909169
:1019B000D438291301C122E001C021E030E0EF0159
:1019C000C20FD31F6881962F907E903809F47DC096
:1019D00050F4AF01903409F44AC0903609F447C07E
:1019E000903259F0E9C0903C09F48FC0903E09F460
:1019F0009BC0903A09F0E0C073C090E0F9013396C3
:101A00008E179F0709F0D8C06F716F3109F0D4C0ED
:101A10002F5F3F4FFA01E20FF31FC081CF778FEFA7
:101A20008093023890818091B73897FF04C080FF7F
:101A300004C082E003C080FFFCCF81E080931938AE
:101A40000E94E806882349F080911938813011F40A
:101A500082E001C081E0809319386C2F80911938A1
:101A6000DF91CF911F91FF90EF900C94C50590E00E
:101A70002E5F3F4F8217930709F09EC08FEF809330
:101A800001388091B73865FF04C080FF04C082E050
:101A900003C080FFFCCF81E0809319380E94E806E4
:101AA000882349F080911938813011F482E001C017
:101AB00081E080931938688180911938DF91CF9146
:101AC0001F91FF90EF900C94B10590E02E5F3F4F77
:101AD0008217930709F070C04091193881E00CC05B
:101AE00090E02E5F3F4F8217930709F065C0409149
:101AF000193864FF08C082E0DF91CF911F91FF90F9
:101B0000EF900C94520283E0F7CF6E3D29F44091A0
:101B10001938698184E0F0CF6F3D09F04DC04091E4
:101B20001938698185E0E8CFEBEFF8E37E018EEFAD
:101B300098E39E012F5F3F4FAE014E5F5F4F61E024
:101B40001191D7017D917D01171769F0788170930C
:101B5000FB38D9017C917093FC38DA017C91709349
:101B6000FD38609318388E179F0751F71092183878
:101B7000988193FF21C0892F8370298192FF0EC025
:101B800090E0982F8827820F911D6A810196DF913E
:101B9000CF911F91FF90EF900C94010A90E0982F45
:101BA0008827820F911D6A810196DF91CF911F9145
:101BB000FF90EF900C941F0BDF91CF911F91FF903E
:101BC000EF900895823069F190911B38992339F193
:101BD000FB0190819077903711F59EE190931B382F
:101BE000833019F08430C1F00895FB0180818111A8
:101BF00007C0818181110DC0828181110AC00895C1
:101C00008F3F39F4FB018181811103C082818F3FB5
:101C100041F083E00C94630B84E00C94D30B0C94A0
:101C2000800C089580911938089581E090911B38B7
:101C3000911101C080E00895803430F4E82FF0E085
:101C4000EC55FF4F8491089580E00895CF93DF9382
:101C5000C62F880F880F962F92959695969593701C
:101C6000890F0E941C0ED82F8C2F8F730E941C0E80
:101C7000C82F8D2F0E941C168C2FDF91CF910C94B2
:101C80001C16CF93C0918E38C13079F40E9428146D
:101C90009695879520911C38211132C0692F81E0DB
:101CA0000E94260EC0931C3852C0C23019F40E9404
:101CB0004B150FC0C33049F480911C38811102C00C
:101CC00060E037C00E9417051BC0C43041F40E9479
:101CD000171420911C38211113C0692F2AC0C53058
:101CE00039F480911C38882359F30E945F0F08C093
:101CF000C63041F480911C38882311F30E94620F92
:101D0000682F20C09091B73893FF21C08091D338BD
:101D100081111DC080911C3895FD05C0882381F27A
:101D200060918F380FC081110BC06091C7386F73FD
:101D3000605881E00E94260E81E080931C3807C025
:101D40006091D43882E00E94260E10921C38CF9108
:101D50000895CF93DF93CDB7DEB7E197CDBFDEBF58
:101D60000E9491100E949C150E9466130E94F0121E
:101D70000E943C120E9409160E944B0F0E941808F4
:101D80000E94A010789410E000E00E94A510BE010F
:101D90006F5F7F4FCE01C1960E944C1289A98823A4
:101DA00031F0BE016F5F7F4F0E94E20D19AA0E94C1
:101DB000150E882339F00E94BE15882331F30E9446
:101DC000760CE3CF0E94FA118150823020F40E94F9
:101DD000AD0F0E94DF0F0E94C915882321F00E94D9
:101DE000C4140E9491000E94BE15882379F011113D
:101DF00001C011E00F5F053019F40E94161409C0EC
:101E00000A3039F40E941C1400E003C0112309F4C5
:101E1000BCCF812F90E0FC013197EF30F105A8F5A0
:101E2000E45CFF4F0C945A160E9424120E94561034
:101E30002CC00E94EC0629C00E94120626C0F11098
:101E400023C00E94D70006C0FF20F9F08BEF810F5E
:101E50000E947E03FF24F39418C00E94760C15C0E4
:101E60008091B73882FF11C00E943212882369F036
:101E70000E948E100E94FE050E948E100E94F400A7
:101E800004C00E941A1001C0F12C1F5F103108F429
:101E90007CCF10E07ACFA0E0B4E080E212968C9381
:101EA0001297E0E4F4E084E0828355968C91559794
:101EB000886055968C9382898860828B0895809182
:101EC0002438089580912338089590912238E92F7D
:101ED000F0E0E250F74C80839F5F943018F49093C9
:101EE000223802C0109222382091FE388091FF38AB
:101EF00090E0820F911D20910039820F911D209159
:101F00000139820F911D24E0969587952A95E1F776
:101F1000089590912138E92FF0E0EE5FF64C808330
:101F20009F5F943018F49093213802C010922138AA
:101F3000209102398091033990E0820F911D209108
:101F40000439820F911D20910539820F911D24E0E3
:101F5000969587952A95E1F708958091080485FF65
:101F600006C080912A388F5F80932A3805C08091FF
:101F700029388F5F80932938809126388F5F80932E
:101F800026388A3FD8F0809129380E94650F8093C7
:101F90002438109226382091ED389091203820FF77
:101FA00006C020919538821710F4916001C09E7F81
:101FB0009093203810922A381092293808958091F1
:101FC000480482FF06C0809128388F5F80932838AC
:101FD00005C0809127388F5F8093273880912538FE
:101FE0008F5F809325388A3FD8F0809127380E94F0
:101FF000890F80932338109225382091ED389091E5
:10200000203821FF06C020919538821710F4926085
:1020100001C09D7F90932038109228381092273865
:1020200008950E945304811103C080911F380895C0
:1020300080E0089580911F389091203880FF11C072
:1020400090FD14C020911D382F5F20931D383091D2
:102050009838321768F410921D388E7F80931F389D
:1020600007C090FF03C0816080931F3810921D3815
:1020700080911F3881FF11C091FD14C090911E38CE
:102080009F5F90931E3820919838291770F4109212
:102090001E388D7F80931F38089591FF03C08260A2
:1020A00080931F3810921E38089508959091080467
:1020B00080912C3892FF11C09091080494FD1DC0AE
:1020C00090912B38992319F0915090932B388E31A1
:1020D000A0F48E5F80932C3810C09091080494FF78
:1020E0000CC0882319F0815080932C3880912B38B4
:1020F0008E3118F48E5F80932B3880912C3880318C
:1021000010F081E005C080912B38803120F082E012
:1021100080932D38089510922D38089580912D3890
:10212000089561E081E690E00E94871664E080E80F
:1021300090E00E94871660E081E890E00C9487169A
:1021400066E080E091E00C948716A89508951F92B0
:102150000F920FB60F9211242F933F934F935F93DB
:102160006F937F938F939F93AF93BF93EF93FF935F
:1021700080910B0A806480930B0A809158388130DB
:1021800051F40E94410E82E08093583880910A0AEF
:102190008F7B80930A0AFF91EF91BF91AF919F913E
:1021A0008F917F916F915F914F913F912F910F9000
:1021B0000FBE0F901F90189580915438909108048D
:1021C000982792FF0BC09091080492FF02C0846090
:1021D00001C08B7F8093543881E001C080E09091F2
:1021E000543820910804292724FF0AC082602091D6
:1021F000080424FF02C0906101C09F7E9093543870
:10220000089580FF60C02091543890915F3822FF7C
:1022100048C090FD43C0916090935F3840918A0A16
:1022200050918B0A20915D3830915E382417350724
:1022300048F420918A0A30918B0A40915D38509180
:102240005E3809C020918A0A30918B0A40915D382E
:1022500050915E383053241B350B20935B383093FC
:102260005C389091553891609093553820918A0A46
:1022700030918B0A29333F4C38F020918A0A3091F3
:102280008B0A28533F4C06C020918A0A30918B0A52
:1022900028533F4F2093063930930739109258380E
:1022A00012C090FF10C09E7F90935F3820918A0AE1
:1022B00030918B0A20935D3830935E389091553879
:1022C0009E7F909355388370A9F1909154388091F6
:1022D0005F3894FF25C081FD20C0826080935F3805
:1022E0008091553882608093553880918A0A909108
:1022F0008B0A89339F4C38F080918A0A90918B0A1F
:1023000088539F4C06C080918A0A90918B0A88530B
:102310009F4F80932A3990932B3910925838089503
:1023200081FF08C08D7F80935F38809155388D7F05
:102330008093553808951F920F920FB60F92112473
:102340002F933F934F935F936F937F938F939F93BD
:10235000AF93BF93EF93FF938091090484618093BF
:1023600009040E94DC100E9401118091B73883FF9C
:1023700030C08091080482FD25C08091080484FD4E
:1023800021C080915838811124C081E08093583851
:102390008091200A9091210AC79738F48091200AF1
:1023A0009091210A88539F4F05C08091200A9091F7
:1023B000210AC79780932C0A90932D0A80910A0ACC
:1023C000806405C01092583880910A0A8F7B8093F0
:1023D0000A0AFF91EF91BF91AF919F918F917F91E9
:1023E0006F915F914F913F912F910F900FBE0F9082
:1023F0001F9018959091553890FF10C040918A0A0F
:1024000050918B0A209106393091073924173507EE
:1024100028F49E7F9093553881E00895892F82702B
:1024200091FF11C040918A0A50918B0A20912A395C
:1024300030912B392417350728F49D7F9093553818
:1024400082E0089580E00895809156389091573841
:10245000803223E0920728F40196809356389093B7
:102460005738089581E020915638309157382032FE
:10247000334008F480E00895E0E0F4E084E18283F2
:1024800081E0828B848BE0E8FAE083E080838FEF49
:102490009FEC848795870895CF93DF93FC0110828A
:1024A000F89480915B3890915C38892B41F480914D
:1024B000593890915A38892B11F478948EC08091B4
:1024C0005B3890915C3810925B3810925C381092B7
:1024D000593810925A3878949C012D5D31092A3967
:1024E000310538F08A5A9140863A914C20F092E0BA
:1024F00003C091E001C090E0109256381092573816
:10250000923069F410925338109252381092513828
:102510001092503810924F3810924E385EC0809111
:10252000533881111BC080915238992339F0803281
:1025300008F053C08F5F809352384FC08A3058F0F4
:1025400081E0809353381092513810925038109295
:102550004F3810924E38109252383FC08091513807
:10256000883050F420914F38220F922B90934F389F
:102570008F5F8093513831C040915038403210F60F
:1025800020914F38A42FB0E0A25DB74C2C938091DE
:102590004E38822780934E384F5F409350389111C8
:1025A00005C010924F381092513817C08111AACF30
:1025B000433008F4A7CF10822081241708F0A2CF5F
:1025C00030E0DB01A20FB31FE901C25DD74C888167
:1025D0008C9380818F5F8083EFCFDF91CF910895BF
:1025E000E0E0F4E0818188688183E0E2F4E08181C9
:1025F00088638183A0E4B4E011968C911197836085
:1026000011968C9381818D7F818388E0818B0895E1
:1026100090E08730910538F5FC01E55BFF4F0C94A5
:102620005A1688E003C082E00EC080E8662319F0E5
:1026300080930504089580930604089588E00CC0F3
:1026400080E20AC081E0662319F080934504089572
:1026500080934604089580E1662319F08093250451
:1026600008958093260408958091280486958170AA
:1026700091E089270895809160380895CF93813043
:1026800019F48093603802C010926038C0E0609105
:1026900060388C2F0E940813CF5FC730C1F7CF91ED
:1026A00008951F920F920FB60F9211248F93EF93FC
:1026B000FF93E0E0FAE0838581608387FF91EF91EB
:1026C0008F910F900FBE0F901F901895E0E0F4E0EF
:1026D00082E0828320E4218381E080932104A0E4CE
:1026E000B4E098E011969C931197268316969C93DC
:1026F000A0E0BAE08C9393E111969C9311972FEF91
:1027000030E096962D933C93979798961D921C9245
:102710009997958190649583E0E0F6E080839BE053
:10272000918397E092831382818712860895909116
:10273000723891111CC09091DF389130C1F0813016
:1027400039F488E08093460480E48093050408957A
:10275000823039F480E48093060488E08093450455
:10276000089580E48093060488E0809346040895E9
:10277000813071F493E09093010A98E090934604BD
:1027800090E4909305048093250480937238089513
:1027900088E08093460480E48093060481E080937F
:1027A000260483E18093010A1092723808956091A3
:1027B000CE3890916C38961798F42091CD3830E04F
:1027C0004FEF50E0421B530B949FF001959FF00D8B
:1027D000112470E0CF010E944616862F820F0895C3
:1027E0008FEF0895CF939091DF38913019F4809353
:1027F0006C3817C090916C38891799F0C82F809366
:102800006E3880936C380E94D713682F80936F388E
:102810002FEFC29FC001112470E00E943216609316
:102820006B38CF91089580916C3808950895809108
:1028300065389091663808958091CC3887FF07C03D
:1028400080916A38811103C081E080936A380895CD
:10285000809167389091683808958F929F92AF92D7
:10286000BF92CF92DF92EF92FF920F931F93CF937D
:10287000DF9320916E38211103C010926D3877C01C
:10288000A090C138B12CC090C238D12CE090C33890
:10289000F12C40916738509168383FEF349FC00168
:1028A000359F900D11246091C83870E00E94321657
:1028B00030E0CB016F3F710519F014F08FEF90E01D
:1028C0008901081B190BEAE0F0E0C801BF010E9472
:1028D00046168091633890916438EB01C80FD91F78
:1028E000C0936338D0936438809161389091623896
:1028F000A801481B590BCA0164E670E00E94461605
:102900004B010093613810936238A09EC001A19ED4
:10291000900DB09E900D1124BF010E9446168B01B0
:10292000CC9EC001CD9E900DDC9E900D1124BF0168
:102930000E944616E801C60FD71FE89CC001E99C1B
:10294000900DF89C900D1124BF010E9446166C0F4B
:102950007D1F620F731F6F3F710529F024F08FEF09
:1029600080936D3804C077FD88CF60936D38DF9118
:10297000CF911F910F91FF90EF90DF90CF90BF907C
:10298000AF909F908F9008958091DF38813009F447
:1029900081C08091723881117DC080916A3888230E
:1029A000E9F1843600F5813059F48091280A90913C
:1029B000290A809369381092280A1092290A0DC0BA
:1029C0008A3059F481E080930C0680910A06816078
:1029D00080930A0684E680936A3880916A388F5F14
:1029E00080936A380895853609F054C080910A06AC
:1029F000877009F04FC0809114069091150680935E
:102A000067389093683810926A388091693890E0FE
:102A10008093280A9093290A0C942D149091CC3815
:102A2000892F8F7729F497FD2BC080916C382DC0AA
:102A3000833051F480917138109271388F3F09F4CE
:102A400008958091703806C08091703891FF02C05F
:102A50008E5F01C08F5F8093703820916F388091B6
:102A60007038281758F41092280A1092290A8EEF0D
:102A700090E08093200A9093210A089597FF03C065
:102A800080916D3802C080916B3890E08093280A65
:102A90009093290A089580916D3890E0089590915F
:102AA000DF38913001F593E09093010A613039F4F9
:102AB00098E09093460490E4909305040BC090E452
:102AC0009093060498E0623019F49093450402C094
:102AD00090934604882321F081E080932504089593
:102AE00081E08093260408951F920F920FB60F92F3
:102AF00011248F938091733881608093733881E0C3
:102B0000809353018F910F900FBE0F901F901895D7
:102B10001F920F920FB60F9211248F9383E0809330
:102B20004301809173388260809373388F910F9046
:102B30000FBE0F901F901895809141018111FCCF1D
:102B400010924C0110924D0181E090E080934A0177
:102B500090934B011092470181E88093400180914E
:102B6000520181608093520181E2809350018091F3
:102B70004201836080934201789408959091733864
:102B8000892F817090FF04C09E7F9093733881E0FD
:102B9000089590917338892F827091FF04C09D7FB2
:102BA0009093733881E008951F920F920FB60F92A1
:102BB00011248F939F93EF93FF9380910408806279
:102BC00080930408F89480917538E82FF0E0EF5A6C
:102BD000F64C9081909302088F5F803318F48093B5
:102BE000753802C01092753890917538809174389C
:102BF000981305C0809105088F7D8093050878940F
:102C0000FF91EF919F918F910F900FBE0F901F90AA
:102C10001895E0E2F4E0818184608183858184609D
:102C20008583E0E0F8E080EA90E08087918780E4A7
:102C3000868383E08783089590917438E92FF0E0CC
:102C4000EF5AF64C80839F5F903318F4909374385A
:102C500002C0109274388091050880628093050844
:102C600078940895AA1BBB1B51E107C0AA1FBB1F84
:102C7000A617B70710F0A61BB70B881F991F5A9508
:102C8000A9F780959095BC01CD01089597FB072E7B
:102C900016F4009407D077FD09D00E94321607FC85
:102CA00005D03EF4909581959F4F0895709561955C
:102CB0007F4F0895EE0FFF1F0590F491E02D0994CA
:102CC00003D0808199270895FC01E050FC4E0895BF
:102CD000262F0E9464160080021619F00E947416B6
:102CE000019701970895262FAF93BF93E0E0F0E19D
:102CF000328131FDFDCFDC01A050BC4E2C932DE97B
:102D000024BF23E020830196BF91AF910895DC0199
:0E2D100028ED209334006C930895F894FFCFC3
:042D1E00FFFFFF00B4
:00000001FF
